{
  "contractName": "SharedWalletStorage",
  "abi": [
    {
      "inputs": [],
      "name": "userWallets",
      "outputs": [
        {
          "internalType": "address[]",
          "name": "",
          "type": "address[]"
        }
      ],
      "stateMutability": "view",
      "type": "function"
    },
    {
      "inputs": [],
      "name": "getInvitationsWallets",
      "outputs": [
        {
          "internalType": "address[]",
          "name": "",
          "type": "address[]"
        }
      ],
      "stateMutability": "view",
      "type": "function"
    },
    {
      "inputs": [],
      "name": "getInvitationsRequestsIDs",
      "outputs": [
        {
          "internalType": "uint256[]",
          "name": "",
          "type": "uint256[]"
        }
      ],
      "stateMutability": "view",
      "type": "function"
    },
    {
      "inputs": [
        {
          "internalType": "address",
          "name": "_user",
          "type": "address"
        },
        {
          "internalType": "uint256",
          "name": "_requestId",
          "type": "uint256"
        }
      ],
      "name": "sendUserInvitation",
      "outputs": [],
      "stateMutability": "nonpayable",
      "type": "function"
    },
    {
      "inputs": [
        {
          "internalType": "address",
          "name": "_user",
          "type": "address"
        }
      ],
      "name": "removeUserInvitation",
      "outputs": [],
      "stateMutability": "nonpayable",
      "type": "function"
    },
    {
      "inputs": [
        {
          "internalType": "address",
          "name": "_newWallet",
          "type": "address"
        },
        {
          "internalType": "address",
          "name": "_user",
          "type": "address"
        }
      ],
      "name": "addWalletToUser",
      "outputs": [],
      "stateMutability": "nonpayable",
      "type": "function"
    },
    {
      "inputs": [
        {
          "internalType": "address",
          "name": "_oldWallet",
          "type": "address"
        },
        {
          "internalType": "address",
          "name": "_user",
          "type": "address"
        }
      ],
      "name": "removeWalletForUser",
      "outputs": [],
      "stateMutability": "nonpayable",
      "type": "function"
    }
  ],
  "bytecode": "0x608060405234801561001057600080fd5b506114f3806100206000396000f3fe608060405234801561001057600080fd5b506004361061009a576000357c010000000000000000000000000000000000000000000000000000000090048063a7f40e9711610078578063a7f40e97146100f7578063abfa796914610115578063ad4600ee14610131578063d8a3bc561461014d5761009a565b806351efa3f41461009f5780638b1df160146100bb5780639d9820f9146100d9575b600080fd5b6100b960048036038101906100b49190610faf565b610169565b005b6100c36102e1565b6040516100d091906110b7565b60405180910390f35b6100e161045c565b6040516100ee9190611197565b60405180910390f35b6100ff610625565b60405161010c9190611197565b60405180910390f35b61012f600480360381019061012a9190610faf565b6106ef565b005b61014b600480360381019061014691906111b9565b610a8b565b005b61016760048036038101906101629190611212565b610dc2565b005b8173ffffffffffffffffffffffffffffffffffffffff1663a230c524826040518263ffffffff167c01000000000000000000000000000000000000000000000000000000000281526004016101be9190611261565b602060405180830381865afa1580156101db573d6000803e3d6000fd5b505050506040513d601f19601f820116820180604052508101906101ff91906112b4565b61023e576040517f08c379a000000000000000000000000000000000000000000000000000000000815260040161023590611364565b60405180910390fd5b6000808273ffffffffffffffffffffffffffffffffffffffff1673ffffffffffffffffffffffffffffffffffffffff168152602001908152602001600020829080600181540180825580915050600190039060005260206000200160009091909190916101000a81548173ffffffffffffffffffffffffffffffffffffffff021916908373ffffffffffffffffffffffffffffffffffffffff1602179055505050565b60606000600160003373ffffffffffffffffffffffffffffffffffffffff1673ffffffffffffffffffffffffffffffffffffffff1681526020019081526020016000208054905067ffffffffffffffff81111561034157610340611384565b5b60405190808252806020026020018201604052801561036f5781602001602082028036833780820191505090505b50905060005b600160003373ffffffffffffffffffffffffffffffffffffffff1673ffffffffffffffffffffffffffffffffffffffff1681526020019081526020016000208054905081101561045457600160003373ffffffffffffffffffffffffffffffffffffffff1673ffffffffffffffffffffffffffffffffffffffff16815260200190815260200160002081815481106104105761040f6113b3565b5b906000526020600020906002020160010154828281518110610435576104346113b3565b5b602002602001018181525050808061044c90611411565b915050610375565b508091505090565b60606000600160003373ffffffffffffffffffffffffffffffffffffffff1673ffffffffffffffffffffffffffffffffffffffff1681526020019081526020016000208054905067ffffffffffffffff8111156104bc576104bb611384565b5b6040519080825280602002602001820160405280156104ea5781602001602082028036833780820191505090505b50905060005b600160003373ffffffffffffffffffffffffffffffffffffffff1673ffffffffffffffffffffffffffffffffffffffff1681526020019081526020016000208054905081101561061d57600160003373ffffffffffffffffffffffffffffffffffffffff1673ffffffffffffffffffffffffffffffffffffffff168152602001908152602001600020818154811061058b5761058a6113b3565b5b906000526020600020906002020160000160009054906101000a900473ffffffffffffffffffffffffffffffffffffffff168282815181106105d0576105cf6113b3565b5b602002602001019073ffffffffffffffffffffffffffffffffffffffff16908173ffffffffffffffffffffffffffffffffffffffff1681525050808061061590611411565b9150506104f0565b508091505090565b60606000803373ffffffffffffffffffffffffffffffffffffffff1673ffffffffffffffffffffffffffffffffffffffff1681526020019081526020016000208054806020026020016040519081016040528092919081815260200182805480156106e557602002820191906000526020600020905b8160009054906101000a900473ffffffffffffffffffffffffffffffffffffffff1673ffffffffffffffffffffffffffffffffffffffff168152602001906001019080831161069b575b5050505050905090565b8173ffffffffffffffffffffffffffffffffffffffff1663a230c524826040518263ffffffff167c01000000000000000000000000000000000000000000000000000000000281526004016107449190611261565b602060405180830381865afa158015610761573d6000803e3d6000fd5b505050506040513d601f19601f8201168201806040525081019061078591906112b4565b1561078f57600080fd5b60005b6000808373ffffffffffffffffffffffffffffffffffffffff1673ffffffffffffffffffffffffffffffffffffffff16815260200190815260200160002080549050811015610a85578273ffffffffffffffffffffffffffffffffffffffff166000808473ffffffffffffffffffffffffffffffffffffffff1673ffffffffffffffffffffffffffffffffffffffff1681526020019081526020016000208281548110610842576108416113b3565b5b9060005260206000200160009054906101000a900473ffffffffffffffffffffffffffffffffffffffff1673ffffffffffffffffffffffffffffffffffffffff161415610a72576000808373ffffffffffffffffffffffffffffffffffffffff1673ffffffffffffffffffffffffffffffffffffffff16815260200190815260200160002060016000808573ffffffffffffffffffffffffffffffffffffffff1673ffffffffffffffffffffffffffffffffffffffff16815260200190815260200160002080549050610915919061145a565b81548110610926576109256113b3565b5b9060005260206000200160009054906101000a900473ffffffffffffffffffffffffffffffffffffffff166000808473ffffffffffffffffffffffffffffffffffffffff1673ffffffffffffffffffffffffffffffffffffffff16815260200190815260200160002082815481106109a1576109a06113b3565b5b9060005260206000200160006101000a81548173ffffffffffffffffffffffffffffffffffffffff021916908373ffffffffffffffffffffffffffffffffffffffff1602179055506000808373ffffffffffffffffffffffffffffffffffffffff1673ffffffffffffffffffffffffffffffffffffffff168152602001908152602001600020805480610a3757610a3661148e565b5b6001900381819060005260206000200160006101000a81549073ffffffffffffffffffffffffffffffffffffffff0219169055905550610a87565b8080610a7d90611411565b915050610792565b505b5050565b60005b600160008373ffffffffffffffffffffffffffffffffffffffff1673ffffffffffffffffffffffffffffffffffffffff16815260200190815260200160002080549050811015610dbd573373ffffffffffffffffffffffffffffffffffffffff16600160008473ffffffffffffffffffffffffffffffffffffffff1673ffffffffffffffffffffffffffffffffffffffff1681526020019081526020016000208281548110610b4057610b3f6113b3565b5b906000526020600020906002020160000160009054906101000a900473ffffffffffffffffffffffffffffffffffffffff1673ffffffffffffffffffffffffffffffffffffffff161415610daa57600160008373ffffffffffffffffffffffffffffffffffffffff1673ffffffffffffffffffffffffffffffffffffffff16815260200190815260200160002060018060008573ffffffffffffffffffffffffffffffffffffffff1673ffffffffffffffffffffffffffffffffffffffff16815260200190815260200160002080549050610c1b919061145a565b81548110610c2c57610c2b6113b3565b5b9060005260206000209060020201600160008473ffffffffffffffffffffffffffffffffffffffff1673ffffffffffffffffffffffffffffffffffffffff1681526020019081526020016000208281548110610c8b57610c8a6113b3565b5b90600052602060002090600202016000820160009054906101000a900473ffffffffffffffffffffffffffffffffffffffff168160000160006101000a81548173ffffffffffffffffffffffffffffffffffffffff021916908373ffffffffffffffffffffffffffffffffffffffff16021790555060018201548160010155905050600160008373ffffffffffffffffffffffffffffffffffffffff1673ffffffffffffffffffffffffffffffffffffffff168152602001908152602001600020805480610d5c57610d5b61148e565b5b6001900381819060005260206000209060020201600080820160006101000a81549073ffffffffffffffffffffffffffffffffffffffff021916905560018201600090555050905550610dbf565b8080610db590611411565b915050610a8e565b505b50565b3373ffffffffffffffffffffffffffffffffffffffff1663a230c524836040518263ffffffff167c0100000000000000000000000000000000000000000000000000000000028152600401610e179190611261565b602060405180830381865afa158015610e34573d6000803e3d6000fd5b505050506040513d601f19601f82011682018060405250810190610e5891906112b4565b15610e6257600080fd5b600160008373ffffffffffffffffffffffffffffffffffffffff1673ffffffffffffffffffffffffffffffffffffffff16815260200190815260200160002060405180604001604052803373ffffffffffffffffffffffffffffffffffffffff16815260200183815250908060018154018082558091505060019003906000526020600020906002020160009091909190915060008201518160000160006101000a81548173ffffffffffffffffffffffffffffffffffffffff021916908373ffffffffffffffffffffffffffffffffffffffff1602179055506020820151816001015550505050565b600080fd5b600073ffffffffffffffffffffffffffffffffffffffff82169050919050565b6000610f7c82610f51565b9050919050565b610f8c81610f71565b8114610f9757600080fd5b50565b600081359050610fa981610f83565b92915050565b60008060408385031215610fc657610fc5610f4c565b5b6000610fd485828601610f9a565b9250506020610fe585828601610f9a565b9150509250929050565b600081519050919050565b600082825260208201905092915050565b6000819050602082019050919050565b6000819050919050565b61102e8161101b565b82525050565b60006110408383611025565b60208301905092915050565b6000602082019050919050565b600061106482610fef565b61106e8185610ffa565b93506110798361100b565b8060005b838110156110aa5781516110918882611034565b975061109c8361104c565b92505060018101905061107d565b5085935050505092915050565b600060208201905081810360008301526110d18184611059565b905092915050565b600081519050919050565b600082825260208201905092915050565b6000819050602082019050919050565b61110e81610f71565b82525050565b60006111208383611105565b60208301905092915050565b6000602082019050919050565b6000611144826110d9565b61114e81856110e4565b9350611159836110f5565b8060005b8381101561118a5781516111718882611114565b975061117c8361112c565b92505060018101905061115d565b5085935050505092915050565b600060208201905081810360008301526111b18184611139565b905092915050565b6000602082840312156111cf576111ce610f4c565b5b60006111dd84828501610f9a565b91505092915050565b6111ef8161101b565b81146111fa57600080fd5b50565b60008135905061120c816111e6565b92915050565b6000806040838503121561122957611228610f4c565b5b600061123785828601610f9a565b9250506020611248858286016111fd565b9150509250929050565b61125b81610f71565b82525050565b60006020820190506112766000830184611252565b92915050565b60008115159050919050565b6112918161127c565b811461129c57600080fd5b50565b6000815190506112ae81611288565b92915050565b6000602082840312156112ca576112c9610f4c565b5b60006112d88482850161129f565b91505092915050565b600082825260208201905092915050565b7f55736572206973206e6f742061206d656d626572206f6620746869732077616c60008201527f6c65742100000000000000000000000000000000000000000000000000000000602082015250565b600061134e6024836112e1565b9150611359826112f2565b604082019050919050565b6000602082019050818103600083015261137d81611341565b9050919050565b7f4e487b7100000000000000000000000000000000000000000000000000000000600052604160045260246000fd5b7f4e487b7100000000000000000000000000000000000000000000000000000000600052603260045260246000fd5b7f4e487b7100000000000000000000000000000000000000000000000000000000600052601160045260246000fd5b600061141c8261101b565b91507fffffffffffffffffffffffffffffffffffffffffffffffffffffffffffffffff82141561144f5761144e6113e2565b5b600182019050919050565b60006114658261101b565b91506114708361101b565b925082821015611483576114826113e2565b5b828203905092915050565b7f4e487b7100000000000000000000000000000000000000000000000000000000600052603160045260246000fdfea264697066735822122067ea964700e9e340c217aa507705b3b76920eaf58e8c7d778605c1da1b54f5b864736f6c634300080c0033",
  "immutableReferences": {},
  "source": "//SPDX-License-Identifier: MIT\r\npragma solidity ^0.8.0;\r\n\r\nimport \"./SharedWallet.sol\";\r\n\r\ncontract SharedWalletStorage {\r\n    struct Invitation {\r\n        address wallet;\r\n        uint256 requestId;\r\n    }\r\n\r\n    mapping(address => address[]) private _usersWallets;\r\n    mapping(address => Invitation[]) private _invitations;\r\n\r\n    function userWallets() public view returns (address[] memory) {\r\n        return _usersWallets[msg.sender];\r\n    }\r\n\r\n    function getInvitationsWallets() public view returns (address[] memory) {\r\n        address[] memory _wallets = new address[](_invitations[msg.sender].length);\r\n        for (uint256 i = 0; i < _invitations[msg.sender].length; i++)\r\n            _wallets[i] = _invitations[msg.sender][i].wallet;\r\n        return _wallets;\r\n    }\r\n\r\n    function getInvitationsRequestsIDs()\r\n        public\r\n        view\r\n        returns (uint256[] memory)\r\n    {\r\n        uint256[] memory _requestsIDs = new uint256[](_invitations[msg.sender].length);\r\n        for (uint256 i = 0; i < _invitations[msg.sender].length; i++)\r\n            _requestsIDs[i] = _invitations[msg.sender][i].requestId;\r\n        return _requestsIDs;\r\n    }\r\n\r\n    function sendUserInvitation(address _user, uint256 _requestId) external {\r\n        require(!SharedWallet(msg.sender).isMember(_user));\r\n\r\n        _invitations[_user].push(\r\n            Invitation({wallet: msg.sender, requestId: _requestId})\r\n        );\r\n    }\r\n\r\n    function removeUserInvitation(address _user) external {\r\n        for (uint256 i = 0; i < _invitations[_user].length; i++)\r\n            if (_invitations[_user][i].wallet == msg.sender) {\r\n                _invitations[_user][i] = _invitations[_user][\r\n                    _invitations[_user].length - 1\r\n                ];\r\n                _invitations[_user].pop();\r\n                return;\r\n            }\r\n    }\r\n\r\n    function addWalletToUser(address _newWallet, address _user) external {\r\n        require(\r\n            SharedWallet(_newWallet).isMember(_user),\r\n            \"User is not a member of this wallet!\"\r\n        );\r\n        _usersWallets[_user].push(_newWallet);\r\n    }\r\n\r\n    function removeWalletForUser(address _oldWallet, address _user) external {\r\n        require(!SharedWallet(_oldWallet).isMember(_user));\r\n        for (uint256 i = 0; i < _usersWallets[_user].length; i++)\r\n            if (_usersWallets[_user][i] == _oldWallet) {\r\n                _usersWallets[_user][i] = _usersWallets[_user][\r\n                    _usersWallets[_user].length - 1\r\n                ];\r\n                _usersWallets[_user].pop();\r\n                return;\r\n            }\r\n    }\r\n}\r\n",
  "sourcePath": "E:\\GitHub\\ShareIt\\contracts\\SharedWalletStorage.sol",
  "compiler": {
    "name": "solc",
    "version": "0.8.12+commit.f00d7308.Emscripten.clang"
  },
  "schemaVersion": "3.4.7",
  "updatedAt": "2022-04-08T20:09:42.508Z",
  "devdoc": {
    "kind": "dev",
    "methods": {},
    "version": 1
  },
  "userdoc": {
    "kind": "user",
    "methods": {},
    "version": 1
  }
}