{
  "contractName": "SharedWalletStorage",
  "abi": [
    {
      "inputs": [],
      "name": "userWallets",
      "outputs": [
        {
          "internalType": "address[]",
          "name": "",
          "type": "address[]"
        }
      ],
      "stateMutability": "view",
      "type": "function"
    },
    {
      "inputs": [],
      "name": "maxWalletsPerUser",
      "outputs": [
        {
          "internalType": "uint8",
          "name": "",
          "type": "uint8"
        }
      ],
      "stateMutability": "view",
      "type": "function"
    },
    {
      "inputs": [
        {
          "internalType": "address",
          "name": "_newWallet",
          "type": "address"
        },
        {
          "internalType": "address",
          "name": "_user",
          "type": "address"
        }
      ],
      "name": "addWalletToUser",
      "outputs": [],
      "stateMutability": "nonpayable",
      "type": "function"
    },
    {
      "inputs": [
        {
          "internalType": "address",
          "name": "_oldWallet",
          "type": "address"
        },
        {
          "internalType": "address",
          "name": "_user",
          "type": "address"
        }
      ],
      "name": "removeWalletForUser",
      "outputs": [],
      "stateMutability": "nonpayable",
      "type": "function"
    }
  ],
  "bytecode": "0x608060405260086000806101000a81548160ff021916908360ff16021790555034801561002b57600080fd5b50610c3a8061003b6000396000f3fe608060405234801561001057600080fd5b5060043610610069576000357c0100000000000000000000000000000000000000000000000000000000900480632bf727671461006e57806351efa3f41461008c578063a7f40e97146100a8578063abfa7969146100c6575b600080fd5b6100766100e2565b604051610083919061078e565b60405180910390f35b6100a660048036038101906100a1919061080c565b6100f8565b005b6100b0610306565b6040516100bd919061090a565b60405180910390f35b6100e060048036038101906100db919061080c565b6103d1565b005b60008060009054906101000a900460ff16905090565b8173ffffffffffffffffffffffffffffffffffffffff1663a230c524826040518263ffffffff167c010000000000000000000000000000000000000000000000000000000002815260040161014d919061093b565b602060405180830381865afa15801561016a573d6000803e3d6000fd5b505050506040513d601f19601f8201168201806040525081019061018e919061098e565b6101cd576040517f08c379a00000000000000000000000000000000000000000000000000000000081526004016101c490610a3e565b60405180910390fd5b60008054906101000a900460ff1660ff16600160008373ffffffffffffffffffffffffffffffffffffffff1673ffffffffffffffffffffffffffffffffffffffff168152602001908152602001600020805490501115610262576040517f08c379a000000000000000000000000000000000000000000000000000000000815260040161025990610ad0565b60405180910390fd5b600160008273ffffffffffffffffffffffffffffffffffffffff1673ffffffffffffffffffffffffffffffffffffffff168152602001908152602001600020829080600181540180825580915050600190039060005260206000200160009091909190916101000a81548173ffffffffffffffffffffffffffffffffffffffff021916908373ffffffffffffffffffffffffffffffffffffffff1602179055505050565b6060600160003373ffffffffffffffffffffffffffffffffffffffff1673ffffffffffffffffffffffffffffffffffffffff1681526020019081526020016000208054806020026020016040519081016040528092919081815260200182805480156103c757602002820191906000526020600020905b8160009054906101000a900473ffffffffffffffffffffffffffffffffffffffff1673ffffffffffffffffffffffffffffffffffffffff168152602001906001019080831161037d575b5050505050905090565b8173ffffffffffffffffffffffffffffffffffffffff1663a230c524826040518263ffffffff167c0100000000000000000000000000000000000000000000000000000000028152600401610426919061093b565b602060405180830381865afa158015610443573d6000803e3d6000fd5b505050506040513d601f19601f82011682018060405250810190610467919061098e565b1561047157600080fd5b60005b600160008373ffffffffffffffffffffffffffffffffffffffff1673ffffffffffffffffffffffffffffffffffffffff1681526020019081526020016000208054905081101561076c578273ffffffffffffffffffffffffffffffffffffffff16600160008473ffffffffffffffffffffffffffffffffffffffff1673ffffffffffffffffffffffffffffffffffffffff168152602001908152602001600020828154811061052657610525610af0565b5b9060005260206000200160009054906101000a900473ffffffffffffffffffffffffffffffffffffffff1673ffffffffffffffffffffffffffffffffffffffff16141561075957600160008373ffffffffffffffffffffffffffffffffffffffff1673ffffffffffffffffffffffffffffffffffffffff16815260200190815260200160002060018060008573ffffffffffffffffffffffffffffffffffffffff1673ffffffffffffffffffffffffffffffffffffffff168152602001908152602001600020805490506105fa9190610b58565b8154811061060b5761060a610af0565b5b9060005260206000200160009054906101000a900473ffffffffffffffffffffffffffffffffffffffff16600160008473ffffffffffffffffffffffffffffffffffffffff1673ffffffffffffffffffffffffffffffffffffffff168152602001908152602001600020828154811061068757610686610af0565b5b9060005260206000200160006101000a81548173ffffffffffffffffffffffffffffffffffffffff021916908373ffffffffffffffffffffffffffffffffffffffff160217905550600160008373ffffffffffffffffffffffffffffffffffffffff1673ffffffffffffffffffffffffffffffffffffffff16815260200190815260200160002080548061071e5761071d610b8c565b5b6001900381819060005260206000200160006101000a81549073ffffffffffffffffffffffffffffffffffffffff021916905590555061076e565b808061076490610bbb565b915050610474565b505b5050565b600060ff82169050919050565b61078881610772565b82525050565b60006020820190506107a3600083018461077f565b92915050565b600080fd5b600073ffffffffffffffffffffffffffffffffffffffff82169050919050565b60006107d9826107ae565b9050919050565b6107e9816107ce565b81146107f457600080fd5b50565b600081359050610806816107e0565b92915050565b60008060408385031215610823576108226107a9565b5b6000610831858286016107f7565b9250506020610842858286016107f7565b9150509250929050565b600081519050919050565b600082825260208201905092915050565b6000819050602082019050919050565b610881816107ce565b82525050565b60006108938383610878565b60208301905092915050565b6000602082019050919050565b60006108b78261084c565b6108c18185610857565b93506108cc83610868565b8060005b838110156108fd5781516108e48882610887565b97506108ef8361089f565b9250506001810190506108d0565b5085935050505092915050565b6000602082019050818103600083015261092481846108ac565b905092915050565b610935816107ce565b82525050565b6000602082019050610950600083018461092c565b92915050565b60008115159050919050565b61096b81610956565b811461097657600080fd5b50565b60008151905061098881610962565b92915050565b6000602082840312156109a4576109a36107a9565b5b60006109b284828501610979565b91505092915050565b600082825260208201905092915050565b7f55736572206973206e6f742061206d656d626572206f6620746869732077616c60008201527f6c65742100000000000000000000000000000000000000000000000000000000602082015250565b6000610a286024836109bb565b9150610a33826109cc565b604082019050919050565b60006020820190508181036000830152610a5781610a1b565b9050919050565b7f4d6178696d756d20616d6f756e74206f662077616c6c6574732070657220757360008201527f6572206578636565646564210000000000000000000000000000000000000000602082015250565b6000610aba602c836109bb565b9150610ac582610a5e565b604082019050919050565b60006020820190508181036000830152610ae981610aad565b9050919050565b7f4e487b7100000000000000000000000000000000000000000000000000000000600052603260045260246000fd5b6000819050919050565b7f4e487b7100000000000000000000000000000000000000000000000000000000600052601160045260246000fd5b6000610b6382610b1f565b9150610b6e83610b1f565b925082821015610b8157610b80610b29565b5b828203905092915050565b7f4e487b7100000000000000000000000000000000000000000000000000000000600052603160045260246000fd5b6000610bc682610b1f565b91507fffffffffffffffffffffffffffffffffffffffffffffffffffffffffffffffff821415610bf957610bf8610b29565b5b60018201905091905056fea26469706673582212204ce2869d6448341cd59b3ff0f22c45a6cf77181539f8f3a56ba2a4edac85d95564736f6c634300080c0033",
  "immutableReferences": {},
  "source": "//SPDX-License-Identifier: MIT\r\npragma solidity ^0.8.0;\r\n\r\nimport \"./SharedWallet.sol\";\r\n\r\ncontract SharedWalletStorage {\r\n    uint8 private _maxWalletsPerUser = 8;\r\n    mapping(address => address[]) private _usersWallets;\r\n\r\n    function userWallets() public view returns (address[] memory) {\r\n        return _usersWallets[msg.sender];\r\n    }\r\n\r\n    function maxWalletsPerUser() public view returns (uint8) {\r\n        return _maxWalletsPerUser;\r\n    }\r\n\r\n    function addWalletToUser(address _newWallet, address _user) external {\r\n        require(\r\n            SharedWallet(_newWallet).isMember(_user),\r\n            \"User is not a member of this wallet!\"\r\n        );\r\n        require(\r\n            _usersWallets[_user].length <= _maxWalletsPerUser,\r\n            \"Maximum amount of wallets per user exceeded!\"\r\n        );\r\n        _usersWallets[_user].push(_newWallet);\r\n    }\r\n\r\n    function removeWalletForUser(address _oldWallet, address _user) external {\r\n        require(!SharedWallet(_oldWallet).isMember(_user));\r\n        for (uint256 i = 0; i < _usersWallets[_user].length; i++)\r\n            if (_usersWallets[_user][i] == _oldWallet) {\r\n                _usersWallets[_user][i] = _usersWallets[_user][\r\n                    _usersWallets[_user].length - 1\r\n                ];\r\n                _usersWallets[_user].pop();\r\n                return;\r\n            }\r\n    }\r\n}\r\n",
  "sourcePath": "C:\\Users\\Joro\\Documents\\GitHub\\ShareIt\\contracts\\SharedWalletStorage.sol",
  "compiler": {
    "name": "solc",
    "version": "0.8.12+commit.f00d7308.Emscripten.clang"
  },
  "schemaVersion": "3.4.6",
  "updatedAt": "2022-04-05T10:55:58.377Z",
  "devdoc": {
    "kind": "dev",
    "methods": {},
    "version": 1
  },
  "userdoc": {
    "kind": "user",
    "methods": {},
    "version": 1
  }
}