{
  "contractName": "SharedWalletStorage",
  "abi": [
    {
      "inputs": [
        {
          "internalType": "address",
          "name": "",
          "type": "address"
        },
        {
          "internalType": "uint256",
          "name": "",
          "type": "uint256"
        }
      ],
      "name": "usersWallets",
      "outputs": [
        {
          "internalType": "address",
          "name": "",
          "type": "address"
        }
      ],
      "stateMutability": "view",
      "type": "function"
    },
    {
      "inputs": [
        {
          "internalType": "address",
          "name": "_walletAddress",
          "type": "address"
        },
        {
          "internalType": "address",
          "name": "_user",
          "type": "address"
        }
      ],
      "name": "addWalletToUser",
      "outputs": [],
      "stateMutability": "nonpayable",
      "type": "function"
    }
  ],
  "bytecode": "0x608060405234801561001057600080fd5b5061069c806100206000396000f3fe608060405234801561001057600080fd5b5060043610610053576000357c01000000000000000000000000000000000000000000000000000000009004806351efa3f4146100585780635c2d445014610074575b600080fd5b610072600480360381019061006d919061033a565b6100a4565b005b61008e600480360381019061008991906103b0565b61015a565b60405161009b91906103ff565b60405180910390f35b6100ae81836101a8565b6100b757600080fd5b6000808273ffffffffffffffffffffffffffffffffffffffff1673ffffffffffffffffffffffffffffffffffffffff168152602001908152602001600020829080600181540180825580915050600190039060005260206000200160009091909190916101000a81548173ffffffffffffffffffffffffffffffffffffffff021916908373ffffffffffffffffffffffffffffffffffffffff1602179055505050565b6000602052816000526040600020818154811061017657600080fd5b906000526020600020016000915091509054906101000a900473ffffffffffffffffffffffffffffffffffffffff1681565b6000808273ffffffffffffffffffffffffffffffffffffffff16639eab52536040518163ffffffff167c0100000000000000000000000000000000000000000000000000000000028152600401600060405180830381865afa158015610212573d6000803e3d6000fd5b505050506040513d6000823e3d601f19601f8201168201806040525081019061023b9190610588565b905060005b81518160ff1610156102bb578473ffffffffffffffffffffffffffffffffffffffff16828260ff1681518110610279576102786105d1565b5b602002602001015173ffffffffffffffffffffffffffffffffffffffff1614156102a8576001925050506102c2565b80806102b39061063c565b915050610240565b5060009150505b92915050565b6000604051905090565b600080fd5b600080fd5b600073ffffffffffffffffffffffffffffffffffffffff82169050919050565b6000610307826102dc565b9050919050565b610317816102fc565b811461032257600080fd5b50565b6000813590506103348161030e565b92915050565b60008060408385031215610351576103506102d2565b5b600061035f85828601610325565b925050602061037085828601610325565b9150509250929050565b6000819050919050565b61038d8161037a565b811461039857600080fd5b50565b6000813590506103aa81610384565b92915050565b600080604083850312156103c7576103c66102d2565b5b60006103d585828601610325565b92505060206103e68582860161039b565b9150509250929050565b6103f9816102fc565b82525050565b600060208201905061041460008301846103f0565b92915050565b600080fd5b6000601f19601f8301169050919050565b7f4e487b7100000000000000000000000000000000000000000000000000000000600052604160045260246000fd5b6104688261041f565b810181811067ffffffffffffffff8211171561048757610486610430565b5b80604052505050565b600061049a6102c8565b90506104a6828261045f565b919050565b600067ffffffffffffffff8211156104c6576104c5610430565b5b602082029050602081019050919050565b600080fd5b6000815190506104eb8161030e565b92915050565b60006105046104ff846104ab565b610490565b90508083825260208201905060208402830185811115610527576105266104d7565b5b835b81811015610550578061053c88826104dc565b845260208401935050602081019050610529565b5050509392505050565b600082601f83011261056f5761056e61041a565b5b815161057f8482602086016104f1565b91505092915050565b60006020828403121561059e5761059d6102d2565b5b600082015167ffffffffffffffff8111156105bc576105bb6102d7565b5b6105c88482850161055a565b91505092915050565b7f4e487b7100000000000000000000000000000000000000000000000000000000600052603260045260246000fd5b7f4e487b7100000000000000000000000000000000000000000000000000000000600052601160045260246000fd5b600060ff82169050919050565b60006106478261062f565b915060ff82141561065b5761065a610600565b5b60018201905091905056fea2646970667358221220703aa07117b9f1565394450e09d2efe646a3530837eac8a6de45e0df695ae76064736f6c634300080c0033",
  "immutableReferences": {},
  "source": "//SPDX-License-Identifier: UNLICENSED\r\npragma solidity ^0.8.0;\r\n\r\nimport \"./SharedWallet.sol\";\r\n\r\ncontract SharedWalletStorage {\r\n    mapping(address => address[]) public usersWallets;\r\n\r\n    function addWalletToUser(address _walletAddress, address _user) external {\r\n        require(_participatesIn(_user, _walletAddress));\r\n        usersWallets[_user].push(_walletAddress);\r\n    }\r\n\r\n    function _participatesIn(address _user, address _walletAddress)\r\n        private\r\n        view\r\n        returns (bool)\r\n    {\r\n        address[] memory walletMembers = SharedWallet(payable(_walletAddress)).getMembers();\r\n        for (uint8 i = 0; i < walletMembers.length; i++)\r\n            if (walletMembers[i] == _user) return true;\r\n\r\n        return false;\r\n    }\r\n}\r\n",
  "sourcePath": "C:\\Users\\Joro\\Documents\\GitHub\\ShareIt\\contracts\\SharedWalletStorage.sol",
  "compiler": {
    "name": "solc",
    "version": "0.8.12+commit.f00d7308.Emscripten.clang"
  },
  "schemaVersion": "3.4.6",
  "updatedAt": "2022-03-22T20:32:46.178Z",
  "devdoc": {
    "kind": "dev",
    "methods": {},
    "version": 1
  },
  "userdoc": {
    "kind": "user",
    "methods": {},
    "version": 1
  }
}