{
  "contractName": "SharedWallet",
  "abi": [
    {
      "inputs": [
        {
          "internalType": "address",
          "name": "_creator",
          "type": "address"
        },
        {
          "internalType": "uint256",
          "name": "_maxMembers",
          "type": "uint256"
        },
        {
          "internalType": "contract SharedWalletStorage",
          "name": "_walletStorage",
          "type": "address"
        }
      ],
      "stateMutability": "nonpayable",
      "type": "constructor"
    },
    {
      "stateMutability": "payable",
      "type": "fallback"
    },
    {
      "inputs": [
        {
          "internalType": "uint256",
          "name": "_requestID",
          "type": "uint256"
        }
      ],
      "name": "acceptRequest",
      "outputs": [],
      "stateMutability": "nonpayable",
      "type": "function"
    },
    {
      "inputs": [
        {
          "internalType": "enum Voting.RequestTypes",
          "name": "_requestType",
          "type": "uint8"
        },
        {
          "internalType": "uint256",
          "name": "_value",
          "type": "uint256"
        },
        {
          "internalType": "address",
          "name": "_addr",
          "type": "address"
        }
      ],
      "name": "createRequest",
      "outputs": [
        {
          "internalType": "uint256",
          "name": "",
          "type": "uint256"
        }
      ],
      "stateMutability": "nonpayable",
      "type": "function"
    },
    {
      "inputs": [],
      "name": "maxMembers",
      "outputs": [
        {
          "internalType": "uint256",
          "name": "",
          "type": "uint256"
        }
      ],
      "stateMutability": "view",
      "type": "function"
    },
    {
      "inputs": [
        {
          "internalType": "uint256",
          "name": "",
          "type": "uint256"
        }
      ],
      "name": "members",
      "outputs": [
        {
          "internalType": "address",
          "name": "",
          "type": "address"
        }
      ],
      "stateMutability": "view",
      "type": "function"
    },
    {
      "inputs": [
        {
          "internalType": "uint256",
          "name": "",
          "type": "uint256"
        }
      ],
      "name": "requests",
      "outputs": [
        {
          "internalType": "address",
          "name": "author",
          "type": "address"
        },
        {
          "internalType": "enum Voting.RequestTypes",
          "name": "requestType",
          "type": "uint8"
        },
        {
          "internalType": "address",
          "name": "addr",
          "type": "address"
        },
        {
          "internalType": "uint256",
          "name": "value",
          "type": "uint256"
        },
        {
          "internalType": "uint256",
          "name": "proVotersCount",
          "type": "uint256"
        },
        {
          "internalType": "bool",
          "name": "approved",
          "type": "bool"
        }
      ],
      "stateMutability": "view",
      "type": "function"
    },
    {
      "inputs": [],
      "name": "requestsCounter",
      "outputs": [
        {
          "internalType": "uint256",
          "name": "",
          "type": "uint256"
        }
      ],
      "stateMutability": "view",
      "type": "function"
    },
    {
      "stateMutability": "payable",
      "type": "receive"
    },
    {
      "inputs": [],
      "name": "getMembers",
      "outputs": [
        {
          "internalType": "address[]",
          "name": "",
          "type": "address[]"
        }
      ],
      "stateMutability": "view",
      "type": "function"
    },
    {
      "inputs": [
        {
          "internalType": "uint256",
          "name": "_requestId",
          "type": "uint256"
        }
      ],
      "name": "addMember",
      "outputs": [
        {
          "internalType": "bool",
          "name": "",
          "type": "bool"
        }
      ],
      "stateMutability": "nonpayable",
      "type": "function"
    },
    {
      "inputs": [
        {
          "internalType": "uint256",
          "name": "_requestId",
          "type": "uint256"
        }
      ],
      "name": "removeMember",
      "outputs": [
        {
          "internalType": "bool",
          "name": "",
          "type": "bool"
        }
      ],
      "stateMutability": "nonpayable",
      "type": "function"
    },
    {
      "inputs": [
        {
          "internalType": "uint256",
          "name": "_requestId",
          "type": "uint256"
        }
      ],
      "name": "withdraw",
      "outputs": [
        {
          "internalType": "bool",
          "name": "",
          "type": "bool"
        }
      ],
      "stateMutability": "nonpayable",
      "type": "function"
    },
    {
      "inputs": [
        {
          "internalType": "uint256",
          "name": "_requestId",
          "type": "uint256"
        }
      ],
      "name": "destroy",
      "outputs": [
        {
          "internalType": "bool",
          "name": "",
          "type": "bool"
        }
      ],
      "stateMutability": "nonpayable",
      "type": "function"
    }
  ],
  "bytecode": "0x60806040523480156200001157600080fd5b50604051620020a0380380620020a08339818101604052810190620000379190620002cb565b600c8211156200007e576040517f08c379a00000000000000000000000000000000000000000000000000000000081526004016200007590620003ae565b60405180910390fd5b80600260006101000a81548173ffffffffffffffffffffffffffffffffffffffff021916908373ffffffffffffffffffffffffffffffffffffffff160217905550816003819055506004839080600181540180825580915050600190039060005260206000200160009091909190916101000a81548173ffffffffffffffffffffffffffffffffffffffff021916908373ffffffffffffffffffffffffffffffffffffffff160217905550600260009054906101000a900473ffffffffffffffffffffffffffffffffffffffff1673ffffffffffffffffffffffffffffffffffffffff166351efa3f430856040518363ffffffff167c0100000000000000000000000000000000000000000000000000000000028152600401620001a4929190620003e1565b600060405180830381600087803b158015620001bf57600080fd5b505af1158015620001d4573d6000803e3d6000fd5b505050505050506200040e565b600080fd5b600073ffffffffffffffffffffffffffffffffffffffff82169050919050565b60006200021382620001e6565b9050919050565b620002258162000206565b81146200023157600080fd5b50565b60008151905062000245816200021a565b92915050565b6000819050919050565b62000260816200024b565b81146200026c57600080fd5b50565b600081519050620002808162000255565b92915050565b6000620002938262000206565b9050919050565b620002a58162000286565b8114620002b157600080fd5b50565b600081519050620002c5816200029a565b92915050565b600080600060608486031215620002e757620002e6620001e1565b5b6000620002f78682870162000234565b93505060206200030a868287016200026f565b92505060406200031d86828701620002b4565b9150509250925092565b600082825260208201905092915050565b7f43616e6e6f742068617665206d6f7265207468616e203132206d656d6265727360008201527f20696e20612073696e676c65207368617265642077616c6c6574210000000000602082015250565b600062000396603b8362000327565b9150620003a38262000338565b604082019050919050565b60006020820190508181036000830152620003c98162000387565b9050919050565b620003db8162000206565b82525050565b6000604082019050620003f86000830185620003d0565b620004076020830184620003d0565b9392505050565b611c82806200041e6000396000f3fe6080604052600436106100bd576000357c0100000000000000000000000000000000000000000000000000000000900480636fb8c995116100815780636fb8c995146101d157806381d12c581461020e5780639d118770146102505780639eab52531461028d578063a1a74aae146102b8578063bf4386a0146102f5576100c4565b80631089f5ed146100c65780632e1a7d4d146101035780634ba1f098146101405780635daf08ca14610169578063663c2269146101a6576100c4565b366100c457005b005b3480156100d257600080fd5b506100ed60048036038101906100e89190611465565b610320565b6040516100fa91906114ad565b60405180910390f35b34801561010f57600080fd5b5061012a60048036038101906101259190611465565b610642565b60405161013791906114ad565b60405180910390f35b34801561014c57600080fd5b5061016760048036038101906101629190611465565b610824565b005b34801561017557600080fd5b50610190600480360381019061018b9190611465565b610a15565b60405161019d9190611509565b60405180910390f35b3480156101b257600080fd5b506101bb610a54565b6040516101c89190611533565b60405180910390f35b3480156101dd57600080fd5b506101f860048036038101906101f3919061159f565b610a5a565b6040516102059190611533565b60405180910390f35b34801561021a57600080fd5b5061023560048036038101906102309190611465565b610d4d565b60405161024796959493929190611669565b60405180910390f35b34801561025c57600080fd5b5061027760048036038101906102729190611465565b610de3565b60405161028491906114ad565b60405180910390f35b34801561029957600080fd5b506102a2610f99565b6040516102af9190611788565b60405180910390f35b3480156102c457600080fd5b506102df60048036038101906102da9190611465565b611027565b6040516102ec91906114ad565b60405180910390f35b34801561030157600080fd5b5061030a6113a0565b6040516103179190611533565b60405180910390f35b60008060008084815260200190815260200160002090503373ffffffffffffffffffffffffffffffffffffffff168160000160009054906101000a900473ffffffffffffffffffffffffffffffffffffffff1673ffffffffffffffffffffffffffffffffffffffff16146103c9576040517f08c379a00000000000000000000000000000000000000000000000000000000081526004016103c09061182d565b60405180910390fd5b600115158160050160009054906101000a900460ff16151514610421576040517f08c379a000000000000000000000000000000000000000000000000000000000815260040161041890611899565b60405180910390fd5b60006003811115610435576104346115f2565b5b8160000160149054906101000a900460ff166003811115610459576104586115f2565b5b14610499576040517f08c379a000000000000000000000000000000000000000000000000000000000815260040161049090611905565b60405180910390fd5b600354600480549050106104e2576040517f08c379a00000000000000000000000000000000000000000000000000000000081526004016104d990611997565b60405180910390fd5b60048160010160009054906101000a900473ffffffffffffffffffffffffffffffffffffffff169080600181540180825580915050600190039060005260206000200160009091909190916101000a81548173ffffffffffffffffffffffffffffffffffffffff021916908373ffffffffffffffffffffffffffffffffffffffff160217905550600260009054906101000a900473ffffffffffffffffffffffffffffffffffffffff1673ffffffffffffffffffffffffffffffffffffffff166351efa3f4308360010160009054906101000a900473ffffffffffffffffffffffffffffffffffffffff166040518363ffffffff167c01000000000000000000000000000000000000000000000000000000000281526004016106069291906119b7565b600060405180830381600087803b15801561062057600080fd5b505af1158015610634573d6000803e3d6000fd5b505050506001915050919050565b60008060008084815260200190815260200160002090503373ffffffffffffffffffffffffffffffffffffffff168160000160009054906101000a900473ffffffffffffffffffffffffffffffffffffffff1673ffffffffffffffffffffffffffffffffffffffff16146106eb576040517f08c379a00000000000000000000000000000000000000000000000000000000081526004016106e29061182d565b60405180910390fd5b600115158160050160009054906101000a900460ff16151514610743576040517f08c379a000000000000000000000000000000000000000000000000000000000815260040161073a90611899565b60405180910390fd5b60026003811115610757576107566115f2565b5b8160000160149054906101000a900460ff16600381111561077b5761077a6115f2565b5b146107bb576040517f08c379a00000000000000000000000000000000000000000000000000000000081526004016107b290611905565b60405180910390fd5b3073ffffffffffffffffffffffffffffffffffffffff1631816002015411156107e357600080fd5b3373ffffffffffffffffffffffffffffffffffffffff166108fc82600201549081150290604051600060405180830381858888f19350505050915050919050565b6000805b6004805490508160ff1610156108c9573273ffffffffffffffffffffffffffffffffffffffff1660048260ff1681548110610866576108656119e0565b5b9060005260206000200160009054906101000a900473ffffffffffffffffffffffffffffffffffffffff1673ffffffffffffffffffffffffffffffffffffffff1614156108b657600191506108c9565b80806108c190611a4b565b915050610828565b50806108d457600080fd5b6000151560008084815260200190815260200160002060040160003373ffffffffffffffffffffffffffffffffffffffff1673ffffffffffffffffffffffffffffffffffffffff16815260200190815260200160002060009054906101000a900460ff1615151461097a576040517f08c379a000000000000000000000000000000000000000000000000000000000815260040161097190611ac1565b60405180910390fd5b6001151560008084815260200190815260200160002060040160003373ffffffffffffffffffffffffffffffffffffffff1673ffffffffffffffffffffffffffffffffffffffff16815260200190815260200160002060009054906101000a905050506000808381526020019081526020016000206003016000815480929190610a0390611ae1565b9190505550610a11826113a6565b5050565b60048181548110610a2557600080fd5b906000526020600020016000915054906101000a900473ffffffffffffffffffffffffffffffffffffffff1681565b60015481565b6000806000905060005b6004805490508160ff161015610b05573273ffffffffffffffffffffffffffffffffffffffff1660048260ff1681548110610aa257610aa16119e0565b5b9060005260206000200160009054906101000a900473ffffffffffffffffffffffffffffffffffffffff1673ffffffffffffffffffffffffffffffffffffffff161415610af25760019150610b05565b8080610afd90611a4b565b915050610a64565b5080610b1057600080fd5b6003856003811115610b2557610b246115f2565b5b1115610b66576040517f08c379a0000000000000000000000000000000000000000000000000000000008152600401610b5d90611b76565b60405180910390fd5b60026003811115610b7a57610b796115f2565b5b856003811115610b8d57610b8c6115f2565b5b1415610bdf576000841015610ba157600080fd5b600073ffffffffffffffffffffffffffffffffffffffff168373ffffffffffffffffffffffffffffffffffffffff1614610bda57600080fd5b610c27565b60008414610bec57600080fd5b600073ffffffffffffffffffffffffffffffffffffffff168373ffffffffffffffffffffffffffffffffffffffff161415610c2657600080fd5b5b600080600060015481526020019081526020016000209050338160000160006101000a81548173ffffffffffffffffffffffffffffffffffffffff021916908373ffffffffffffffffffffffffffffffffffffffff160217905550858160000160146101000a81548160ff02191690836003811115610ca957610ca86115f2565b5b0217905550838160010160006101000a81548173ffffffffffffffffffffffffffffffffffffffff021916908373ffffffffffffffffffffffffffffffffffffffff1602179055508481600201819055506001816003018190555060008160050160006101000a81548160ff0219169083151502179055506000600154905060016000815480929190610d3b90611ae1565b91905055508093505050509392505050565b60006020528060005260406000206000915090508060000160009054906101000a900473ffffffffffffffffffffffffffffffffffffffff16908060000160149054906101000a900460ff16908060010160009054906101000a900473ffffffffffffffffffffffffffffffffffffffff16908060020154908060030154908060050160009054906101000a900460ff16905086565b60008060008084815260200190815260200160002090503373ffffffffffffffffffffffffffffffffffffffff168160000160009054906101000a900473ffffffffffffffffffffffffffffffffffffffff1673ffffffffffffffffffffffffffffffffffffffff1614610e8c576040517f08c379a0000000000000000000000000000000000000000000000000000000008152600401610e839061182d565b60405180910390fd5b600115158160050160009054906101000a900460ff16151514610ee4576040517f08c379a0000000000000000000000000000000000000000000000000000000008152600401610edb90611899565b60405180910390fd5b60026003811115610ef857610ef76115f2565b5b8160000160149054906101000a900460ff166003811115610f1c57610f1b6115f2565b5b14610f5c576040517f08c379a0000000000000000000000000000000000000000000000000000000008152600401610f5390611905565b60405180910390fd5b8060010160009054906101000a900473ffffffffffffffffffffffffffffffffffffffff1673ffffffffffffffffffffffffffffffffffffffff16ff5b6060600480548060200260200160405190810160405280929190818152602001828054801561101d57602002820191906000526020600020905b8160009054906101000a900473ffffffffffffffffffffffffffffffffffffffff1673ffffffffffffffffffffffffffffffffffffffff1681526020019060010190808311610fd3575b5050505050905090565b60008060008084815260200190815260200160002090503373ffffffffffffffffffffffffffffffffffffffff168160000160009054906101000a900473ffffffffffffffffffffffffffffffffffffffff1673ffffffffffffffffffffffffffffffffffffffff16146110d0576040517f08c379a00000000000000000000000000000000000000000000000000000000081526004016110c79061182d565b60405180910390fd5b600115158160050160009054906101000a900460ff16151514611128576040517f08c379a000000000000000000000000000000000000000000000000000000000815260040161111f90611899565b60405180910390fd5b6001600381111561113c5761113b6115f2565b5b8160000160149054906101000a900460ff1660038111156111605761115f6115f2565b5b146111a0576040517f08c379a000000000000000000000000000000000000000000000000000000000815260040161119790611905565b60405180910390fd5b60005b600480549050811015611394578160010160009054906101000a900473ffffffffffffffffffffffffffffffffffffffff1673ffffffffffffffffffffffffffffffffffffffff16600482815481106111ff576111fe6119e0565b5b9060005260206000200160009054906101000a900473ffffffffffffffffffffffffffffffffffffffff1673ffffffffffffffffffffffffffffffffffffffff1614156113815760006004828154811061125c5761125b6119e0565b5b9060005260206000200160009054906101000a900473ffffffffffffffffffffffffffffffffffffffff1690506004828154811061129d5761129c6119e0565b5b9060005260206000200160006101000a81549073ffffffffffffffffffffffffffffffffffffffff0219169055600260009054906101000a900473ffffffffffffffffffffffffffffffffffffffff1673ffffffffffffffffffffffffffffffffffffffff1663abfa796930836040518363ffffffff167c01000000000000000000000000000000000000000000000000000000000281526004016113439291906119b7565b600060405180830381600087803b15801561135d57600080fd5b505af1158015611371573d6000803e3d6000fd5b505050506001935050505061139b565b808061138c90611ae1565b9150506111a3565b5060009150505b919050565b60035481565b60006113b6600480549050611408565b90508060008084815260200190815260200160002060030154141561140457600160008084815260200190815260200160002060050160006101000a81548160ff0219169083151502179055505b5050565b600060016002836114199190611bc5565b6114239190611bf6565b9050919050565b600080fd5b6000819050919050565b6114428161142f565b811461144d57600080fd5b50565b60008135905061145f81611439565b92915050565b60006020828403121561147b5761147a61142a565b5b600061148984828501611450565b91505092915050565b60008115159050919050565b6114a781611492565b82525050565b60006020820190506114c2600083018461149e565b92915050565b600073ffffffffffffffffffffffffffffffffffffffff82169050919050565b60006114f3826114c8565b9050919050565b611503816114e8565b82525050565b600060208201905061151e60008301846114fa565b92915050565b61152d8161142f565b82525050565b60006020820190506115486000830184611524565b92915050565b6004811061155b57600080fd5b50565b60008135905061156d8161154e565b92915050565b61157c816114e8565b811461158757600080fd5b50565b60008135905061159981611573565b92915050565b6000806000606084860312156115b8576115b761142a565b5b60006115c68682870161155e565b93505060206115d786828701611450565b92505060406115e88682870161158a565b9150509250925092565b7f4e487b7100000000000000000000000000000000000000000000000000000000600052602160045260246000fd5b60048110611632576116316115f2565b5b50565b600081905061164382611621565b919050565b600061165382611635565b9050919050565b61166381611648565b82525050565b600060c08201905061167e60008301896114fa565b61168b602083018861165a565b61169860408301876114fa565b6116a56060830186611524565b6116b26080830185611524565b6116bf60a083018461149e565b979650505050505050565b600081519050919050565b600082825260208201905092915050565b6000819050602082019050919050565b6116ff816114e8565b82525050565b600061171183836116f6565b60208301905092915050565b6000602082019050919050565b6000611735826116ca565b61173f81856116d5565b935061174a836116e6565b8060005b8381101561177b5781516117628882611705565b975061176d8361171d565b92505060018101905061174e565b5085935050505092915050565b600060208201905081810360008301526117a2818461172a565b905092915050565b600082825260208201905092915050565b7f596f7520617265206e6f742074686520617574686f72206f662074686973207260008201527f6571756573742100000000000000000000000000000000000000000000000000602082015250565b60006118176027836117aa565b9150611822826117bb565b604082019050919050565b600060208201905081810360008301526118468161180a565b9050919050565b7f52657175657374206973206e6f7420617070726f766564207965742100000000600082015250565b6000611883601c836117aa565b915061188e8261184d565b602082019050919050565b600060208201905081810360008301526118b281611876565b9050919050565b7f57726f6e67207265717565737420696421000000000000000000000000000000600082015250565b60006118ef6011836117aa565b91506118fa826118b9565b602082019050919050565b6000602082019050818103600083015261191e816118e2565b9050919050565b7f4d6178696d756d206e756d626572206f66206d656d626572732072656163686560008201527f6421000000000000000000000000000000000000000000000000000000000000602082015250565b60006119816022836117aa565b915061198c82611925565b604082019050919050565b600060208201905081810360008301526119b081611974565b9050919050565b60006040820190506119cc60008301856114fa565b6119d960208301846114fa565b9392505050565b7f4e487b7100000000000000000000000000000000000000000000000000000000600052603260045260246000fd5b7f4e487b7100000000000000000000000000000000000000000000000000000000600052601160045260246000fd5b600060ff82169050919050565b6000611a5682611a3e565b915060ff821415611a6a57611a69611a0f565b5b600182019050919050565b7f416c726561647920766f74656420746f20746869732072657175657374210000600082015250565b6000611aab601e836117aa565b9150611ab682611a75565b602082019050919050565b60006020820190508181036000830152611ada81611a9e565b9050919050565b6000611aec8261142f565b91507fffffffffffffffffffffffffffffffffffffffffffffffffffffffffffffffff821415611b1f57611b1e611a0f565b5b600182019050919050565b7f496e76616c696420726571756573742074797065210000000000000000000000600082015250565b6000611b606015836117aa565b9150611b6b82611b2a565b602082019050919050565b60006020820190508181036000830152611b8f81611b53565b9050919050565b7f4e487b7100000000000000000000000000000000000000000000000000000000600052601260045260246000fd5b6000611bd08261142f565b9150611bdb8361142f565b925082611beb57611bea611b96565b5b828204905092915050565b6000611c018261142f565b9150611c0c8361142f565b9250827fffffffffffffffffffffffffffffffffffffffffffffffffffffffffffffffff03821115611c4157611c40611a0f565b5b82820190509291505056fea2646970667358221220b62b9bf396ee8f82b32ede55eefbe609a57bc613aaf403676f840ee4166842f364736f6c634300080c0033",
  "immutableReferences": {},
  "source": "//SPDX-License-Identifier: UNLICENSED\r\npragma solidity ^0.8.0;\r\n\r\nimport \"./Voting.sol\";\r\nimport \"./SharedWalletStorage.sol\";\r\n\r\ncontract SharedWallet is Voting {\r\n    SharedWalletStorage walletStorage;\r\n    uint256 public maxMembers;\r\n    address[] public members;\r\n\r\n    modifier onlyMember() override {\r\n        bool isMember = false;\r\n        for (uint8 i = 0; i < members.length; i++)\r\n            if (members[i] == tx.origin) {\r\n                isMember = true;\r\n                break;\r\n            }\r\n\r\n        require(isMember);\r\n        _;\r\n    }\r\n\r\n    constructor(\r\n        address _creator,\r\n        uint256 _maxMembers,\r\n        SharedWalletStorage _walletStorage\r\n    ) {\r\n        require(\r\n            _maxMembers <= 12,\r\n            \"Cannot have more than 12 members in a single shared wallet!\"\r\n        );\r\n\r\n        walletStorage = _walletStorage;\r\n        maxMembers = _maxMembers;\r\n\r\n        members.push(_creator);\r\n        walletStorage.addWalletToUser(address(this), _creator);\r\n    }\r\n\r\n    function getMembers() public view returns (address[] memory) {\r\n        return members;\r\n    }\r\n\r\n    function addMember(uint256 _requestId) external returns (bool) {\r\n        Request storage request = requests[_requestId];\r\n        require(\r\n            request.author == msg.sender,\r\n            \"You are not the author of this request!\"\r\n        );\r\n        require(request.approved == true, \"Request is not approved yet!\");\r\n        require(\r\n            request.requestType == RequestTypes.AddMember,\r\n            \"Wrong request id!\"\r\n        );\r\n\r\n        require(\r\n            members.length < maxMembers,\r\n            \"Maximum number of members reached!\"\r\n        );\r\n\r\n        members.push(request.addr);\r\n        walletStorage.addWalletToUser(address(this), request.addr);\r\n        return true;\r\n    }\r\n\r\n    function removeMember(uint256 _requestId) external returns (bool) {\r\n        Request storage request = requests[_requestId];\r\n        require(\r\n            request.author == msg.sender,\r\n            \"You are not the author of this request!\"\r\n        );\r\n        require(request.approved == true, \"Request is not approved yet!\");\r\n        require(\r\n            request.requestType == RequestTypes.RemoveMember,\r\n            \"Wrong request id!\"\r\n        );\r\n\r\n        for (uint256 i = 0; i < members.length; i++)\r\n            if (members[i] == request.addr) {\r\n                address deletedMember = members[i];\r\n                delete members[i];\r\n                walletStorage.removeWalletForUser(address(this), deletedMember);\r\n                return true;\r\n            }\r\n\r\n        return false;\r\n    }\r\n\r\n    function withdraw(uint256 _requestId) external returns (bool) {\r\n        Request storage request = requests[_requestId];\r\n        require(\r\n            request.author == msg.sender,\r\n            \"You are not the author of this request!\"\r\n        );\r\n        require(request.approved == true, \"Request is not approved yet!\");\r\n        require(\r\n            request.requestType == RequestTypes.Withdraw,\r\n            \"Wrong request id!\"\r\n        );\r\n\r\n        require(request.value <= address(this).balance);\r\n\r\n        return payable(msg.sender).send(request.value);\r\n    }\r\n\r\n    function destroy(uint256 _requestId) external returns (bool) {\r\n        Request storage request = requests[_requestId];\r\n        require(\r\n            request.author == msg.sender,\r\n            \"You are not the author of this request!\"\r\n        );\r\n        require(request.approved == true, \"Request is not approved yet!\");\r\n        require(\r\n            request.requestType == RequestTypes.Withdraw,\r\n            \"Wrong request id!\"\r\n        );\r\n\r\n        selfdestruct(payable(request.addr));\r\n        return true;\r\n    }\r\n\r\n    function _tryApproveRequest(uint256 _requestID) internal override {\r\n        uint256 goal = _getMajority(members.length);\r\n        if (requests[_requestID].proVotersCount == goal)\r\n            requests[_requestID].approved = true;\r\n    }\r\n\r\n    receive() external payable {}\r\n\r\n    fallback() external payable {}\r\n}\r\n",
  "sourcePath": "C:\\Users\\Joro\\Documents\\GitHub\\ShareIt\\contracts\\SharedWallet.sol",
  "compiler": {
    "name": "solc",
    "version": "0.8.12+commit.f00d7308.Emscripten.clang"
  },
  "schemaVersion": "3.4.6",
  "updatedAt": "2022-03-24T11:04:09.944Z",
  "devdoc": {
    "kind": "dev",
    "methods": {},
    "version": 1
  },
  "userdoc": {
    "kind": "user",
    "methods": {},
    "version": 1
  }
}