{
  "contractName": "SharedWalletFactory",
  "abi": [
    {
      "inputs": [],
      "stateMutability": "nonpayable",
      "type": "constructor"
    },
    {
      "inputs": [],
      "name": "sharedWalletImpl",
      "outputs": [
        {
          "internalType": "address",
          "name": "",
          "type": "address"
        }
      ],
      "stateMutability": "view",
      "type": "function"
    },
    {
      "inputs": [],
      "name": "walletsStorage",
      "outputs": [
        {
          "internalType": "contract SharedWalletStorage",
          "name": "",
          "type": "address"
        }
      ],
      "stateMutability": "view",
      "type": "function"
    },
    {
      "inputs": [
        {
          "internalType": "string",
          "name": "_name",
          "type": "string"
        }
      ],
      "name": "createNewSharedWallet",
      "outputs": [],
      "stateMutability": "nonpayable",
      "type": "function"
    }
  ],
  "bytecode": "0x60c060405234801561001057600080fd5b5060405161001d906100ce565b604051809103906000f080158015610039573d6000803e3d6000fd5b5073ffffffffffffffffffffffffffffffffffffffff1660808173ffffffffffffffffffffffffffffffffffffffff1681525050604051610079906100db565b604051809103906000f080158015610095573d6000803e3d6000fd5b5073ffffffffffffffffffffffffffffffffffffffff1660a08173ffffffffffffffffffffffffffffffffffffffff16815250506100e8565b6114138061074083390190565b612ffa80611b5383390190565b60805160a05161061f61012160003960008181610164015261018e01526000818160ae0152818161014001526101d3015261061f6000f3fe608060405234801561001057600080fd5b50600436106100415760003560e01c80639f21f9e414610046578063abcc915314610062578063d81b26bd14610080575b600080fd5b610060600480360381019061005b9190610393565b61009e565b005b61006a61013e565b604051610077919061045f565b60405180910390f35b610088610162565b604051610095919061049b565b60405180910390f35b60006100aa8383610186565b90507f000000000000000000000000000000000000000000000000000000000000000073ffffffffffffffffffffffffffffffffffffffff166351efa3f482336040518363ffffffff1660e01b81526004016101079291906104b6565b600060405180830381600087803b15801561012157600080fd5b505af1158015610135573d6000803e3d6000fd5b50505050505050565b7f000000000000000000000000000000000000000000000000000000000000000081565b7f000000000000000000000000000000000000000000000000000000000000000081565b6000806101b27f000000000000000000000000000000000000000000000000000000000000000061024f565b90508073ffffffffffffffffffffffffffffffffffffffff16634571e3a6337f000000000000000000000000000000000000000000000000000000000000000087876040518563ffffffff1660e01b8152600401610213949392919061053d565b600060405180830381600087803b15801561022d57600080fd5b505af1158015610241573d6000803e3d6000fd5b505050508091505092915050565b60006040517f3d602d80600a3d3981f3363d3d373d3d3d363d7300000000000000000000000081528260601b60148201527f5af43d82803e903d91602b57fd5bf3000000000000000000000000000000000060288201526037816000f0915050600073ffffffffffffffffffffffffffffffffffffffff168173ffffffffffffffffffffffffffffffffffffffff16141561031f576040517f08c379a0000000000000000000000000000000000000000000000000000000008152600401610316906105c9565b60405180910390fd5b919050565b600080fd5b600080fd5b600080fd5b600080fd5b600080fd5b60008083601f8401126103535761035261032e565b5b8235905067ffffffffffffffff8111156103705761036f610333565b5b60208301915083600182028301111561038c5761038b610338565b5b9250929050565b600080602083850312156103aa576103a9610324565b5b600083013567ffffffffffffffff8111156103c8576103c7610329565b5b6103d48582860161033d565b92509250509250929050565b600073ffffffffffffffffffffffffffffffffffffffff82169050919050565b6000819050919050565b600061042561042061041b846103e0565b610400565b6103e0565b9050919050565b60006104378261040a565b9050919050565b60006104498261042c565b9050919050565b6104598161043e565b82525050565b60006020820190506104746000830184610450565b92915050565b6000610485826103e0565b9050919050565b6104958161047a565b82525050565b60006020820190506104b0600083018461048c565b92915050565b60006040820190506104cb600083018561048c565b6104d8602083018461048c565b9392505050565b600082825260208201905092915050565b82818337600083830152505050565b6000601f19601f8301169050919050565b600061051c83856104df565b93506105298385846104f0565b610532836104ff565b840190509392505050565b6000606082019050610552600083018761048c565b61055f602083018661048c565b8181036040830152610572818486610510565b905095945050505050565b7f455243313136373a20637265617465206661696c656400000000000000000000600082015250565b60006105b36016836104df565b91506105be8261057d565b602082019050919050565b600060208201905081810360008301526105e2816105a6565b905091905056fea2646970667358221220259ca6c23b3ac3246d15864b0593cebd5fd0b800f58893e35fdb82576710518364736f6c634300080c0033608060405234801561001057600080fd5b506113f3806100206000396000f3fe608060405234801561001057600080fd5b506004361061007d5760003560e01c8063a7f40e971161005b578063a7f40e97146100da578063abfa7969146100f8578063ad4600ee14610114578063d8a3bc56146101305761007d565b806351efa3f4146100825780638b1df1601461009e5780639d9820f9146100bc575b600080fd5b61009c60048036038101906100979190610f52565b61014c565b005b6100a661029f565b6040516100b3919061105a565b60405180910390f35b6100c461044e565b6040516100d1919061113a565b60405180910390f35b6100e261062b565b6040516100ef919061113a565b60405180910390f35b610112600480360381019061010d9190610f52565b6106f5565b005b61012e6004803603810190610129919061115c565b610a6b565b005b61014a600480360381019061014591906111b5565b610d54565b005b8173ffffffffffffffffffffffffffffffffffffffff1663a230c524826040518263ffffffff1660e01b81526004016101859190611204565b602060405180830381865afa1580156101a2573d6000803e3d6000fd5b505050506040513d601f19601f820116820180604052508101906101c69190611257565b6101fc576040517f4636950100000000000000000000000000000000000000000000000000000000815260040160405180910390fd5b6000808273ffffffffffffffffffffffffffffffffffffffff1673ffffffffffffffffffffffffffffffffffffffff168152602001908152602001600020829080600181540180825580915050600190039060005260206000200160009091909190916101000a81548173ffffffffffffffffffffffffffffffffffffffff021916908373ffffffffffffffffffffffffffffffffffffffff1602179055505050565b60606000600160003373ffffffffffffffffffffffffffffffffffffffff1673ffffffffffffffffffffffffffffffffffffffff168152602001908152602001600020805480602002602001604051908101604052809291908181526020016000905b8282101561039457838290600052602060002090600202016040518060400160405290816000820160009054906101000a900473ffffffffffffffffffffffffffffffffffffffff1673ffffffffffffffffffffffffffffffffffffffff1673ffffffffffffffffffffffffffffffffffffffff16815260200160018201548152505081526020019060010190610302565b5050505090506000815167ffffffffffffffff8111156103b7576103b6611284565b5b6040519080825280602002602001820160405280156103e55781602001602082028036833780820191505090505b50905060005b825181101561044557828181518110610407576104066112b3565b5b602002602001015160200151828281518110610426576104256112b3565b5b602002602001018181525050808061043d90611311565b9150506103eb565b50809250505090565b60606000600160003373ffffffffffffffffffffffffffffffffffffffff1673ffffffffffffffffffffffffffffffffffffffff168152602001908152602001600020805480602002602001604051908101604052809291908181526020016000905b8282101561054357838290600052602060002090600202016040518060400160405290816000820160009054906101000a900473ffffffffffffffffffffffffffffffffffffffff1673ffffffffffffffffffffffffffffffffffffffff1673ffffffffffffffffffffffffffffffffffffffff168152602001600182015481525050815260200190600101906104b1565b5050505090506000815167ffffffffffffffff81111561056657610565611284565b5b6040519080825280602002602001820160405280156105945781602001602082028036833780820191505090505b50905060005b8251811015610622578281815181106105b6576105b56112b3565b5b6020026020010151600001518282815181106105d5576105d46112b3565b5b602002602001019073ffffffffffffffffffffffffffffffffffffffff16908173ffffffffffffffffffffffffffffffffffffffff1681525050808061061a90611311565b91505061059a565b50809250505090565b60606000803373ffffffffffffffffffffffffffffffffffffffff1673ffffffffffffffffffffffffffffffffffffffff1681526020019081526020016000208054806020026020016040519081016040528092919081815260200182805480156106eb57602002820191906000526020600020905b8160009054906101000a900473ffffffffffffffffffffffffffffffffffffffff1673ffffffffffffffffffffffffffffffffffffffff16815260200190600101908083116106a1575b5050505050905090565b8173ffffffffffffffffffffffffffffffffffffffff1663a230c524826040518263ffffffff1660e01b815260040161072e9190611204565b602060405180830381865afa15801561074b573d6000803e3d6000fd5b505050506040513d601f19601f8201168201806040525081019061076f9190611257565b156107a6576040517fc63ac29a00000000000000000000000000000000000000000000000000000000815260040160405180910390fd5b60008060008373ffffffffffffffffffffffffffffffffffffffff1673ffffffffffffffffffffffffffffffffffffffff16815260200190815260200160002080548060200260200160405190810160405280929190818152602001828054801561086657602002820191906000526020600020905b8160009054906101000a900473ffffffffffffffffffffffffffffffffffffffff1673ffffffffffffffffffffffffffffffffffffffff168152602001906001019080831161081c575b5050505050905060005b8151811015610a64578373ffffffffffffffffffffffffffffffffffffffff168282815181106108a3576108a26112b3565b5b602002602001015173ffffffffffffffffffffffffffffffffffffffff161415610a51578160016000808673ffffffffffffffffffffffffffffffffffffffff1673ffffffffffffffffffffffffffffffffffffffff16815260200190815260200160002080549050610916919061135a565b81518110610927576109266112b3565b5b60200260200101516000808573ffffffffffffffffffffffffffffffffffffffff1673ffffffffffffffffffffffffffffffffffffffff168152602001908152602001600020828154811061097f5761097e6112b3565b5b9060005260206000200160006101000a81548173ffffffffffffffffffffffffffffffffffffffff021916908373ffffffffffffffffffffffffffffffffffffffff1602179055506000808473ffffffffffffffffffffffffffffffffffffffff1673ffffffffffffffffffffffffffffffffffffffff168152602001908152602001600020805480610a1557610a1461138e565b5b6001900381819060005260206000200160006101000a81549073ffffffffffffffffffffffffffffffffffffffff021916905590555050610a67565b8080610a5c90611311565b915050610870565b50505b5050565b6000600160008373ffffffffffffffffffffffffffffffffffffffff1673ffffffffffffffffffffffffffffffffffffffff168152602001908152602001600020805480602002602001604051908101604052809291908181526020016000905b82821015610b5e57838290600052602060002090600202016040518060400160405290816000820160009054906101000a900473ffffffffffffffffffffffffffffffffffffffff1673ffffffffffffffffffffffffffffffffffffffff1673ffffffffffffffffffffffffffffffffffffffff16815260200160018201548152505081526020019060010190610acc565b50505050905060005b8151811015610d4e573373ffffffffffffffffffffffffffffffffffffffff16828281518110610b9a57610b996112b3565b5b60200260200101516000015173ffffffffffffffffffffffffffffffffffffffff161415610d3b578160018351610bd1919061135a565b81518110610be257610be16112b3565b5b6020026020010151600160008573ffffffffffffffffffffffffffffffffffffffff1673ffffffffffffffffffffffffffffffffffffffff1681526020019081526020016000208281548110610c3b57610c3a6112b3565b5b906000526020600020906002020160008201518160000160006101000a81548173ffffffffffffffffffffffffffffffffffffffff021916908373ffffffffffffffffffffffffffffffffffffffff16021790555060208201518160010155905050600160008473ffffffffffffffffffffffffffffffffffffffff1673ffffffffffffffffffffffffffffffffffffffff168152602001908152602001600020805480610cec57610ceb61138e565b5b6001900381819060005260206000209060020201600080820160006101000a81549073ffffffffffffffffffffffffffffffffffffffff02191690556001820160009055505090555050610d51565b8080610d4690611311565b915050610b67565b50505b50565b3373ffffffffffffffffffffffffffffffffffffffff1663a230c524836040518263ffffffff1660e01b8152600401610d8d9190611204565b602060405180830381865afa158015610daa573d6000803e3d6000fd5b505050506040513d601f19601f82011682018060405250810190610dce9190611257565b15610e05576040517fc63ac29a00000000000000000000000000000000000000000000000000000000815260040160405180910390fd5b600160008373ffffffffffffffffffffffffffffffffffffffff1673ffffffffffffffffffffffffffffffffffffffff16815260200190815260200160002060405180604001604052803373ffffffffffffffffffffffffffffffffffffffff16815260200183815250908060018154018082558091505060019003906000526020600020906002020160009091909190915060008201518160000160006101000a81548173ffffffffffffffffffffffffffffffffffffffff021916908373ffffffffffffffffffffffffffffffffffffffff1602179055506020820151816001015550505050565b600080fd5b600073ffffffffffffffffffffffffffffffffffffffff82169050919050565b6000610f1f82610ef4565b9050919050565b610f2f81610f14565b8114610f3a57600080fd5b50565b600081359050610f4c81610f26565b92915050565b60008060408385031215610f6957610f68610eef565b5b6000610f7785828601610f3d565b9250506020610f8885828601610f3d565b9150509250929050565b600081519050919050565b600082825260208201905092915050565b6000819050602082019050919050565b6000819050919050565b610fd181610fbe565b82525050565b6000610fe38383610fc8565b60208301905092915050565b6000602082019050919050565b600061100782610f92565b6110118185610f9d565b935061101c83610fae565b8060005b8381101561104d5781516110348882610fd7565b975061103f83610fef565b925050600181019050611020565b5085935050505092915050565b600060208201905081810360008301526110748184610ffc565b905092915050565b600081519050919050565b600082825260208201905092915050565b6000819050602082019050919050565b6110b181610f14565b82525050565b60006110c383836110a8565b60208301905092915050565b6000602082019050919050565b60006110e78261107c565b6110f18185611087565b93506110fc83611098565b8060005b8381101561112d57815161111488826110b7565b975061111f836110cf565b925050600181019050611100565b5085935050505092915050565b6000602082019050818103600083015261115481846110dc565b905092915050565b60006020828403121561117257611171610eef565b5b600061118084828501610f3d565b91505092915050565b61119281610fbe565b811461119d57600080fd5b50565b6000813590506111af81611189565b92915050565b600080604083850312156111cc576111cb610eef565b5b60006111da85828601610f3d565b92505060206111eb858286016111a0565b9150509250929050565b6111fe81610f14565b82525050565b600060208201905061121960008301846111f5565b92915050565b60008115159050919050565b6112348161121f565b811461123f57600080fd5b50565b6000815190506112518161122b565b92915050565b60006020828403121561126d5761126c610eef565b5b600061127b84828501611242565b91505092915050565b7f4e487b7100000000000000000000000000000000000000000000000000000000600052604160045260246000fd5b7f4e487b7100000000000000000000000000000000000000000000000000000000600052603260045260246000fd5b7f4e487b7100000000000000000000000000000000000000000000000000000000600052601160045260246000fd5b600061131c82610fbe565b91507fffffffffffffffffffffffffffffffffffffffffffffffffffffffffffffffff82141561134f5761134e6112e2565b5b600182019050919050565b600061136582610fbe565b915061137083610fbe565b925082821015611383576113826112e2565b5b828203905092915050565b7f4e487b7100000000000000000000000000000000000000000000000000000000600052603160045260246000fdfea2646970667358221220cae39bf2fbe459ffe747f750975d1c07e03da8c99dd983526b49f8a689b5b32a64736f6c634300080c0033608060405234801561001057600080fd5b506001600381905550612fd2806100286000396000f3fe6080604052600436106100dd5760003560e01c8063a230c5241161007f578063c1c1da4011610059578063c1c1da40146102ac578063d0e30db0146102d5578063d66d9e19146102df578063f34d4c63146102f6576100dd565b8063a230c52414610219578063abcc915314610256578063bdd4d18d14610281576100dd565b80634ba1f098116100bb5780634ba1f0981461015f57806354ebcf9b146101885780635aa6bb3b146101c5578063663c2269146101ee576100dd565b806306fdde03146100e25780634571e3a61461010d578063464c5b6c14610136575b600080fd5b3480156100ee57600080fd5b506100f7610338565b604051610104919061253b565b60405180910390f35b34801561011957600080fd5b50610134600480360381019061012f9190612704565b6103c6565b005b34801561014257600080fd5b5061015d600480360381019061015891906127a9565b6105a5565b005b34801561016b57600080fd5b50610186600480360381019061018191906127a9565b610738565b005b34801561019457600080fd5b506101af60048036038101906101aa91906127a9565b61092c565b6040516101bc91906127f1565b60405180910390f35b3480156101d157600080fd5b506101ec60048036038101906101e791906127a9565b610995565b005b3480156101fa57600080fd5b50610203610b4c565b604051610210919061281b565b60405180910390f35b34801561022557600080fd5b50610240600480360381019061023b9190612836565b610b52565b60405161024d91906127f1565b60405180910390f35b34801561026257600080fd5b5061026b610b72565b60405161027891906128c2565b60405180910390f35b34801561028d57600080fd5b50610296610b98565b6040516102a3919061299b565b60405180910390f35b3480156102b857600080fd5b506102d360048036038101906102ce91906129e9565b610c26565b005b6102dd61101c565b005b3480156102eb57600080fd5b506102f461101e565b005b34801561030257600080fd5b5061031d600480360381019061031891906127a9565b61134e565b60405161032f96959493929190612b06565b60405180910390f35b6007805461034590612b96565b80601f016020809104026020016040519081016040528092919081815260200182805461037190612b96565b80156103be5780601f10610393576101008083540402835291602001916103be565b820191906000526020600020905b8154815290600101906020018083116103a157829003601f168201915b505050505081565b60006103d26001611408565b905080156103f6576001600260016101000a81548160ff0219169083151502179055505b600082511415610432576040517fb4fa3fb300000000000000000000000000000000000000000000000000000000815260040160405180910390fd5b82600460006101000a81548173ffffffffffffffffffffffffffffffffffffffff021916908373ffffffffffffffffffffffffffffffffffffffff1602179055506006849080600181540180825580915050600190039060005260206000200160009091909190916101000a81548173ffffffffffffffffffffffffffffffffffffffff021916908373ffffffffffffffffffffffffffffffffffffffff1602179055506001600560008673ffffffffffffffffffffffffffffffffffffffff1673ffffffffffffffffffffffffffffffffffffffff16815260200190815260200160002060006101000a81548160ff02191690831515021790555081600790805190602001906105449291906123ff565b50801561059f576000600260016101000a81548160ff0219169083151502179055507f7f26b83ff96e1f2b6a682f133852f6798a09c465da95921460cefb384740249860016040516105969190612c10565b60405180910390a15b50505050565b600060038111156105b9576105b8612a38565b5b60008083815260200190815260200160002060000160149054906101000a900460ff1660038111156105ee576105ed612a38565b5b14158061065c57503373ffffffffffffffffffffffffffffffffffffffff1660008083815260200190815260200160002060010160009054906101000a900473ffffffffffffffffffffffffffffffffffffffff1673ffffffffffffffffffffffffffffffffffffffff1614155b806106ae57506001600381111561067657610675612a38565b5b60008083815260200190815260200160002060010160149054906101000a900460ff1660038111156106ab576106aa612a38565b5b14155b156106e5576040517f41abc80100000000000000000000000000000000000000000000000000000000815260040160405180910390fd5b600260008083815260200190815260200160002060010160146101000a81548160ff0219169083600381111561071e5761071d612a38565b5b021790555061072c336114fc565b6107358161158c565b50565b600560003373ffffffffffffffffffffffffffffffffffffffff1673ffffffffffffffffffffffffffffffffffffffff16815260200190815260200160002060009054906101000a900460ff166107bb576040517f2727adbd00000000000000000000000000000000000000000000000000000000815260040160405180910390fd5b6001151560008083815260200190815260200160002060010160159054906101000a900460ff161515148061085357506001151560008083815260200190815260200160002060030160003373ffffffffffffffffffffffffffffffffffffffff1673ffffffffffffffffffffffffffffffffffffffff16815260200190815260200160002060009054906101000a900460ff161515145b1561088a576040517f41abc80100000000000000000000000000000000000000000000000000000000815260040160405180910390fd5b600160008083815260200190815260200160002060030160003373ffffffffffffffffffffffffffffffffffffffff1673ffffffffffffffffffffffffffffffffffffffff16815260200190815260200160002060006101000a81548160ff021916908315150217905550600080828152602001908152602001600020600201600081548092919061091b90612c5a565b91905055506109298161158c565b50565b600080600083815260200190815260200160002060030160003373ffffffffffffffffffffffffffffffffffffffff1673ffffffffffffffffffffffffffffffffffffffff16815260200190815260200160002060009054906101000a900460ff169050919050565b600060038111156109a9576109a8612a38565b5b60008083815260200190815260200160002060000160149054906101000a900460ff1660038111156109de576109dd612a38565b5b141580610a4c57503373ffffffffffffffffffffffffffffffffffffffff1660008083815260200190815260200160002060010160009054906101000a900473ffffffffffffffffffffffffffffffffffffffff1673ffffffffffffffffffffffffffffffffffffffff1614155b80610a9d575060016003811115610a6657610a65612a38565b5b60008083815260200190815260200160002060010160149054906101000a900460ff166003811115610a9b57610a9a612a38565b5b145b15610ad4576040517f41abc80100000000000000000000000000000000000000000000000000000000815260040160405180910390fd5b600360008083815260200190815260200160002060010160146101000a81548160ff02191690836003811115610b0d57610b0c612a38565b5b0217905550610b1b336114fc565b600160008083815260200190815260200160002060010160156101000a81548160ff02191690831515021790555050565b60015481565b60056020528060005260406000206000915054906101000a900460ff1681565b600460009054906101000a900473ffffffffffffffffffffffffffffffffffffffff1681565b60606006805480602002602001604051908101604052809291908181526020018280548015610c1c57602002820191906000526020600020905b8160009054906101000a900473ffffffffffffffffffffffffffffffffffffffff1673ffffffffffffffffffffffffffffffffffffffff1681526020019060010190808311610bd2575b5050505050905090565b600560003373ffffffffffffffffffffffffffffffffffffffff1673ffffffffffffffffffffffffffffffffffffffff16815260200190815260200160002060009054906101000a900460ff16610ca9576040517f2727adbd00000000000000000000000000000000000000000000000000000000815260040160405180910390fd5b600380811115610cbc57610cbb612a38565b5b821115610cf5576040517fb4fa3fb300000000000000000000000000000000000000000000000000000000815260040160405180910390fd5b60026003811115610d0957610d08612a38565b5b60ff1682148015610d68575060008173ffffffffffffffffffffffffffffffffffffffff16111580610d6757503073ffffffffffffffffffffffffffffffffffffffff16318173ffffffffffffffffffffffffffffffffffffffff16115b5b15610d9f576040517fb4fa3fb300000000000000000000000000000000000000000000000000000000815260040160405180910390fd5b600073ffffffffffffffffffffffffffffffffffffffff168173ffffffffffffffffffffffffffffffffffffffff161415610e06576040517fb4fa3fb300000000000000000000000000000000000000000000000000000000815260040160405180910390fd5b600080600060015481526020019081526020016000209050338160000160006101000a81548173ffffffffffffffffffffffffffffffffffffffff021916908373ffffffffffffffffffffffffffffffffffffffff160217905550826003811115610e7457610e73612a38565b5b8160000160146101000a81548160ff02191690836003811115610e9a57610e99612a38565b5b0217905550818160010160006101000a81548173ffffffffffffffffffffffffffffffffffffffff021916908373ffffffffffffffffffffffffffffffffffffffff1602179055506001816002018190555060018160030160003373ffffffffffffffffffffffffffffffffffffffff1673ffffffffffffffffffffffffffffffffffffffff16815260200190815260200160002060006101000a81548160ff0219169083151502179055506000600154905060006003811115610f6157610f60612a38565b5b8260000160149054906101000a900460ff166003811115610f8557610f84612a38565b5b1415610fc75760018260010160146101000a81548160ff02191690836003811115610fb357610fb2612a38565b5b0217905550610fc28382611753565b610ff5565b60008260010160146101000a81548160ff02191690836003811115610fef57610fee612a38565b5b02179055505b6001600081548092919061100890612c5a565b91905055506110168161158c565b50505050565b565b600560003373ffffffffffffffffffffffffffffffffffffffff1673ffffffffffffffffffffffffffffffffffffffff16815260200190815260200160002060009054906101000a900460ff166110a1576040517f2727adbd00000000000000000000000000000000000000000000000000000000815260040160405180910390fd5b6000600680548060200260200160405190810160405280929190818152602001828054801561112557602002820191906000526020600020905b8160009054906101000a900473ffffffffffffffffffffffffffffffffffffffff1673ffffffffffffffffffffffffffffffffffffffff16815260200190600101908083116110db575b5050505050905060005b8151811015611349573373ffffffffffffffffffffffffffffffffffffffff1682828151811061116257611161612ca3565b5b602002602001015173ffffffffffffffffffffffffffffffffffffffff1614156113365781600183516111959190612cd2565b815181106111a6576111a5612ca3565b5b6020026020010151600682815481106111c2576111c1612ca3565b5b9060005260206000200160006101000a81548173ffffffffffffffffffffffffffffffffffffffff021916908373ffffffffffffffffffffffffffffffffffffffff160217905550600680548061121c5761121b612d06565b5b6001900381819060005260206000200160006101000a81549073ffffffffffffffffffffffffffffffffffffffff02191690559055600560003373ffffffffffffffffffffffffffffffffffffffff1673ffffffffffffffffffffffffffffffffffffffff16815260200190815260200160002060006101000a81549060ff0219169055600460009054906101000a900473ffffffffffffffffffffffffffffffffffffffff1673ffffffffffffffffffffffffffffffffffffffff1663abfa796930336040518363ffffffff1660e01b81526004016112fd929190612d35565b600060405180830381600087803b15801561131757600080fd5b505af115801561132b573d6000803e3d6000fd5b50505050505061134c565b808061134190612c5a565b91505061112f565b50505b565b600080600080600080600080600089815260200190815260200160002090508060000160009054906101000a900473ffffffffffffffffffffffffffffffffffffffff168160000160149054906101000a900460ff168260010160009054906101000a900473ffffffffffffffffffffffffffffffffffffffff168360010160149054906101000a900460ff168460010160159054906101000a900460ff1685600201549650965096509650965096505091939550919395565b6000600260019054906101000a900460ff16156114805760018260ff161480156114385750611436306117e6565b155b611477576040517f08c379a000000000000000000000000000000000000000000000000000000000815260040161146e90612dd0565b60405180910390fd5b600090506114f7565b8160ff16600260009054906101000a900460ff1660ff16106114d7576040517f08c379a00000000000000000000000000000000000000000000000000000000081526004016114ce90612dd0565b60405180910390fd5b81600260006101000a81548160ff021916908360ff160217905550600190505b919050565b600460009054906101000a900473ffffffffffffffffffffffffffffffffffffffff1673ffffffffffffffffffffffffffffffffffffffff1663ad4600ee826040518263ffffffff1660e01b81526004016115579190612df0565b600060405180830381600087803b15801561157157600080fd5b505af1158015611585573d6000803e3d6000fd5b5050505050565b6000611596611809565b905080600080848152602001908152602001600020600201541480156116035750600060038111156115cb576115ca612a38565b5b60008084815260200190815260200160002060000160149054906101000a900460ff166003811115611600576115ff612a38565b5b14155b1561163b57600160008084815260200190815260200160002060010160156101000a81548160ff02191690831515021790555061171d565b80600080848152602001908152602001600020600201541480156116a557506000600381111561166e5761166d612a38565b5b60008084815260200190815260200160002060000160149054906101000a900460ff1660038111156116a3576116a2612a38565b5b145b80156116e85750600260008084815260200190815260200160002060010160149054906101000a900460ff1660038111156116e3576116e2612a38565b5b60ff16145b1561171c57600160008084815260200190815260200160002060010160156101000a81548160ff0219169083151502179055505b5b60008083815260200190815260200160002060010160159054906101000a900460ff161561174f5761174e8261182e565b5b5050565b600460009054906101000a900473ffffffffffffffffffffffffffffffffffffffff1673ffffffffffffffffffffffffffffffffffffffff1663d8a3bc5683836040518363ffffffff1660e01b81526004016117b0929190612e0b565b600060405180830381600087803b1580156117ca57600080fd5b505af11580156117de573d6000803e3d6000fd5b505050505050565b6000808273ffffffffffffffffffffffffffffffffffffffff163b119050919050565b60006001600260068054905061181f9190612e63565b6118299190612e94565b905090565b6000600381111561184257611841612a38565b5b60008083815260200190815260200160002060000160149054906101000a900460ff16600381111561187757611876612a38565b5b141561188b57611886816119a3565b6119a0565b6001600381111561189f5761189e612a38565b5b60008083815260200190815260200160002060000160149054906101000a900460ff1660038111156118d4576118d3612a38565b5b14156118e8576118e381611bc0565b61199f565b600260038111156118fc576118fb612a38565b5b60008083815260200190815260200160002060000160149054906101000a900460ff16600381111561193157611930612a38565b5b14156119455761194081611f40565b61199e565b60038081111561195857611957612a38565b5b60008083815260200190815260200160002060000160149054906101000a900460ff16600381111561198d5761198c612a38565b5b141561199d5761199c81612147565b5b5b5b5b50565b600080600083815260200190815260200160002090506119c481600061236b565b60008160010160009054906101000a900473ffffffffffffffffffffffffffffffffffffffff169050600560008273ffffffffffffffffffffffffffffffffffffffff1673ffffffffffffffffffffffffffffffffffffffff16815260200190815260200160002060009054906101000a900460ff1615611a71576040517fbf3e1bca00000000000000000000000000000000000000000000000000000000815260040160405180910390fd5b6006819080600181540180825580915050600190039060005260206000200160009091909190916101000a81548173ffffffffffffffffffffffffffffffffffffffff021916908373ffffffffffffffffffffffffffffffffffffffff1602179055506001600560008373ffffffffffffffffffffffffffffffffffffffff1673ffffffffffffffffffffffffffffffffffffffff16815260200190815260200160002060006101000a81548160ff021916908315150217905550600460009054906101000a900473ffffffffffffffffffffffffffffffffffffffff1673ffffffffffffffffffffffffffffffffffffffff166351efa3f430836040518363ffffffff1660e01b8152600401611b89929190612d35565b600060405180830381600087803b158015611ba357600080fd5b505af1158015611bb7573d6000803e3d6000fd5b50505050505050565b60008060008381526020019081526020016000209050611be181600161236b565b60008160010160009054906101000a900473ffffffffffffffffffffffffffffffffffffffff169050600560008273ffffffffffffffffffffffffffffffffffffffff1673ffffffffffffffffffffffffffffffffffffffff16815260200190815260200160002060009054906101000a900460ff1615611c8e576040517f2727adbd00000000000000000000000000000000000000000000000000000000815260040160405180910390fd5b60006006805480602002602001604051908101604052809291908181526020018280548015611d1257602002820191906000526020600020905b8160009054906101000a900473ffffffffffffffffffffffffffffffffffffffff1673ffffffffffffffffffffffffffffffffffffffff1681526020019060010190808311611cc8575b5050505050905060005b8151811015611f38578273ffffffffffffffffffffffffffffffffffffffff16828281518110611d4f57611d4e612ca3565b5b602002602001015173ffffffffffffffffffffffffffffffffffffffff161415611f25578160018351611d829190612cd2565b81518110611d9357611d92612ca3565b5b602002602001015160068281548110611daf57611dae612ca3565b5b9060005260206000200160006101000a81548173ffffffffffffffffffffffffffffffffffffffff021916908373ffffffffffffffffffffffffffffffffffffffff1602179055506006805480611e0957611e08612d06565b5b6001900381819060005260206000200160006101000a81549073ffffffffffffffffffffffffffffffffffffffff02191690559055600560008473ffffffffffffffffffffffffffffffffffffffff1673ffffffffffffffffffffffffffffffffffffffff16815260200190815260200160002060006101000a81549060ff0219169055600460009054906101000a900473ffffffffffffffffffffffffffffffffffffffff1673ffffffffffffffffffffffffffffffffffffffff1663abfa796930856040518363ffffffff1660e01b8152600401611eea929190612d35565b600060405180830381600087803b158015611f0457600080fd5b505af1158015611f18573d6000803e3d6000fd5b5050505050505050611f3d565b8080611f3090612c5a565b915050611d1c565b505050505b50565b60026003541415611f86576040517f08c379a0000000000000000000000000000000000000000000000000000000008152600401611f7d90612f36565b60405180910390fd5b600260038190555060008060008381526020019081526020016000209050611faf81600261236b565b3073ffffffffffffffffffffffffffffffffffffffff16318160010160009054906101000a900473ffffffffffffffffffffffffffffffffffffffff1673ffffffffffffffffffffffffffffffffffffffff1611612039576040517ff4d678b800000000000000000000000000000000000000000000000000000000815260040160405180910390fd5b60008160000160009054906101000a900473ffffffffffffffffffffffffffffffffffffffff1673ffffffffffffffffffffffffffffffffffffffff168260010160009054906101000a900473ffffffffffffffffffffffffffffffffffffffff1673ffffffffffffffffffffffffffffffffffffffff166040516120bd90612f87565b60006040518083038185875af1925050503d80600081146120fa576040519150601f19603f3d011682016040523d82523d6000602084013e6120ff565b606091505b505090508061213a576040517fbf961a2800000000000000000000000000000000000000000000000000000000815260040160405180910390fd5b5050600160038190555050565b6000806000838152602001908152602001600020905061216881600361236b565b600060068054806020026020016040519081016040528092919081815260200182805480156121ec57602002820191906000526020600020905b8160009054906101000a900473ffffffffffffffffffffffffffffffffffffffff1673ffffffffffffffffffffffffffffffffffffffff16815260200190600101908083116121a2575b5050505050905060005b815181101561232d5760006005600084848151811061221857612217612ca3565b5b602002602001015173ffffffffffffffffffffffffffffffffffffffff1673ffffffffffffffffffffffffffffffffffffffff16815260200190815260200160002060006101000a81548160ff021916908315150217905550600460009054906101000a900473ffffffffffffffffffffffffffffffffffffffff1673ffffffffffffffffffffffffffffffffffffffff1663abfa7969308484815181106122c3576122c2612ca3565b5b60200260200101516040518363ffffffff1660e01b81526004016122e8929190612d35565b600060405180830381600087803b15801561230257600080fd5b505af1158015612316573d6000803e3d6000fd5b50505050808061232590612c5a565b9150506121f6565b508160010160009054906101000a900473ffffffffffffffffffffffffffffffffffffffff1673ffffffffffffffffffffffffffffffffffffffff16ff5b80600381111561237e5761237d612a38565b5b8260000160149054906101000a900460ff1660038111156123a2576123a1612a38565b5b1415806123c45750600015158260010160159054906101000a900460ff161515145b156123fb576040517f41abc80100000000000000000000000000000000000000000000000000000000815260040160405180910390fd5b5050565b82805461240b90612b96565b90600052602060002090601f01602090048101928261242d5760008555612474565b82601f1061244657805160ff1916838001178555612474565b82800160010185558215612474579182015b82811115612473578251825591602001919060010190612458565b5b5090506124819190612485565b5090565b5b8082111561249e576000816000905550600101612486565b5090565b600081519050919050565b600082825260208201905092915050565b60005b838110156124dc5780820151818401526020810190506124c1565b838111156124eb576000848401525b50505050565b6000601f19601f8301169050919050565b600061250d826124a2565b61251781856124ad565b93506125278185602086016124be565b612530816124f1565b840191505092915050565b600060208201905081810360008301526125558184612502565b905092915050565b6000604051905090565b600080fd5b600080fd5b600073ffffffffffffffffffffffffffffffffffffffff82169050919050565b600061259c82612571565b9050919050565b6125ac81612591565b81146125b757600080fd5b50565b6000813590506125c9816125a3565b92915050565b600080fd5b600080fd5b7f4e487b7100000000000000000000000000000000000000000000000000000000600052604160045260246000fd5b612611826124f1565b810181811067ffffffffffffffff821117156126305761262f6125d9565b5b80604052505050565b600061264361255d565b905061264f8282612608565b919050565b600067ffffffffffffffff82111561266f5761266e6125d9565b5b612678826124f1565b9050602081019050919050565b82818337600083830152505050565b60006126a76126a284612654565b612639565b9050828152602081018484840111156126c3576126c26125d4565b5b6126ce848285612685565b509392505050565b600082601f8301126126eb576126ea6125cf565b5b81356126fb848260208601612694565b91505092915050565b60008060006060848603121561271d5761271c612567565b5b600061272b868287016125ba565b935050602061273c868287016125ba565b925050604084013567ffffffffffffffff81111561275d5761275c61256c565b5b612769868287016126d6565b9150509250925092565b6000819050919050565b61278681612773565b811461279157600080fd5b50565b6000813590506127a38161277d565b92915050565b6000602082840312156127bf576127be612567565b5b60006127cd84828501612794565b91505092915050565b60008115159050919050565b6127eb816127d6565b82525050565b600060208201905061280660008301846127e2565b92915050565b61281581612773565b82525050565b6000602082019050612830600083018461280c565b92915050565b60006020828403121561284c5761284b612567565b5b600061285a848285016125ba565b91505092915050565b6000819050919050565b600061288861288361287e84612571565b612863565b612571565b9050919050565b600061289a8261286d565b9050919050565b60006128ac8261288f565b9050919050565b6128bc816128a1565b82525050565b60006020820190506128d760008301846128b3565b92915050565b600081519050919050565b600082825260208201905092915050565b6000819050602082019050919050565b61291281612591565b82525050565b60006129248383612909565b60208301905092915050565b6000602082019050919050565b6000612948826128dd565b61295281856128e8565b935061295d836128f9565b8060005b8381101561298e5781516129758882612918565b975061298083612930565b925050600181019050612961565b5085935050505092915050565b600060208201905081810360008301526129b5818461293d565b905092915050565b6129c681612571565b81146129d157600080fd5b50565b6000813590506129e3816129bd565b92915050565b60008060408385031215612a00576129ff612567565b5b6000612a0e85828601612794565b9250506020612a1f858286016129d4565b9150509250929050565b612a3281612591565b82525050565b7f4e487b7100000000000000000000000000000000000000000000000000000000600052602160045260246000fd5b60048110612a7857612a77612a38565b5b50565b6000819050612a8982612a67565b919050565b6000612a9982612a7b565b9050919050565b612aa981612a8e565b82525050565b612ab881612571565b82525050565b60048110612acf57612ace612a38565b5b50565b6000819050612ae082612abe565b919050565b6000612af082612ad2565b9050919050565b612b0081612ae5565b82525050565b600060c082019050612b1b6000830189612a29565b612b286020830188612aa0565b612b356040830187612aaf565b612b426060830186612af7565b612b4f60808301856127e2565b612b5c60a083018461280c565b979650505050505050565b7f4e487b7100000000000000000000000000000000000000000000000000000000600052602260045260246000fd5b60006002820490506001821680612bae57607f821691505b60208210811415612bc257612bc1612b67565b5b50919050565b6000819050919050565b600060ff82169050919050565b6000612bfa612bf5612bf084612bc8565b612863565b612bd2565b9050919050565b612c0a81612bdf565b82525050565b6000602082019050612c256000830184612c01565b92915050565b7f4e487b7100000000000000000000000000000000000000000000000000000000600052601160045260246000fd5b6000612c6582612773565b91507fffffffffffffffffffffffffffffffffffffffffffffffffffffffffffffffff821415612c9857612c97612c2b565b5b600182019050919050565b7f4e487b7100000000000000000000000000000000000000000000000000000000600052603260045260246000fd5b6000612cdd82612773565b9150612ce883612773565b925082821015612cfb57612cfa612c2b565b5b828203905092915050565b7f4e487b7100000000000000000000000000000000000000000000000000000000600052603160045260246000fd5b6000604082019050612d4a6000830185612a29565b612d576020830184612a29565b9392505050565b7f496e697469616c697a61626c653a20636f6e747261637420697320616c72656160008201527f647920696e697469616c697a6564000000000000000000000000000000000000602082015250565b6000612dba602e836124ad565b9150612dc582612d5e565b604082019050919050565b60006020820190508181036000830152612de981612dad565b9050919050565b6000602082019050612e056000830184612a29565b92915050565b6000604082019050612e206000830185612a29565b612e2d602083018461280c565b9392505050565b7f4e487b7100000000000000000000000000000000000000000000000000000000600052601260045260246000fd5b6000612e6e82612773565b9150612e7983612773565b925082612e8957612e88612e34565b5b828204905092915050565b6000612e9f82612773565b9150612eaa83612773565b9250827fffffffffffffffffffffffffffffffffffffffffffffffffffffffffffffffff03821115612edf57612ede612c2b565b5b828201905092915050565b7f5265656e7472616e637947756172643a207265656e7472616e742063616c6c00600082015250565b6000612f20601f836124ad565b9150612f2b82612eea565b602082019050919050565b60006020820190508181036000830152612f4f81612f13565b9050919050565b600081905092915050565b50565b6000612f71600083612f56565b9150612f7c82612f61565b600082019050919050565b6000612f9282612f64565b915081905091905056fea26469706673582212203970523670ebc1c5936f37a66af54b26c73da36aa8beafb3187b69c893f3c4f964736f6c634300080c0033",
  "immutableReferences": {
    "1158": [
      {
        "length": 32,
        "start": 174
      },
      {
        "length": 32,
        "start": 320
      },
      {
        "length": 32,
        "start": 467
      }
    ],
    "1160": [
      {
        "length": 32,
        "start": 356
      },
      {
        "length": 32,
        "start": 398
      }
    ]
  },
  "source": "//SPDX-License-Identifier: MIT\r\npragma solidity ^0.8.0;\r\n\r\nimport \"./SharedWallet.sol\";\r\nimport \"./SharedWalletStorage.sol\";\r\nimport \"@openzeppelin/contracts/proxy/Clones.sol\";\r\n\r\ncontract SharedWalletFactory {\r\n    SharedWalletStorage public immutable walletsStorage;\r\n    address public immutable sharedWalletImpl;\r\n\r\n    constructor() {\r\n        walletsStorage = new SharedWalletStorage();\r\n        sharedWalletImpl = address(new SharedWallet());\r\n    }\r\n\r\n    function createNewSharedWallet(string calldata _name) external {\r\n        address newSharedWallet = _cloneSharedWallet(_name);\r\n        walletsStorage.addWalletToUser(newSharedWallet, msg.sender);\r\n    }\r\n\r\n    function _cloneSharedWallet(string calldata _name)\r\n        private\r\n        returns (address)\r\n    {\r\n        address _newSharedWallet = Clones.clone(sharedWalletImpl);\r\n        SharedWallet(_newSharedWallet).initialize(\r\n            msg.sender,\r\n            address(walletsStorage),\r\n            _name\r\n        );\r\n        return _newSharedWallet;\r\n    }\r\n}\r\n",
  "sourcePath": "C:\\Users\\home\\Documents\\GitHub\\ShareIt\\contracts\\SharedWalletFactory.sol",
  "compiler": {
    "name": "solc",
    "version": "0.8.12+commit.f00d7308.Emscripten.clang"
  },
  "schemaVersion": "3.4.7",
  "updatedAt": "2022-05-22T22:01:21.778Z",
  "devdoc": {
    "kind": "dev",
    "methods": {},
    "version": 1
  },
  "userdoc": {
    "kind": "user",
    "methods": {},
    "version": 1
  }
}