{
  "contractName": "SharedWalletStorage",
  "abi": [
    {
      "inputs": [],
      "name": "userWallets",
      "outputs": [
        {
          "internalType": "address[]",
          "name": "",
          "type": "address[]"
        }
      ],
      "stateMutability": "view",
      "type": "function"
    },
    {
      "inputs": [],
      "name": "userInvitations",
      "outputs": [
        {
          "internalType": "address[]",
          "name": "",
          "type": "address[]"
        }
      ],
      "stateMutability": "view",
      "type": "function"
    },
    {
      "inputs": [
        {
          "internalType": "address",
          "name": "_user",
          "type": "address"
        }
      ],
      "name": "sendUserInvitation",
      "outputs": [],
      "stateMutability": "nonpayable",
      "type": "function"
    },
    {
      "inputs": [
        {
          "internalType": "address",
          "name": "_user",
          "type": "address"
        }
      ],
      "name": "removeUserInvitation",
      "outputs": [],
      "stateMutability": "nonpayable",
      "type": "function"
    },
    {
      "inputs": [
        {
          "internalType": "address",
          "name": "_newWallet",
          "type": "address"
        },
        {
          "internalType": "address",
          "name": "_user",
          "type": "address"
        }
      ],
      "name": "addWalletToUser",
      "outputs": [],
      "stateMutability": "nonpayable",
      "type": "function"
    },
    {
      "inputs": [
        {
          "internalType": "address",
          "name": "_oldWallet",
          "type": "address"
        },
        {
          "internalType": "address",
          "name": "_user",
          "type": "address"
        }
      ],
      "name": "removeWalletForUser",
      "outputs": [],
      "stateMutability": "nonpayable",
      "type": "function"
    }
  ],
  "bytecode": "0x608060405234801561001057600080fd5b506110e8806100206000396000f3fe608060405234801561001057600080fd5b506004361061007f576000357c01000000000000000000000000000000000000000000000000000000009004806351efa3f41461008457806364ec7cee146100a05780637716a28c146100bc578063a7f40e97146100da578063abfa7969146100f8578063ad4600ee14610114575b600080fd5b61009e60048036038101906100999190610d1f565b610130565b005b6100ba60048036038101906100b59190610d5f565b6102a8565b005b6100c46103eb565b6040516100d19190610e4a565b60405180910390f35b6100e26104b6565b6040516100ef9190610e4a565b60405180910390f35b610112600480360381019061010d9190610d1f565b610580565b005b61012e60048036038101906101299190610d5f565b61091c565b005b8173ffffffffffffffffffffffffffffffffffffffff1663a230c524826040518263ffffffff167c01000000000000000000000000000000000000000000000000000000000281526004016101859190610e7b565b602060405180830381865afa1580156101a2573d6000803e3d6000fd5b505050506040513d601f19601f820116820180604052508101906101c69190610ece565b610205576040517f08c379a00000000000000000000000000000000000000000000000000000000081526004016101fc90610f7e565b60405180910390fd5b6000808273ffffffffffffffffffffffffffffffffffffffff1673ffffffffffffffffffffffffffffffffffffffff168152602001908152602001600020829080600181540180825580915050600190039060005260206000200160009091909190916101000a81548173ffffffffffffffffffffffffffffffffffffffff021916908373ffffffffffffffffffffffffffffffffffffffff1602179055505050565b3373ffffffffffffffffffffffffffffffffffffffff1663a230c524826040518263ffffffff167c01000000000000000000000000000000000000000000000000000000000281526004016102fd9190610e7b565b602060405180830381865afa15801561031a573d6000803e3d6000fd5b505050506040513d601f19601f8201168201806040525081019061033e9190610ece565b1561034857600080fd5b600160008273ffffffffffffffffffffffffffffffffffffffff1673ffffffffffffffffffffffffffffffffffffffff168152602001908152602001600020339080600181540180825580915050600190039060005260206000200160009091909190916101000a81548173ffffffffffffffffffffffffffffffffffffffff021916908373ffffffffffffffffffffffffffffffffffffffff16021790555050565b6060600160003373ffffffffffffffffffffffffffffffffffffffff1673ffffffffffffffffffffffffffffffffffffffff1681526020019081526020016000208054806020026020016040519081016040528092919081815260200182805480156104ac57602002820191906000526020600020905b8160009054906101000a900473ffffffffffffffffffffffffffffffffffffffff1673ffffffffffffffffffffffffffffffffffffffff1681526020019060010190808311610462575b5050505050905090565b60606000803373ffffffffffffffffffffffffffffffffffffffff1673ffffffffffffffffffffffffffffffffffffffff16815260200190815260200160002080548060200260200160405190810160405280929190818152602001828054801561057657602002820191906000526020600020905b8160009054906101000a900473ffffffffffffffffffffffffffffffffffffffff1673ffffffffffffffffffffffffffffffffffffffff168152602001906001019080831161052c575b5050505050905090565b8173ffffffffffffffffffffffffffffffffffffffff1663a230c524826040518263ffffffff167c01000000000000000000000000000000000000000000000000000000000281526004016105d59190610e7b565b602060405180830381865afa1580156105f2573d6000803e3d6000fd5b505050506040513d601f19601f820116820180604052508101906106169190610ece565b1561062057600080fd5b60005b6000808373ffffffffffffffffffffffffffffffffffffffff1673ffffffffffffffffffffffffffffffffffffffff16815260200190815260200160002080549050811015610916578273ffffffffffffffffffffffffffffffffffffffff166000808473ffffffffffffffffffffffffffffffffffffffff1673ffffffffffffffffffffffffffffffffffffffff16815260200190815260200160002082815481106106d3576106d2610f9e565b5b9060005260206000200160009054906101000a900473ffffffffffffffffffffffffffffffffffffffff1673ffffffffffffffffffffffffffffffffffffffff161415610903576000808373ffffffffffffffffffffffffffffffffffffffff1673ffffffffffffffffffffffffffffffffffffffff16815260200190815260200160002060016000808573ffffffffffffffffffffffffffffffffffffffff1673ffffffffffffffffffffffffffffffffffffffff168152602001908152602001600020805490506107a69190611006565b815481106107b7576107b6610f9e565b5b9060005260206000200160009054906101000a900473ffffffffffffffffffffffffffffffffffffffff166000808473ffffffffffffffffffffffffffffffffffffffff1673ffffffffffffffffffffffffffffffffffffffff168152602001908152602001600020828154811061083257610831610f9e565b5b9060005260206000200160006101000a81548173ffffffffffffffffffffffffffffffffffffffff021916908373ffffffffffffffffffffffffffffffffffffffff1602179055506000808373ffffffffffffffffffffffffffffffffffffffff1673ffffffffffffffffffffffffffffffffffffffff1681526020019081526020016000208054806108c8576108c761103a565b5b6001900381819060005260206000200160006101000a81549073ffffffffffffffffffffffffffffffffffffffff0219169055905550610918565b808061090e90611069565b915050610623565b505b5050565b3373ffffffffffffffffffffffffffffffffffffffff1663a230c524826040518263ffffffff167c01000000000000000000000000000000000000000000000000000000000281526004016109719190610e7b565b602060405180830381865afa15801561098e573d6000803e3d6000fd5b505050506040513d601f19601f820116820180604052508101906109b29190610ece565b156109bc57600080fd5b60005b600160008373ffffffffffffffffffffffffffffffffffffffff1673ffffffffffffffffffffffffffffffffffffffff16815260200190815260200160002080549050811015610cb7573373ffffffffffffffffffffffffffffffffffffffff16600160008473ffffffffffffffffffffffffffffffffffffffff1673ffffffffffffffffffffffffffffffffffffffff1681526020019081526020016000208281548110610a7157610a70610f9e565b5b9060005260206000200160009054906101000a900473ffffffffffffffffffffffffffffffffffffffff1673ffffffffffffffffffffffffffffffffffffffff161415610ca457600160008373ffffffffffffffffffffffffffffffffffffffff1673ffffffffffffffffffffffffffffffffffffffff16815260200190815260200160002060018060008573ffffffffffffffffffffffffffffffffffffffff1673ffffffffffffffffffffffffffffffffffffffff16815260200190815260200160002080549050610b459190611006565b81548110610b5657610b55610f9e565b5b9060005260206000200160009054906101000a900473ffffffffffffffffffffffffffffffffffffffff16600160008473ffffffffffffffffffffffffffffffffffffffff1673ffffffffffffffffffffffffffffffffffffffff1681526020019081526020016000208281548110610bd257610bd1610f9e565b5b9060005260206000200160006101000a81548173ffffffffffffffffffffffffffffffffffffffff021916908373ffffffffffffffffffffffffffffffffffffffff160217905550600160008373ffffffffffffffffffffffffffffffffffffffff1673ffffffffffffffffffffffffffffffffffffffff168152602001908152602001600020805480610c6957610c6861103a565b5b6001900381819060005260206000200160006101000a81549073ffffffffffffffffffffffffffffffffffffffff0219169055905550610cb9565b8080610caf90611069565b9150506109bf565b505b50565b600080fd5b600073ffffffffffffffffffffffffffffffffffffffff82169050919050565b6000610cec82610cc1565b9050919050565b610cfc81610ce1565b8114610d0757600080fd5b50565b600081359050610d1981610cf3565b92915050565b60008060408385031215610d3657610d35610cbc565b5b6000610d4485828601610d0a565b9250506020610d5585828601610d0a565b9150509250929050565b600060208284031215610d7557610d74610cbc565b5b6000610d8384828501610d0a565b91505092915050565b600081519050919050565b600082825260208201905092915050565b6000819050602082019050919050565b610dc181610ce1565b82525050565b6000610dd38383610db8565b60208301905092915050565b6000602082019050919050565b6000610df782610d8c565b610e018185610d97565b9350610e0c83610da8565b8060005b83811015610e3d578151610e248882610dc7565b9750610e2f83610ddf565b925050600181019050610e10565b5085935050505092915050565b60006020820190508181036000830152610e648184610dec565b905092915050565b610e7581610ce1565b82525050565b6000602082019050610e906000830184610e6c565b92915050565b60008115159050919050565b610eab81610e96565b8114610eb657600080fd5b50565b600081519050610ec881610ea2565b92915050565b600060208284031215610ee457610ee3610cbc565b5b6000610ef284828501610eb9565b91505092915050565b600082825260208201905092915050565b7f55736572206973206e6f742061206d656d626572206f6620746869732077616c60008201527f6c65742100000000000000000000000000000000000000000000000000000000602082015250565b6000610f68602483610efb565b9150610f7382610f0c565b604082019050919050565b60006020820190508181036000830152610f9781610f5b565b9050919050565b7f4e487b7100000000000000000000000000000000000000000000000000000000600052603260045260246000fd5b6000819050919050565b7f4e487b7100000000000000000000000000000000000000000000000000000000600052601160045260246000fd5b600061101182610fcd565b915061101c83610fcd565b92508282101561102f5761102e610fd7565b5b828203905092915050565b7f4e487b7100000000000000000000000000000000000000000000000000000000600052603160045260246000fd5b600061107482610fcd565b91507fffffffffffffffffffffffffffffffffffffffffffffffffffffffffffffffff8214156110a7576110a6610fd7565b5b60018201905091905056fea26469706673582212205790d366a543daf8ccf80e0c50fc710169174f44edcfc13354cc43784a3f011a64736f6c634300080c0033",
  "immutableReferences": {},
  "source": "//SPDX-License-Identifier: MIT\r\npragma solidity ^0.8.0;\r\n\r\nimport \"./SharedWallet.sol\";\r\n\r\ncontract SharedWalletStorage {\r\n    mapping(address => address[]) private _usersWallets;\r\n    mapping(address => address[]) private _invitations;\r\n\r\n    function userWallets() public view returns (address[] memory) {\r\n        return _usersWallets[msg.sender];\r\n    }\r\n\r\n    function userInvitations() public view returns (address[] memory) {\r\n        return _invitations[msg.sender];\r\n    }\r\n\r\n    function sendUserInvitation(address _user) external {\r\n        require(!SharedWallet(msg.sender).isMember(_user));\r\n\r\n        _invitations[_user].push(msg.sender);\r\n    }\r\n\r\n    function removeUserInvitation(address _user) external {\r\n        require(!SharedWallet(msg.sender).isMember(_user));\r\n        for (uint256 i = 0; i < _invitations[_user].length; i++)\r\n            if (_invitations[_user][i] == msg.sender) {\r\n                _invitations[_user][i] = _invitations[_user][\r\n                    _invitations[_user].length - 1\r\n                ];\r\n                _invitations[_user].pop();\r\n                return;\r\n            }\r\n    }\r\n\r\n    function addWalletToUser(address _newWallet, address _user) external {\r\n        require(\r\n            SharedWallet(_newWallet).isMember(_user),\r\n            \"User is not a member of this wallet!\"\r\n        );\r\n        _usersWallets[_user].push(_newWallet);\r\n    }\r\n\r\n    function removeWalletForUser(address _oldWallet, address _user) external {\r\n        require(!SharedWallet(_oldWallet).isMember(_user));\r\n        for (uint256 i = 0; i < _usersWallets[_user].length; i++)\r\n            if (_usersWallets[_user][i] == _oldWallet) {\r\n                _usersWallets[_user][i] = _usersWallets[_user][\r\n                    _usersWallets[_user].length - 1\r\n                ];\r\n                _usersWallets[_user].pop();\r\n                return;\r\n            }\r\n    }\r\n}\r\n",
  "sourcePath": "C:\\Users\\Joro\\Documents\\GitHub\\ShareIt\\contracts\\SharedWalletStorage.sol",
  "compiler": {
    "name": "solc",
    "version": "0.8.12+commit.f00d7308.Emscripten.clang"
  },
  "schemaVersion": "3.4.6",
  "updatedAt": "2022-04-06T14:46:03.555Z",
  "devdoc": {
    "kind": "dev",
    "methods": {},
    "version": 1
  },
  "userdoc": {
    "kind": "user",
    "methods": {},
    "version": 1
  }
}