{
  "contractName": "SharedWalletFactory",
  "abi": [
    {
      "inputs": [],
      "stateMutability": "nonpayable",
      "type": "constructor"
    },
    {
      "inputs": [],
      "name": "walletsStorage",
      "outputs": [
        {
          "internalType": "contract SharedWalletsStorage",
          "name": "",
          "type": "address"
        }
      ],
      "stateMutability": "view",
      "type": "function"
    },
    {
      "inputs": [],
      "name": "createNewSharedWallet",
      "outputs": [
        {
          "internalType": "address",
          "name": "",
          "type": "address"
        }
      ],
      "stateMutability": "nonpayable",
      "type": "function"
    }
  ],
  "bytecode": "0x608060405234801561001057600080fd5b5060405161001d9061007e565b604051809103906000f080158015610039573d6000803e3d6000fd5b506000806101000a81548173ffffffffffffffffffffffffffffffffffffffff021916908373ffffffffffffffffffffffffffffffffffffffff16021790555061008b565b6109e7806123b583390190565b61231b8061009a6000396000f3fe608060405234801561001057600080fd5b5060043610610053576000357c0100000000000000000000000000000000000000000000000000000000900480638d4eebd414610058578063abcc915314610076575b600080fd5b610060610094565b60405161006d9190610216565b60405180910390f35b61007e61019f565b60405161008b9190610290565b60405180910390f35b6000803360008054906101000a900473ffffffffffffffffffffffffffffffffffffffff166040516100c5906101c8565b6100d09291906102ab565b604051809103906000f0801580156100ec573d6000803e3d6000fd5b50905060008054906101000a900473ffffffffffffffffffffffffffffffffffffffff1673ffffffffffffffffffffffffffffffffffffffff166351efa3f482336040518363ffffffff167c01000000000000000000000000000000000000000000000000000000000281526004016101669291906102ab565b600060405180830381600087803b15801561018057600080fd5b505af1158015610194573d6000803e3d6000fd5b505050508091505090565b60008060009054906101000a900473ffffffffffffffffffffffffffffffffffffffff16905090565b612011806102d583390190565b600073ffffffffffffffffffffffffffffffffffffffff82169050919050565b6000610200826101d5565b9050919050565b610210816101f5565b82525050565b600060208201905061022b6000830184610207565b92915050565b6000819050919050565b600061025661025161024c846101d5565b610231565b6101d5565b9050919050565b60006102688261023b565b9050919050565b600061027a8261025d565b9050919050565b61028a8161026f565b82525050565b60006020820190506102a56000830184610281565b92915050565b60006040820190506102c06000830185610207565b6102cd6020830184610207565b939250505056fe60806040523480156200001157600080fd5b5060405162002011380380620020118339818101604052810190620000379190620001a5565b80600260006101000a81548173ffffffffffffffffffffffffffffffffffffffff021916908373ffffffffffffffffffffffffffffffffffffffff1602179055506004829080600181540180825580915050600190039060005260206000200160009091909190916101000a81548173ffffffffffffffffffffffffffffffffffffffff021916908373ffffffffffffffffffffffffffffffffffffffff1602179055506001600360008473ffffffffffffffffffffffffffffffffffffffff1673ffffffffffffffffffffffffffffffffffffffff16815260200190815260200160002060006101000a81548160ff0219169083151502179055505050620001ec565b600080fd5b600073ffffffffffffffffffffffffffffffffffffffff82169050919050565b60006200016d8262000140565b9050919050565b6200017f8162000160565b81146200018b57600080fd5b50565b6000815190506200019f8162000174565b92915050565b60008060408385031215620001bf57620001be6200013b565b5b6000620001cf858286016200018e565b9250506020620001e2858286016200018e565b9150509250929050565b611e1580620001fc6000396000f3fe608060405260043610610126576000357c01000000000000000000000000000000000000000000000000000000009004806370a26c23116100b2578063abcc915311610081578063abcc9153146103f8578063ad207e1614610423578063bdd4d18d14610460578063d0e30db01461048b578063ea3ca2221461049557610126565b806370a26c23146103045780639d11877014610341578063a1a74aae1461037e578063a230c524146103bb57610126565b8063464c5b6c116100f9578063464c5b6c1461020d5780634ba1f09814610236578063553da43e1461025f578063663c22691461029c5780636fb8c995146102c757610126565b806306fdde031461012b5780631089f5ed14610156578063158dfe3b146101935780632e1a7d4d146101d0575b600080fd5b34801561013757600080fd5b506101406104d2565b60405161014d91906115b3565b60405180910390f35b34801561016257600080fd5b5061017d60048036038101906101789190611610565b610564565b60405161018a9190611658565b60405180910390f35b34801561019f57600080fd5b506101ba60048036038101906101b59190611610565b610762565b6040516101c791906116b4565b60405180910390f35b3480156101dc57600080fd5b506101f760048036038101906101f29190611610565b6107a1565b6040516102049190611658565b60405180910390f35b34801561021957600080fd5b50610234600480360381019061022f9190611610565b61082c565b005b34801561024257600080fd5b5061025d60048036038101906102589190611610565b610953565b005b34801561026b57600080fd5b5061028660048036038101906102819190611610565b610ae9565b6040516102939190611746565b60405180910390f35b3480156102a857600080fd5b506102b1610b15565b6040516102be9190611770565b60405180910390f35b3480156102d357600080fd5b506102ee60048036038101906102e991906117dc565b610b1f565b6040516102fb9190611770565b60405180910390f35b34801561031057600080fd5b5061032b60048036038101906103269190611610565b610db3565b60405161033891906116b4565b60405180910390f35b34801561034d57600080fd5b5061036860048036038101906103639190611610565b610df2565b6040516103759190611658565b60405180910390f35b34801561038a57600080fd5b506103a560048036038101906103a09190611610565b610e51565b6040516103b29190611658565b60405180910390f35b3480156103c757600080fd5b506103e260048036038101906103dd919061182f565b6110c2565b6040516103ef9190611658565b60405180910390f35b34801561040457600080fd5b5061040d611118565b60405161041a91906118bb565b60405180910390f35b34801561042f57600080fd5b5061044a60048036038101906104459190611610565b611142565b6040516104579190611770565b60405180910390f35b34801561046c57600080fd5b50610475611161565b6040516104829190611994565b60405180910390f35b6104936111ef565b005b3480156104a157600080fd5b506104bc60048036038101906104b79190611610565b6111f1565b6040516104c99190611770565b60405180910390f35b6060600580546104e1906119e5565b80601f016020809104026020016040519081016040528092919081815260200182805461050d906119e5565b801561055a5780601f1061052f5761010080835404028352916020019161055a565b820191906000526020600020905b81548152906001019060200180831161053d57829003601f168201915b5050505050905090565b6000806000808481526020019081526020016000209050610586816000611210565b60048160010160009054906101000a900473ffffffffffffffffffffffffffffffffffffffff169080600181540180825580915050600190039060005260206000200160009091909190916101000a81548173ffffffffffffffffffffffffffffffffffffffff021916908373ffffffffffffffffffffffffffffffffffffffff1602179055506001600360008360010160009054906101000a900473ffffffffffffffffffffffffffffffffffffffff1673ffffffffffffffffffffffffffffffffffffffff1673ffffffffffffffffffffffffffffffffffffffff16815260200190815260200160002060006101000a81548160ff021916908315150217905550600260009054906101000a900473ffffffffffffffffffffffffffffffffffffffff1673ffffffffffffffffffffffffffffffffffffffff166351efa3f4308360010160009054906101000a900473ffffffffffffffffffffffffffffffffffffffff166040518363ffffffff167c0100000000000000000000000000000000000000000000000000000000028152600401610726929190611a17565b600060405180830381600087803b15801561074057600080fd5b505af1158015610754573d6000803e3d6000fd5b505050506001915050919050565b600080600083815260200190815260200160002060010160009054906101000a900473ffffffffffffffffffffffffffffffffffffffff169050919050565b60008060008084815260200190815260200160002090506107c3816002611210565b3073ffffffffffffffffffffffffffffffffffffffff1631816002015411156107eb57600080fd5b3373ffffffffffffffffffffffffffffffffffffffff166108fc82600201549081150290604051600060405180830381858888f19350505050915050919050565b600060038111156108405761083f6116cf565b5b60008083815260200190815260200160002060000160149054906101000a900460ff166003811115610875576108746116cf565b5b146108b5576040517f08c379a00000000000000000000000000000000000000000000000000000000081526004016108ac90611a8c565b60405180910390fd5b3373ffffffffffffffffffffffffffffffffffffffff1660008083815260200190815260200160002060010160009054906101000a900473ffffffffffffffffffffffffffffffffffffffff1673ffffffffffffffffffffffffffffffffffffffff161461092257600080fd5b600160008083815260200190815260200160002060030160016101000a81548160ff02191690831515021790555050565b600360003373ffffffffffffffffffffffffffffffffffffffff1673ffffffffffffffffffffffffffffffffffffffff16815260200190815260200160002060009054906101000a900460ff166109a957600080fd5b6000151560008083815260200190815260200160002060050160003373ffffffffffffffffffffffffffffffffffffffff1673ffffffffffffffffffffffffffffffffffffffff16815260200190815260200160002060009054906101000a900460ff16151514610a4f576040517f08c379a0000000000000000000000000000000000000000000000000000000008152600401610a4690611af8565b60405180910390fd5b6001151560008083815260200190815260200160002060050160003373ffffffffffffffffffffffffffffffffffffffff1673ffffffffffffffffffffffffffffffffffffffff16815260200190815260200160002060009054906101000a905050506000808281526020019081526020016000206004016000815480929190610ad890611b47565b9190505550610ae681611375565b50565b600080600083815260200190815260200160002060000160149054906101000a900460ff169050919050565b6000600154905090565b6000600360003373ffffffffffffffffffffffffffffffffffffffff1673ffffffffffffffffffffffffffffffffffffffff16815260200190815260200160002060009054906101000a900460ff16610b7757600080fd5b6003846003811115610b8c57610b8b6116cf565b5b1115610bcd576040517f08c379a0000000000000000000000000000000000000000000000000000000008152600401610bc490611bdc565b60405180910390fd5b60026003811115610be157610be06116cf565b5b846003811115610bf457610bf36116cf565b5b1415610c46576000831015610c0857600080fd5b600073ffffffffffffffffffffffffffffffffffffffff168273ffffffffffffffffffffffffffffffffffffffff1614610c4157600080fd5b610c8e565b60008314610c5357600080fd5b600073ffffffffffffffffffffffffffffffffffffffff168273ffffffffffffffffffffffffffffffffffffffff161415610c8d57600080fd5b5b600080600060015481526020019081526020016000209050338160000160006101000a81548173ffffffffffffffffffffffffffffffffffffffff021916908373ffffffffffffffffffffffffffffffffffffffff160217905550848160000160146101000a81548160ff02191690836003811115610d1057610d0f6116cf565b5b0217905550828160010160006101000a81548173ffffffffffffffffffffffffffffffffffffffff021916908373ffffffffffffffffffffffffffffffffffffffff1602179055508381600201819055506001816004018190555060008160030160006101000a81548160ff0219169083151502179055506000600154905060016000815480929190610da290611b47565b919050555080925050509392505050565b600080600083815260200190815260200160002060000160009054906101000a900473ffffffffffffffffffffffffffffffffffffffff169050919050565b6000806000808481526020019081526020016000209050610e14816003611210565b8060010160009054906101000a900473ffffffffffffffffffffffffffffffffffffffff1673ffffffffffffffffffffffffffffffffffffffff16ff5b6000806000808481526020019081526020016000209050610e73816001611210565b60005b6004805490508110156110b6578160010160009054906101000a900473ffffffffffffffffffffffffffffffffffffffff1673ffffffffffffffffffffffffffffffffffffffff1660048281548110610ed257610ed1611bfc565b5b9060005260206000200160009054906101000a900473ffffffffffffffffffffffffffffffffffffffff1673ffffffffffffffffffffffffffffffffffffffff1614156110a357600060048281548110610f2f57610f2e611bfc565b5b9060005260206000200160009054906101000a900473ffffffffffffffffffffffffffffffffffffffff16905060048281548110610f7057610f6f611bfc565b5b9060005260206000200160006101000a81549073ffffffffffffffffffffffffffffffffffffffff0219169055600360008273ffffffffffffffffffffffffffffffffffffffff1673ffffffffffffffffffffffffffffffffffffffff16815260200190815260200160002060006101000a81549060ff0219169055600260009054906101000a900473ffffffffffffffffffffffffffffffffffffffff1673ffffffffffffffffffffffffffffffffffffffff1663abfa796930836040518363ffffffff167c0100000000000000000000000000000000000000000000000000000000028152600401611065929190611a17565b600060405180830381600087803b15801561107f57600080fd5b505af1158015611093573d6000803e3d6000fd5b50505050600193505050506110bd565b80806110ae90611b47565b915050610e76565b5060009150505b919050565b6000600360008373ffffffffffffffffffffffffffffffffffffffff1673ffffffffffffffffffffffffffffffffffffffff16815260200190815260200160002060009054906101000a900460ff169050919050565b6000600260009054906101000a900473ffffffffffffffffffffffffffffffffffffffff16905090565b6000806000838152602001908152602001600020600401549050919050565b606060048054806020026020016040519081016040528092919081815260200182805480156111e557602002820191906000526020600020905b8160009054906101000a900473ffffffffffffffffffffffffffffffffffffffff1673ffffffffffffffffffffffffffffffffffffffff168152602001906001019080831161119b575b5050505050905090565b565b6000806000838152602001908152602001600020600201549050919050565b3373ffffffffffffffffffffffffffffffffffffffff168260000160009054906101000a900473ffffffffffffffffffffffffffffffffffffffff1673ffffffffffffffffffffffffffffffffffffffff16146112a2576040517f08c379a000000000000000000000000000000000000000000000000000000000815260040161129990611c9d565b60405180910390fd5b600115158260030160009054906101000a900460ff161515146112fa576040517f08c379a00000000000000000000000000000000000000000000000000000000081526004016112f190611d09565b60405180910390fd5b80600381111561130d5761130c6116cf565b5b8260000160149054906101000a900460ff166003811115611331576113306116cf565b5b14611371576040517f08c379a000000000000000000000000000000000000000000000000000000000815260040161136890611a8c565b60405180910390fd5b5050565b60006113856004805490506114f8565b905080600080848152602001908152602001600020600401541480156113f25750600060038111156113ba576113b96116cf565b5b60008084815260200190815260200160002060000160149054906101000a900460ff1660038111156113ef576113ee6116cf565b5b14155b1561142a57600160008084815260200190815260200160002060030160006101000a81548160ff0219169083151502179055506114f4565b806000808481526020019081526020016000206004015414801561149457506000600381111561145d5761145c6116cf565b5b60008084815260200190815260200160002060000160149054906101000a900460ff166003811115611492576114916116cf565b5b145b80156114bf575060008083815260200190815260200160002060030160019054906101000a900460ff165b156114f357600160008084815260200190815260200160002060030160006101000a81548160ff0219169083151502179055505b5b5050565b600060016002836115099190611d58565b6115139190611d89565b9050919050565b600081519050919050565b600082825260208201905092915050565b60005b83811015611554578082015181840152602081019050611539565b83811115611563576000848401525b50505050565b6000601f19601f8301169050919050565b60006115858261151a565b61158f8185611525565b935061159f818560208601611536565b6115a881611569565b840191505092915050565b600060208201905081810360008301526115cd818461157a565b905092915050565b600080fd5b6000819050919050565b6115ed816115da565b81146115f857600080fd5b50565b60008135905061160a816115e4565b92915050565b600060208284031215611626576116256115d5565b5b6000611634848285016115fb565b91505092915050565b60008115159050919050565b6116528161163d565b82525050565b600060208201905061166d6000830184611649565b92915050565b600073ffffffffffffffffffffffffffffffffffffffff82169050919050565b600061169e82611673565b9050919050565b6116ae81611693565b82525050565b60006020820190506116c960008301846116a5565b92915050565b7f4e487b7100000000000000000000000000000000000000000000000000000000600052602160045260246000fd5b6004811061170f5761170e6116cf565b5b50565b6000819050611720826116fe565b919050565b600061173082611712565b9050919050565b61174081611725565b82525050565b600060208201905061175b6000830184611737565b92915050565b61176a816115da565b82525050565b60006020820190506117856000830184611761565b92915050565b6004811061179857600080fd5b50565b6000813590506117aa8161178b565b92915050565b6117b981611693565b81146117c457600080fd5b50565b6000813590506117d6816117b0565b92915050565b6000806000606084860312156117f5576117f46115d5565b5b60006118038682870161179b565b9350506020611814868287016115fb565b9250506040611825868287016117c7565b9150509250925092565b600060208284031215611845576118446115d5565b5b6000611853848285016117c7565b91505092915050565b6000819050919050565b600061188161187c61187784611673565b61185c565b611673565b9050919050565b600061189382611866565b9050919050565b60006118a582611888565b9050919050565b6118b58161189a565b82525050565b60006020820190506118d060008301846118ac565b92915050565b600081519050919050565b600082825260208201905092915050565b6000819050602082019050919050565b61190b81611693565b82525050565b600061191d8383611902565b60208301905092915050565b6000602082019050919050565b6000611941826118d6565b61194b81856118e1565b9350611956836118f2565b8060005b8381101561198757815161196e8882611911565b975061197983611929565b92505060018101905061195a565b5085935050505092915050565b600060208201905081810360008301526119ae8184611936565b905092915050565b7f4e487b7100000000000000000000000000000000000000000000000000000000600052602260045260246000fd5b600060028204905060018216806119fd57607f821691505b60208210811415611a1157611a106119b6565b5b50919050565b6000604082019050611a2c60008301856116a5565b611a3960208301846116a5565b9392505050565b7f57726f6e67207265717565737420696421000000000000000000000000000000600082015250565b6000611a76601183611525565b9150611a8182611a40565b602082019050919050565b60006020820190508181036000830152611aa581611a69565b9050919050565b7f416c726561647920766f74656420746f20746869732072657175657374210000600082015250565b6000611ae2601e83611525565b9150611aed82611aac565b602082019050919050565b60006020820190508181036000830152611b1181611ad5565b9050919050565b7f4e487b7100000000000000000000000000000000000000000000000000000000600052601160045260246000fd5b6000611b52826115da565b91507fffffffffffffffffffffffffffffffffffffffffffffffffffffffffffffffff821415611b8557611b84611b18565b5b600182019050919050565b7f496e76616c696420726571756573742074797065210000000000000000000000600082015250565b6000611bc6601583611525565b9150611bd182611b90565b602082019050919050565b60006020820190508181036000830152611bf581611bb9565b9050919050565b7f4e487b7100000000000000000000000000000000000000000000000000000000600052603260045260246000fd5b7f596f7520617265206e6f742074686520617574686f72206f662074686973207260008201527f6571756573742100000000000000000000000000000000000000000000000000602082015250565b6000611c87602783611525565b9150611c9282611c2b565b604082019050919050565b60006020820190508181036000830152611cb681611c7a565b9050919050565b7f52657175657374206973206e6f7420617070726f766564207965742100000000600082015250565b6000611cf3601c83611525565b9150611cfe82611cbd565b602082019050919050565b60006020820190508181036000830152611d2281611ce6565b9050919050565b7f4e487b7100000000000000000000000000000000000000000000000000000000600052601260045260246000fd5b6000611d63826115da565b9150611d6e836115da565b925082611d7e57611d7d611d29565b5b828204905092915050565b6000611d94826115da565b9150611d9f836115da565b9250827fffffffffffffffffffffffffffffffffffffffffffffffffffffffffffffffff03821115611dd457611dd3611b18565b5b82820190509291505056fea264697066735822122080a78d7e9a9e3c6b4950347b92e8a558bbad9d2d2d1ae85075ce94b438e6b48d64736f6c634300080c0033a2646970667358221220d795fae193fcb6eaa96c19f9d8cddcdd6b9edf420f4bc54d97aa67cf849552b064736f6c634300080c0033608060405260086000806101000a81548160ff021916908360ff16021790555034801561002b57600080fd5b506109ac8061003b6000396000f3fe608060405234801561001057600080fd5b5060043610610069576000357c0100000000000000000000000000000000000000000000000000000000900480632bf727671461006e57806351efa3f41461008c578063a7f40e97146100a8578063abfa7969146100c6575b600080fd5b6100766100e2565b60405161008391906105f5565b60405180910390f35b6100a660048036038101906100a19190610673565b6100f8565b005b6100b06102d4565b6040516100bd9190610771565b60405180910390f35b6100e060048036038101906100db9190610673565b61039f565b005b60008060009054906101000a900460ff16905090565b81818173ffffffffffffffffffffffffffffffffffffffff1663a230c524826040518263ffffffff167c010000000000000000000000000000000000000000000000000000000002815260040161014f91906107a2565b602060405180830381865afa15801561016c573d6000803e3d6000fd5b505050506040513d601f19601f8201168201806040525081019061019091906107f5565b61019957600080fd5b60008054906101000a900460ff1660ff16600160008573ffffffffffffffffffffffffffffffffffffffff1673ffffffffffffffffffffffffffffffffffffffff16815260200190815260200160002080549050111561022e576040517f08c379a0000000000000000000000000000000000000000000000000000000008152600401610225906108a5565b60405180910390fd5b600160008473ffffffffffffffffffffffffffffffffffffffff1673ffffffffffffffffffffffffffffffffffffffff168152602001908152602001600020849080600181540180825580915050600190039060005260206000200160009091909190916101000a81548173ffffffffffffffffffffffffffffffffffffffff021916908373ffffffffffffffffffffffffffffffffffffffff16021790555050505050565b6060600160003373ffffffffffffffffffffffffffffffffffffffff1673ffffffffffffffffffffffffffffffffffffffff16815260200190815260200160002080548060200260200160405190810160405280929190818152602001828054801561039557602002820191906000526020600020905b8160009054906101000a900473ffffffffffffffffffffffffffffffffffffffff1673ffffffffffffffffffffffffffffffffffffffff168152602001906001019080831161034b575b5050505050905090565b81818173ffffffffffffffffffffffffffffffffffffffff1663a230c524826040518263ffffffff167c01000000000000000000000000000000000000000000000000000000000281526004016103f691906107a2565b602060405180830381865afa158015610413573d6000803e3d6000fd5b505050506040513d601f19601f8201168201806040525081019061043791906107f5565b61044057600080fd5b60005b600160008573ffffffffffffffffffffffffffffffffffffffff1673ffffffffffffffffffffffffffffffffffffffff168152602001908152602001600020805490508110156105d2578473ffffffffffffffffffffffffffffffffffffffff16600160008673ffffffffffffffffffffffffffffffffffffffff1673ffffffffffffffffffffffffffffffffffffffff16815260200190815260200160002082815481106104f5576104f46108c5565b5b9060005260206000200160009054906101000a900473ffffffffffffffffffffffffffffffffffffffff1673ffffffffffffffffffffffffffffffffffffffff1614156105bf57600160008573ffffffffffffffffffffffffffffffffffffffff1673ffffffffffffffffffffffffffffffffffffffff168152602001908152602001600020818154811061058d5761058c6108c5565b5b9060005260206000200160006101000a81549073ffffffffffffffffffffffffffffffffffffffff02191690556105d2565b80806105ca9061092d565b915050610443565b5050505050565b600060ff82169050919050565b6105ef816105d9565b82525050565b600060208201905061060a60008301846105e6565b92915050565b600080fd5b600073ffffffffffffffffffffffffffffffffffffffff82169050919050565b600061064082610615565b9050919050565b61065081610635565b811461065b57600080fd5b50565b60008135905061066d81610647565b92915050565b6000806040838503121561068a57610689610610565b5b60006106988582860161065e565b92505060206106a98582860161065e565b9150509250929050565b600081519050919050565b600082825260208201905092915050565b6000819050602082019050919050565b6106e881610635565b82525050565b60006106fa83836106df565b60208301905092915050565b6000602082019050919050565b600061071e826106b3565b61072881856106be565b9350610733836106cf565b8060005b8381101561076457815161074b88826106ee565b975061075683610706565b925050600181019050610737565b5085935050505092915050565b6000602082019050818103600083015261078b8184610713565b905092915050565b61079c81610635565b82525050565b60006020820190506107b76000830184610793565b92915050565b60008115159050919050565b6107d2816107bd565b81146107dd57600080fd5b50565b6000815190506107ef816107c9565b92915050565b60006020828403121561080b5761080a610610565b5b6000610819848285016107e0565b91505092915050565b600082825260208201905092915050565b7f412073696e676c6520757365722063616e6e6f7420706172746963697061746560008201527f20696e206d6f7265207468616e20382077616c6c657473210000000000000000602082015250565b600061088f603883610822565b915061089a82610833565b604082019050919050565b600060208201905081810360008301526108be81610882565b9050919050565b7f4e487b7100000000000000000000000000000000000000000000000000000000600052603260045260246000fd5b7f4e487b7100000000000000000000000000000000000000000000000000000000600052601160045260246000fd5b6000819050919050565b600061093882610923565b91507fffffffffffffffffffffffffffffffffffffffffffffffffffffffffffffffff82141561096b5761096a6108f4565b5b60018201905091905056fea26469706673582212208c1b0774b5e0ad30f8996f595f5094c2eea01bc9bc6fef6d0da89ca688c3752f64736f6c634300080c0033",
  "immutableReferences": {},
  "source": "//SPDX-License-Identifier: MIT\r\npragma solidity ^0.8.0;\r\n\r\nimport \"./SharedWallet.sol\";\r\nimport \"./SharedWalletsStorage.sol\";\r\n\r\ncontract SharedWalletFactory {\r\n    SharedWalletsStorage private _walletsStorage;\r\n\r\n    constructor() {\r\n        _walletsStorage = new SharedWalletsStorage();\r\n    }\r\n\r\n    function walletsStorage() public view returns (SharedWalletsStorage) {\r\n        return _walletsStorage;\r\n    }\r\n\r\n    function createNewSharedWallet() external returns (address) {\r\n        address newSharedWalletAddress = address(\r\n            new SharedWallet(msg.sender, address(_walletsStorage))\r\n        );\r\n        _walletsStorage.addWalletToUser(newSharedWalletAddress, msg.sender);\r\n\r\n        return newSharedWalletAddress;\r\n    }\r\n}\r\n",
  "sourcePath": "C:\\Users\\Joro\\Documents\\GitHub\\ShareIt\\contracts\\SharedWalletFactory.sol",
  "compiler": {
    "name": "solc",
    "version": "0.8.12+commit.f00d7308.Emscripten.clang"
  },
  "schemaVersion": "3.4.6",
  "updatedAt": "2022-03-25T13:00:02.932Z",
  "devdoc": {
    "kind": "dev",
    "methods": {},
    "version": 1
  },
  "userdoc": {
    "kind": "user",
    "methods": {},
    "version": 1
  }
}