{
  "contractName": "SharedWalletFactory",
  "abi": [
    {
      "inputs": [],
      "stateMutability": "nonpayable",
      "type": "constructor"
    },
    {
      "inputs": [],
      "name": "walletStorage",
      "outputs": [
        {
          "internalType": "contract SharedWalletStorage",
          "name": "",
          "type": "address"
        }
      ],
      "stateMutability": "view",
      "type": "function"
    },
    {
      "inputs": [
        {
          "internalType": "uint256",
          "name": "_maxMembers",
          "type": "uint256"
        }
      ],
      "name": "createNewSharedWallet",
      "outputs": [],
      "stateMutability": "nonpayable",
      "type": "function"
    }
  ],
  "bytecode": "0x608060405234801561001057600080fd5b5060405161001d9061007e565b604051809103906000f080158015610039573d6000803e3d6000fd5b506000806101000a81548173ffffffffffffffffffffffffffffffffffffffff021916908373ffffffffffffffffffffffffffffffffffffffff16021790555061008b565b6107c88061203483390190565b611f9a8061009a6000396000f3fe608060405234801561001057600080fd5b5060043610610053576000357c01000000000000000000000000000000000000000000000000000000009004806314a0bc6f146100585780634a43a27314610076575b600080fd5b610060610092565b60405161006d919061019f565b60405180910390f35b610090600480360381019061008b91906101f5565b6100b6565b005b60008054906101000a900473ffffffffffffffffffffffffffffffffffffffff1681565b338160008054906101000a900473ffffffffffffffffffffffffffffffffffffffff166040516100e590610112565b6100f193929190610252565b604051809103906000f08015801561010d573d6000803e3d6000fd5b505050565b611cdb806200028a83390190565b600073ffffffffffffffffffffffffffffffffffffffff82169050919050565b6000819050919050565b600061016561016061015b84610120565b610140565b610120565b9050919050565b60006101778261014a565b9050919050565b60006101898261016c565b9050919050565b6101998161017e565b82525050565b60006020820190506101b46000830184610190565b92915050565b600080fd5b6000819050919050565b6101d2816101bf565b81146101dd57600080fd5b50565b6000813590506101ef816101c9565b92915050565b60006020828403121561020b5761020a6101ba565b5b6000610219848285016101e0565b91505092915050565b600061022d82610120565b9050919050565b61023d81610222565b82525050565b61024c816101bf565b82525050565b60006060820190506102676000830186610234565b6102746020830185610243565b6102816040830184610190565b94935050505056fe60806040523480156200001157600080fd5b5060405162001cdb38038062001cdb833981810160405281019062000037919062000323565b600c8211156200007e576040517f08c379a0000000000000000000000000000000000000000000000000000000008152600401620000759062000406565b60405180910390fd5b80600260006101000a81548173ffffffffffffffffffffffffffffffffffffffff021916908373ffffffffffffffffffffffffffffffffffffffff160217905550816003819055506005839080600181540180825580915050600190039060005260206000200160009091909190916101000a81548173ffffffffffffffffffffffffffffffffffffffff021916908373ffffffffffffffffffffffffffffffffffffffff1602179055506001600460008573ffffffffffffffffffffffffffffffffffffffff1673ffffffffffffffffffffffffffffffffffffffff16815260200190815260200160002060006101000a81548160ff021916908315150217905550600260009054906101000a900473ffffffffffffffffffffffffffffffffffffffff1673ffffffffffffffffffffffffffffffffffffffff166351efa3f430856040518363ffffffff167c0100000000000000000000000000000000000000000000000000000000028152600401620001fc92919062000439565b600060405180830381600087803b1580156200021757600080fd5b505af11580156200022c573d6000803e3d6000fd5b5050505050505062000466565b600080fd5b600073ffffffffffffffffffffffffffffffffffffffff82169050919050565b60006200026b826200023e565b9050919050565b6200027d816200025e565b81146200028957600080fd5b50565b6000815190506200029d8162000272565b92915050565b6000819050919050565b620002b881620002a3565b8114620002c457600080fd5b50565b600081519050620002d881620002ad565b92915050565b6000620002eb826200025e565b9050919050565b620002fd81620002de565b81146200030957600080fd5b50565b6000815190506200031d81620002f2565b92915050565b6000806000606084860312156200033f576200033e62000239565b5b60006200034f868287016200028c565b93505060206200036286828701620002c7565b925050604062000375868287016200030c565b9150509250925092565b600082825260208201905092915050565b7f43616e6e6f742068617665206d6f7265207468616e203132206d656d6265727360008201527f20696e20612073696e676c65207368617265642077616c6c6574210000000000602082015250565b6000620003ee603b836200037f565b9150620003fb8262000390565b604082019050919050565b600060208201905081810360008301526200042181620003df565b9050919050565b62000433816200025e565b82525050565b600060408201905062000450600083018562000428565b6200045f602083018462000428565b9392505050565b61186580620004766000396000f3fe6080604052600436106100bd576000357c0100000000000000000000000000000000000000000000000000000000900480636fb8c995116100815780636fb8c995146101d157806381d12c581461020e5780639d118770146102505780639eab52531461028d578063a1a74aae146102b8578063bf4386a0146102f5576100c4565b80631089f5ed146100c65780632e1a7d4d146101035780634ba1f098146101405780635daf08ca14610169578063663c2269146101a6576100c4565b366100c457005b005b3480156100d257600080fd5b506100ed60048036038101906100e8919061107f565b610320565b6040516100fa91906110c7565b60405180910390f35b34801561010f57600080fd5b5061012a6004803603810190610125919061107f565b610567565b60405161013791906110c7565b60405180910390f35b34801561014c57600080fd5b506101676004803603810190610162919061107f565b6105f2565b005b34801561017557600080fd5b50610190600480360381019061018b919061107f565b610788565b60405161019d9190611123565b60405180910390f35b3480156101b257600080fd5b506101bb6107c7565b6040516101c8919061114d565b60405180910390f35b3480156101dd57600080fd5b506101f860048036038101906101f391906111b9565b6107cd565b604051610205919061114d565b60405180910390f35b34801561021a57600080fd5b506102356004803603810190610230919061107f565b610a61565b60405161024796959493929190611283565b60405180910390f35b34801561025c57600080fd5b506102776004803603810190610272919061107f565b610af7565b60405161028491906110c7565b60405180910390f35b34801561029957600080fd5b506102a2610b56565b6040516102af91906113a2565b60405180910390f35b3480156102c457600080fd5b506102df60048036038101906102da919061107f565b610be4565b6040516102ec91906110c7565b60405180910390f35b34801561030157600080fd5b5061030a610e55565b604051610317919061114d565b60405180910390f35b6000806000808481526020019081526020016000209050610342816000610e5b565b6003546005805490501061038b576040517f08c379a000000000000000000000000000000000000000000000000000000000815260040161038290611447565b60405180910390fd5b60058160010160009054906101000a900473ffffffffffffffffffffffffffffffffffffffff169080600181540180825580915050600190039060005260206000200160009091909190916101000a81548173ffffffffffffffffffffffffffffffffffffffff021916908373ffffffffffffffffffffffffffffffffffffffff1602179055506001600460008360010160009054906101000a900473ffffffffffffffffffffffffffffffffffffffff1673ffffffffffffffffffffffffffffffffffffffff1673ffffffffffffffffffffffffffffffffffffffff16815260200190815260200160002060006101000a81548160ff021916908315150217905550600260009054906101000a900473ffffffffffffffffffffffffffffffffffffffff1673ffffffffffffffffffffffffffffffffffffffff166351efa3f4308360010160009054906101000a900473ffffffffffffffffffffffffffffffffffffffff166040518363ffffffff167c010000000000000000000000000000000000000000000000000000000002815260040161052b929190611467565b600060405180830381600087803b15801561054557600080fd5b505af1158015610559573d6000803e3d6000fd5b505050506001915050919050565b6000806000808481526020019081526020016000209050610589816002610e5b565b3073ffffffffffffffffffffffffffffffffffffffff1631816002015411156105b157600080fd5b3373ffffffffffffffffffffffffffffffffffffffff166108fc82600201549081150290604051600060405180830381858888f19350505050915050919050565b600460003373ffffffffffffffffffffffffffffffffffffffff1673ffffffffffffffffffffffffffffffffffffffff16815260200190815260200160002060009054906101000a900460ff1661064857600080fd5b6000151560008083815260200190815260200160002060040160003373ffffffffffffffffffffffffffffffffffffffff1673ffffffffffffffffffffffffffffffffffffffff16815260200190815260200160002060009054906101000a900460ff161515146106ee576040517f08c379a00000000000000000000000000000000000000000000000000000000081526004016106e5906114dc565b60405180910390fd5b6001151560008083815260200190815260200160002060040160003373ffffffffffffffffffffffffffffffffffffffff1673ffffffffffffffffffffffffffffffffffffffff16815260200190815260200160002060009054906101000a9050505060008082815260200190815260200160002060030160008154809291906107779061152b565b919050555061078581610fc0565b50565b6005818154811061079857600080fd5b906000526020600020016000915054906101000a900473ffffffffffffffffffffffffffffffffffffffff1681565b60015481565b6000600460003373ffffffffffffffffffffffffffffffffffffffff1673ffffffffffffffffffffffffffffffffffffffff16815260200190815260200160002060009054906101000a900460ff1661082557600080fd5b600384600381111561083a5761083961120c565b5b111561087b576040517f08c379a0000000000000000000000000000000000000000000000000000000008152600401610872906115c0565b60405180910390fd5b6002600381111561088f5761088e61120c565b5b8460038111156108a2576108a161120c565b5b14156108f45760008310156108b657600080fd5b600073ffffffffffffffffffffffffffffffffffffffff168273ffffffffffffffffffffffffffffffffffffffff16146108ef57600080fd5b61093c565b6000831461090157600080fd5b600073ffffffffffffffffffffffffffffffffffffffff168273ffffffffffffffffffffffffffffffffffffffff16141561093b57600080fd5b5b600080600060015481526020019081526020016000209050338160000160006101000a81548173ffffffffffffffffffffffffffffffffffffffff021916908373ffffffffffffffffffffffffffffffffffffffff160217905550848160000160146101000a81548160ff021916908360038111156109be576109bd61120c565b5b0217905550828160010160006101000a81548173ffffffffffffffffffffffffffffffffffffffff021916908373ffffffffffffffffffffffffffffffffffffffff1602179055508381600201819055506001816003018190555060008160050160006101000a81548160ff0219169083151502179055506000600154905060016000815480929190610a509061152b565b919050555080925050509392505050565b60006020528060005260406000206000915090508060000160009054906101000a900473ffffffffffffffffffffffffffffffffffffffff16908060000160149054906101000a900460ff16908060010160009054906101000a900473ffffffffffffffffffffffffffffffffffffffff16908060020154908060030154908060050160009054906101000a900460ff16905086565b6000806000808481526020019081526020016000209050610b19816003610e5b565b8060010160009054906101000a900473ffffffffffffffffffffffffffffffffffffffff1673ffffffffffffffffffffffffffffffffffffffff16ff5b60606005805480602002602001604051908101604052809291908181526020018280548015610bda57602002820191906000526020600020905b8160009054906101000a900473ffffffffffffffffffffffffffffffffffffffff1673ffffffffffffffffffffffffffffffffffffffff1681526020019060010190808311610b90575b5050505050905090565b6000806000808481526020019081526020016000209050610c06816001610e5b565b60005b600580549050811015610e49578160010160009054906101000a900473ffffffffffffffffffffffffffffffffffffffff1673ffffffffffffffffffffffffffffffffffffffff1660058281548110610c6557610c646115e0565b5b9060005260206000200160009054906101000a900473ffffffffffffffffffffffffffffffffffffffff1673ffffffffffffffffffffffffffffffffffffffff161415610e3657600060058281548110610cc257610cc16115e0565b5b9060005260206000200160009054906101000a900473ffffffffffffffffffffffffffffffffffffffff16905060058281548110610d0357610d026115e0565b5b9060005260206000200160006101000a81549073ffffffffffffffffffffffffffffffffffffffff0219169055600460008273ffffffffffffffffffffffffffffffffffffffff1673ffffffffffffffffffffffffffffffffffffffff16815260200190815260200160002060006101000a81549060ff0219169055600260009054906101000a900473ffffffffffffffffffffffffffffffffffffffff1673ffffffffffffffffffffffffffffffffffffffff1663abfa796930836040518363ffffffff167c0100000000000000000000000000000000000000000000000000000000028152600401610df8929190611467565b600060405180830381600087803b158015610e1257600080fd5b505af1158015610e26573d6000803e3d6000fd5b5050505060019350505050610e50565b8080610e419061152b565b915050610c09565b5060009150505b919050565b60035481565b3373ffffffffffffffffffffffffffffffffffffffff168260000160009054906101000a900473ffffffffffffffffffffffffffffffffffffffff1673ffffffffffffffffffffffffffffffffffffffff1614610eed576040517f08c379a0000000000000000000000000000000000000000000000000000000008152600401610ee490611681565b60405180910390fd5b600115158260050160009054906101000a900460ff16151514610f45576040517f08c379a0000000000000000000000000000000000000000000000000000000008152600401610f3c906116ed565b60405180910390fd5b806003811115610f5857610f5761120c565b5b8260000160149054906101000a900460ff166003811115610f7c57610f7b61120c565b5b14610fbc576040517f08c379a0000000000000000000000000000000000000000000000000000000008152600401610fb390611759565b60405180910390fd5b5050565b6000610fd0600580549050611022565b90508060008084815260200190815260200160002060030154141561101e57600160008084815260200190815260200160002060050160006101000a81548160ff0219169083151502179055505b5050565b6000600160028361103391906117a8565b61103d91906117d9565b9050919050565b600080fd5b6000819050919050565b61105c81611049565b811461106757600080fd5b50565b60008135905061107981611053565b92915050565b60006020828403121561109557611094611044565b5b60006110a38482850161106a565b91505092915050565b60008115159050919050565b6110c1816110ac565b82525050565b60006020820190506110dc60008301846110b8565b92915050565b600073ffffffffffffffffffffffffffffffffffffffff82169050919050565b600061110d826110e2565b9050919050565b61111d81611102565b82525050565b60006020820190506111386000830184611114565b92915050565b61114781611049565b82525050565b6000602082019050611162600083018461113e565b92915050565b6004811061117557600080fd5b50565b60008135905061118781611168565b92915050565b61119681611102565b81146111a157600080fd5b50565b6000813590506111b38161118d565b92915050565b6000806000606084860312156111d2576111d1611044565b5b60006111e086828701611178565b93505060206111f18682870161106a565b9250506040611202868287016111a4565b9150509250925092565b7f4e487b7100000000000000000000000000000000000000000000000000000000600052602160045260246000fd5b6004811061124c5761124b61120c565b5b50565b600081905061125d8261123b565b919050565b600061126d8261124f565b9050919050565b61127d81611262565b82525050565b600060c0820190506112986000830189611114565b6112a56020830188611274565b6112b26040830187611114565b6112bf606083018661113e565b6112cc608083018561113e565b6112d960a08301846110b8565b979650505050505050565b600081519050919050565b600082825260208201905092915050565b6000819050602082019050919050565b61131981611102565b82525050565b600061132b8383611310565b60208301905092915050565b6000602082019050919050565b600061134f826112e4565b61135981856112ef565b935061136483611300565b8060005b8381101561139557815161137c888261131f565b975061138783611337565b925050600181019050611368565b5085935050505092915050565b600060208201905081810360008301526113bc8184611344565b905092915050565b600082825260208201905092915050565b7f4d6178696d756d206e756d626572206f66206d656d626572732072656163686560008201527f6421000000000000000000000000000000000000000000000000000000000000602082015250565b60006114316022836113c4565b915061143c826113d5565b604082019050919050565b6000602082019050818103600083015261146081611424565b9050919050565b600060408201905061147c6000830185611114565b6114896020830184611114565b9392505050565b7f416c726561647920766f74656420746f20746869732072657175657374210000600082015250565b60006114c6601e836113c4565b91506114d182611490565b602082019050919050565b600060208201905081810360008301526114f5816114b9565b9050919050565b7f4e487b7100000000000000000000000000000000000000000000000000000000600052601160045260246000fd5b600061153682611049565b91507fffffffffffffffffffffffffffffffffffffffffffffffffffffffffffffffff821415611569576115686114fc565b5b600182019050919050565b7f496e76616c696420726571756573742074797065210000000000000000000000600082015250565b60006115aa6015836113c4565b91506115b582611574565b602082019050919050565b600060208201905081810360008301526115d98161159d565b9050919050565b7f4e487b7100000000000000000000000000000000000000000000000000000000600052603260045260246000fd5b7f596f7520617265206e6f742074686520617574686f72206f662074686973207260008201527f6571756573742100000000000000000000000000000000000000000000000000602082015250565b600061166b6027836113c4565b91506116768261160f565b604082019050919050565b6000602082019050818103600083015261169a8161165e565b9050919050565b7f52657175657374206973206e6f7420617070726f766564207965742100000000600082015250565b60006116d7601c836113c4565b91506116e2826116a1565b602082019050919050565b60006020820190508181036000830152611706816116ca565b9050919050565b7f57726f6e67207265717565737420696421000000000000000000000000000000600082015250565b60006117436011836113c4565b915061174e8261170d565b602082019050919050565b6000602082019050818103600083015261177281611736565b9050919050565b7f4e487b7100000000000000000000000000000000000000000000000000000000600052601260045260246000fd5b60006117b382611049565b91506117be83611049565b9250826117ce576117cd611779565b5b828204905092915050565b60006117e482611049565b91506117ef83611049565b9250827fffffffffffffffffffffffffffffffffffffffffffffffffffffffffffffffff03821115611824576118236114fc565b5b82820190509291505056fea264697066735822122005538d9380a75ceb9888a2373c9fcbf1b7bfd0ac43345614f550ef05f958d43764736f6c634300080c0033a2646970667358221220a2af9832d422c22d7df6bd2407b25c2f5607295e9b8729f83e9390aaee6b590e64736f6c634300080c0033608060405260086000806101000a81548160ff021916908360ff16021790555034801561002b57600080fd5b5061078d8061003b6000396000f3fe608060405234801561001057600080fd5b5060043610610069576000357c0100000000000000000000000000000000000000000000000000000000900480632bf727671461006e57806351efa3f41461008c5780635c2d4450146100a8578063abfa7969146100d8575b600080fd5b6100766100f4565b60405161008391906104af565b60405180910390f35b6100a660048036038101906100a1919061052d565b610105565b005b6100c260048036038101906100bd91906105a3565b610276565b6040516100cf91906105f2565b60405180910390f35b6100f260048036038101906100ed919061052d565b6102c4565b005b60008054906101000a900460ff1681565b8173ffffffffffffffffffffffffffffffffffffffff163373ffffffffffffffffffffffffffffffffffffffff161461013d57600080fd5b60008054906101000a900460ff1660ff16600160008373ffffffffffffffffffffffffffffffffffffffff1673ffffffffffffffffffffffffffffffffffffffff1681526020019081526020016000208054905011156101d2576040517f08c379a00000000000000000000000000000000000000000000000000000000081526004016101c990610690565b60405180910390fd5b600160008273ffffffffffffffffffffffffffffffffffffffff1673ffffffffffffffffffffffffffffffffffffffff168152602001908152602001600020829080600181540180825580915050600190039060005260206000200160009091909190916101000a81548173ffffffffffffffffffffffffffffffffffffffff021916908373ffffffffffffffffffffffffffffffffffffffff1602179055505050565b6001602052816000526040600020818154811061029257600080fd5b906000526020600020016000915091509054906101000a900473ffffffffffffffffffffffffffffffffffffffff1681565b8173ffffffffffffffffffffffffffffffffffffffff163373ffffffffffffffffffffffffffffffffffffffff16146102fc57600080fd5b60005b600160008373ffffffffffffffffffffffffffffffffffffffff1673ffffffffffffffffffffffffffffffffffffffff1681526020019081526020016000208054905081101561048e578273ffffffffffffffffffffffffffffffffffffffff16600160008473ffffffffffffffffffffffffffffffffffffffff1673ffffffffffffffffffffffffffffffffffffffff16815260200190815260200160002082815481106103b1576103b06106b0565b5b9060005260206000200160009054906101000a900473ffffffffffffffffffffffffffffffffffffffff1673ffffffffffffffffffffffffffffffffffffffff16141561047b57600160008373ffffffffffffffffffffffffffffffffffffffff1673ffffffffffffffffffffffffffffffffffffffff1681526020019081526020016000208181548110610449576104486106b0565b5b9060005260206000200160006101000a81549073ffffffffffffffffffffffffffffffffffffffff021916905561048e565b80806104869061070e565b9150506102ff565b505050565b600060ff82169050919050565b6104a981610493565b82525050565b60006020820190506104c460008301846104a0565b92915050565b600080fd5b600073ffffffffffffffffffffffffffffffffffffffff82169050919050565b60006104fa826104cf565b9050919050565b61050a816104ef565b811461051557600080fd5b50565b60008135905061052781610501565b92915050565b60008060408385031215610544576105436104ca565b5b600061055285828601610518565b925050602061056385828601610518565b9150509250929050565b6000819050919050565b6105808161056d565b811461058b57600080fd5b50565b60008135905061059d81610577565b92915050565b600080604083850312156105ba576105b96104ca565b5b60006105c885828601610518565b92505060206105d98582860161058e565b9150509250929050565b6105ec816104ef565b82525050565b600060208201905061060760008301846105e3565b92915050565b600082825260208201905092915050565b7f412073696e676c6520757365722063616e6e6f7420706172746963697061746560008201527f20696e206d6f7265207468616e20382077616c6c657473210000000000000000602082015250565b600061067a60388361060d565b91506106858261061e565b604082019050919050565b600060208201905081810360008301526106a98161066d565b9050919050565b7f4e487b7100000000000000000000000000000000000000000000000000000000600052603260045260246000fd5b7f4e487b7100000000000000000000000000000000000000000000000000000000600052601160045260246000fd5b60006107198261056d565b91507fffffffffffffffffffffffffffffffffffffffffffffffffffffffffffffffff82141561074c5761074b6106df565b5b60018201905091905056fea2646970667358221220b38e62ba6751815d0799066c44f90001d078274fc78cf2d6539872d72116ffb764736f6c634300080c0033",
  "immutableReferences": {},
  "source": "//SPDX-License-Identifier: UNLICENSED\r\npragma solidity ^0.8.0;\r\n\r\nimport \"./SharedWallet.sol\";\r\nimport \"./SharedWalletStorage.sol\";\r\n\r\ncontract SharedWalletFactory {\r\n    SharedWalletStorage public walletStorage;\r\n\r\n    constructor() {\r\n        walletStorage = new SharedWalletStorage();\r\n    }\r\n\r\n    function createNewSharedWallet(uint256 _maxMembers) external {\r\n        new SharedWallet(msg.sender, _maxMembers, walletStorage);\r\n    }\r\n}\r\n",
  "sourcePath": "C:\\Users\\Joro\\Documents\\GitHub\\ShareIt\\contracts\\SharedWalletFactory.sol",
  "compiler": {
    "name": "solc",
    "version": "0.8.12+commit.f00d7308.Emscripten.clang"
  },
  "schemaVersion": "3.4.6",
  "updatedAt": "2022-03-24T11:17:05.362Z",
  "devdoc": {
    "kind": "dev",
    "methods": {},
    "version": 1
  },
  "userdoc": {
    "kind": "user",
    "methods": {},
    "version": 1
  }
}