{
  "contractName": "SharedWalletFactory",
  "abi": [
    {
      "inputs": [],
      "stateMutability": "nonpayable",
      "type": "constructor"
    },
    {
      "inputs": [],
      "name": "walletsStorageAddress",
      "outputs": [
        {
          "internalType": "address",
          "name": "",
          "type": "address"
        }
      ],
      "stateMutability": "view",
      "type": "function"
    },
    {
      "inputs": [],
      "name": "createNewSharedWallet",
      "outputs": [
        {
          "internalType": "address",
          "name": "",
          "type": "address"
        }
      ],
      "stateMutability": "nonpayable",
      "type": "function"
    }
  ],
  "bytecode": "0x608060405234801561001057600080fd5b5060405161001d9061007e565b604051809103906000f080158015610039573d6000803e3d6000fd5b506000806101000a81548173ffffffffffffffffffffffffffffffffffffffff021916908373ffffffffffffffffffffffffffffffffffffffff16021790555061008b565b6106d280611df983390190565b611d5f8061009a6000396000f3fe608060405234801561001057600080fd5b5060043610610053576000357c0100000000000000000000000000000000000000000000000000000000900480633fef0a6d146100585780638d4eebd414610076575b600080fd5b610060610094565b60405161006d9190610163565b60405180910390f35b61007e6100b8565b60405161008b9190610163565b60405180910390f35b60008054906101000a900473ffffffffffffffffffffffffffffffffffffffff1681565b60003360008054906101000a900473ffffffffffffffffffffffffffffffffffffffff166040516100e890610115565b6100f392919061017e565b604051809103906000f08015801561010f573d6000803e3d6000fd5b50905090565b611b82806101a883390190565b600073ffffffffffffffffffffffffffffffffffffffff82169050919050565b600061014d82610122565b9050919050565b61015d81610142565b82525050565b60006020820190506101786000830184610154565b92915050565b60006040820190506101936000830185610154565b6101a06020830184610154565b939250505056fe60806040523480156200001157600080fd5b5060405162001b8238038062001b82833981810160405281019062000037919062000252565b80600260006101000a81548173ffffffffffffffffffffffffffffffffffffffff021916908373ffffffffffffffffffffffffffffffffffffffff1602179055506004829080600181540180825580915050600190039060005260206000200160009091909190916101000a81548173ffffffffffffffffffffffffffffffffffffffff021916908373ffffffffffffffffffffffffffffffffffffffff1602179055506001600360008473ffffffffffffffffffffffffffffffffffffffff1673ffffffffffffffffffffffffffffffffffffffff16815260200190815260200160002060006101000a81548160ff021916908315150217905550600260009054906101000a900473ffffffffffffffffffffffffffffffffffffffff1673ffffffffffffffffffffffffffffffffffffffff16634ab07122836040518263ffffffff167c0100000000000000000000000000000000000000000000000000000000028152600401620001ac9190620002aa565b600060405180830381600087803b158015620001c757600080fd5b505af1158015620001dc573d6000803e3d6000fd5b505050505050620002c7565b600080fd5b600073ffffffffffffffffffffffffffffffffffffffff82169050919050565b60006200021a82620001ed565b9050919050565b6200022c816200020d565b81146200023857600080fd5b50565b6000815190506200024c8162000221565b92915050565b600080604083850312156200026c576200026b620001e8565b5b60006200027c858286016200023b565b92505060206200028f858286016200023b565b9150509250929050565b620002a4816200020d565b82525050565b6000602082019050620002c1600083018462000299565b92915050565b6118ab80620002d76000396000f3fe6080604052600436106100df576000357c01000000000000000000000000000000000000000000000000000000009004806381d12c581161009c578063a1a74aae11610076578063a1a74aae146102d6578063a230c52414610313578063abcc915314610350578063d0e30db01461037b576100df565b806381d12c581461022c5780639d1187701461026e5780639eab5253146102ab576100df565b80631089f5ed146100e45780632e1a7d4d146101215780634ba1f0981461015e5780635daf08ca14610187578063663c2269146101c45780636fb8c995146101ef575b600080fd5b3480156100f057600080fd5b5061010b600480360381019061010691906110d9565b610385565b6040516101189190611121565b60405180910390f35b34801561012d57600080fd5b50610148600480360381019061014391906110d9565b610581565b6040516101559190611121565b60405180910390f35b34801561016a57600080fd5b50610185600480360381019061018091906110d9565b61060c565b005b34801561019357600080fd5b506101ae60048036038101906101a991906110d9565b6107a2565b6040516101bb919061117d565b60405180910390f35b3480156101d057600080fd5b506101d96107e1565b6040516101e691906111a7565b60405180910390f35b3480156101fb57600080fd5b5061021660048036038101906102119190611213565b6107e7565b60405161022391906111a7565b60405180910390f35b34801561023857600080fd5b50610253600480360381019061024e91906110d9565b610a7b565b604051610265969594939291906112dd565b60405180910390f35b34801561027a57600080fd5b50610295600480360381019061029091906110d9565b610b11565b6040516102a29190611121565b60405180910390f35b3480156102b757600080fd5b506102c0610b70565b6040516102cd91906113fc565b60405180910390f35b3480156102e257600080fd5b506102fd60048036038101906102f891906110d9565b610bfe565b60405161030a9190611121565b60405180910390f35b34801561031f57600080fd5b5061033a6004803603810190610335919061141e565b610e6d565b6040516103479190611121565b60405180910390f35b34801561035c57600080fd5b50610365610e8d565b60405161037291906114aa565b60405180910390f35b610383610eb3565b005b60008060008084815260200190815260200160002090506103a7816000610eb5565b60048160010160009054906101000a900473ffffffffffffffffffffffffffffffffffffffff169080600181540180825580915050600190039060005260206000200160009091909190916101000a81548173ffffffffffffffffffffffffffffffffffffffff021916908373ffffffffffffffffffffffffffffffffffffffff1602179055506001600360008360010160009054906101000a900473ffffffffffffffffffffffffffffffffffffffff1673ffffffffffffffffffffffffffffffffffffffff1673ffffffffffffffffffffffffffffffffffffffff16815260200190815260200160002060006101000a81548160ff021916908315150217905550600260009054906101000a900473ffffffffffffffffffffffffffffffffffffffff1673ffffffffffffffffffffffffffffffffffffffff16634ab071228260010160009054906101000a900473ffffffffffffffffffffffffffffffffffffffff166040518263ffffffff167c0100000000000000000000000000000000000000000000000000000000028152600401610545919061117d565b600060405180830381600087803b15801561055f57600080fd5b505af1158015610573573d6000803e3d6000fd5b505050506001915050919050565b60008060008084815260200190815260200160002090506105a3816002610eb5565b3073ffffffffffffffffffffffffffffffffffffffff1631816002015411156105cb57600080fd5b3373ffffffffffffffffffffffffffffffffffffffff166108fc82600201549081150290604051600060405180830381858888f19350505050915050919050565b600360003373ffffffffffffffffffffffffffffffffffffffff1673ffffffffffffffffffffffffffffffffffffffff16815260200190815260200160002060009054906101000a900460ff1661066257600080fd5b6000151560008083815260200190815260200160002060040160003373ffffffffffffffffffffffffffffffffffffffff1673ffffffffffffffffffffffffffffffffffffffff16815260200190815260200160002060009054906101000a900460ff16151514610708576040517f08c379a00000000000000000000000000000000000000000000000000000000081526004016106ff90611522565b60405180910390fd5b6001151560008083815260200190815260200160002060040160003373ffffffffffffffffffffffffffffffffffffffff1673ffffffffffffffffffffffffffffffffffffffff16815260200190815260200160002060009054906101000a90505050600080828152602001908152602001600020600301600081548092919061079190611571565b919050555061079f8161101a565b50565b600481815481106107b257600080fd5b906000526020600020016000915054906101000a900473ffffffffffffffffffffffffffffffffffffffff1681565b60015481565b6000600360003373ffffffffffffffffffffffffffffffffffffffff1673ffffffffffffffffffffffffffffffffffffffff16815260200190815260200160002060009054906101000a900460ff1661083f57600080fd5b600384600381111561085457610853611266565b5b1115610895576040517f08c379a000000000000000000000000000000000000000000000000000000000815260040161088c90611606565b60405180910390fd5b600260038111156108a9576108a8611266565b5b8460038111156108bc576108bb611266565b5b141561090e5760008310156108d057600080fd5b600073ffffffffffffffffffffffffffffffffffffffff168273ffffffffffffffffffffffffffffffffffffffff161461090957600080fd5b610956565b6000831461091b57600080fd5b600073ffffffffffffffffffffffffffffffffffffffff168273ffffffffffffffffffffffffffffffffffffffff16141561095557600080fd5b5b600080600060015481526020019081526020016000209050338160000160006101000a81548173ffffffffffffffffffffffffffffffffffffffff021916908373ffffffffffffffffffffffffffffffffffffffff160217905550848160000160146101000a81548160ff021916908360038111156109d8576109d7611266565b5b0217905550828160010160006101000a81548173ffffffffffffffffffffffffffffffffffffffff021916908373ffffffffffffffffffffffffffffffffffffffff1602179055508381600201819055506001816003018190555060008160050160006101000a81548160ff0219169083151502179055506000600154905060016000815480929190610a6a90611571565b919050555080925050509392505050565b60006020528060005260406000206000915090508060000160009054906101000a900473ffffffffffffffffffffffffffffffffffffffff16908060000160149054906101000a900460ff16908060010160009054906101000a900473ffffffffffffffffffffffffffffffffffffffff16908060020154908060030154908060050160009054906101000a900460ff16905086565b6000806000808481526020019081526020016000209050610b33816003610eb5565b8060010160009054906101000a900473ffffffffffffffffffffffffffffffffffffffff1673ffffffffffffffffffffffffffffffffffffffff16ff5b60606004805480602002602001604051908101604052809291908181526020018280548015610bf457602002820191906000526020600020905b8160009054906101000a900473ffffffffffffffffffffffffffffffffffffffff1673ffffffffffffffffffffffffffffffffffffffff1681526020019060010190808311610baa575b5050505050905090565b6000806000808481526020019081526020016000209050610c20816001610eb5565b60005b600480549050811015610e61578160010160009054906101000a900473ffffffffffffffffffffffffffffffffffffffff1673ffffffffffffffffffffffffffffffffffffffff1660048281548110610c7f57610c7e611626565b5b9060005260206000200160009054906101000a900473ffffffffffffffffffffffffffffffffffffffff1673ffffffffffffffffffffffffffffffffffffffff161415610e4e57600060048281548110610cdc57610cdb611626565b5b9060005260206000200160009054906101000a900473ffffffffffffffffffffffffffffffffffffffff16905060048281548110610d1d57610d1c611626565b5b9060005260206000200160006101000a81549073ffffffffffffffffffffffffffffffffffffffff0219169055600360008273ffffffffffffffffffffffffffffffffffffffff1673ffffffffffffffffffffffffffffffffffffffff16815260200190815260200160002060006101000a81549060ff0219169055600260009054906101000a900473ffffffffffffffffffffffffffffffffffffffff1673ffffffffffffffffffffffffffffffffffffffff1663e22972f2826040518263ffffffff167c0100000000000000000000000000000000000000000000000000000000028152600401610e10919061117d565b600060405180830381600087803b158015610e2a57600080fd5b505af1158015610e3e573d6000803e3d6000fd5b5050505060019350505050610e68565b8080610e5990611571565b915050610c23565b5060009150505b919050565b60036020528060005260406000206000915054906101000a900460ff1681565b600260009054906101000a900473ffffffffffffffffffffffffffffffffffffffff1681565b565b3373ffffffffffffffffffffffffffffffffffffffff168260000160009054906101000a900473ffffffffffffffffffffffffffffffffffffffff1673ffffffffffffffffffffffffffffffffffffffff1614610f47576040517f08c379a0000000000000000000000000000000000000000000000000000000008152600401610f3e906116c7565b60405180910390fd5b600115158260050160009054906101000a900460ff16151514610f9f576040517f08c379a0000000000000000000000000000000000000000000000000000000008152600401610f9690611733565b60405180910390fd5b806003811115610fb257610fb1611266565b5b8260000160149054906101000a900460ff166003811115610fd657610fd5611266565b5b14611016576040517f08c379a000000000000000000000000000000000000000000000000000000000815260040161100d9061179f565b60405180910390fd5b5050565b600061102a60048054905061107c565b90508060008084815260200190815260200160002060030154141561107857600160008084815260200190815260200160002060050160006101000a81548160ff0219169083151502179055505b5050565b6000600160028361108d91906117ee565b611097919061181f565b9050919050565b600080fd5b6000819050919050565b6110b6816110a3565b81146110c157600080fd5b50565b6000813590506110d3816110ad565b92915050565b6000602082840312156110ef576110ee61109e565b5b60006110fd848285016110c4565b91505092915050565b60008115159050919050565b61111b81611106565b82525050565b60006020820190506111366000830184611112565b92915050565b600073ffffffffffffffffffffffffffffffffffffffff82169050919050565b60006111678261113c565b9050919050565b6111778161115c565b82525050565b6000602082019050611192600083018461116e565b92915050565b6111a1816110a3565b82525050565b60006020820190506111bc6000830184611198565b92915050565b600481106111cf57600080fd5b50565b6000813590506111e1816111c2565b92915050565b6111f08161115c565b81146111fb57600080fd5b50565b60008135905061120d816111e7565b92915050565b60008060006060848603121561122c5761122b61109e565b5b600061123a868287016111d2565b935050602061124b868287016110c4565b925050604061125c868287016111fe565b9150509250925092565b7f4e487b7100000000000000000000000000000000000000000000000000000000600052602160045260246000fd5b600481106112a6576112a5611266565b5b50565b60008190506112b782611295565b919050565b60006112c7826112a9565b9050919050565b6112d7816112bc565b82525050565b600060c0820190506112f2600083018961116e565b6112ff60208301886112ce565b61130c604083018761116e565b6113196060830186611198565b6113266080830185611198565b61133360a0830184611112565b979650505050505050565b600081519050919050565b600082825260208201905092915050565b6000819050602082019050919050565b6113738161115c565b82525050565b6000611385838361136a565b60208301905092915050565b6000602082019050919050565b60006113a98261133e565b6113b38185611349565b93506113be8361135a565b8060005b838110156113ef5781516113d68882611379565b97506113e183611391565b9250506001810190506113c2565b5085935050505092915050565b60006020820190508181036000830152611416818461139e565b905092915050565b6000602082840312156114345761143361109e565b5b6000611442848285016111fe565b91505092915050565b6000819050919050565b600061147061146b6114668461113c565b61144b565b61113c565b9050919050565b600061148282611455565b9050919050565b600061149482611477565b9050919050565b6114a481611489565b82525050565b60006020820190506114bf600083018461149b565b92915050565b600082825260208201905092915050565b7f416c726561647920766f74656420746f20746869732072657175657374210000600082015250565b600061150c601e836114c5565b9150611517826114d6565b602082019050919050565b6000602082019050818103600083015261153b816114ff565b9050919050565b7f4e487b7100000000000000000000000000000000000000000000000000000000600052601160045260246000fd5b600061157c826110a3565b91507fffffffffffffffffffffffffffffffffffffffffffffffffffffffffffffffff8214156115af576115ae611542565b5b600182019050919050565b7f496e76616c696420726571756573742074797065210000000000000000000000600082015250565b60006115f06015836114c5565b91506115fb826115ba565b602082019050919050565b6000602082019050818103600083015261161f816115e3565b9050919050565b7f4e487b7100000000000000000000000000000000000000000000000000000000600052603260045260246000fd5b7f596f7520617265206e6f742074686520617574686f72206f662074686973207260008201527f6571756573742100000000000000000000000000000000000000000000000000602082015250565b60006116b16027836114c5565b91506116bc82611655565b604082019050919050565b600060208201905081810360008301526116e0816116a4565b9050919050565b7f52657175657374206973206e6f7420617070726f766564207965742100000000600082015250565b600061171d601c836114c5565b9150611728826116e7565b602082019050919050565b6000602082019050818103600083015261174c81611710565b9050919050565b7f57726f6e67207265717565737420696421000000000000000000000000000000600082015250565b60006117896011836114c5565b915061179482611753565b602082019050919050565b600060208201905081810360008301526117b88161177c565b9050919050565b7f4e487b7100000000000000000000000000000000000000000000000000000000600052601260045260246000fd5b60006117f9826110a3565b9150611804836110a3565b925082611814576118136117bf565b5b828204905092915050565b600061182a826110a3565b9150611835836110a3565b9250827fffffffffffffffffffffffffffffffffffffffffffffffffffffffffffffffff0382111561186a57611869611542565b5b82820190509291505056fea26469706673582212202cc084c2b37fde51f316f6a91b2206944919988c904d99c75b6330035276555e64736f6c634300080c0033a264697066735822122055166cd43c04f419ca36b12f10fab20aa12d209b375ff221da3c9255ce3068df64736f6c634300080c0033608060405260086000806101000a81548160ff021916908360ff16021790555034801561002b57600080fd5b506106978061003b6000396000f3fe608060405234801561001057600080fd5b506004361061005e576000357c0100000000000000000000000000000000000000000000000000000000900480634ab07122146100635780635c2d44501461007f578063e22972f2146100af575b600080fd5b61007d6004803603810190610078919061044a565b6100cb565b005b610099600480360381019061009491906104ad565b610203565b6040516100a691906104fc565b60405180910390f35b6100c960048036038101906100c4919061044a565b610251565b005b60008054906101000a900460ff1660ff16600160008373ffffffffffffffffffffffffffffffffffffffff1673ffffffffffffffffffffffffffffffffffffffff168152602001908152602001600020805490501115610160576040517f08c379a00000000000000000000000000000000000000000000000000000000081526004016101579061059a565b60405180910390fd5b600160008273ffffffffffffffffffffffffffffffffffffffff1673ffffffffffffffffffffffffffffffffffffffff168152602001908152602001600020339080600181540180825580915050600190039060005260206000200160009091909190916101000a81548173ffffffffffffffffffffffffffffffffffffffff021916908373ffffffffffffffffffffffffffffffffffffffff16021790555050565b6001602052816000526040600020818154811061021f57600080fd5b906000526020600020016000915091509054906101000a900473ffffffffffffffffffffffffffffffffffffffff1681565b60005b600160008373ffffffffffffffffffffffffffffffffffffffff1673ffffffffffffffffffffffffffffffffffffffff168152602001908152602001600020805490508110156103e3573373ffffffffffffffffffffffffffffffffffffffff16600160008473ffffffffffffffffffffffffffffffffffffffff1673ffffffffffffffffffffffffffffffffffffffff1681526020019081526020016000208281548110610306576103056105ba565b5b9060005260206000200160009054906101000a900473ffffffffffffffffffffffffffffffffffffffff1673ffffffffffffffffffffffffffffffffffffffff1614156103d057600160008373ffffffffffffffffffffffffffffffffffffffff1673ffffffffffffffffffffffffffffffffffffffff168152602001908152602001600020818154811061039e5761039d6105ba565b5b9060005260206000200160006101000a81549073ffffffffffffffffffffffffffffffffffffffff02191690556103e3565b80806103db90610618565b915050610254565b5050565b600080fd5b600073ffffffffffffffffffffffffffffffffffffffff82169050919050565b6000610417826103ec565b9050919050565b6104278161040c565b811461043257600080fd5b50565b6000813590506104448161041e565b92915050565b6000602082840312156104605761045f6103e7565b5b600061046e84828501610435565b91505092915050565b6000819050919050565b61048a81610477565b811461049557600080fd5b50565b6000813590506104a781610481565b92915050565b600080604083850312156104c4576104c36103e7565b5b60006104d285828601610435565b92505060206104e385828601610498565b9150509250929050565b6104f68161040c565b82525050565b600060208201905061051160008301846104ed565b92915050565b600082825260208201905092915050565b7f412073696e676c6520757365722063616e6e6f7420706172746963697061746560008201527f20696e206d6f7265207468616e20382077616c6c657473210000000000000000602082015250565b6000610584603883610517565b915061058f82610528565b604082019050919050565b600060208201905081810360008301526105b381610577565b9050919050565b7f4e487b7100000000000000000000000000000000000000000000000000000000600052603260045260246000fd5b7f4e487b7100000000000000000000000000000000000000000000000000000000600052601160045260246000fd5b600061062382610477565b91507fffffffffffffffffffffffffffffffffffffffffffffffffffffffffffffffff821415610656576106556105e9565b5b60018201905091905056fea2646970667358221220ea711d5f73fc3cd0e08abc5c1ea09352b6e15d39dc28d9ad02f66e9505d5d9de64736f6c634300080c0033",
  "immutableReferences": {},
  "source": "//SPDX-License-Identifier: MIT\r\npragma solidity ^0.8.0;\r\n\r\nimport \"./SharedWallet.sol\";\r\nimport \"./SharedWalletsStorage.sol\";\r\n\r\ncontract SharedWalletFactory {\r\n    address public walletsStorageAddress;\r\n\r\n    constructor() {\r\n        walletsStorageAddress = address(new SharedWalletsStorage());\r\n    }\r\n\r\n    function createNewSharedWallet() external returns(address) {\r\n        return address(new SharedWallet(msg.sender, walletsStorageAddress));\r\n    }\r\n}\r\n",
  "sourcePath": "C:\\Users\\Joro\\Documents\\GitHub\\ShareIt\\contracts\\SharedWalletFactory.sol",
  "compiler": {
    "name": "solc",
    "version": "0.8.12+commit.f00d7308.Emscripten.clang"
  },
  "schemaVersion": "3.4.6",
  "updatedAt": "2022-03-24T21:07:24.209Z",
  "devdoc": {
    "kind": "dev",
    "methods": {},
    "version": 1
  },
  "userdoc": {
    "kind": "user",
    "methods": {},
    "version": 1
  }
}