{
  "contractName": "SharedWallet",
  "abi": [
    {
      "inputs": [
        {
          "internalType": "address",
          "name": "_creator",
          "type": "address"
        },
        {
          "internalType": "uint256",
          "name": "_maxMembers",
          "type": "uint256"
        },
        {
          "internalType": "contract SharedWalletStorage",
          "name": "_walletStorage",
          "type": "address"
        }
      ],
      "stateMutability": "nonpayable",
      "type": "constructor"
    },
    {
      "stateMutability": "payable",
      "type": "fallback"
    },
    {
      "inputs": [
        {
          "internalType": "uint256",
          "name": "_requestID",
          "type": "uint256"
        }
      ],
      "name": "acceptRequest",
      "outputs": [],
      "stateMutability": "nonpayable",
      "type": "function"
    },
    {
      "inputs": [
        {
          "internalType": "enum Voting.RequestTypes",
          "name": "_requestType",
          "type": "uint8"
        },
        {
          "internalType": "uint256",
          "name": "_value",
          "type": "uint256"
        },
        {
          "internalType": "address",
          "name": "_addr",
          "type": "address"
        }
      ],
      "name": "createRequest",
      "outputs": [
        {
          "internalType": "uint256",
          "name": "",
          "type": "uint256"
        }
      ],
      "stateMutability": "nonpayable",
      "type": "function"
    },
    {
      "inputs": [],
      "name": "maxMembers",
      "outputs": [
        {
          "internalType": "uint256",
          "name": "",
          "type": "uint256"
        }
      ],
      "stateMutability": "view",
      "type": "function"
    },
    {
      "inputs": [
        {
          "internalType": "uint256",
          "name": "",
          "type": "uint256"
        }
      ],
      "name": "members",
      "outputs": [
        {
          "internalType": "address",
          "name": "",
          "type": "address"
        }
      ],
      "stateMutability": "view",
      "type": "function"
    },
    {
      "inputs": [
        {
          "internalType": "uint256",
          "name": "",
          "type": "uint256"
        }
      ],
      "name": "requests",
      "outputs": [
        {
          "internalType": "address",
          "name": "author",
          "type": "address"
        },
        {
          "internalType": "enum Voting.RequestTypes",
          "name": "requestType",
          "type": "uint8"
        },
        {
          "internalType": "address",
          "name": "addr",
          "type": "address"
        },
        {
          "internalType": "uint256",
          "name": "value",
          "type": "uint256"
        },
        {
          "internalType": "uint256",
          "name": "proVotersCount",
          "type": "uint256"
        },
        {
          "internalType": "bool",
          "name": "approved",
          "type": "bool"
        }
      ],
      "stateMutability": "view",
      "type": "function"
    },
    {
      "inputs": [],
      "name": "requestsCounter",
      "outputs": [
        {
          "internalType": "uint256",
          "name": "",
          "type": "uint256"
        }
      ],
      "stateMutability": "view",
      "type": "function"
    },
    {
      "stateMutability": "payable",
      "type": "receive"
    },
    {
      "inputs": [],
      "name": "getMembers",
      "outputs": [
        {
          "internalType": "address[]",
          "name": "",
          "type": "address[]"
        }
      ],
      "stateMutability": "view",
      "type": "function"
    },
    {
      "inputs": [
        {
          "internalType": "uint256",
          "name": "_requestId",
          "type": "uint256"
        }
      ],
      "name": "addMember",
      "outputs": [
        {
          "internalType": "bool",
          "name": "",
          "type": "bool"
        }
      ],
      "stateMutability": "nonpayable",
      "type": "function"
    },
    {
      "inputs": [
        {
          "internalType": "uint256",
          "name": "_requestId",
          "type": "uint256"
        }
      ],
      "name": "removeMember",
      "outputs": [
        {
          "internalType": "bool",
          "name": "",
          "type": "bool"
        }
      ],
      "stateMutability": "nonpayable",
      "type": "function"
    },
    {
      "inputs": [
        {
          "internalType": "uint256",
          "name": "_requestId",
          "type": "uint256"
        }
      ],
      "name": "withdraw",
      "outputs": [
        {
          "internalType": "bool",
          "name": "",
          "type": "bool"
        }
      ],
      "stateMutability": "nonpayable",
      "type": "function"
    },
    {
      "inputs": [
        {
          "internalType": "uint256",
          "name": "_requestId",
          "type": "uint256"
        }
      ],
      "name": "destroy",
      "outputs": [
        {
          "internalType": "bool",
          "name": "",
          "type": "bool"
        }
      ],
      "stateMutability": "nonpayable",
      "type": "function"
    }
  ],
  "bytecode": "0x60806040523480156200001157600080fd5b50604051620020d2380380620020d2833981810160405281019062000037919062000323565b600c8211156200007e576040517f08c379a0000000000000000000000000000000000000000000000000000000008152600401620000759062000406565b60405180910390fd5b80600260006101000a81548173ffffffffffffffffffffffffffffffffffffffff021916908373ffffffffffffffffffffffffffffffffffffffff160217905550816003819055506005839080600181540180825580915050600190039060005260206000200160009091909190916101000a81548173ffffffffffffffffffffffffffffffffffffffff021916908373ffffffffffffffffffffffffffffffffffffffff1602179055506001600460008573ffffffffffffffffffffffffffffffffffffffff1673ffffffffffffffffffffffffffffffffffffffff16815260200190815260200160002060006101000a81548160ff021916908315150217905550600260009054906101000a900473ffffffffffffffffffffffffffffffffffffffff1673ffffffffffffffffffffffffffffffffffffffff166351efa3f430856040518363ffffffff167c0100000000000000000000000000000000000000000000000000000000028152600401620001fc92919062000439565b600060405180830381600087803b1580156200021757600080fd5b505af11580156200022c573d6000803e3d6000fd5b5050505050505062000466565b600080fd5b600073ffffffffffffffffffffffffffffffffffffffff82169050919050565b60006200026b826200023e565b9050919050565b6200027d816200025e565b81146200028957600080fd5b50565b6000815190506200029d8162000272565b92915050565b6000819050919050565b620002b881620002a3565b8114620002c457600080fd5b50565b600081519050620002d881620002ad565b92915050565b6000620002eb826200025e565b9050919050565b620002fd81620002de565b81146200030957600080fd5b50565b6000815190506200031d81620002f2565b92915050565b6000806000606084860312156200033f576200033e62000239565b5b60006200034f868287016200028c565b93505060206200036286828701620002c7565b925050604062000375868287016200030c565b9150509250925092565b600082825260208201905092915050565b7f43616e6e6f742068617665206d6f7265207468616e203132206d656d6265727360008201527f20696e20612073696e676c65207368617265642077616c6c6574210000000000602082015250565b6000620003ee603b836200037f565b9150620003fb8262000390565b604082019050919050565b600060208201905081810360008301526200042181620003df565b9050919050565b62000433816200025e565b82525050565b600060408201905062000450600083018562000428565b6200045f602083018462000428565b9392505050565b611c5c80620004766000396000f3fe6080604052600436106100bd576000357c0100000000000000000000000000000000000000000000000000000000900480636fb8c995116100815780636fb8c995146101d157806381d12c581461020e5780639d118770146102505780639eab52531461028d578063a1a74aae146102b8578063bf4386a0146102f5576100c4565b80631089f5ed146100c65780632e1a7d4d146101035780634ba1f098146101405780635daf08ca14610169578063663c2269146101a6576100c4565b366100c457005b005b3480156100d257600080fd5b506100ed60048036038101906100e89190611476565b610320565b6040516100fa91906114be565b60405180910390f35b34801561010f57600080fd5b5061012a60048036038101906101259190611476565b6106be565b60405161013791906114be565b60405180910390f35b34801561014c57600080fd5b5061016760048036038101906101629190611476565b6108a0565b005b34801561017557600080fd5b50610190600480360381019061018b9190611476565b610a36565b60405161019d919061151a565b60405180910390f35b3480156101b257600080fd5b506101bb610a75565b6040516101c89190611544565b60405180910390f35b3480156101dd57600080fd5b506101f860048036038101906101f391906115b0565b610a7b565b6040516102059190611544565b60405180910390f35b34801561021a57600080fd5b5061023560048036038101906102309190611476565b610d0f565b6040516102479695949392919061167a565b60405180910390f35b34801561025c57600080fd5b5061027760048036038101906102729190611476565b610da5565b60405161028491906114be565b60405180910390f35b34801561029957600080fd5b506102a2610f5b565b6040516102af9190611799565b60405180910390f35b3480156102c457600080fd5b506102df60048036038101906102da9190611476565b610fe9565b6040516102ec91906114be565b60405180910390f35b34801561030157600080fd5b5061030a6113b1565b6040516103179190611544565b60405180910390f35b60008060008084815260200190815260200160002090503373ffffffffffffffffffffffffffffffffffffffff168160000160009054906101000a900473ffffffffffffffffffffffffffffffffffffffff1673ffffffffffffffffffffffffffffffffffffffff16146103c9576040517f08c379a00000000000000000000000000000000000000000000000000000000081526004016103c09061183e565b60405180910390fd5b600115158160050160009054906101000a900460ff16151514610421576040517f08c379a0000000000000000000000000000000000000000000000000000000008152600401610418906118aa565b60405180910390fd5b6000600381111561043557610434611603565b5b8160000160149054906101000a900460ff16600381111561045957610458611603565b5b14610499576040517f08c379a000000000000000000000000000000000000000000000000000000000815260040161049090611916565b60405180910390fd5b600354600580549050106104e2576040517f08c379a00000000000000000000000000000000000000000000000000000000081526004016104d9906119a8565b60405180910390fd5b60058160010160009054906101000a900473ffffffffffffffffffffffffffffffffffffffff169080600181540180825580915050600190039060005260206000200160009091909190916101000a81548173ffffffffffffffffffffffffffffffffffffffff021916908373ffffffffffffffffffffffffffffffffffffffff1602179055506001600460008360010160009054906101000a900473ffffffffffffffffffffffffffffffffffffffff1673ffffffffffffffffffffffffffffffffffffffff1673ffffffffffffffffffffffffffffffffffffffff16815260200190815260200160002060006101000a81548160ff021916908315150217905550600260009054906101000a900473ffffffffffffffffffffffffffffffffffffffff1673ffffffffffffffffffffffffffffffffffffffff166351efa3f4308360010160009054906101000a900473ffffffffffffffffffffffffffffffffffffffff166040518363ffffffff167c01000000000000000000000000000000000000000000000000000000000281526004016106829291906119c8565b600060405180830381600087803b15801561069c57600080fd5b505af11580156106b0573d6000803e3d6000fd5b505050506001915050919050565b60008060008084815260200190815260200160002090503373ffffffffffffffffffffffffffffffffffffffff168160000160009054906101000a900473ffffffffffffffffffffffffffffffffffffffff1673ffffffffffffffffffffffffffffffffffffffff1614610767576040517f08c379a000000000000000000000000000000000000000000000000000000000815260040161075e9061183e565b60405180910390fd5b600115158160050160009054906101000a900460ff161515146107bf576040517f08c379a00000000000000000000000000000000000000000000000000000000081526004016107b6906118aa565b60405180910390fd5b600260038111156107d3576107d2611603565b5b8160000160149054906101000a900460ff1660038111156107f7576107f6611603565b5b14610837576040517f08c379a000000000000000000000000000000000000000000000000000000000815260040161082e90611916565b60405180910390fd5b3073ffffffffffffffffffffffffffffffffffffffff16318160020154111561085f57600080fd5b3373ffffffffffffffffffffffffffffffffffffffff166108fc82600201549081150290604051600060405180830381858888f19350505050915050919050565b600460003373ffffffffffffffffffffffffffffffffffffffff1673ffffffffffffffffffffffffffffffffffffffff16815260200190815260200160002060009054906101000a900460ff166108f657600080fd5b6000151560008083815260200190815260200160002060040160003373ffffffffffffffffffffffffffffffffffffffff1673ffffffffffffffffffffffffffffffffffffffff16815260200190815260200160002060009054906101000a900460ff1615151461099c576040517f08c379a000000000000000000000000000000000000000000000000000000000815260040161099390611a3d565b60405180910390fd5b6001151560008083815260200190815260200160002060040160003373ffffffffffffffffffffffffffffffffffffffff1673ffffffffffffffffffffffffffffffffffffffff16815260200190815260200160002060009054906101000a905050506000808281526020019081526020016000206003016000815480929190610a2590611a8c565b9190505550610a33816113b7565b50565b60058181548110610a4657600080fd5b906000526020600020016000915054906101000a900473ffffffffffffffffffffffffffffffffffffffff1681565b60015481565b6000600460003373ffffffffffffffffffffffffffffffffffffffff1673ffffffffffffffffffffffffffffffffffffffff16815260200190815260200160002060009054906101000a900460ff16610ad357600080fd5b6003846003811115610ae857610ae7611603565b5b1115610b29576040517f08c379a0000000000000000000000000000000000000000000000000000000008152600401610b2090611b21565b60405180910390fd5b60026003811115610b3d57610b3c611603565b5b846003811115610b5057610b4f611603565b5b1415610ba2576000831015610b6457600080fd5b600073ffffffffffffffffffffffffffffffffffffffff168273ffffffffffffffffffffffffffffffffffffffff1614610b9d57600080fd5b610bea565b60008314610baf57600080fd5b600073ffffffffffffffffffffffffffffffffffffffff168273ffffffffffffffffffffffffffffffffffffffff161415610be957600080fd5b5b600080600060015481526020019081526020016000209050338160000160006101000a81548173ffffffffffffffffffffffffffffffffffffffff021916908373ffffffffffffffffffffffffffffffffffffffff160217905550848160000160146101000a81548160ff02191690836003811115610c6c57610c6b611603565b5b0217905550828160010160006101000a81548173ffffffffffffffffffffffffffffffffffffffff021916908373ffffffffffffffffffffffffffffffffffffffff1602179055508381600201819055506001816003018190555060008160050160006101000a81548160ff0219169083151502179055506000600154905060016000815480929190610cfe90611a8c565b919050555080925050509392505050565b60006020528060005260406000206000915090508060000160009054906101000a900473ffffffffffffffffffffffffffffffffffffffff16908060000160149054906101000a900460ff16908060010160009054906101000a900473ffffffffffffffffffffffffffffffffffffffff16908060020154908060030154908060050160009054906101000a900460ff16905086565b60008060008084815260200190815260200160002090503373ffffffffffffffffffffffffffffffffffffffff168160000160009054906101000a900473ffffffffffffffffffffffffffffffffffffffff1673ffffffffffffffffffffffffffffffffffffffff1614610e4e576040517f08c379a0000000000000000000000000000000000000000000000000000000008152600401610e459061183e565b60405180910390fd5b600115158160050160009054906101000a900460ff16151514610ea6576040517f08c379a0000000000000000000000000000000000000000000000000000000008152600401610e9d906118aa565b60405180910390fd5b60026003811115610eba57610eb9611603565b5b8160000160149054906101000a900460ff166003811115610ede57610edd611603565b5b14610f1e576040517f08c379a0000000000000000000000000000000000000000000000000000000008152600401610f1590611916565b60405180910390fd5b8060010160009054906101000a900473ffffffffffffffffffffffffffffffffffffffff1673ffffffffffffffffffffffffffffffffffffffff16ff5b60606005805480602002602001604051908101604052809291908181526020018280548015610fdf57602002820191906000526020600020905b8160009054906101000a900473ffffffffffffffffffffffffffffffffffffffff1673ffffffffffffffffffffffffffffffffffffffff1681526020019060010190808311610f95575b5050505050905090565b60008060008084815260200190815260200160002090503373ffffffffffffffffffffffffffffffffffffffff168160000160009054906101000a900473ffffffffffffffffffffffffffffffffffffffff1673ffffffffffffffffffffffffffffffffffffffff1614611092576040517f08c379a00000000000000000000000000000000000000000000000000000000081526004016110899061183e565b60405180910390fd5b600115158160050160009054906101000a900460ff161515146110ea576040517f08c379a00000000000000000000000000000000000000000000000000000000081526004016110e1906118aa565b60405180910390fd5b600160038111156110fe576110fd611603565b5b8160000160149054906101000a900460ff16600381111561112257611121611603565b5b14611162576040517f08c379a000000000000000000000000000000000000000000000000000000000815260040161115990611916565b60405180910390fd5b60005b6005805490508110156113a5578160010160009054906101000a900473ffffffffffffffffffffffffffffffffffffffff1673ffffffffffffffffffffffffffffffffffffffff16600582815481106111c1576111c0611b41565b5b9060005260206000200160009054906101000a900473ffffffffffffffffffffffffffffffffffffffff1673ffffffffffffffffffffffffffffffffffffffff1614156113925760006005828154811061121e5761121d611b41565b5b9060005260206000200160009054906101000a900473ffffffffffffffffffffffffffffffffffffffff1690506005828154811061125f5761125e611b41565b5b9060005260206000200160006101000a81549073ffffffffffffffffffffffffffffffffffffffff0219169055600460008273ffffffffffffffffffffffffffffffffffffffff1673ffffffffffffffffffffffffffffffffffffffff16815260200190815260200160002060006101000a81549060ff0219169055600260009054906101000a900473ffffffffffffffffffffffffffffffffffffffff1673ffffffffffffffffffffffffffffffffffffffff1663abfa796930836040518363ffffffff167c01000000000000000000000000000000000000000000000000000000000281526004016113549291906119c8565b600060405180830381600087803b15801561136e57600080fd5b505af1158015611382573d6000803e3d6000fd5b50505050600193505050506113ac565b808061139d90611a8c565b915050611165565b5060009150505b919050565b60035481565b60006113c7600580549050611419565b90508060008084815260200190815260200160002060030154141561141557600160008084815260200190815260200160002060050160006101000a81548160ff0219169083151502179055505b5050565b6000600160028361142a9190611b9f565b6114349190611bd0565b9050919050565b600080fd5b6000819050919050565b61145381611440565b811461145e57600080fd5b50565b6000813590506114708161144a565b92915050565b60006020828403121561148c5761148b61143b565b5b600061149a84828501611461565b91505092915050565b60008115159050919050565b6114b8816114a3565b82525050565b60006020820190506114d360008301846114af565b92915050565b600073ffffffffffffffffffffffffffffffffffffffff82169050919050565b6000611504826114d9565b9050919050565b611514816114f9565b82525050565b600060208201905061152f600083018461150b565b92915050565b61153e81611440565b82525050565b60006020820190506115596000830184611535565b92915050565b6004811061156c57600080fd5b50565b60008135905061157e8161155f565b92915050565b61158d816114f9565b811461159857600080fd5b50565b6000813590506115aa81611584565b92915050565b6000806000606084860312156115c9576115c861143b565b5b60006115d78682870161156f565b93505060206115e886828701611461565b92505060406115f98682870161159b565b9150509250925092565b7f4e487b7100000000000000000000000000000000000000000000000000000000600052602160045260246000fd5b6004811061164357611642611603565b5b50565b600081905061165482611632565b919050565b600061166482611646565b9050919050565b61167481611659565b82525050565b600060c08201905061168f600083018961150b565b61169c602083018861166b565b6116a9604083018761150b565b6116b66060830186611535565b6116c36080830185611535565b6116d060a08301846114af565b979650505050505050565b600081519050919050565b600082825260208201905092915050565b6000819050602082019050919050565b611710816114f9565b82525050565b60006117228383611707565b60208301905092915050565b6000602082019050919050565b6000611746826116db565b61175081856116e6565b935061175b836116f7565b8060005b8381101561178c5781516117738882611716565b975061177e8361172e565b92505060018101905061175f565b5085935050505092915050565b600060208201905081810360008301526117b3818461173b565b905092915050565b600082825260208201905092915050565b7f596f7520617265206e6f742074686520617574686f72206f662074686973207260008201527f6571756573742100000000000000000000000000000000000000000000000000602082015250565b60006118286027836117bb565b9150611833826117cc565b604082019050919050565b600060208201905081810360008301526118578161181b565b9050919050565b7f52657175657374206973206e6f7420617070726f766564207965742100000000600082015250565b6000611894601c836117bb565b915061189f8261185e565b602082019050919050565b600060208201905081810360008301526118c381611887565b9050919050565b7f57726f6e67207265717565737420696421000000000000000000000000000000600082015250565b60006119006011836117bb565b915061190b826118ca565b602082019050919050565b6000602082019050818103600083015261192f816118f3565b9050919050565b7f4d6178696d756d206e756d626572206f66206d656d626572732072656163686560008201527f6421000000000000000000000000000000000000000000000000000000000000602082015250565b60006119926022836117bb565b915061199d82611936565b604082019050919050565b600060208201905081810360008301526119c181611985565b9050919050565b60006040820190506119dd600083018561150b565b6119ea602083018461150b565b9392505050565b7f416c726561647920766f74656420746f20746869732072657175657374210000600082015250565b6000611a27601e836117bb565b9150611a32826119f1565b602082019050919050565b60006020820190508181036000830152611a5681611a1a565b9050919050565b7f4e487b7100000000000000000000000000000000000000000000000000000000600052601160045260246000fd5b6000611a9782611440565b91507fffffffffffffffffffffffffffffffffffffffffffffffffffffffffffffffff821415611aca57611ac9611a5d565b5b600182019050919050565b7f496e76616c696420726571756573742074797065210000000000000000000000600082015250565b6000611b0b6015836117bb565b9150611b1682611ad5565b602082019050919050565b60006020820190508181036000830152611b3a81611afe565b9050919050565b7f4e487b7100000000000000000000000000000000000000000000000000000000600052603260045260246000fd5b7f4e487b7100000000000000000000000000000000000000000000000000000000600052601260045260246000fd5b6000611baa82611440565b9150611bb583611440565b925082611bc557611bc4611b70565b5b828204905092915050565b6000611bdb82611440565b9150611be683611440565b9250827fffffffffffffffffffffffffffffffffffffffffffffffffffffffffffffffff03821115611c1b57611c1a611a5d565b5b82820190509291505056fea264697066735822122085968791b3572bc765b1197a8dc3577213376fce199e54785d76786d60b9010664736f6c634300080c0033",
  "immutableReferences": {},
  "source": "//SPDX-License-Identifier: UNLICENSED\r\npragma solidity ^0.8.0;\r\n\r\nimport \"./Voting.sol\";\r\nimport \"./SharedWalletStorage.sol\";\r\n\r\ncontract SharedWallet is Voting {\r\n    SharedWalletStorage walletStorage;\r\n    uint256 public maxMembers;\r\n    mapping(address => bool) isMember;\r\n    address[] public members;\r\n\r\n    modifier onlyMember() override {\r\n        require(isMember[msg.sender]);\r\n        _;\r\n    }\r\n\r\n    constructor(\r\n        address _creator,\r\n        uint256 _maxMembers,\r\n        SharedWalletStorage _walletStorage\r\n    ) {\r\n        require(\r\n            _maxMembers <= 12,\r\n            \"Cannot have more than 12 members in a single shared wallet!\"\r\n        );\r\n\r\n        walletStorage = _walletStorage;\r\n        maxMembers = _maxMembers;\r\n\r\n        members.push(_creator);\r\n        isMember[_creator] = true;\r\n        walletStorage.addWalletToUser(address(this), _creator);\r\n    }\r\n\r\n    function getMembers() public view returns (address[] memory) {\r\n        return members;\r\n    }\r\n\r\n    function addMember(uint256 _requestId) external returns (bool) {\r\n        Request storage request = requests[_requestId];\r\n        require(\r\n            request.author == msg.sender,\r\n            \"You are not the author of this request!\"\r\n        );\r\n        require(request.approved == true, \"Request is not approved yet!\");\r\n        require(\r\n            request.requestType == RequestTypes.AddMember,\r\n            \"Wrong request id!\"\r\n        );\r\n\r\n        require(\r\n            members.length < maxMembers,\r\n            \"Maximum number of members reached!\"\r\n        );\r\n\r\n        members.push(request.addr);\r\n        isMember[request.addr] = true;\r\n        walletStorage.addWalletToUser(address(this), request.addr);\r\n        return true;\r\n    }\r\n\r\n    function removeMember(uint256 _requestId) external returns (bool) {\r\n        Request storage request = requests[_requestId];\r\n        require(\r\n            request.author == msg.sender,\r\n            \"You are not the author of this request!\"\r\n        );\r\n        require(request.approved == true, \"Request is not approved yet!\");\r\n        require(\r\n            request.requestType == RequestTypes.RemoveMember,\r\n            \"Wrong request id!\"\r\n        );\r\n\r\n        for (uint256 i = 0; i < members.length; i++)\r\n            if (members[i] == request.addr) {\r\n                address deletedMember = members[i];\r\n                delete members[i];\r\n                delete isMember[deletedMember];\r\n                walletStorage.removeWalletForUser(address(this), deletedMember);\r\n                return true;\r\n            }\r\n\r\n        return false;\r\n    }\r\n\r\n    function withdraw(uint256 _requestId) external returns (bool) {\r\n        Request storage request = requests[_requestId];\r\n        require(\r\n            request.author == msg.sender,\r\n            \"You are not the author of this request!\"\r\n        );\r\n        require(request.approved == true, \"Request is not approved yet!\");\r\n        require(\r\n            request.requestType == RequestTypes.Withdraw,\r\n            \"Wrong request id!\"\r\n        );\r\n\r\n        require(request.value <= address(this).balance);\r\n\r\n        return payable(msg.sender).send(request.value);\r\n    }\r\n\r\n    function destroy(uint256 _requestId) external returns (bool) {\r\n        Request storage request = requests[_requestId];\r\n        require(\r\n            request.author == msg.sender,\r\n            \"You are not the author of this request!\"\r\n        );\r\n        require(request.approved == true, \"Request is not approved yet!\");\r\n        require(\r\n            request.requestType == RequestTypes.Withdraw,\r\n            \"Wrong request id!\"\r\n        );\r\n\r\n        selfdestruct(payable(request.addr));\r\n        return true;\r\n    }\r\n\r\n    function _tryApproveRequest(uint256 _requestID) internal override {\r\n        uint256 goal = _getMajority(members.length);\r\n        if (requests[_requestID].proVotersCount == goal)\r\n            requests[_requestID].approved = true;\r\n    }\r\n\r\n    receive() external payable {}\r\n\r\n    fallback() external payable {}\r\n}\r\n",
  "sourcePath": "C:\\Users\\Joro\\Documents\\GitHub\\ShareIt\\contracts\\SharedWallet.sol",
  "compiler": {
    "name": "solc",
    "version": "0.8.12+commit.f00d7308.Emscripten.clang"
  },
  "schemaVersion": "3.4.6",
  "updatedAt": "2022-03-24T11:09:27.040Z",
  "devdoc": {
    "kind": "dev",
    "methods": {},
    "version": 1
  },
  "userdoc": {
    "kind": "user",
    "methods": {},
    "version": 1
  }
}