{
  "contractName": "SharedWalletFactory",
  "abi": [
    {
      "inputs": [],
      "stateMutability": "nonpayable",
      "type": "constructor"
    },
    {
      "anonymous": false,
      "inputs": [
        {
          "indexed": false,
          "internalType": "address",
          "name": "wallet",
          "type": "address"
        }
      ],
      "name": "WalletCreated",
      "type": "event"
    },
    {
      "inputs": [],
      "name": "sharedWalletImpl",
      "outputs": [
        {
          "internalType": "address",
          "name": "",
          "type": "address"
        }
      ],
      "stateMutability": "view",
      "type": "function"
    },
    {
      "inputs": [],
      "name": "walletsStorage",
      "outputs": [
        {
          "internalType": "contract SharedWalletStorage",
          "name": "",
          "type": "address"
        }
      ],
      "stateMutability": "view",
      "type": "function"
    },
    {
      "inputs": [
        {
          "internalType": "string",
          "name": "_name",
          "type": "string"
        }
      ],
      "name": "createNewSharedWallet",
      "outputs": [],
      "stateMutability": "nonpayable",
      "type": "function"
    }
  ],
  "bytecode": "0x60c060405234801561001057600080fd5b5060405161001d906100ce565b604051809103906000f080158015610039573d6000803e3d6000fd5b5073ffffffffffffffffffffffffffffffffffffffff1660808173ffffffffffffffffffffffffffffffffffffffff1681525050604051610079906100db565b604051809103906000f080158015610095573d6000803e3d6000fd5b5073ffffffffffffffffffffffffffffffffffffffff1660a08173ffffffffffffffffffffffffffffffffffffffff16815250506100e8565b6114138061077783390190565b612abf80611b8a83390190565b60805160a0516106566101216000396000818161019b01526101c501526000818160ae01528181610177015261020a01526106566000f3fe608060405234801561001057600080fd5b50600436106100415760003560e01c80639f21f9e414610046578063abcc915314610062578063d81b26bd14610080575b600080fd5b610060600480360381019061005b91906103ca565b61009e565b005b61006a610175565b6040516100779190610496565b60405180910390f35b610088610199565b60405161009591906104d2565b60405180910390f35b60006100aa83836101bd565b90507f000000000000000000000000000000000000000000000000000000000000000073ffffffffffffffffffffffffffffffffffffffff166351efa3f482336040518363ffffffff1660e01b81526004016101079291906104ed565b600060405180830381600087803b15801561012157600080fd5b505af1158015610135573d6000803e3d6000fd5b505050507f234cf33b32239d80b54161e2396c80cdeaf4d34161300e54d8bc01eb7c0ea5538160405161016891906104d2565b60405180910390a1505050565b7f000000000000000000000000000000000000000000000000000000000000000081565b7f000000000000000000000000000000000000000000000000000000000000000081565b6000806101e97f0000000000000000000000000000000000000000000000000000000000000000610286565b90508073ffffffffffffffffffffffffffffffffffffffff16634571e3a6337f000000000000000000000000000000000000000000000000000000000000000087876040518563ffffffff1660e01b815260040161024a9493929190610574565b600060405180830381600087803b15801561026457600080fd5b505af1158015610278573d6000803e3d6000fd5b505050508091505092915050565b60006040517f3d602d80600a3d3981f3363d3d373d3d3d363d7300000000000000000000000081528260601b60148201527f5af43d82803e903d91602b57fd5bf3000000000000000000000000000000000060288201526037816000f0915050600073ffffffffffffffffffffffffffffffffffffffff168173ffffffffffffffffffffffffffffffffffffffff161415610356576040517f08c379a000000000000000000000000000000000000000000000000000000000815260040161034d90610600565b60405180910390fd5b919050565b600080fd5b600080fd5b600080fd5b600080fd5b600080fd5b60008083601f84011261038a57610389610365565b5b8235905067ffffffffffffffff8111156103a7576103a661036a565b5b6020830191508360018202830111156103c3576103c261036f565b5b9250929050565b600080602083850312156103e1576103e061035b565b5b600083013567ffffffffffffffff8111156103ff576103fe610360565b5b61040b85828601610374565b92509250509250929050565b600073ffffffffffffffffffffffffffffffffffffffff82169050919050565b6000819050919050565b600061045c61045761045284610417565b610437565b610417565b9050919050565b600061046e82610441565b9050919050565b600061048082610463565b9050919050565b61049081610475565b82525050565b60006020820190506104ab6000830184610487565b92915050565b60006104bc82610417565b9050919050565b6104cc816104b1565b82525050565b60006020820190506104e760008301846104c3565b92915050565b600060408201905061050260008301856104c3565b61050f60208301846104c3565b9392505050565b600082825260208201905092915050565b82818337600083830152505050565b6000601f19601f8301169050919050565b60006105538385610516565b9350610560838584610527565b61056983610536565b840190509392505050565b600060608201905061058960008301876104c3565b61059660208301866104c3565b81810360408301526105a9818486610547565b905095945050505050565b7f455243313136373a20637265617465206661696c656400000000000000000000600082015250565b60006105ea601683610516565b91506105f5826105b4565b602082019050919050565b60006020820190508181036000830152610619816105dd565b905091905056fea26469706673582212204a6b00523c872ca95a84777950400f71c1dc5a7e139020e175671155d8eeb7d464736f6c634300080c0033608060405234801561001057600080fd5b506113f3806100206000396000f3fe608060405234801561001057600080fd5b506004361061007d5760003560e01c8063a7f40e971161005b578063a7f40e97146100da578063abfa7969146100f8578063ad4600ee14610114578063d8a3bc56146101305761007d565b806351efa3f4146100825780638b1df1601461009e5780639d9820f9146100bc575b600080fd5b61009c60048036038101906100979190610f52565b61014c565b005b6100a661029f565b6040516100b3919061105a565b60405180910390f35b6100c461044e565b6040516100d1919061113a565b60405180910390f35b6100e261062b565b6040516100ef919061113a565b60405180910390f35b610112600480360381019061010d9190610f52565b6106f5565b005b61012e6004803603810190610129919061115c565b610a6b565b005b61014a600480360381019061014591906111b5565b610d54565b005b8173ffffffffffffffffffffffffffffffffffffffff1663a230c524826040518263ffffffff1660e01b81526004016101859190611204565b602060405180830381865afa1580156101a2573d6000803e3d6000fd5b505050506040513d601f19601f820116820180604052508101906101c69190611257565b6101fc576040517f4636950100000000000000000000000000000000000000000000000000000000815260040160405180910390fd5b6000808273ffffffffffffffffffffffffffffffffffffffff1673ffffffffffffffffffffffffffffffffffffffff168152602001908152602001600020829080600181540180825580915050600190039060005260206000200160009091909190916101000a81548173ffffffffffffffffffffffffffffffffffffffff021916908373ffffffffffffffffffffffffffffffffffffffff1602179055505050565b60606000600160003373ffffffffffffffffffffffffffffffffffffffff1673ffffffffffffffffffffffffffffffffffffffff168152602001908152602001600020805480602002602001604051908101604052809291908181526020016000905b8282101561039457838290600052602060002090600202016040518060400160405290816000820160009054906101000a900473ffffffffffffffffffffffffffffffffffffffff1673ffffffffffffffffffffffffffffffffffffffff1673ffffffffffffffffffffffffffffffffffffffff16815260200160018201548152505081526020019060010190610302565b5050505090506000815167ffffffffffffffff8111156103b7576103b6611284565b5b6040519080825280602002602001820160405280156103e55781602001602082028036833780820191505090505b50905060005b825181101561044557828181518110610407576104066112b3565b5b602002602001015160200151828281518110610426576104256112b3565b5b602002602001018181525050808061043d90611311565b9150506103eb565b50809250505090565b60606000600160003373ffffffffffffffffffffffffffffffffffffffff1673ffffffffffffffffffffffffffffffffffffffff168152602001908152602001600020805480602002602001604051908101604052809291908181526020016000905b8282101561054357838290600052602060002090600202016040518060400160405290816000820160009054906101000a900473ffffffffffffffffffffffffffffffffffffffff1673ffffffffffffffffffffffffffffffffffffffff1673ffffffffffffffffffffffffffffffffffffffff168152602001600182015481525050815260200190600101906104b1565b5050505090506000815167ffffffffffffffff81111561056657610565611284565b5b6040519080825280602002602001820160405280156105945781602001602082028036833780820191505090505b50905060005b8251811015610622578281815181106105b6576105b56112b3565b5b6020026020010151600001518282815181106105d5576105d46112b3565b5b602002602001019073ffffffffffffffffffffffffffffffffffffffff16908173ffffffffffffffffffffffffffffffffffffffff1681525050808061061a90611311565b91505061059a565b50809250505090565b60606000803373ffffffffffffffffffffffffffffffffffffffff1673ffffffffffffffffffffffffffffffffffffffff1681526020019081526020016000208054806020026020016040519081016040528092919081815260200182805480156106eb57602002820191906000526020600020905b8160009054906101000a900473ffffffffffffffffffffffffffffffffffffffff1673ffffffffffffffffffffffffffffffffffffffff16815260200190600101908083116106a1575b5050505050905090565b8173ffffffffffffffffffffffffffffffffffffffff1663a230c524826040518263ffffffff1660e01b815260040161072e9190611204565b602060405180830381865afa15801561074b573d6000803e3d6000fd5b505050506040513d601f19601f8201168201806040525081019061076f9190611257565b156107a6576040517fc63ac29a00000000000000000000000000000000000000000000000000000000815260040160405180910390fd5b60008060008373ffffffffffffffffffffffffffffffffffffffff1673ffffffffffffffffffffffffffffffffffffffff16815260200190815260200160002080548060200260200160405190810160405280929190818152602001828054801561086657602002820191906000526020600020905b8160009054906101000a900473ffffffffffffffffffffffffffffffffffffffff1673ffffffffffffffffffffffffffffffffffffffff168152602001906001019080831161081c575b5050505050905060005b8151811015610a64578373ffffffffffffffffffffffffffffffffffffffff168282815181106108a3576108a26112b3565b5b602002602001015173ffffffffffffffffffffffffffffffffffffffff161415610a51578160016000808673ffffffffffffffffffffffffffffffffffffffff1673ffffffffffffffffffffffffffffffffffffffff16815260200190815260200160002080549050610916919061135a565b81518110610927576109266112b3565b5b60200260200101516000808573ffffffffffffffffffffffffffffffffffffffff1673ffffffffffffffffffffffffffffffffffffffff168152602001908152602001600020828154811061097f5761097e6112b3565b5b9060005260206000200160006101000a81548173ffffffffffffffffffffffffffffffffffffffff021916908373ffffffffffffffffffffffffffffffffffffffff1602179055506000808473ffffffffffffffffffffffffffffffffffffffff1673ffffffffffffffffffffffffffffffffffffffff168152602001908152602001600020805480610a1557610a1461138e565b5b6001900381819060005260206000200160006101000a81549073ffffffffffffffffffffffffffffffffffffffff021916905590555050610a67565b8080610a5c90611311565b915050610870565b50505b5050565b6000600160008373ffffffffffffffffffffffffffffffffffffffff1673ffffffffffffffffffffffffffffffffffffffff168152602001908152602001600020805480602002602001604051908101604052809291908181526020016000905b82821015610b5e57838290600052602060002090600202016040518060400160405290816000820160009054906101000a900473ffffffffffffffffffffffffffffffffffffffff1673ffffffffffffffffffffffffffffffffffffffff1673ffffffffffffffffffffffffffffffffffffffff16815260200160018201548152505081526020019060010190610acc565b50505050905060005b8151811015610d4e573373ffffffffffffffffffffffffffffffffffffffff16828281518110610b9a57610b996112b3565b5b60200260200101516000015173ffffffffffffffffffffffffffffffffffffffff161415610d3b578160018351610bd1919061135a565b81518110610be257610be16112b3565b5b6020026020010151600160008573ffffffffffffffffffffffffffffffffffffffff1673ffffffffffffffffffffffffffffffffffffffff1681526020019081526020016000208281548110610c3b57610c3a6112b3565b5b906000526020600020906002020160008201518160000160006101000a81548173ffffffffffffffffffffffffffffffffffffffff021916908373ffffffffffffffffffffffffffffffffffffffff16021790555060208201518160010155905050600160008473ffffffffffffffffffffffffffffffffffffffff1673ffffffffffffffffffffffffffffffffffffffff168152602001908152602001600020805480610cec57610ceb61138e565b5b6001900381819060005260206000209060020201600080820160006101000a81549073ffffffffffffffffffffffffffffffffffffffff02191690556001820160009055505090555050610d51565b8080610d4690611311565b915050610b67565b50505b50565b3373ffffffffffffffffffffffffffffffffffffffff1663a230c524836040518263ffffffff1660e01b8152600401610d8d9190611204565b602060405180830381865afa158015610daa573d6000803e3d6000fd5b505050506040513d601f19601f82011682018060405250810190610dce9190611257565b15610e05576040517fc63ac29a00000000000000000000000000000000000000000000000000000000815260040160405180910390fd5b600160008373ffffffffffffffffffffffffffffffffffffffff1673ffffffffffffffffffffffffffffffffffffffff16815260200190815260200160002060405180604001604052803373ffffffffffffffffffffffffffffffffffffffff16815260200183815250908060018154018082558091505060019003906000526020600020906002020160009091909190915060008201518160000160006101000a81548173ffffffffffffffffffffffffffffffffffffffff021916908373ffffffffffffffffffffffffffffffffffffffff1602179055506020820151816001015550505050565b600080fd5b600073ffffffffffffffffffffffffffffffffffffffff82169050919050565b6000610f1f82610ef4565b9050919050565b610f2f81610f14565b8114610f3a57600080fd5b50565b600081359050610f4c81610f26565b92915050565b60008060408385031215610f6957610f68610eef565b5b6000610f7785828601610f3d565b9250506020610f8885828601610f3d565b9150509250929050565b600081519050919050565b600082825260208201905092915050565b6000819050602082019050919050565b6000819050919050565b610fd181610fbe565b82525050565b6000610fe38383610fc8565b60208301905092915050565b6000602082019050919050565b600061100782610f92565b6110118185610f9d565b935061101c83610fae565b8060005b8381101561104d5781516110348882610fd7565b975061103f83610fef565b925050600181019050611020565b5085935050505092915050565b600060208201905081810360008301526110748184610ffc565b905092915050565b600081519050919050565b600082825260208201905092915050565b6000819050602082019050919050565b6110b181610f14565b82525050565b60006110c383836110a8565b60208301905092915050565b6000602082019050919050565b60006110e78261107c565b6110f18185611087565b93506110fc83611098565b8060005b8381101561112d57815161111488826110b7565b975061111f836110cf565b925050600181019050611100565b5085935050505092915050565b6000602082019050818103600083015261115481846110dc565b905092915050565b60006020828403121561117257611171610eef565b5b600061118084828501610f3d565b91505092915050565b61119281610fbe565b811461119d57600080fd5b50565b6000813590506111af81611189565b92915050565b600080604083850312156111cc576111cb610eef565b5b60006111da85828601610f3d565b92505060206111eb858286016111a0565b9150509250929050565b6111fe81610f14565b82525050565b600060208201905061121960008301846111f5565b92915050565b60008115159050919050565b6112348161121f565b811461123f57600080fd5b50565b6000815190506112518161122b565b92915050565b60006020828403121561126d5761126c610eef565b5b600061127b84828501611242565b91505092915050565b7f4e487b7100000000000000000000000000000000000000000000000000000000600052604160045260246000fd5b7f4e487b7100000000000000000000000000000000000000000000000000000000600052603260045260246000fd5b7f4e487b7100000000000000000000000000000000000000000000000000000000600052601160045260246000fd5b600061131c82610fbe565b91507fffffffffffffffffffffffffffffffffffffffffffffffffffffffffffffffff82141561134f5761134e6112e2565b5b600182019050919050565b600061136582610fbe565b915061137083610fbe565b925082821015611383576113826112e2565b5b828203905092915050565b7f4e487b7100000000000000000000000000000000000000000000000000000000600052603160045260246000fdfea26469706673582212200c183b21736ffccda58d790eb3d2685482fc41b37bac6f894a180a99921e167064736f6c634300080c0033608060405234801561001057600080fd5b506001600381905550612a97806100286000396000f3fe6080604052600436106100dd5760003560e01c8063663c22691161007f578063c1c1da4011610059578063c1c1da40146102ac578063d0e30db0146102d5578063d66d9e19146102df578063f34d4c63146102f6576100dd565b8063663c226914610219578063a230c52414610244578063abcc915314610281576100dd565b8063464c5b6c116100bb578063464c5b6c146101615780634ba1f0981461018a57806354ebcf9b146101b35780635aa6bb3b146101f0576100dd565b806306fdde03146100e2578063297f9af01461010d5780634571e3a614610138575b600080fd5b3480156100ee57600080fd5b506100f7610338565b6040516101049190612119565b60405180910390f35b34801561011957600080fd5b506101226103c6565b60405161012f9190612154565b60405180910390f35b34801561014457600080fd5b5061015f600480360381019061015a9190612316565b6103cc565b005b34801561016d57600080fd5b50610188600480360381019061018391906123b1565b6105c3565b005b34801561019657600080fd5b506101b160048036038101906101ac91906123b1565b610756565b005b3480156101bf57600080fd5b506101da60048036038101906101d591906123b1565b61094a565b6040516101e791906123f9565b60405180910390f35b3480156101fc57600080fd5b50610217600480360381019061021291906123b1565b6109b3565b005b34801561022557600080fd5b5061022e610b6b565b60405161023b9190612154565b60405180910390f35b34801561025057600080fd5b5061026b60048036038101906102669190612414565b610b71565b60405161027891906123f9565b60405180910390f35b34801561028d57600080fd5b50610296610b91565b6040516102a391906124a0565b60405180910390f35b3480156102b857600080fd5b506102d360048036038101906102ce91906124e7565b610bb7565b005b6102dd610fad565b005b3480156102eb57600080fd5b506102f4610faf565b005b34801561030257600080fd5b5061031d600480360381019061031891906123b1565b61112a565b60405161032f96959493929190612604565b60405180910390f35b6008805461034590612694565b80601f016020809104026020016040519081016040528092919081815260200182805461037190612694565b80156103be5780601f10610393576101008083540402835291602001916103be565b820191906000526020600020905b8154815290600101906020018083116103a157829003601f168201915b505050505081565b60075481565b60006103d860016111e4565b905080156103fc576001600260016101000a81548160ff0219169083151502179055505b600082511415610438576040517fb4fa3fb300000000000000000000000000000000000000000000000000000000815260040160405180910390fd5b82600460006101000a81548173ffffffffffffffffffffffffffffffffffffffff021916908373ffffffffffffffffffffffffffffffffffffffff1602179055506006849080600181540180825580915050600190039060005260206000200160009091909190916101000a81548173ffffffffffffffffffffffffffffffffffffffff021916908373ffffffffffffffffffffffffffffffffffffffff160217905550600760008154809291906104ef906126f5565b91905055506001600560008673ffffffffffffffffffffffffffffffffffffffff1673ffffffffffffffffffffffffffffffffffffffff16815260200190815260200160002060006101000a81548160ff0219169083151502179055508160089080519060200190610562929190611fdd565b5080156105bd576000600260016101000a81548160ff0219169083151502179055507f7f26b83ff96e1f2b6a682f133852f6798a09c465da95921460cefb384740249860016040516105b49190612786565b60405180910390a15b50505050565b600060038111156105d7576105d6612536565b5b60008083815260200190815260200160002060000160149054906101000a900460ff16600381111561060c5761060b612536565b5b14158061067a57503373ffffffffffffffffffffffffffffffffffffffff1660008083815260200190815260200160002060010160009054906101000a900473ffffffffffffffffffffffffffffffffffffffff1673ffffffffffffffffffffffffffffffffffffffff1614155b806106cc57506001600381111561069457610693612536565b5b60008083815260200190815260200160002060010160149054906101000a900460ff1660038111156106c9576106c8612536565b5b14155b15610703576040517f41abc80100000000000000000000000000000000000000000000000000000000815260040160405180910390fd5b600260008083815260200190815260200160002060010160146101000a81548160ff0219169083600381111561073c5761073b612536565b5b021790555061074a336112d8565b61075381611368565b50565b600560003373ffffffffffffffffffffffffffffffffffffffff1673ffffffffffffffffffffffffffffffffffffffff16815260200190815260200160002060009054906101000a900460ff166107d9576040517f2727adbd00000000000000000000000000000000000000000000000000000000815260040160405180910390fd5b6001151560008083815260200190815260200160002060010160159054906101000a900460ff161515148061087157506001151560008083815260200190815260200160002060030160003373ffffffffffffffffffffffffffffffffffffffff1673ffffffffffffffffffffffffffffffffffffffff16815260200190815260200160002060009054906101000a900460ff161515145b156108a8576040517f41abc80100000000000000000000000000000000000000000000000000000000815260040160405180910390fd5b600160008083815260200190815260200160002060030160003373ffffffffffffffffffffffffffffffffffffffff1673ffffffffffffffffffffffffffffffffffffffff16815260200190815260200160002060006101000a81548160ff0219169083151502179055506000808281526020019081526020016000206002016000815480929190610939906126f5565b919050555061094781611368565b50565b600080600083815260200190815260200160002060030160003373ffffffffffffffffffffffffffffffffffffffff1673ffffffffffffffffffffffffffffffffffffffff16815260200190815260200160002060009054906101000a900460ff169050919050565b600060038111156109c7576109c6612536565b5b60008083815260200190815260200160002060000160149054906101000a900460ff1660038111156109fc576109fb612536565b5b141580610a6a57503373ffffffffffffffffffffffffffffffffffffffff1660008083815260200190815260200160002060010160009054906101000a900473ffffffffffffffffffffffffffffffffffffffff1673ffffffffffffffffffffffffffffffffffffffff1614155b80610abc575060016003811115610a8457610a83612536565b5b60008083815260200190815260200160002060010160149054906101000a900460ff166003811115610ab957610ab8612536565b5b14155b15610af3576040517f41abc80100000000000000000000000000000000000000000000000000000000815260040160405180910390fd5b600360008083815260200190815260200160002060010160146101000a81548160ff02191690836003811115610b2c57610b2b612536565b5b0217905550610b3a336112d8565b600160008083815260200190815260200160002060010160156101000a81548160ff02191690831515021790555050565b60015481565b60056020528060005260406000206000915054906101000a900460ff1681565b600460009054906101000a900473ffffffffffffffffffffffffffffffffffffffff1681565b600560003373ffffffffffffffffffffffffffffffffffffffff1673ffffffffffffffffffffffffffffffffffffffff16815260200190815260200160002060009054906101000a900460ff16610c3a576040517f2727adbd00000000000000000000000000000000000000000000000000000000815260040160405180910390fd5b600380811115610c4d57610c4c612536565b5b821115610c86576040517fb4fa3fb300000000000000000000000000000000000000000000000000000000815260040160405180910390fd5b60026003811115610c9a57610c99612536565b5b60ff1682148015610cf9575060008173ffffffffffffffffffffffffffffffffffffffff16111580610cf857503073ffffffffffffffffffffffffffffffffffffffff16318173ffffffffffffffffffffffffffffffffffffffff16115b5b15610d30576040517fb4fa3fb300000000000000000000000000000000000000000000000000000000815260040160405180910390fd5b600073ffffffffffffffffffffffffffffffffffffffff168173ffffffffffffffffffffffffffffffffffffffff161415610d97576040517fb4fa3fb300000000000000000000000000000000000000000000000000000000815260040160405180910390fd5b600080600060015481526020019081526020016000209050338160000160006101000a81548173ffffffffffffffffffffffffffffffffffffffff021916908373ffffffffffffffffffffffffffffffffffffffff160217905550826003811115610e0557610e04612536565b5b8160000160146101000a81548160ff02191690836003811115610e2b57610e2a612536565b5b0217905550818160010160006101000a81548173ffffffffffffffffffffffffffffffffffffffff021916908373ffffffffffffffffffffffffffffffffffffffff1602179055506001816002018190555060018160030160003373ffffffffffffffffffffffffffffffffffffffff1673ffffffffffffffffffffffffffffffffffffffff16815260200190815260200160002060006101000a81548160ff0219169083151502179055506000600154905060006003811115610ef257610ef1612536565b5b8260000160149054906101000a900460ff166003811115610f1657610f15612536565b5b1415610f585760018260010160146101000a81548160ff02191690836003811115610f4457610f43612536565b5b0217905550610f53838261152f565b610f86565b60008260010160146101000a81548160ff02191690836003811115610f8057610f7f612536565b5b02179055505b60016000815480929190610f99906126f5565b9190505550610fa781611368565b50505050565b565b600560003373ffffffffffffffffffffffffffffffffffffffff1673ffffffffffffffffffffffffffffffffffffffff16815260200190815260200160002060009054906101000a900460ff16611032576040517f2727adbd00000000000000000000000000000000000000000000000000000000815260040160405180910390fd5b60076000815480929190611045906127a1565b9190505550600560003373ffffffffffffffffffffffffffffffffffffffff1673ffffffffffffffffffffffffffffffffffffffff16815260200190815260200160002060006101000a81549060ff0219169055600460009054906101000a900473ffffffffffffffffffffffffffffffffffffffff1673ffffffffffffffffffffffffffffffffffffffff1663abfa796930336040518363ffffffff1660e01b81526004016110f69291906127cb565b600060405180830381600087803b15801561111057600080fd5b505af1158015611124573d6000803e3d6000fd5b50505050565b600080600080600080600080600089815260200190815260200160002090508060000160009054906101000a900473ffffffffffffffffffffffffffffffffffffffff168160000160149054906101000a900460ff168260010160009054906101000a900473ffffffffffffffffffffffffffffffffffffffff168360010160149054906101000a900460ff168460010160159054906101000a900460ff1685600201549650965096509650965096505091939550919395565b6000600260019054906101000a900460ff161561125c5760018260ff161480156112145750611212306115c2565b155b611253576040517f08c379a000000000000000000000000000000000000000000000000000000000815260040161124a90612866565b60405180910390fd5b600090506112d3565b8160ff16600260009054906101000a900460ff1660ff16106112b3576040517f08c379a00000000000000000000000000000000000000000000000000000000081526004016112aa90612866565b60405180910390fd5b81600260006101000a81548160ff021916908360ff160217905550600190505b919050565b600460009054906101000a900473ffffffffffffffffffffffffffffffffffffffff1673ffffffffffffffffffffffffffffffffffffffff1663ad4600ee826040518263ffffffff1660e01b81526004016113339190612886565b600060405180830381600087803b15801561134d57600080fd5b505af1158015611361573d6000803e3d6000fd5b5050505050565b60006113726115e5565b905080600080848152602001908152602001600020600201541480156113df5750600060038111156113a7576113a6612536565b5b60008084815260200190815260200160002060000160149054906101000a900460ff1660038111156113dc576113db612536565b5b14155b1561141757600160008084815260200190815260200160002060010160156101000a81548160ff0219169083151502179055506114f9565b806000808481526020019081526020016000206002015414801561148157506000600381111561144a57611449612536565b5b60008084815260200190815260200160002060000160149054906101000a900460ff16600381111561147f5761147e612536565b5b145b80156114c45750600260008084815260200190815260200160002060010160149054906101000a900460ff1660038111156114bf576114be612536565b5b60ff16145b156114f857600160008084815260200190815260200160002060010160156101000a81548160ff0219169083151502179055505b5b60008083815260200190815260200160002060010160159054906101000a900460ff161561152b5761152a82611607565b5b5050565b600460009054906101000a900473ffffffffffffffffffffffffffffffffffffffff1673ffffffffffffffffffffffffffffffffffffffff1663d8a3bc5683836040518363ffffffff1660e01b815260040161158c9291906128a1565b600060405180830381600087803b1580156115a657600080fd5b505af11580156115ba573d6000803e3d6000fd5b505050505050565b6000808273ffffffffffffffffffffffffffffffffffffffff163b119050919050565b6000600160026007546115f891906128f9565b611602919061292a565b905090565b6000600381111561161b5761161a612536565b5b60008083815260200190815260200160002060000160149054906101000a900460ff1660038111156116505761164f612536565b5b14156116645761165f8161177c565b611779565b6001600381111561167857611677612536565b5b60008083815260200190815260200160002060000160149054906101000a900460ff1660038111156116ad576116ac612536565b5b14156116c1576116bc816119a6565b611778565b600260038111156116d5576116d4612536565b5b60008083815260200190815260200160002060000160149054906101000a900460ff16600381111561170a57611709612536565b5b141561171e5761171981611b63565b611777565b60038081111561173157611730612536565b5b60008083815260200190815260200160002060000160149054906101000a900460ff16600381111561176657611765612536565b5b14156117765761177581611d60565b5b5b5b5b50565b6000806000838152602001908152602001600020905060008160010160009054906101000a900473ffffffffffffffffffffffffffffffffffffffff169050600560008273ffffffffffffffffffffffffffffffffffffffff1673ffffffffffffffffffffffffffffffffffffffff16815260200190815260200160002060009054906101000a900460ff161561183f576040517fbf3e1bca00000000000000000000000000000000000000000000000000000000815260040160405180910390fd5b6006819080600181540180825580915050600190039060005260206000200160009091909190916101000a81548173ffffffffffffffffffffffffffffffffffffffff021916908373ffffffffffffffffffffffffffffffffffffffff160217905550600760008154809291906118b5906126f5565b91905055506001600560008373ffffffffffffffffffffffffffffffffffffffff1673ffffffffffffffffffffffffffffffffffffffff16815260200190815260200160002060006101000a81548160ff021916908315150217905550600460009054906101000a900473ffffffffffffffffffffffffffffffffffffffff1673ffffffffffffffffffffffffffffffffffffffff166351efa3f430836040518363ffffffff1660e01b815260040161196f9291906127cb565b600060405180830381600087803b15801561198957600080fd5b505af115801561199d573d6000803e3d6000fd5b50505050505050565b6000806000838152602001908152602001600020905060008160010160009054906101000a900473ffffffffffffffffffffffffffffffffffffffff169050600560008273ffffffffffffffffffffffffffffffffffffffff1673ffffffffffffffffffffffffffffffffffffffff16815260200190815260200160002060009054906101000a900460ff16611a68576040517f2727adbd00000000000000000000000000000000000000000000000000000000815260040160405180910390fd5b60076000815480929190611a7b906127a1565b9190505550600560008273ffffffffffffffffffffffffffffffffffffffff1673ffffffffffffffffffffffffffffffffffffffff16815260200190815260200160002060006101000a81549060ff0219169055600460009054906101000a900473ffffffffffffffffffffffffffffffffffffffff1673ffffffffffffffffffffffffffffffffffffffff1663abfa796930836040518363ffffffff1660e01b8152600401611b2c9291906127cb565b600060405180830381600087803b158015611b4657600080fd5b505af1158015611b5a573d6000803e3d6000fd5b50505050505050565b60026003541415611ba9576040517f08c379a0000000000000000000000000000000000000000000000000000000008152600401611ba0906129cc565b60405180910390fd5b6002600381905550600080600083815260200190815260200160002090503073ffffffffffffffffffffffffffffffffffffffff16318160010160009054906101000a900473ffffffffffffffffffffffffffffffffffffffff1673ffffffffffffffffffffffffffffffffffffffff161115611c52576040517ff4d678b800000000000000000000000000000000000000000000000000000000815260040160405180910390fd5b60008160000160009054906101000a900473ffffffffffffffffffffffffffffffffffffffff1673ffffffffffffffffffffffffffffffffffffffff168260010160009054906101000a900473ffffffffffffffffffffffffffffffffffffffff1673ffffffffffffffffffffffffffffffffffffffff16604051611cd690612a1d565b60006040518083038185875af1925050503d8060008114611d13576040519150601f19603f3d011682016040523d82523d6000602084013e611d18565b606091505b5050905080611d53576040517fbf961a2800000000000000000000000000000000000000000000000000000000815260040160405180910390fd5b5050600160038190555050565b6000806000838152602001908152602001600020905060006006805480602002602001604051908101604052809291908181526020018280548015611dfa57602002820191906000526020600020905b8160009054906101000a900473ffffffffffffffffffffffffffffffffffffffff1673ffffffffffffffffffffffffffffffffffffffff1681526020019060010190808311611db0575b5050505050905060005b8151811015611f9f5760056000838381518110611e2457611e23612a32565b5b602002602001015173ffffffffffffffffffffffffffffffffffffffff1673ffffffffffffffffffffffffffffffffffffffff16815260200190815260200160002060009054906101000a900460ff1615611f8c5760056000838381518110611e9057611e8f612a32565b5b602002602001015173ffffffffffffffffffffffffffffffffffffffff1673ffffffffffffffffffffffffffffffffffffffff16815260200190815260200160002060006101000a81549060ff0219169055600460009054906101000a900473ffffffffffffffffffffffffffffffffffffffff1673ffffffffffffffffffffffffffffffffffffffff1663abfa796930848481518110611f3457611f33612a32565b5b60200260200101516040518363ffffffff1660e01b8152600401611f599291906127cb565b600060405180830381600087803b158015611f7357600080fd5b505af1158015611f87573d6000803e3d6000fd5b505050505b8080611f97906126f5565b915050611e04565b508160010160009054906101000a900473ffffffffffffffffffffffffffffffffffffffff1673ffffffffffffffffffffffffffffffffffffffff16ff5b828054611fe990612694565b90600052602060002090601f01602090048101928261200b5760008555612052565b82601f1061202457805160ff1916838001178555612052565b82800160010185558215612052579182015b82811115612051578251825591602001919060010190612036565b5b50905061205f9190612063565b5090565b5b8082111561207c576000816000905550600101612064565b5090565b600081519050919050565b600082825260208201905092915050565b60005b838110156120ba57808201518184015260208101905061209f565b838111156120c9576000848401525b50505050565b6000601f19601f8301169050919050565b60006120eb82612080565b6120f5818561208b565b935061210581856020860161209c565b61210e816120cf565b840191505092915050565b6000602082019050818103600083015261213381846120e0565b905092915050565b6000819050919050565b61214e8161213b565b82525050565b60006020820190506121696000830184612145565b92915050565b6000604051905090565b600080fd5b600080fd5b600073ffffffffffffffffffffffffffffffffffffffff82169050919050565b60006121ae82612183565b9050919050565b6121be816121a3565b81146121c957600080fd5b50565b6000813590506121db816121b5565b92915050565b600080fd5b600080fd5b7f4e487b7100000000000000000000000000000000000000000000000000000000600052604160045260246000fd5b612223826120cf565b810181811067ffffffffffffffff82111715612242576122416121eb565b5b80604052505050565b600061225561216f565b9050612261828261221a565b919050565b600067ffffffffffffffff821115612281576122806121eb565b5b61228a826120cf565b9050602081019050919050565b82818337600083830152505050565b60006122b96122b484612266565b61224b565b9050828152602081018484840111156122d5576122d46121e6565b5b6122e0848285612297565b509392505050565b600082601f8301126122fd576122fc6121e1565b5b813561230d8482602086016122a6565b91505092915050565b60008060006060848603121561232f5761232e612179565b5b600061233d868287016121cc565b935050602061234e868287016121cc565b925050604084013567ffffffffffffffff81111561236f5761236e61217e565b5b61237b868287016122e8565b9150509250925092565b61238e8161213b565b811461239957600080fd5b50565b6000813590506123ab81612385565b92915050565b6000602082840312156123c7576123c6612179565b5b60006123d58482850161239c565b91505092915050565b60008115159050919050565b6123f3816123de565b82525050565b600060208201905061240e60008301846123ea565b92915050565b60006020828403121561242a57612429612179565b5b6000612438848285016121cc565b91505092915050565b6000819050919050565b600061246661246161245c84612183565b612441565b612183565b9050919050565b60006124788261244b565b9050919050565b600061248a8261246d565b9050919050565b61249a8161247f565b82525050565b60006020820190506124b56000830184612491565b92915050565b6124c481612183565b81146124cf57600080fd5b50565b6000813590506124e1816124bb565b92915050565b600080604083850312156124fe576124fd612179565b5b600061250c8582860161239c565b925050602061251d858286016124d2565b9150509250929050565b612530816121a3565b82525050565b7f4e487b7100000000000000000000000000000000000000000000000000000000600052602160045260246000fd5b6004811061257657612575612536565b5b50565b600081905061258782612565565b919050565b600061259782612579565b9050919050565b6125a78161258c565b82525050565b6125b681612183565b82525050565b600481106125cd576125cc612536565b5b50565b60008190506125de826125bc565b919050565b60006125ee826125d0565b9050919050565b6125fe816125e3565b82525050565b600060c0820190506126196000830189612527565b612626602083018861259e565b61263360408301876125ad565b61264060608301866125f5565b61264d60808301856123ea565b61265a60a0830184612145565b979650505050505050565b7f4e487b7100000000000000000000000000000000000000000000000000000000600052602260045260246000fd5b600060028204905060018216806126ac57607f821691505b602082108114156126c0576126bf612665565b5b50919050565b7f4e487b7100000000000000000000000000000000000000000000000000000000600052601160045260246000fd5b60006127008261213b565b91507fffffffffffffffffffffffffffffffffffffffffffffffffffffffffffffffff821415612733576127326126c6565b5b600182019050919050565b6000819050919050565b600060ff82169050919050565b600061277061276b6127668461273e565b612441565b612748565b9050919050565b61278081612755565b82525050565b600060208201905061279b6000830184612777565b92915050565b60006127ac8261213b565b915060008214156127c0576127bf6126c6565b5b600182039050919050565b60006040820190506127e06000830185612527565b6127ed6020830184612527565b9392505050565b7f496e697469616c697a61626c653a20636f6e747261637420697320616c72656160008201527f647920696e697469616c697a6564000000000000000000000000000000000000602082015250565b6000612850602e8361208b565b915061285b826127f4565b604082019050919050565b6000602082019050818103600083015261287f81612843565b9050919050565b600060208201905061289b6000830184612527565b92915050565b60006040820190506128b66000830185612527565b6128c36020830184612145565b9392505050565b7f4e487b7100000000000000000000000000000000000000000000000000000000600052601260045260246000fd5b60006129048261213b565b915061290f8361213b565b92508261291f5761291e6128ca565b5b828204905092915050565b60006129358261213b565b91506129408361213b565b9250827fffffffffffffffffffffffffffffffffffffffffffffffffffffffffffffffff03821115612975576129746126c6565b5b828201905092915050565b7f5265656e7472616e637947756172643a207265656e7472616e742063616c6c00600082015250565b60006129b6601f8361208b565b91506129c182612980565b602082019050919050565b600060208201905081810360008301526129e5816129a9565b9050919050565b600081905092915050565b50565b6000612a076000836129ec565b9150612a12826129f7565b600082019050919050565b6000612a28826129fa565b9150819050919050565b7f4e487b7100000000000000000000000000000000000000000000000000000000600052603260045260246000fdfea2646970667358221220bec3151de9da7f851af5523c16736c3ad29121b76bc84023ee83994fcf163ee364736f6c634300080c0033",
  "immutableReferences": {
    "1035": [
      {
        "length": 32,
        "start": 174
      },
      {
        "length": 32,
        "start": 375
      },
      {
        "length": 32,
        "start": 522
      }
    ],
    "1037": [
      {
        "length": 32,
        "start": 411
      },
      {
        "length": 32,
        "start": 453
      }
    ]
  },
  "source": "//SPDX-License-Identifier: MIT\r\npragma solidity ^0.8.0;\r\n\r\nimport \"./SharedWallet.sol\";\r\nimport \"./SharedWalletStorage.sol\";\r\nimport \"@openzeppelin/contracts/proxy/Clones.sol\";\r\n\r\ncontract SharedWalletFactory {\r\n    SharedWalletStorage public immutable walletsStorage;\r\n    address public immutable sharedWalletImpl;\r\n\r\n    event WalletCreated(address wallet);\r\n\r\n    constructor() {\r\n        walletsStorage = new SharedWalletStorage();\r\n        sharedWalletImpl = address(new SharedWallet());\r\n    }\r\n\r\n    function createNewSharedWallet(string calldata _name) external {\r\n        address newSharedWallet = _cloneSharedWallet(_name);\r\n        walletsStorage.addWalletToUser(newSharedWallet, msg.sender);\r\n        emit WalletCreated(newSharedWallet);\r\n    }\r\n\r\n    function _cloneSharedWallet(string calldata _name)\r\n        private\r\n        returns (address)\r\n    {\r\n        address _newSharedWallet = Clones.clone(sharedWalletImpl);\r\n        SharedWallet(_newSharedWallet).initialize(\r\n            msg.sender,\r\n            address(walletsStorage),\r\n            _name\r\n        );\r\n        return _newSharedWallet;\r\n    }\r\n}\r\n",
  "sourcePath": "C:\\Users\\home\\Documents\\GitHub\\ShareIt\\contracts\\SharedWalletFactory.sol",
  "compiler": {
    "name": "solc",
    "version": "0.8.12+commit.f00d7308.Emscripten.clang"
  },
  "schemaVersion": "3.4.7",
  "updatedAt": "2022-05-23T23:45:14.795Z",
  "devdoc": {
    "kind": "dev",
    "methods": {},
    "version": 1
  },
  "userdoc": {
    "kind": "user",
    "methods": {},
    "version": 1
  }
}