{
  "contractName": "SharedWalletsStorage",
  "abi": [
    {
      "inputs": [
        {
          "internalType": "address",
          "name": "",
          "type": "address"
        },
        {
          "internalType": "uint256",
          "name": "",
          "type": "uint256"
        }
      ],
      "name": "usersWallets",
      "outputs": [
        {
          "internalType": "address",
          "name": "",
          "type": "address"
        }
      ],
      "stateMutability": "view",
      "type": "function"
    },
    {
      "inputs": [
        {
          "internalType": "address",
          "name": "_user",
          "type": "address"
        }
      ],
      "name": "addWalletToUser",
      "outputs": [],
      "stateMutability": "nonpayable",
      "type": "function"
    },
    {
      "inputs": [
        {
          "internalType": "address",
          "name": "_user",
          "type": "address"
        }
      ],
      "name": "removeWalletForUser",
      "outputs": [],
      "stateMutability": "nonpayable",
      "type": "function"
    }
  ],
  "bytecode": "0x608060405260086000806101000a81548160ff021916908360ff16021790555034801561002b57600080fd5b5061069b8061003b6000396000f3fe608060405234801561001057600080fd5b506004361061005e576000357c0100000000000000000000000000000000000000000000000000000000900480634ab07122146100635780635c2d44501461007f578063e22972f2146100af575b600080fd5b61007d6004803603810190610078919061044e565b6100cb565b005b610099600480360381019061009491906104b1565b610205565b6040516100a69190610500565b60405180910390f35b6100c960048036038101906100c4919061044e565b610253565b005b8060008054906101000a900460ff1660ff16600160008473ffffffffffffffffffffffffffffffffffffffff1673ffffffffffffffffffffffffffffffffffffffff168152602001908152602001600020805490501115610161576040517f08c379a00000000000000000000000000000000000000000000000000000000081526004016101589061059e565b60405180910390fd5b600160008373ffffffffffffffffffffffffffffffffffffffff1673ffffffffffffffffffffffffffffffffffffffff168152602001908152602001600020339080600181540180825580915050600190039060005260206000200160009091909190916101000a81548173ffffffffffffffffffffffffffffffffffffffff021916908373ffffffffffffffffffffffffffffffffffffffff1602179055505050565b6001602052816000526040600020818154811061022157600080fd5b906000526020600020016000915091509054906101000a900473ffffffffffffffffffffffffffffffffffffffff1681565b8060005b600160008473ffffffffffffffffffffffffffffffffffffffff1673ffffffffffffffffffffffffffffffffffffffff168152602001908152602001600020805490508110156103e6573373ffffffffffffffffffffffffffffffffffffffff16600160008573ffffffffffffffffffffffffffffffffffffffff1673ffffffffffffffffffffffffffffffffffffffff1681526020019081526020016000208281548110610309576103086105be565b5b9060005260206000200160009054906101000a900473ffffffffffffffffffffffffffffffffffffffff1673ffffffffffffffffffffffffffffffffffffffff1614156103d357600160008473ffffffffffffffffffffffffffffffffffffffff1673ffffffffffffffffffffffffffffffffffffffff16815260200190815260200160002081815481106103a1576103a06105be565b5b9060005260206000200160006101000a81549073ffffffffffffffffffffffffffffffffffffffff02191690556103e6565b80806103de9061061c565b915050610257565b505050565b600080fd5b600073ffffffffffffffffffffffffffffffffffffffff82169050919050565b600061041b826103f0565b9050919050565b61042b81610410565b811461043657600080fd5b50565b60008135905061044881610422565b92915050565b600060208284031215610464576104636103eb565b5b600061047284828501610439565b91505092915050565b6000819050919050565b61048e8161047b565b811461049957600080fd5b50565b6000813590506104ab81610485565b92915050565b600080604083850312156104c8576104c76103eb565b5b60006104d685828601610439565b92505060206104e78582860161049c565b9150509250929050565b6104fa81610410565b82525050565b600060208201905061051560008301846104f1565b92915050565b600082825260208201905092915050565b7f412073696e676c6520757365722063616e6e6f7420706172746963697061746560008201527f20696e206d6f7265207468616e20382077616c6c657473210000000000000000602082015250565b600061058860388361051b565b91506105938261052c565b604082019050919050565b600060208201905081810360008301526105b78161057b565b9050919050565b7f4e487b7100000000000000000000000000000000000000000000000000000000600052603260045260246000fd5b7f4e487b7100000000000000000000000000000000000000000000000000000000600052601160045260246000fd5b60006106278261047b565b91507fffffffffffffffffffffffffffffffffffffffffffffffffffffffffffffffff82141561065a576106596105ed565b5b60018201905091905056fea26469706673582212206d1e160ec5c7386df0866bd6e7d65046b93d512c2cf602d0ceeba058b5a6c19064736f6c634300080c0033",
  "immutableReferences": {},
  "source": "//SPDX-License-Identifier: MIT\r\npragma solidity ^0.8.0;\r\n\r\nimport \"./SharedWallet.sol\";\r\n\r\ncontract SharedWalletsStorage {\r\n    uint8 private maxWalletsPerUser = 8;\r\n    mapping(address => address[]) public usersWallets;\r\n\r\n    modifier onlyMember(address _user) {\r\n        // address[] memory members = SharedWallet(msg.sender).getMembers();\r\n        // bool isMember = false;\r\n        // for (uint256 i; i < members.length; i++) {\r\n        //     if (members[i] == _user) {\r\n        //         isMember = true;\r\n        //         break;\r\n        //     }\r\n        // }\r\n        // require(isMember);\r\n\r\n        //                    ^\r\n        // both not working   |   |\r\n        //                        v\r\n\r\n        // require(SharedWallet(msg.sender).isMember(_user));\r\n        _;\r\n    }\r\n\r\n    function addWalletToUser(address _user) external onlyMember(_user){\r\n        require(\r\n            usersWallets[_user].length <= maxWalletsPerUser,\r\n            \"A single user cannot participate in more than 8 wallets!\"\r\n        );\r\n        usersWallets[_user].push(msg.sender);\r\n    }\r\n\r\n    function removeWalletForUser(address _user) external onlyMember(_user) {\r\n        for (uint256 i = 0; i < usersWallets[_user].length; i++)\r\n            if (usersWallets[_user][i] == msg.sender) {\r\n                delete usersWallets[_user][i];\r\n                break;\r\n            }\r\n    }\r\n}\r\n",
  "sourcePath": "C:\\Users\\Joro\\Documents\\GitHub\\ShareIt\\contracts\\SharedWalletsStorage.sol",
  "compiler": {
    "name": "solc",
    "version": "0.8.12+commit.f00d7308.Emscripten.clang"
  },
  "schemaVersion": "3.4.6",
  "updatedAt": "2022-03-24T23:26:01.867Z",
  "devdoc": {
    "kind": "dev",
    "methods": {},
    "version": 1
  },
  "userdoc": {
    "kind": "user",
    "methods": {},
    "version": 1
  }
}