{
  "contractName": "SharedWallet",
  "abi": [
    {
      "inputs": [
        {
          "internalType": "address",
          "name": "_creator",
          "type": "address"
        },
        {
          "internalType": "address",
          "name": "_walletsStorageAddress",
          "type": "address"
        }
      ],
      "stateMutability": "nonpayable",
      "type": "constructor"
    },
    {
      "anonymous": false,
      "inputs": [
        {
          "indexed": false,
          "internalType": "uint256",
          "name": "requestId",
          "type": "uint256"
        },
        {
          "indexed": true,
          "internalType": "address",
          "name": "to",
          "type": "address"
        }
      ],
      "name": "InvitationSent",
      "type": "event"
    },
    {
      "anonymous": false,
      "inputs": [
        {
          "indexed": false,
          "internalType": "uint256",
          "name": "requestId",
          "type": "uint256"
        }
      ],
      "name": "RequestCreated",
      "type": "event"
    },
    {
      "inputs": [
        {
          "internalType": "uint256",
          "name": "_requestID",
          "type": "uint256"
        }
      ],
      "name": "acceptInvitation",
      "outputs": [],
      "stateMutability": "nonpayable",
      "type": "function"
    },
    {
      "inputs": [
        {
          "internalType": "uint256",
          "name": "_requestID",
          "type": "uint256"
        }
      ],
      "name": "acceptRequest",
      "outputs": [],
      "stateMutability": "nonpayable",
      "type": "function"
    },
    {
      "inputs": [
        {
          "internalType": "uint256",
          "name": "_id",
          "type": "uint256"
        }
      ],
      "name": "checkMemberHasVotedById",
      "outputs": [
        {
          "internalType": "bool",
          "name": "",
          "type": "bool"
        }
      ],
      "stateMutability": "view",
      "type": "function"
    },
    {
      "inputs": [
        {
          "internalType": "uint256",
          "name": "_id",
          "type": "uint256"
        }
      ],
      "name": "checkRequestIsApprovedById",
      "outputs": [
        {
          "internalType": "bool",
          "name": "",
          "type": "bool"
        }
      ],
      "stateMutability": "view",
      "type": "function"
    },
    {
      "inputs": [
        {
          "internalType": "uint256",
          "name": "_requestTypeIdx",
          "type": "uint256"
        },
        {
          "internalType": "uint256",
          "name": "_value",
          "type": "uint256"
        },
        {
          "internalType": "address",
          "name": "_addr",
          "type": "address"
        }
      ],
      "name": "createRequest",
      "outputs": [],
      "stateMutability": "nonpayable",
      "type": "function"
    },
    {
      "inputs": [
        {
          "internalType": "uint256",
          "name": "_id",
          "type": "uint256"
        }
      ],
      "name": "getRequestAddrById",
      "outputs": [
        {
          "internalType": "address",
          "name": "",
          "type": "address"
        }
      ],
      "stateMutability": "view",
      "type": "function"
    },
    {
      "inputs": [
        {
          "internalType": "uint256",
          "name": "_id",
          "type": "uint256"
        }
      ],
      "name": "getRequestAuthorById",
      "outputs": [
        {
          "internalType": "address",
          "name": "",
          "type": "address"
        }
      ],
      "stateMutability": "view",
      "type": "function"
    },
    {
      "inputs": [
        {
          "internalType": "uint256",
          "name": "_id",
          "type": "uint256"
        }
      ],
      "name": "getRequestProVotersCountById",
      "outputs": [
        {
          "internalType": "uint256",
          "name": "",
          "type": "uint256"
        }
      ],
      "stateMutability": "view",
      "type": "function"
    },
    {
      "inputs": [
        {
          "internalType": "uint256",
          "name": "_id",
          "type": "uint256"
        }
      ],
      "name": "getRequestTypeById",
      "outputs": [
        {
          "internalType": "enum Voting.RequestTypes",
          "name": "",
          "type": "uint8"
        }
      ],
      "stateMutability": "view",
      "type": "function"
    },
    {
      "inputs": [
        {
          "internalType": "uint256",
          "name": "_id",
          "type": "uint256"
        }
      ],
      "name": "getRequestValueById",
      "outputs": [
        {
          "internalType": "uint256",
          "name": "",
          "type": "uint256"
        }
      ],
      "stateMutability": "view",
      "type": "function"
    },
    {
      "inputs": [],
      "name": "requestsCounter",
      "outputs": [
        {
          "internalType": "uint256",
          "name": "",
          "type": "uint256"
        }
      ],
      "stateMutability": "view",
      "type": "function"
    },
    {
      "inputs": [],
      "name": "members",
      "outputs": [
        {
          "internalType": "address[]",
          "name": "",
          "type": "address[]"
        }
      ],
      "stateMutability": "view",
      "type": "function"
    },
    {
      "inputs": [],
      "name": "name",
      "outputs": [
        {
          "internalType": "string",
          "name": "",
          "type": "string"
        }
      ],
      "stateMutability": "view",
      "type": "function"
    },
    {
      "inputs": [],
      "name": "walletsStorage",
      "outputs": [
        {
          "internalType": "contract SharedWalletsStorage",
          "name": "",
          "type": "address"
        }
      ],
      "stateMutability": "view",
      "type": "function"
    },
    {
      "inputs": [
        {
          "internalType": "address",
          "name": "_user",
          "type": "address"
        }
      ],
      "name": "isMember",
      "outputs": [
        {
          "internalType": "bool",
          "name": "",
          "type": "bool"
        }
      ],
      "stateMutability": "view",
      "type": "function"
    },
    {
      "inputs": [
        {
          "internalType": "uint256",
          "name": "_requestId",
          "type": "uint256"
        }
      ],
      "name": "addMember",
      "outputs": [],
      "stateMutability": "nonpayable",
      "type": "function"
    },
    {
      "inputs": [
        {
          "internalType": "uint256",
          "name": "_requestId",
          "type": "uint256"
        }
      ],
      "name": "removeMember",
      "outputs": [],
      "stateMutability": "nonpayable",
      "type": "function"
    },
    {
      "inputs": [
        {
          "internalType": "uint256",
          "name": "_requestId",
          "type": "uint256"
        }
      ],
      "name": "withdraw",
      "outputs": [],
      "stateMutability": "nonpayable",
      "type": "function"
    },
    {
      "inputs": [
        {
          "internalType": "uint256",
          "name": "_requestId",
          "type": "uint256"
        }
      ],
      "name": "destroy",
      "outputs": [],
      "stateMutability": "nonpayable",
      "type": "function"
    },
    {
      "inputs": [],
      "name": "deposit",
      "outputs": [],
      "stateMutability": "payable",
      "type": "function"
    }
  ],
  "bytecode": "0x60806040523480156200001157600080fd5b50604051620022f8380380620022f88339818101604052810190620000379190620001a5565b80600260006101000a81548173ffffffffffffffffffffffffffffffffffffffff021916908373ffffffffffffffffffffffffffffffffffffffff1602179055506004829080600181540180825580915050600190039060005260206000200160009091909190916101000a81548173ffffffffffffffffffffffffffffffffffffffff021916908373ffffffffffffffffffffffffffffffffffffffff1602179055506001600360008473ffffffffffffffffffffffffffffffffffffffff1673ffffffffffffffffffffffffffffffffffffffff16815260200190815260200160002060006101000a81548160ff0219169083151502179055505050620001ec565b600080fd5b600073ffffffffffffffffffffffffffffffffffffffff82169050919050565b60006200016d8262000140565b9050919050565b6200017f8162000160565b81146200018b57600080fd5b50565b6000815190506200019f8162000174565b92915050565b60008060408385031215620001bf57620001be6200013b565b5b6000620001cf858286016200018e565b9250506020620001e2858286016200018e565b9150509250929050565b6120fc80620001fc6000396000f3fe60806040526004361061013c576000357c010000000000000000000000000000000000000000000000000000000090048063663c2269116100bd578063abcc915311610081578063abcc915314610424578063ad207e161461044f578063bdd4d18d1461048c578063d0e30db0146104b7578063ea3ca222146104c15761013c565b8063663c22691461032d57806370a26c23146103585780639d11877014610395578063a1a74aae146103be578063a230c524146103e75761013c565b8063464c5b6c11610104578063464c5b6c146102385780634ba1f0981461026157806354ebcf9b1461028a578063553da43e146102c757806365eba607146103045761013c565b806306fdde03146101415780631089f5ed1461016c578063158dfe3b146101955780632e1a7d4d146101d25780632faa3668146101fb575b600080fd5b34801561014d57600080fd5b506101566104fe565b60405161016391906117e7565b60405180910390f35b34801561017857600080fd5b50610193600480360381019061018e9190611844565b610590565b005b3480156101a157600080fd5b506101bc60048036038101906101b79190611844565b610787565b6040516101c991906118b2565b60405180910390f35b3480156101de57600080fd5b506101f960048036038101906101f49190611844565b6107c6565b005b34801561020757600080fd5b50610222600480360381019061021d9190611844565b61085e565b60405161022f91906118e8565b60405180910390f35b34801561024457600080fd5b5061025f600480360381019061025a9190611844565b61088a565b005b34801561026d57600080fd5b5061028860048036038101906102839190611844565b610a23565b005b34801561029657600080fd5b506102b160048036038101906102ac9190611844565b610c2a565b6040516102be91906118e8565b60405180910390f35b3480156102d357600080fd5b506102ee60048036038101906102e99190611844565b610c93565b6040516102fb919061197a565b60405180910390f35b34801561031057600080fd5b5061032b600480360381019061032691906119c1565b610cbf565b005b34801561033957600080fd5b50610342610ff0565b60405161034f9190611a23565b60405180910390f35b34801561036457600080fd5b5061037f600480360381019061037a9190611844565b610ffa565b60405161038c91906118b2565b60405180910390f35b3480156103a157600080fd5b506103bc60048036038101906103b79190611844565b611039565b005b3480156103ca57600080fd5b506103e560048036038101906103e09190611844565b611097565b005b3480156103f357600080fd5b5061040e60048036038101906104099190611a3e565b6112f6565b60405161041b91906118e8565b60405180910390f35b34801561043057600080fd5b5061043961134c565b6040516104469190611aca565b60405180910390f35b34801561045b57600080fd5b5061047660048036038101906104719190611844565b611376565b6040516104839190611a23565b60405180910390f35b34801561049857600080fd5b506104a1611395565b6040516104ae9190611ba3565b60405180910390f35b6104bf611423565b005b3480156104cd57600080fd5b506104e860048036038101906104e39190611844565b611425565b6040516104f59190611a23565b60405180910390f35b60606005805461050d90611bf4565b80601f016020809104026020016040519081016040528092919081815260200182805461053990611bf4565b80156105865780601f1061055b57610100808354040283529160200191610586565b820191906000526020600020905b81548152906001019060200180831161056957829003601f168201915b5050505050905090565b600080600083815260200190815260200160002090506105b1816000611444565b60048160010160009054906101000a900473ffffffffffffffffffffffffffffffffffffffff169080600181540180825580915050600190039060005260206000200160009091909190916101000a81548173ffffffffffffffffffffffffffffffffffffffff021916908373ffffffffffffffffffffffffffffffffffffffff1602179055506001600360008360010160009054906101000a900473ffffffffffffffffffffffffffffffffffffffff1673ffffffffffffffffffffffffffffffffffffffff1673ffffffffffffffffffffffffffffffffffffffff16815260200190815260200160002060006101000a81548160ff021916908315150217905550600260009054906101000a900473ffffffffffffffffffffffffffffffffffffffff1673ffffffffffffffffffffffffffffffffffffffff166351efa3f4308360010160009054906101000a900473ffffffffffffffffffffffffffffffffffffffff166040518363ffffffff167c0100000000000000000000000000000000000000000000000000000000028152600401610751929190611c26565b600060405180830381600087803b15801561076b57600080fd5b505af115801561077f573d6000803e3d6000fd5b505050505050565b600080600083815260200190815260200160002060010160009054906101000a900473ffffffffffffffffffffffffffffffffffffffff169050919050565b600080600083815260200190815260200160002090506107e7816002611444565b3073ffffffffffffffffffffffffffffffffffffffff16318160020154111561080f57600080fd5b3373ffffffffffffffffffffffffffffffffffffffff166108fc82600201549081150290604051600060405180830381858888f19350505050158015610859573d6000803e3d6000fd5b505050565b600080600083815260200190815260200160002060030160009054906101000a900460ff169050919050565b6000151560008083815260200190815260200160002060030160019054906101000a900460ff161515146108f3576040517f08c379a00000000000000000000000000000000000000000000000000000000081526004016108ea90611c9b565b60405180910390fd5b6000600381111561090757610906611903565b5b60008083815260200190815260200160002060000160149054906101000a900460ff16600381111561093c5761093b611903565b5b1461097c576040517f08c379a000000000000000000000000000000000000000000000000000000000815260040161097390611d07565b60405180910390fd5b3373ffffffffffffffffffffffffffffffffffffffff1660008083815260200190815260200160002060010160009054906101000a900473ffffffffffffffffffffffffffffffffffffffff1673ffffffffffffffffffffffffffffffffffffffff16146109e957600080fd5b600160008083815260200190815260200160002060030160016101000a81548160ff021916908315150217905550610a20816115a9565b50565b600360003373ffffffffffffffffffffffffffffffffffffffff1673ffffffffffffffffffffffffffffffffffffffff16815260200190815260200160002060009054906101000a900460ff16610a7957600080fd5b6000151560008083815260200190815260200160002060030160009054906101000a900460ff16151514610ae2576040517f08c379a0000000000000000000000000000000000000000000000000000000008152600401610ad990611d73565b60405180910390fd5b6000151560008083815260200190815260200160002060050160003373ffffffffffffffffffffffffffffffffffffffff1673ffffffffffffffffffffffffffffffffffffffff16815260200190815260200160002060009054906101000a900460ff16151514610b88576040517f08c379a0000000000000000000000000000000000000000000000000000000008152600401610b7f90611ddf565b60405180910390fd5b600160008083815260200190815260200160002060050160003373ffffffffffffffffffffffffffffffffffffffff1673ffffffffffffffffffffffffffffffffffffffff16815260200190815260200160002060006101000a81548160ff0219169083151502179055506000808281526020019081526020016000206004016000815480929190610c1990611e2e565b9190505550610c27816115a9565b50565b600080600083815260200190815260200160002060050160003373ffffffffffffffffffffffffffffffffffffffff1673ffffffffffffffffffffffffffffffffffffffff16815260200190815260200160002060009054906101000a900460ff169050919050565b600080600083815260200190815260200160002060000160149054906101000a900460ff169050919050565b600360003373ffffffffffffffffffffffffffffffffffffffff1673ffffffffffffffffffffffffffffffffffffffff16815260200190815260200160002060009054906101000a900460ff16610d1557600080fd5b600380811115610d2857610d27611903565b5b831115610d6a576040517f08c379a0000000000000000000000000000000000000000000000000000000008152600401610d6190611ec3565b60405180910390fd5b60026003811115610d7e57610d7d611903565b5b60ff16831415610d9b576000821015610d9657600080fd5b610dd6565b600073ffffffffffffffffffffffffffffffffffffffff168173ffffffffffffffffffffffffffffffffffffffff161415610dd557600080fd5b5b600080600060015481526020019081526020016000209050338160000160006101000a81548173ffffffffffffffffffffffffffffffffffffffff021916908373ffffffffffffffffffffffffffffffffffffffff160217905550836003811115610e4457610e43611903565b5b8160000160146101000a81548160ff02191690836003811115610e6a57610e69611903565b5b0217905550818160010160006101000a81548173ffffffffffffffffffffffffffffffffffffffff021916908373ffffffffffffffffffffffffffffffffffffffff1602179055508281600201819055506000816004018190555060008160030160006101000a81548160ff0219169083151502179055506000600154905060016000815480929190610efc90611e2e565b91905055507f97890542421e06ad80deca7ba945fd211a48ec6d89da2510960446025b78e32481604051610f309190611a23565b60405180910390a160006003811115610f4c57610f4b611903565b5b8260000160149054906101000a900460ff166003811115610f7057610f6f611903565b5b1415610fe9578160010160009054906101000a900473ffffffffffffffffffffffffffffffffffffffff1673ffffffffffffffffffffffffffffffffffffffff167fca39aa1a9bd391bf4b38b7f1ef7464e7bf0ab732922638cef4a9dc71568b2bf482604051610fe09190611a23565b60405180910390a25b5050505050565b6000600154905090565b600080600083815260200190815260200160002060000160009054906101000a900473ffffffffffffffffffffffffffffffffffffffff169050919050565b6000806000838152602001908152602001600020905061105a816003611444565b8060010160009054906101000a900473ffffffffffffffffffffffffffffffffffffffff1673ffffffffffffffffffffffffffffffffffffffff16ff5b600080600083815260200190815260200160002090506110b8816001611444565b60005b6004805490508110156112f1578160010160009054906101000a900473ffffffffffffffffffffffffffffffffffffffff1673ffffffffffffffffffffffffffffffffffffffff166004828154811061111757611116611ee3565b5b9060005260206000200160009054906101000a900473ffffffffffffffffffffffffffffffffffffffff1673ffffffffffffffffffffffffffffffffffffffff1614156112de5760006004828154811061117457611173611ee3565b5b9060005260206000200160009054906101000a900473ffffffffffffffffffffffffffffffffffffffff169050600482815481106111b5576111b4611ee3565b5b9060005260206000200160006101000a81549073ffffffffffffffffffffffffffffffffffffffff0219169055600360008273ffffffffffffffffffffffffffffffffffffffff1673ffffffffffffffffffffffffffffffffffffffff16815260200190815260200160002060006101000a81549060ff0219169055600260009054906101000a900473ffffffffffffffffffffffffffffffffffffffff1673ffffffffffffffffffffffffffffffffffffffff1663abfa796930836040518363ffffffff167c01000000000000000000000000000000000000000000000000000000000281526004016112aa929190611c26565b600060405180830381600087803b1580156112c457600080fd5b505af11580156112d8573d6000803e3d6000fd5b50505050505b80806112e990611e2e565b9150506110bb565b505050565b6000600360008373ffffffffffffffffffffffffffffffffffffffff1673ffffffffffffffffffffffffffffffffffffffff16815260200190815260200160002060009054906101000a900460ff169050919050565b6000600260009054906101000a900473ffffffffffffffffffffffffffffffffffffffff16905090565b6000806000838152602001908152602001600020600401549050919050565b6060600480548060200260200160405190810160405280929190818152602001828054801561141957602002820191906000526020600020905b8160009054906101000a900473ffffffffffffffffffffffffffffffffffffffff1673ffffffffffffffffffffffffffffffffffffffff16815260200190600101908083116113cf575b5050505050905090565b565b6000806000838152602001908152602001600020600201549050919050565b3373ffffffffffffffffffffffffffffffffffffffff168260000160009054906101000a900473ffffffffffffffffffffffffffffffffffffffff1673ffffffffffffffffffffffffffffffffffffffff16146114d6576040517f08c379a00000000000000000000000000000000000000000000000000000000081526004016114cd90611f84565b60405180910390fd5b8060038111156114e9576114e8611903565b5b8260000160149054906101000a900460ff16600381111561150d5761150c611903565b5b1461154d576040517f08c379a000000000000000000000000000000000000000000000000000000000815260040161154490611d07565b60405180910390fd5b600115158260030160009054906101000a900460ff161515146115a5576040517f08c379a000000000000000000000000000000000000000000000000000000000815260040161159c90611ff0565b60405180910390fd5b5050565b60006115b960048054905061172c565b905080600080848152602001908152602001600020600401541480156116265750600060038111156115ee576115ed611903565b5b60008084815260200190815260200160002060000160149054906101000a900460ff16600381111561162357611622611903565b5b14155b1561165e57600160008084815260200190815260200160002060030160006101000a81548160ff021916908315150217905550611728565b80600080848152602001908152602001600020600401541480156116c857506000600381111561169157611690611903565b5b60008084815260200190815260200160002060000160149054906101000a900460ff1660038111156116c6576116c5611903565b5b145b80156116f3575060008083815260200190815260200160002060030160019054906101000a900460ff165b1561172757600160008084815260200190815260200160002060030160006101000a81548160ff0219169083151502179055505b5b5050565b6000600160028361173d919061203f565b6117479190612070565b9050919050565b600081519050919050565b600082825260208201905092915050565b60005b8381101561178857808201518184015260208101905061176d565b83811115611797576000848401525b50505050565b6000601f19601f8301169050919050565b60006117b98261174e565b6117c38185611759565b93506117d381856020860161176a565b6117dc8161179d565b840191505092915050565b6000602082019050818103600083015261180181846117ae565b905092915050565b600080fd5b6000819050919050565b6118218161180e565b811461182c57600080fd5b50565b60008135905061183e81611818565b92915050565b60006020828403121561185a57611859611809565b5b60006118688482850161182f565b91505092915050565b600073ffffffffffffffffffffffffffffffffffffffff82169050919050565b600061189c82611871565b9050919050565b6118ac81611891565b82525050565b60006020820190506118c760008301846118a3565b92915050565b60008115159050919050565b6118e2816118cd565b82525050565b60006020820190506118fd60008301846118d9565b92915050565b7f4e487b7100000000000000000000000000000000000000000000000000000000600052602160045260246000fd5b6004811061194357611942611903565b5b50565b600081905061195482611932565b919050565b600061196482611946565b9050919050565b61197481611959565b82525050565b600060208201905061198f600083018461196b565b92915050565b61199e81611891565b81146119a957600080fd5b50565b6000813590506119bb81611995565b92915050565b6000806000606084860312156119da576119d9611809565b5b60006119e88682870161182f565b93505060206119f98682870161182f565b9250506040611a0a868287016119ac565b9150509250925092565b611a1d8161180e565b82525050565b6000602082019050611a386000830184611a14565b92915050565b600060208284031215611a5457611a53611809565b5b6000611a62848285016119ac565b91505092915050565b6000819050919050565b6000611a90611a8b611a8684611871565b611a6b565b611871565b9050919050565b6000611aa282611a75565b9050919050565b6000611ab482611a97565b9050919050565b611ac481611aa9565b82525050565b6000602082019050611adf6000830184611abb565b92915050565b600081519050919050565b600082825260208201905092915050565b6000819050602082019050919050565b611b1a81611891565b82525050565b6000611b2c8383611b11565b60208301905092915050565b6000602082019050919050565b6000611b5082611ae5565b611b5a8185611af0565b9350611b6583611b01565b8060005b83811015611b96578151611b7d8882611b20565b9750611b8883611b38565b925050600181019050611b69565b5085935050505092915050565b60006020820190508181036000830152611bbd8184611b45565b905092915050565b7f4e487b7100000000000000000000000000000000000000000000000000000000600052602260045260246000fd5b60006002820490506001821680611c0c57607f821691505b60208210811415611c2057611c1f611bc5565b5b50919050565b6000604082019050611c3b60008301856118a3565b611c4860208301846118a3565b9392505050565b7f496e7669746174696f6e20616c72656164792061636365707465642100000000600082015250565b6000611c85601c83611759565b9150611c9082611c4f565b602082019050919050565b60006020820190508181036000830152611cb481611c78565b9050919050565b7f57726f6e67207265717565737420696421000000000000000000000000000000600082015250565b6000611cf1601183611759565b9150611cfc82611cbb565b602082019050919050565b60006020820190508181036000830152611d2081611ce4565b9050919050565b7f526571756573742068617320616c726561647920706173736564210000000000600082015250565b6000611d5d601b83611759565b9150611d6882611d27565b602082019050919050565b60006020820190508181036000830152611d8c81611d50565b9050919050565b7f416c726561647920766f74656420746f20746869732072657175657374210000600082015250565b6000611dc9601e83611759565b9150611dd482611d93565b602082019050919050565b60006020820190508181036000830152611df881611dbc565b9050919050565b7f4e487b7100000000000000000000000000000000000000000000000000000000600052601160045260246000fd5b6000611e398261180e565b91507fffffffffffffffffffffffffffffffffffffffffffffffffffffffffffffffff821415611e6c57611e6b611dff565b5b600182019050919050565b7f496e76616c696420726571756573742074797065210000000000000000000000600082015250565b6000611ead601583611759565b9150611eb882611e77565b602082019050919050565b60006020820190508181036000830152611edc81611ea0565b9050919050565b7f4e487b7100000000000000000000000000000000000000000000000000000000600052603260045260246000fd5b7f596f7520617265206e6f742074686520617574686f72206f662074686973207260008201527f6571756573742100000000000000000000000000000000000000000000000000602082015250565b6000611f6e602783611759565b9150611f7982611f12565b604082019050919050565b60006020820190508181036000830152611f9d81611f61565b9050919050565b7f52657175657374206973206e6f7420617070726f766564207965742100000000600082015250565b6000611fda601c83611759565b9150611fe582611fa4565b602082019050919050565b6000602082019050818103600083015261200981611fcd565b9050919050565b7f4e487b7100000000000000000000000000000000000000000000000000000000600052601260045260246000fd5b600061204a8261180e565b91506120558361180e565b92508261206557612064612010565b5b828204905092915050565b600061207b8261180e565b91506120868361180e565b9250827fffffffffffffffffffffffffffffffffffffffffffffffffffffffffffffffff038211156120bb576120ba611dff565b5b82820190509291505056fea264697066735822122037c4687ae6bf30dcf97a6a0185d5242ebf342e2308f00e15f4557124ed330dde64736f6c634300080c0033",
  "immutableReferences": {},
  "source": "//SPDX-License-Identifier: MIT\r\npragma solidity ^0.8.0;\r\n\r\nimport \"./Voting.sol\";\r\nimport \"./SharedWalletsStorage.sol\";\r\n\r\ncontract SharedWallet is Voting {\r\n    SharedWalletsStorage private _walletsStorage;\r\n    mapping(address => bool) private _isMember;\r\n    address[] private _members;\r\n    string private _name;\r\n\r\n    modifier onlyMember() override {\r\n        require(_isMember[msg.sender]);\r\n        _;\r\n    }\r\n\r\n    constructor(address _creator, address _walletsStorageAddress) {\r\n        _walletsStorage = SharedWalletsStorage(_walletsStorageAddress);\r\n\r\n        _members.push(_creator);\r\n        _isMember[_creator] = true;\r\n    }\r\n\r\n    function members() public view returns (address[] memory) {\r\n        return _members;\r\n    }\r\n\r\n    function name() public view returns (string memory) {\r\n        return _name;\r\n    }\r\n\r\n    function walletsStorage() public view returns (SharedWalletsStorage) {\r\n        return _walletsStorage;\r\n    }\r\n\r\n    function isMember(address _user) public view returns (bool) {\r\n        return _isMember[_user];\r\n    }\r\n\r\n    function addMember(uint256 _requestId) external {\r\n        Request storage request = _requests[_requestId];\r\n        _validateRequest(request, RequestTypes.AddMember);\r\n\r\n        _members.push(request.addr);\r\n        _isMember[request.addr] = true;\r\n        _walletsStorage.addWalletToUser(address(this), request.addr);\r\n    }\r\n\r\n    function removeMember(uint256 _requestId) external {\r\n        Request storage request = _requests[_requestId];\r\n        _validateRequest(request, RequestTypes.RemoveMember);\r\n\r\n        for (uint256 i = 0; i < _members.length; i++)\r\n            if (_members[i] == request.addr) {\r\n                address deletedMember = _members[i];\r\n                delete _members[i];\r\n                delete _isMember[deletedMember];\r\n                _walletsStorage.removeWalletForUser(\r\n                    address(this),\r\n                    deletedMember\r\n                );\r\n            }\r\n    }\r\n\r\n    function withdraw(uint256 _requestId) external {\r\n        Request storage request = _requests[_requestId];\r\n        _validateRequest(request, RequestTypes.Withdraw);\r\n\r\n        require(request.value <= address(this).balance);\r\n\r\n        payable(msg.sender).transfer(request.value);\r\n    }\r\n\r\n    function destroy(uint256 _requestId) external {\r\n        Request storage request = _requests[_requestId];\r\n        _validateRequest(request, RequestTypes.Destroy);\r\n\r\n        selfdestruct(payable(request.addr));\r\n    }\r\n\r\n    function _tryApproveRequest(uint256 _requestID) internal override {\r\n        uint256 goal = _getMajority(_members.length);\r\n        if (\r\n            _requests[_requestID].proVotersCount == goal &&\r\n            _requests[_requestID].requestType != RequestTypes.AddMember\r\n        ) {\r\n            _requests[_requestID].approved = true;\r\n        } else if (\r\n            _requests[_requestID].proVotersCount == goal &&\r\n            _requests[_requestID].requestType == RequestTypes.AddMember &&\r\n            _requests[_requestID].accepted\r\n        ) {\r\n            _requests[_requestID].approved = true;\r\n        }\r\n    }\r\n\r\n    function _validateRequest(\r\n        Request storage _request,\r\n        RequestTypes _requestType\r\n    ) private view {\r\n        require(\r\n            _request.author == msg.sender,\r\n            \"You are not the author of this request!\"\r\n        );\r\n        require(_request.requestType == _requestType, \"Wrong request id!\");\r\n        require(_request.approved == true, \"Request is not approved yet!\");\r\n    }\r\n\r\n    function deposit() external payable {}\r\n}\r\n",
  "sourcePath": "C:\\Users\\Joro\\Documents\\GitHub\\ShareIt\\contracts\\SharedWallet.sol",
  "compiler": {
    "name": "solc",
    "version": "0.8.12+commit.f00d7308.Emscripten.clang"
  },
  "schemaVersion": "3.4.6",
  "updatedAt": "2022-03-26T14:13:00.859Z",
  "devdoc": {
    "kind": "dev",
    "methods": {},
    "version": 1
  },
  "userdoc": {
    "kind": "user",
    "methods": {},
    "version": 1
  }
}