{
  "contractName": "SharedWalletsStorage",
  "abi": [
    {
      "inputs": [],
      "name": "maxWalletsPerUser",
      "outputs": [
        {
          "internalType": "uint8",
          "name": "",
          "type": "uint8"
        }
      ],
      "stateMutability": "view",
      "type": "function",
      "constant": true
    },
    {
      "inputs": [
        {
          "internalType": "address",
          "name": "",
          "type": "address"
        },
        {
          "internalType": "uint256",
          "name": "",
          "type": "uint256"
        }
      ],
      "name": "usersWallets",
      "outputs": [
        {
          "internalType": "address",
          "name": "",
          "type": "address"
        }
      ],
      "stateMutability": "view",
      "type": "function",
      "constant": true
    },
    {
      "inputs": [
        {
          "internalType": "address",
          "name": "_user",
          "type": "address"
        }
      ],
      "name": "addWalletToUser",
      "outputs": [],
      "stateMutability": "nonpayable",
      "type": "function"
    },
    {
      "inputs": [
        {
          "internalType": "address",
          "name": "_user",
          "type": "address"
        }
      ],
      "name": "removeWalletForUser",
      "outputs": [],
      "stateMutability": "nonpayable",
      "type": "function"
    }
  ],
  "bytecode": "0x608060405260086000806101000a81548160ff021916908360ff16021790555034801561002b57600080fd5b506108ab8061003b6000396000f3fe608060405234801561001057600080fd5b5060043610610069576000357c0100000000000000000000000000000000000000000000000000000000900480632bf727671461006e5780634ab071221461008c5780635c2d4450146100a8578063e22972f2146100d8575b600080fd5b6100766100f4565b604051610083919061057b565b60405180910390f35b6100a660048036038101906100a191906105f9565b610105565b005b6100c260048036038101906100bd919061065c565b6102dc565b6040516100cf91906106ab565b60405180910390f35b6100f260048036038101906100ed91906105f9565b61032a565b005b60008054906101000a900460ff1681565b3373ffffffffffffffffffffffffffffffffffffffff1663a230c524826040518263ffffffff167c010000000000000000000000000000000000000000000000000000000002815260040161015a91906106ab565b602060405180830381865afa158015610177573d6000803e3d6000fd5b505050506040513d601f19601f8201168201806040525081019061019b91906106fe565b6101a457600080fd5b60008054906101000a900460ff1660ff16600160008373ffffffffffffffffffffffffffffffffffffffff1673ffffffffffffffffffffffffffffffffffffffff168152602001908152602001600020805490501115610239576040517f08c379a0000000000000000000000000000000000000000000000000000000008152600401610230906107ae565b60405180910390fd5b600160008273ffffffffffffffffffffffffffffffffffffffff1673ffffffffffffffffffffffffffffffffffffffff168152602001908152602001600020339080600181540180825580915050600190039060005260206000200160009091909190916101000a81548173ffffffffffffffffffffffffffffffffffffffff021916908373ffffffffffffffffffffffffffffffffffffffff16021790555050565b600160205281600052604060002081815481106102f857600080fd5b906000526020600020016000915091509054906101000a900473ffffffffffffffffffffffffffffffffffffffff1681565b3373ffffffffffffffffffffffffffffffffffffffff1663a230c524826040518263ffffffff167c010000000000000000000000000000000000000000000000000000000002815260040161037f91906106ab565b602060405180830381865afa15801561039c573d6000803e3d6000fd5b505050506040513d601f19601f820116820180604052508101906103c091906106fe565b6103c957600080fd5b60005b600160008373ffffffffffffffffffffffffffffffffffffffff1673ffffffffffffffffffffffffffffffffffffffff1681526020019081526020016000208054905081101561055b573373ffffffffffffffffffffffffffffffffffffffff16600160008473ffffffffffffffffffffffffffffffffffffffff1673ffffffffffffffffffffffffffffffffffffffff168152602001908152602001600020828154811061047e5761047d6107ce565b5b9060005260206000200160009054906101000a900473ffffffffffffffffffffffffffffffffffffffff1673ffffffffffffffffffffffffffffffffffffffff16141561054857600160008373ffffffffffffffffffffffffffffffffffffffff1673ffffffffffffffffffffffffffffffffffffffff1681526020019081526020016000208181548110610516576105156107ce565b5b9060005260206000200160006101000a81549073ffffffffffffffffffffffffffffffffffffffff021916905561055b565b80806105539061082c565b9150506103cc565b5050565b600060ff82169050919050565b6105758161055f565b82525050565b6000602082019050610590600083018461056c565b92915050565b600080fd5b600073ffffffffffffffffffffffffffffffffffffffff82169050919050565b60006105c68261059b565b9050919050565b6105d6816105bb565b81146105e157600080fd5b50565b6000813590506105f3816105cd565b92915050565b60006020828403121561060f5761060e610596565b5b600061061d848285016105e4565b91505092915050565b6000819050919050565b61063981610626565b811461064457600080fd5b50565b60008135905061065681610630565b92915050565b6000806040838503121561067357610672610596565b5b6000610681858286016105e4565b925050602061069285828601610647565b9150509250929050565b6106a5816105bb565b82525050565b60006020820190506106c0600083018461069c565b92915050565b60008115159050919050565b6106db816106c6565b81146106e657600080fd5b50565b6000815190506106f8816106d2565b92915050565b60006020828403121561071457610713610596565b5b6000610722848285016106e9565b91505092915050565b600082825260208201905092915050565b7f412073696e676c6520757365722063616e6e6f7420706172746963697061746560008201527f20696e206d6f7265207468616e20382077616c6c657473210000000000000000602082015250565b600061079860388361072b565b91506107a38261073c565b604082019050919050565b600060208201905081810360008301526107c78161078b565b9050919050565b7f4e487b7100000000000000000000000000000000000000000000000000000000600052603260045260246000fd5b7f4e487b7100000000000000000000000000000000000000000000000000000000600052601160045260246000fd5b600061083782610626565b91507fffffffffffffffffffffffffffffffffffffffffffffffffffffffffffffffff82141561086a576108696107fd565b5b60018201905091905056fea2646970667358221220491810b01212e882d8641544361a129230652226c324a1e4df3201ef485a437464736f6c634300080c0033",
  "immutableReferences": {},
  "source": "//SPDX-License-Identifier: MIT\r\npragma solidity ^0.8.0;\r\n\r\nimport \"./SharedWallet.sol\";\r\n\r\ncontract SharedWalletsStorage {\r\n    uint8 public maxWalletsPerUser = 8;\r\n    mapping(address => address[]) public usersWallets;\r\n\r\n    function addWalletToUser(address _user) external {\r\n        require(SharedWallet(payable(msg.sender)).isMember(_user));\r\n        require(\r\n            usersWallets[_user].length <= maxWalletsPerUser,\r\n            \"A single user cannot participate in more than 8 wallets!\"\r\n        );\r\n        usersWallets[_user].push(msg.sender);\r\n    }\r\n\r\n    function removeWalletForUser(address _user)\r\n        external\r\n    {\r\n        require(SharedWallet(payable(msg.sender)).isMember(_user));\r\n        for (uint256 i = 0; i < usersWallets[_user].length; i++)\r\n            if (usersWallets[_user][i] == msg.sender) {\r\n                delete usersWallets[_user][i];\r\n                break;\r\n            }\r\n    }\r\n}\r\n",
  "sourcePath": "C:\\Users\\Joro\\Documents\\GitHub\\ShareIt\\contracts\\SharedWalletsStorage.sol",
  "compiler": {
    "name": "solc",
    "version": "0.8.12+commit.f00d7308.Emscripten.clang"
  },
  "schemaVersion": "3.4.6",
  "updatedAt": "2022-03-24T11:57:26.703Z",
  "networkType": "ethereum",
  "devdoc": {
    "kind": "dev",
    "methods": {},
    "version": 1
  },
  "userdoc": {
    "kind": "user",
    "methods": {},
    "version": 1
  }
}