{
  "contractName": "SharedWallet",
  "abi": [
    {
      "inputs": [
        {
          "internalType": "address",
          "name": "_creator",
          "type": "address"
        },
        {
          "internalType": "uint256",
          "name": "_maxMembers",
          "type": "uint256"
        },
        {
          "internalType": "contract SharedWalletsStorage",
          "name": "_walletsStorage",
          "type": "address"
        }
      ],
      "stateMutability": "nonpayable",
      "type": "constructor"
    },
    {
      "stateMutability": "payable",
      "type": "fallback"
    },
    {
      "inputs": [
        {
          "internalType": "uint256",
          "name": "_requestID",
          "type": "uint256"
        }
      ],
      "name": "acceptRequest",
      "outputs": [],
      "stateMutability": "nonpayable",
      "type": "function"
    },
    {
      "inputs": [
        {
          "internalType": "enum Voting.RequestTypes",
          "name": "_requestType",
          "type": "uint8"
        },
        {
          "internalType": "uint256",
          "name": "_value",
          "type": "uint256"
        },
        {
          "internalType": "address",
          "name": "_addr",
          "type": "address"
        }
      ],
      "name": "createRequest",
      "outputs": [
        {
          "internalType": "uint256",
          "name": "",
          "type": "uint256"
        }
      ],
      "stateMutability": "nonpayable",
      "type": "function"
    },
    {
      "inputs": [
        {
          "internalType": "address",
          "name": "",
          "type": "address"
        }
      ],
      "name": "isMember",
      "outputs": [
        {
          "internalType": "bool",
          "name": "",
          "type": "bool"
        }
      ],
      "stateMutability": "view",
      "type": "function"
    },
    {
      "inputs": [],
      "name": "maxMembers",
      "outputs": [
        {
          "internalType": "uint256",
          "name": "",
          "type": "uint256"
        }
      ],
      "stateMutability": "view",
      "type": "function"
    },
    {
      "inputs": [
        {
          "internalType": "uint256",
          "name": "",
          "type": "uint256"
        }
      ],
      "name": "members",
      "outputs": [
        {
          "internalType": "address",
          "name": "",
          "type": "address"
        }
      ],
      "stateMutability": "view",
      "type": "function"
    },
    {
      "inputs": [
        {
          "internalType": "uint256",
          "name": "",
          "type": "uint256"
        }
      ],
      "name": "requests",
      "outputs": [
        {
          "internalType": "address",
          "name": "author",
          "type": "address"
        },
        {
          "internalType": "enum Voting.RequestTypes",
          "name": "requestType",
          "type": "uint8"
        },
        {
          "internalType": "address",
          "name": "addr",
          "type": "address"
        },
        {
          "internalType": "uint256",
          "name": "value",
          "type": "uint256"
        },
        {
          "internalType": "uint256",
          "name": "proVotersCount",
          "type": "uint256"
        },
        {
          "internalType": "bool",
          "name": "approved",
          "type": "bool"
        }
      ],
      "stateMutability": "view",
      "type": "function"
    },
    {
      "inputs": [],
      "name": "requestsCounter",
      "outputs": [
        {
          "internalType": "uint256",
          "name": "",
          "type": "uint256"
        }
      ],
      "stateMutability": "view",
      "type": "function"
    },
    {
      "stateMutability": "payable",
      "type": "receive"
    },
    {
      "inputs": [],
      "name": "getMembers",
      "outputs": [
        {
          "internalType": "address[]",
          "name": "",
          "type": "address[]"
        }
      ],
      "stateMutability": "view",
      "type": "function"
    },
    {
      "inputs": [
        {
          "internalType": "uint256",
          "name": "_requestId",
          "type": "uint256"
        }
      ],
      "name": "addMember",
      "outputs": [
        {
          "internalType": "bool",
          "name": "",
          "type": "bool"
        }
      ],
      "stateMutability": "nonpayable",
      "type": "function"
    },
    {
      "inputs": [
        {
          "internalType": "uint256",
          "name": "_requestId",
          "type": "uint256"
        }
      ],
      "name": "removeMember",
      "outputs": [
        {
          "internalType": "bool",
          "name": "",
          "type": "bool"
        }
      ],
      "stateMutability": "nonpayable",
      "type": "function"
    },
    {
      "inputs": [
        {
          "internalType": "uint256",
          "name": "_requestId",
          "type": "uint256"
        }
      ],
      "name": "withdraw",
      "outputs": [
        {
          "internalType": "bool",
          "name": "",
          "type": "bool"
        }
      ],
      "stateMutability": "nonpayable",
      "type": "function"
    },
    {
      "inputs": [
        {
          "internalType": "uint256",
          "name": "_requestId",
          "type": "uint256"
        }
      ],
      "name": "destroy",
      "outputs": [
        {
          "internalType": "bool",
          "name": "",
          "type": "bool"
        }
      ],
      "stateMutability": "nonpayable",
      "type": "function"
    }
  ],
  "bytecode": "0x60806040523480156200001157600080fd5b5060405162001d3138038062001d31833981810160405281019062000037919062000321565b600c8211156200007e576040517f08c379a0000000000000000000000000000000000000000000000000000000008152600401620000759062000404565b60405180910390fd5b80600260006101000a81548173ffffffffffffffffffffffffffffffffffffffff021916908373ffffffffffffffffffffffffffffffffffffffff160217905550816003819055506005839080600181540180825580915050600190039060005260206000200160009091909190916101000a81548173ffffffffffffffffffffffffffffffffffffffff021916908373ffffffffffffffffffffffffffffffffffffffff1602179055506001600460008573ffffffffffffffffffffffffffffffffffffffff1673ffffffffffffffffffffffffffffffffffffffff16815260200190815260200160002060006101000a81548160ff021916908315150217905550600260009054906101000a900473ffffffffffffffffffffffffffffffffffffffff1673ffffffffffffffffffffffffffffffffffffffff16634ab07122846040518263ffffffff167c0100000000000000000000000000000000000000000000000000000000028152600401620001fa919062000437565b600060405180830381600087803b1580156200021557600080fd5b505af11580156200022a573d6000803e3d6000fd5b5050505050505062000454565b600080fd5b600073ffffffffffffffffffffffffffffffffffffffff82169050919050565b600062000269826200023c565b9050919050565b6200027b816200025c565b81146200028757600080fd5b50565b6000815190506200029b8162000270565b92915050565b6000819050919050565b620002b681620002a1565b8114620002c257600080fd5b50565b600081519050620002d681620002ab565b92915050565b6000620002e9826200025c565b9050919050565b620002fb81620002dc565b81146200030757600080fd5b50565b6000815190506200031b81620002f0565b92915050565b6000806000606084860312156200033d576200033c62000237565b5b60006200034d868287016200028a565b93505060206200036086828701620002c5565b925050604062000373868287016200030a565b9150509250925092565b600082825260208201905092915050565b7f43616e6e6f742068617665206d6f7265207468616e203132206d656d6265727360008201527f20696e20612073696e676c65207368617265642077616c6c6574210000000000602082015250565b6000620003ec603b836200037d565b9150620003f9826200038e565b604082019050919050565b600060208201905081810360008301526200041f81620003dd565b9050919050565b62000431816200025c565b82525050565b60006020820190506200044e600083018462000426565b92915050565b6118cd80620004646000396000f3fe6080604052600436106100c8576000357c01000000000000000000000000000000000000000000000000000000009004806381d12c581161008157806381d12c58146102195780639d1187701461025b5780639eab525314610298578063a1a74aae146102c3578063a230c52414610300578063bf4386a01461033d576100cf565b80631089f5ed146100d15780632e1a7d4d1461010e5780634ba1f0981461014b5780635daf08ca14610174578063663c2269146101b15780636fb8c995146101dc576100cf565b366100cf57005b005b3480156100dd57600080fd5b506100f860048036038101906100f391906110e3565b610368565b604051610105919061112b565b60405180910390f35b34801561011a57600080fd5b50610135600480360381019061013091906110e3565b6105ad565b604051610142919061112b565b60405180910390f35b34801561015757600080fd5b50610172600480360381019061016d91906110e3565b610638565b005b34801561018057600080fd5b5061019b600480360381019061019691906110e3565b6107ce565b6040516101a89190611187565b60405180910390f35b3480156101bd57600080fd5b506101c661080d565b6040516101d391906111b1565b60405180910390f35b3480156101e857600080fd5b5061020360048036038101906101fe919061121d565b610813565b60405161021091906111b1565b60405180910390f35b34801561022557600080fd5b50610240600480360381019061023b91906110e3565b610aa7565b604051610252969594939291906112e7565b60405180910390f35b34801561026757600080fd5b50610282600480360381019061027d91906110e3565b610b3d565b60405161028f919061112b565b60405180910390f35b3480156102a457600080fd5b506102ad610b9c565b6040516102ba9190611406565b60405180910390f35b3480156102cf57600080fd5b506102ea60048036038101906102e591906110e3565b610c2a565b6040516102f7919061112b565b60405180910390f35b34801561030c57600080fd5b5061032760048036038101906103229190611428565b610e99565b604051610334919061112b565b60405180910390f35b34801561034957600080fd5b50610352610eb9565b60405161035f91906111b1565b60405180910390f35b600080600080848152602001908152602001600020905061038a816000610ebf565b600354600580549050106103d3576040517f08c379a00000000000000000000000000000000000000000000000000000000081526004016103ca906114d8565b60405180910390fd5b60058160010160009054906101000a900473ffffffffffffffffffffffffffffffffffffffff169080600181540180825580915050600190039060005260206000200160009091909190916101000a81548173ffffffffffffffffffffffffffffffffffffffff021916908373ffffffffffffffffffffffffffffffffffffffff1602179055506001600460008360010160009054906101000a900473ffffffffffffffffffffffffffffffffffffffff1673ffffffffffffffffffffffffffffffffffffffff1673ffffffffffffffffffffffffffffffffffffffff16815260200190815260200160002060006101000a81548160ff021916908315150217905550600260009054906101000a900473ffffffffffffffffffffffffffffffffffffffff1673ffffffffffffffffffffffffffffffffffffffff16634ab071228260010160009054906101000a900473ffffffffffffffffffffffffffffffffffffffff166040518263ffffffff167c01000000000000000000000000000000000000000000000000000000000281526004016105719190611187565b600060405180830381600087803b15801561058b57600080fd5b505af115801561059f573d6000803e3d6000fd5b505050506001915050919050565b60008060008084815260200190815260200160002090506105cf816002610ebf565b3073ffffffffffffffffffffffffffffffffffffffff1631816002015411156105f757600080fd5b3373ffffffffffffffffffffffffffffffffffffffff166108fc82600201549081150290604051600060405180830381858888f19350505050915050919050565b600460003373ffffffffffffffffffffffffffffffffffffffff1673ffffffffffffffffffffffffffffffffffffffff16815260200190815260200160002060009054906101000a900460ff1661068e57600080fd5b6000151560008083815260200190815260200160002060040160003373ffffffffffffffffffffffffffffffffffffffff1673ffffffffffffffffffffffffffffffffffffffff16815260200190815260200160002060009054906101000a900460ff16151514610734576040517f08c379a000000000000000000000000000000000000000000000000000000000815260040161072b90611544565b60405180910390fd5b6001151560008083815260200190815260200160002060040160003373ffffffffffffffffffffffffffffffffffffffff1673ffffffffffffffffffffffffffffffffffffffff16815260200190815260200160002060009054906101000a9050505060008082815260200190815260200160002060030160008154809291906107bd90611593565b91905055506107cb81611024565b50565b600581815481106107de57600080fd5b906000526020600020016000915054906101000a900473ffffffffffffffffffffffffffffffffffffffff1681565b60015481565b6000600460003373ffffffffffffffffffffffffffffffffffffffff1673ffffffffffffffffffffffffffffffffffffffff16815260200190815260200160002060009054906101000a900460ff1661086b57600080fd5b60038460038111156108805761087f611270565b5b11156108c1576040517f08c379a00000000000000000000000000000000000000000000000000000000081526004016108b890611628565b60405180910390fd5b600260038111156108d5576108d4611270565b5b8460038111156108e8576108e7611270565b5b141561093a5760008310156108fc57600080fd5b600073ffffffffffffffffffffffffffffffffffffffff168273ffffffffffffffffffffffffffffffffffffffff161461093557600080fd5b610982565b6000831461094757600080fd5b600073ffffffffffffffffffffffffffffffffffffffff168273ffffffffffffffffffffffffffffffffffffffff16141561098157600080fd5b5b600080600060015481526020019081526020016000209050338160000160006101000a81548173ffffffffffffffffffffffffffffffffffffffff021916908373ffffffffffffffffffffffffffffffffffffffff160217905550848160000160146101000a81548160ff02191690836003811115610a0457610a03611270565b5b0217905550828160010160006101000a81548173ffffffffffffffffffffffffffffffffffffffff021916908373ffffffffffffffffffffffffffffffffffffffff1602179055508381600201819055506001816003018190555060008160050160006101000a81548160ff0219169083151502179055506000600154905060016000815480929190610a9690611593565b919050555080925050509392505050565b60006020528060005260406000206000915090508060000160009054906101000a900473ffffffffffffffffffffffffffffffffffffffff16908060000160149054906101000a900460ff16908060010160009054906101000a900473ffffffffffffffffffffffffffffffffffffffff16908060020154908060030154908060050160009054906101000a900460ff16905086565b6000806000808481526020019081526020016000209050610b5f816003610ebf565b8060010160009054906101000a900473ffffffffffffffffffffffffffffffffffffffff1673ffffffffffffffffffffffffffffffffffffffff16ff5b60606005805480602002602001604051908101604052809291908181526020018280548015610c2057602002820191906000526020600020905b8160009054906101000a900473ffffffffffffffffffffffffffffffffffffffff1673ffffffffffffffffffffffffffffffffffffffff1681526020019060010190808311610bd6575b5050505050905090565b6000806000808481526020019081526020016000209050610c4c816001610ebf565b60005b600580549050811015610e8d578160010160009054906101000a900473ffffffffffffffffffffffffffffffffffffffff1673ffffffffffffffffffffffffffffffffffffffff1660058281548110610cab57610caa611648565b5b9060005260206000200160009054906101000a900473ffffffffffffffffffffffffffffffffffffffff1673ffffffffffffffffffffffffffffffffffffffff161415610e7a57600060058281548110610d0857610d07611648565b5b9060005260206000200160009054906101000a900473ffffffffffffffffffffffffffffffffffffffff16905060058281548110610d4957610d48611648565b5b9060005260206000200160006101000a81549073ffffffffffffffffffffffffffffffffffffffff0219169055600460008273ffffffffffffffffffffffffffffffffffffffff1673ffffffffffffffffffffffffffffffffffffffff16815260200190815260200160002060006101000a81549060ff0219169055600260009054906101000a900473ffffffffffffffffffffffffffffffffffffffff1673ffffffffffffffffffffffffffffffffffffffff1663e22972f2826040518263ffffffff167c0100000000000000000000000000000000000000000000000000000000028152600401610e3c9190611187565b600060405180830381600087803b158015610e5657600080fd5b505af1158015610e6a573d6000803e3d6000fd5b5050505060019350505050610e94565b8080610e8590611593565b915050610c4f565b5060009150505b919050565b60046020528060005260406000206000915054906101000a900460ff1681565b60035481565b3373ffffffffffffffffffffffffffffffffffffffff168260000160009054906101000a900473ffffffffffffffffffffffffffffffffffffffff1673ffffffffffffffffffffffffffffffffffffffff1614610f51576040517f08c379a0000000000000000000000000000000000000000000000000000000008152600401610f48906116e9565b60405180910390fd5b600115158260050160009054906101000a900460ff16151514610fa9576040517f08c379a0000000000000000000000000000000000000000000000000000000008152600401610fa090611755565b60405180910390fd5b806003811115610fbc57610fbb611270565b5b8260000160149054906101000a900460ff166003811115610fe057610fdf611270565b5b14611020576040517f08c379a0000000000000000000000000000000000000000000000000000000008152600401611017906117c1565b60405180910390fd5b5050565b6000611034600580549050611086565b90508060008084815260200190815260200160002060030154141561108257600160008084815260200190815260200160002060050160006101000a81548160ff0219169083151502179055505b5050565b600060016002836110979190611810565b6110a19190611841565b9050919050565b600080fd5b6000819050919050565b6110c0816110ad565b81146110cb57600080fd5b50565b6000813590506110dd816110b7565b92915050565b6000602082840312156110f9576110f86110a8565b5b6000611107848285016110ce565b91505092915050565b60008115159050919050565b61112581611110565b82525050565b6000602082019050611140600083018461111c565b92915050565b600073ffffffffffffffffffffffffffffffffffffffff82169050919050565b600061117182611146565b9050919050565b61118181611166565b82525050565b600060208201905061119c6000830184611178565b92915050565b6111ab816110ad565b82525050565b60006020820190506111c660008301846111a2565b92915050565b600481106111d957600080fd5b50565b6000813590506111eb816111cc565b92915050565b6111fa81611166565b811461120557600080fd5b50565b600081359050611217816111f1565b92915050565b600080600060608486031215611236576112356110a8565b5b6000611244868287016111dc565b9350506020611255868287016110ce565b925050604061126686828701611208565b9150509250925092565b7f4e487b7100000000000000000000000000000000000000000000000000000000600052602160045260246000fd5b600481106112b0576112af611270565b5b50565b60008190506112c18261129f565b919050565b60006112d1826112b3565b9050919050565b6112e1816112c6565b82525050565b600060c0820190506112fc6000830189611178565b61130960208301886112d8565b6113166040830187611178565b61132360608301866111a2565b61133060808301856111a2565b61133d60a083018461111c565b979650505050505050565b600081519050919050565b600082825260208201905092915050565b6000819050602082019050919050565b61137d81611166565b82525050565b600061138f8383611374565b60208301905092915050565b6000602082019050919050565b60006113b382611348565b6113bd8185611353565b93506113c883611364565b8060005b838110156113f95781516113e08882611383565b97506113eb8361139b565b9250506001810190506113cc565b5085935050505092915050565b6000602082019050818103600083015261142081846113a8565b905092915050565b60006020828403121561143e5761143d6110a8565b5b600061144c84828501611208565b91505092915050565b600082825260208201905092915050565b7f4d6178696d756d206e756d626572206f66206d656d626572732072656163686560008201527f6421000000000000000000000000000000000000000000000000000000000000602082015250565b60006114c2602283611455565b91506114cd82611466565b604082019050919050565b600060208201905081810360008301526114f1816114b5565b9050919050565b7f416c726561647920766f74656420746f20746869732072657175657374210000600082015250565b600061152e601e83611455565b9150611539826114f8565b602082019050919050565b6000602082019050818103600083015261155d81611521565b9050919050565b7f4e487b7100000000000000000000000000000000000000000000000000000000600052601160045260246000fd5b600061159e826110ad565b91507fffffffffffffffffffffffffffffffffffffffffffffffffffffffffffffffff8214156115d1576115d0611564565b5b600182019050919050565b7f496e76616c696420726571756573742074797065210000000000000000000000600082015250565b6000611612601583611455565b915061161d826115dc565b602082019050919050565b6000602082019050818103600083015261164181611605565b9050919050565b7f4e487b7100000000000000000000000000000000000000000000000000000000600052603260045260246000fd5b7f596f7520617265206e6f742074686520617574686f72206f662074686973207260008201527f6571756573742100000000000000000000000000000000000000000000000000602082015250565b60006116d3602783611455565b91506116de82611677565b604082019050919050565b60006020820190508181036000830152611702816116c6565b9050919050565b7f52657175657374206973206e6f7420617070726f766564207965742100000000600082015250565b600061173f601c83611455565b915061174a82611709565b602082019050919050565b6000602082019050818103600083015261176e81611732565b9050919050565b7f57726f6e67207265717565737420696421000000000000000000000000000000600082015250565b60006117ab601183611455565b91506117b682611775565b602082019050919050565b600060208201905081810360008301526117da8161179e565b9050919050565b7f4e487b7100000000000000000000000000000000000000000000000000000000600052601260045260246000fd5b600061181b826110ad565b9150611826836110ad565b925082611836576118356117e1565b5b828204905092915050565b600061184c826110ad565b9150611857836110ad565b9250827fffffffffffffffffffffffffffffffffffffffffffffffffffffffffffffffff0382111561188c5761188b611564565b5b82820190509291505056fea2646970667358221220cf4cb06d4b4f21ddb8f0ae08ec3a2fc667260836282cb55753e773a0a68e01b664736f6c634300080c0033",
  "immutableReferences": {},
  "source": "//SPDX-License-Identifier: MIT\r\npragma solidity ^0.8.0;\r\n\r\nimport \"./Voting.sol\";\r\nimport \"./SharedWalletsStorage.sol\";\r\n\r\ncontract SharedWallet is Voting {\r\n    SharedWalletsStorage walletsStorage;\r\n    uint256 public maxMembers;\r\n    mapping(address => bool) public isMember;\r\n    address[] public members;\r\n\r\n    modifier onlyMember() override {\r\n        require(isMember[msg.sender]);\r\n        _;\r\n    }\r\n\r\n    constructor(\r\n        address _creator,\r\n        uint256 _maxMembers,\r\n        SharedWalletsStorage _walletsStorage\r\n    ) {\r\n        require(\r\n            _maxMembers <= 12,\r\n            \"Cannot have more than 12 members in a single shared wallet!\"\r\n        );\r\n\r\n        walletsStorage = _walletsStorage;\r\n        maxMembers = _maxMembers;\r\n\r\n        members.push(_creator);\r\n        isMember[_creator] = true;\r\n        walletsStorage.addWalletToUser(_creator);\r\n    }\r\n\r\n    function getMembers() public view returns (address[] memory) {\r\n        return members;\r\n    }\r\n\r\n    function addMember(uint256 _requestId) external returns (bool) {\r\n        Request storage request = requests[_requestId];\r\n        _validateRequest(request, RequestTypes.AddMember);\r\n\r\n        require(\r\n            members.length < maxMembers,\r\n            \"Maximum number of members reached!\"\r\n        );\r\n\r\n        members.push(request.addr);\r\n        isMember[request.addr] = true;\r\n        walletsStorage.addWalletToUser(request.addr);\r\n        return true;\r\n    }\r\n\r\n    function removeMember(uint256 _requestId) external returns (bool) {\r\n        Request storage request = requests[_requestId];\r\n        _validateRequest(request, RequestTypes.RemoveMember);\r\n\r\n        for (uint256 i = 0; i < members.length; i++)\r\n            if (members[i] == request.addr) {\r\n                address deletedMember = members[i];\r\n                delete members[i];\r\n                delete isMember[deletedMember];\r\n                walletsStorage.removeWalletForUser(deletedMember);\r\n                return true;\r\n            }\r\n\r\n        return false;\r\n    }\r\n\r\n    function withdraw(uint256 _requestId) external returns (bool) {\r\n        Request storage request = requests[_requestId];\r\n        _validateRequest(request, RequestTypes.Withdraw);\r\n\r\n        require(request.value <= address(this).balance);\r\n\r\n        return payable(msg.sender).send(request.value);\r\n    }\r\n\r\n    function destroy(uint256 _requestId) external returns (bool) {\r\n        Request storage request = requests[_requestId];\r\n        _validateRequest(request, RequestTypes.Destroy);\r\n\r\n        selfdestruct(payable(request.addr));\r\n        return true;\r\n    }\r\n\r\n    function _tryApproveRequest(uint256 _requestID) internal override {\r\n        uint256 goal = _getMajority(members.length);\r\n        if (requests[_requestID].proVotersCount == goal)\r\n            requests[_requestID].approved = true;\r\n    }\r\n\r\n    function _validateRequest(\r\n        Request storage _request,\r\n        RequestTypes _requestType\r\n    ) private view {\r\n        require(\r\n            _request.author == msg.sender,\r\n            \"You are not the author of this request!\"\r\n        );\r\n        require(_request.approved == true, \"Request is not approved yet!\");\r\n        require(_request.requestType == _requestType, \"Wrong request id!\");\r\n    }\r\n\r\n    receive() external payable {}\r\n\r\n    fallback() external payable {}\r\n}\r\n",
  "sourcePath": "C:\\Users\\Joro\\Documents\\GitHub\\ShareIt\\contracts\\SharedWallet.sol",
  "compiler": {
    "name": "solc",
    "version": "0.8.12+commit.f00d7308.Emscripten.clang"
  },
  "schemaVersion": "3.4.6",
  "updatedAt": "2022-03-24T11:35:16.071Z",
  "devdoc": {
    "kind": "dev",
    "methods": {},
    "version": 1
  },
  "userdoc": {
    "kind": "user",
    "methods": {},
    "version": 1
  }
}