{
  "contractName": "SharedWallet",
  "abi": [
    {
      "inputs": [
        {
          "internalType": "address",
          "name": "_creator",
          "type": "address"
        },
        {
          "internalType": "uint256",
          "name": "_maxMembers",
          "type": "uint256"
        },
        {
          "internalType": "contract SharedWalletStorage",
          "name": "_walletStorage",
          "type": "address"
        }
      ],
      "stateMutability": "nonpayable",
      "type": "constructor"
    },
    {
      "stateMutability": "payable",
      "type": "fallback"
    },
    {
      "inputs": [
        {
          "internalType": "uint256",
          "name": "_requestID",
          "type": "uint256"
        }
      ],
      "name": "acceptRequest",
      "outputs": [],
      "stateMutability": "nonpayable",
      "type": "function"
    },
    {
      "inputs": [
        {
          "internalType": "enum Voting.RequestTypes",
          "name": "_requestType",
          "type": "uint8"
        },
        {
          "internalType": "bytes20",
          "name": "_data",
          "type": "bytes20"
        }
      ],
      "name": "createRequest",
      "outputs": [
        {
          "internalType": "uint256",
          "name": "",
          "type": "uint256"
        }
      ],
      "stateMutability": "nonpayable",
      "type": "function"
    },
    {
      "inputs": [],
      "name": "maxMembers",
      "outputs": [
        {
          "internalType": "uint256",
          "name": "",
          "type": "uint256"
        }
      ],
      "stateMutability": "view",
      "type": "function"
    },
    {
      "inputs": [
        {
          "internalType": "uint256",
          "name": "",
          "type": "uint256"
        }
      ],
      "name": "members",
      "outputs": [
        {
          "internalType": "address",
          "name": "",
          "type": "address"
        }
      ],
      "stateMutability": "view",
      "type": "function"
    },
    {
      "inputs": [
        {
          "internalType": "uint256",
          "name": "",
          "type": "uint256"
        }
      ],
      "name": "requests",
      "outputs": [
        {
          "internalType": "address",
          "name": "proposer",
          "type": "address"
        },
        {
          "internalType": "enum Voting.RequestTypes",
          "name": "requestType",
          "type": "uint8"
        },
        {
          "internalType": "bytes20",
          "name": "data",
          "type": "bytes20"
        },
        {
          "internalType": "uint256",
          "name": "proVotersCount",
          "type": "uint256"
        },
        {
          "internalType": "bool",
          "name": "approved",
          "type": "bool"
        }
      ],
      "stateMutability": "view",
      "type": "function"
    },
    {
      "inputs": [],
      "name": "requestsCounter",
      "outputs": [
        {
          "internalType": "uint256",
          "name": "",
          "type": "uint256"
        }
      ],
      "stateMutability": "view",
      "type": "function"
    },
    {
      "inputs": [
        {
          "internalType": "uint256",
          "name": "_requestID",
          "type": "uint256"
        }
      ],
      "name": "tryApproveRequest",
      "outputs": [],
      "stateMutability": "nonpayable",
      "type": "function"
    },
    {
      "stateMutability": "payable",
      "type": "receive"
    },
    {
      "inputs": [],
      "name": "getMembers",
      "outputs": [
        {
          "internalType": "address[]",
          "name": "",
          "type": "address[]"
        }
      ],
      "stateMutability": "view",
      "type": "function"
    },
    {
      "inputs": [
        {
          "internalType": "address",
          "name": "_benefieciery",
          "type": "address"
        }
      ],
      "name": "destroy",
      "outputs": [],
      "stateMutability": "nonpayable",
      "type": "function"
    }
  ],
  "bytecode": "0x60806040523480156200001157600080fd5b50604051620012a1380380620012a18339818101604052810190620000379190620003a0565b600c8211156200007e576040517f08c379a0000000000000000000000000000000000000000000000000000000008152600401620000759062000483565b60405180910390fd5b80600260006101000a81548173ffffffffffffffffffffffffffffffffffffffff021916908373ffffffffffffffffffffffffffffffffffffffff160217905550816003819055506004839080600181540180825580915050600190039060005260206000200160009091909190916101000a81548173ffffffffffffffffffffffffffffffffffffffff021916908373ffffffffffffffffffffffffffffffffffffffff16021790555062000143836200014d640100000000026401000000009004565b505050506200057b565b6000600354600480549050106200019b576040517f08c379a000000000000000000000000000000000000000000000000000000000815260040162000192906200051b565b60405180910390fd5b6004829080600181540180825580915050600190039060005260206000200160009091909190916101000a81548173ffffffffffffffffffffffffffffffffffffffff021916908373ffffffffffffffffffffffffffffffffffffffff160217905550600260009054906101000a900473ffffffffffffffffffffffffffffffffffffffff1673ffffffffffffffffffffffffffffffffffffffff166351efa3f430846040518363ffffffff167c0100000000000000000000000000000000000000000000000000000000028152600401620002799291906200054e565b600060405180830381600087803b1580156200029457600080fd5b505af1158015620002a9573d6000803e3d6000fd5b5050505060019050919050565b600080fd5b600073ffffffffffffffffffffffffffffffffffffffff82169050919050565b6000620002e882620002bb565b9050919050565b620002fa81620002db565b81146200030657600080fd5b50565b6000815190506200031a81620002ef565b92915050565b6000819050919050565b620003358162000320565b81146200034157600080fd5b50565b60008151905062000355816200032a565b92915050565b60006200036882620002db565b9050919050565b6200037a816200035b565b81146200038657600080fd5b50565b6000815190506200039a816200036f565b92915050565b600080600060608486031215620003bc57620003bb620002b6565b5b6000620003cc8682870162000309565b9350506020620003df8682870162000344565b9250506040620003f28682870162000389565b9150509250925092565b600082825260208201905092915050565b7f43616e6e6f742068617665206d6f7265207468616e203132206d656d6265727360008201527f20696e20612073696e676c65207368617265642077616c6c6574210000000000602082015250565b60006200046b603b83620003fc565b915062000478826200040d565b604082019050919050565b600060208201905081810360008301526200049e816200045c565b9050919050565b7f4d6178696d756d206e756d626572206f66206d656d626572732072656163686560008201527f6421000000000000000000000000000000000000000000000000000000000000602082015250565b600062000503602283620003fc565b91506200051082620004a5565b604082019050919050565b600060208201905081810360008301526200053681620004f4565b9050919050565b6200054881620002db565b82525050565b60006040820190506200056560008301856200053d565b6200057460208301846200053d565b9392505050565b610d16806200058b6000396000f3fe6080604052600436106100a6576000357c010000000000000000000000000000000000000000000000000000000090048063754bea3b11610076578063754bea3b1461016957806381d12c58146101a65780639eab5253146101e7578063bbe37f1e14610212578063bf4386a01461023b576100ad565b8062f55d9d146100af5780634ba1f098146100d85780635daf08ca14610101578063663c22691461013e576100ad565b366100ad57005b005b3480156100bb57600080fd5b506100d660048036038101906100d191906107a4565b610266565b005b3480156100e457600080fd5b506100ff60048036038101906100fa9190610807565b61032f565b005b34801561010d57600080fd5b5061012860048036038101906101239190610807565b61046f565b6040516101359190610843565b60405180910390f35b34801561014a57600080fd5b506101536104ae565b604051610160919061086d565b60405180910390f35b34801561017557600080fd5b50610190600480360381019061018b9190610905565b6104b4565b60405161019d919061086d565b60405180910390f35b3480156101b257600080fd5b506101cd60048036038101906101c89190610807565b610621565b6040516101de9594939291906109e6565b60405180910390f35b3480156101f357600080fd5b506101fc6106aa565b6040516102099190610af7565b60405180910390f35b34801561021e57600080fd5b5061023960048036038101906102349190610807565b610738565b005b34801561024757600080fd5b5061025061073b565b60405161025d919061086d565b60405180910390f35b6000805b6004805490508160ff16101561030b573273ffffffffffffffffffffffffffffffffffffffff1660048260ff16815481106102a8576102a7610b19565b5b9060005260206000200160009054906101000a900473ffffffffffffffffffffffffffffffffffffffff1673ffffffffffffffffffffffffffffffffffffffff1614156102f8576001915061030b565b808061030390610b84565b91505061026a565b508061031657600080fd5b8173ffffffffffffffffffffffffffffffffffffffff16ff5b6000151560008083815260200190815260200160002060030160003373ffffffffffffffffffffffffffffffffffffffff1673ffffffffffffffffffffffffffffffffffffffff16815260200190815260200160002060009054906101000a900460ff161515146103d5576040517f08c379a00000000000000000000000000000000000000000000000000000000081526004016103cc90610c0b565b60405180910390fd5b6001151560008083815260200190815260200160002060030160003373ffffffffffffffffffffffffffffffffffffffff1673ffffffffffffffffffffffffffffffffffffffff16815260200190815260200160002060009054906101000a90505050600080828152602001908152602001600020600201600081548092919061045e90610c2b565b919050555061046c81610738565b50565b6004818154811061047f57600080fd5b906000526020600020016000915054906101000a900473ffffffffffffffffffffffffffffffffffffffff1681565b60015481565b600060038360038111156104cb576104ca610945565b5b111561050c576040517f08c379a000000000000000000000000000000000000000000000000000000000815260040161050390610cc0565b60405180910390fd5b600080600060015481526020019081526020016000209050338160000160006101000a81548173ffffffffffffffffffffffffffffffffffffffff021916908373ffffffffffffffffffffffffffffffffffffffff160217905550838160000160146101000a81548160ff0219169083600381111561058e5761058d610945565b5b0217905550828160010160006101000a81548173ffffffffffffffffffffffffffffffffffffffff02191690836c01000000000000000000000000900402179055506000816002018190555060008160040160006101000a81548160ff021916908315150217905550600060015490506001600081548092919061061190610c2b565b9190505550809250505092915050565b60006020528060005260406000206000915090508060000160009054906101000a900473ffffffffffffffffffffffffffffffffffffffff16908060000160149054906101000a900460ff16908060010160009054906101000a90046c0100000000000000000000000002908060020154908060040160009054906101000a900460ff16905085565b6060600480548060200260200160405190810160405280929190818152602001828054801561072e57602002820191906000526020600020905b8160009054906101000a900473ffffffffffffffffffffffffffffffffffffffff1673ffffffffffffffffffffffffffffffffffffffff16815260200190600101908083116106e4575b5050505050905090565b50565b60035481565b600080fd5b600073ffffffffffffffffffffffffffffffffffffffff82169050919050565b600061077182610746565b9050919050565b61078181610766565b811461078c57600080fd5b50565b60008135905061079e81610778565b92915050565b6000602082840312156107ba576107b9610741565b5b60006107c88482850161078f565b91505092915050565b6000819050919050565b6107e4816107d1565b81146107ef57600080fd5b50565b600081359050610801816107db565b92915050565b60006020828403121561081d5761081c610741565b5b600061082b848285016107f2565b91505092915050565b61083d81610766565b82525050565b60006020820190506108586000830184610834565b92915050565b610867816107d1565b82525050565b6000602082019050610882600083018461085e565b92915050565b6004811061089557600080fd5b50565b6000813590506108a781610888565b92915050565b60007fffffffffffffffffffffffffffffffffffffffff00000000000000000000000082169050919050565b6108e2816108ad565b81146108ed57600080fd5b50565b6000813590506108ff816108d9565b92915050565b6000806040838503121561091c5761091b610741565b5b600061092a85828601610898565b925050602061093b858286016108f0565b9150509250929050565b7f4e487b7100000000000000000000000000000000000000000000000000000000600052602160045260246000fd5b6004811061098557610984610945565b5b50565b600081905061099682610974565b919050565b60006109a682610988565b9050919050565b6109b68161099b565b82525050565b6109c5816108ad565b82525050565b60008115159050919050565b6109e0816109cb565b82525050565b600060a0820190506109fb6000830188610834565b610a0860208301876109ad565b610a1560408301866109bc565b610a22606083018561085e565b610a2f60808301846109d7565b9695505050505050565b600081519050919050565b600082825260208201905092915050565b6000819050602082019050919050565b610a6e81610766565b82525050565b6000610a808383610a65565b60208301905092915050565b6000602082019050919050565b6000610aa482610a39565b610aae8185610a44565b9350610ab983610a55565b8060005b83811015610aea578151610ad18882610a74565b9750610adc83610a8c565b925050600181019050610abd565b5085935050505092915050565b60006020820190508181036000830152610b118184610a99565b905092915050565b7f4e487b7100000000000000000000000000000000000000000000000000000000600052603260045260246000fd5b7f4e487b7100000000000000000000000000000000000000000000000000000000600052601160045260246000fd5b600060ff82169050919050565b6000610b8f82610b77565b915060ff821415610ba357610ba2610b48565b5b600182019050919050565b600082825260208201905092915050565b7f416c726561647920766f74656420746f20746869732072657175657374210000600082015250565b6000610bf5601e83610bae565b9150610c0082610bbf565b602082019050919050565b60006020820190508181036000830152610c2481610be8565b9050919050565b6000610c36826107d1565b91507fffffffffffffffffffffffffffffffffffffffffffffffffffffffffffffffff821415610c6957610c68610b48565b5b600182019050919050565b7f496e76616c696420726571756573742074797065210000000000000000000000600082015250565b6000610caa601583610bae565b9150610cb582610c74565b602082019050919050565b60006020820190508181036000830152610cd981610c9d565b905091905056fea264697066735822122066b274159e63adfeee5d26b3feb368e501c41f05b93b0ad175ff8ba6302ca9a164736f6c634300080c0033",
  "immutableReferences": {},
  "source": "//SPDX-License-Identifier: UNLICENSED\r\npragma solidity ^0.8.0;\r\n\r\nimport \"./SharedWalletStorage.sol\";\r\nimport \"./SharedWalletFactory.sol\";\r\nimport \"./Voting.sol\";\r\n\r\ncontract SharedWallet is Voting {\r\n    SharedWalletStorage walletStorage;\r\n    uint256 public maxMembers;\r\n    address[] public members;\r\n\r\n    modifier onlyMember() {\r\n        bool isMember = false;\r\n        for (uint8 i = 0; i < members.length; i++)\r\n            if (members[i] == tx.origin) {\r\n                isMember = true;\r\n                break;\r\n            }\r\n\r\n        require(isMember);\r\n        _;\r\n    }\r\n\r\n    constructor(address _creator, uint256 _maxMembers, SharedWalletStorage _walletStorage) {\r\n        require(\r\n            _maxMembers <= 12,\r\n            \"Cannot have more than 12 members in a single shared wallet!\"\r\n        );\r\n\r\n        walletStorage = _walletStorage;\r\n        maxMembers = _maxMembers;\r\n\r\n        members.push(_creator);\r\n        _addMember(_creator);\r\n    }\r\n\r\n    function getMembers() public view returns (address[] memory) {\r\n        return members;\r\n    }\r\n\r\n    function _addMember(address _newMember) private returns (bool) {\r\n        // add voting\r\n        require(\r\n            members.length < maxMembers,\r\n            \"Maximum number of members reached!\"\r\n        );\r\n\r\n        members.push(_newMember);\r\n        walletStorage.addWalletToUser(address(this), _newMember);\r\n        return true;\r\n    }\r\n\r\n    function _removeMember(address _member) private returns (bool) {\r\n        // add voting\r\n        for (uint256 i = 0; i < members.length; i++)\r\n            if (members[i] == _member) {\r\n                address deletedMember = members[i];\r\n                delete members[i];\r\n                walletStorage.removeWalletForUser(address(this), deletedMember);\r\n                return true;\r\n            }\r\n\r\n        return false;\r\n    }\r\n\r\n    function _withdraw(uint256 amountInWei) private returns (bool) {\r\n        // add voting\r\n        require(amountInWei <= address(this).balance);\r\n\r\n        return payable(msg.sender).send(amountInWei);\r\n    }\r\n\r\n    function destroy(address _benefieciery) external onlyMember {\r\n        // add voting\r\n        selfdestruct(payable(_benefieciery));\r\n    }\r\n\r\n    receive() external payable {}\r\n\r\n    fallback() external payable {}\r\n\r\n}\r\n",
  "sourcePath": "C:\\Users\\Joro\\Documents\\GitHub\\ShareIt\\contracts\\SharedWallet.sol",
  "compiler": {
    "name": "solc",
    "version": "0.8.12+commit.f00d7308.Emscripten.clang"
  },
  "schemaVersion": "3.4.6",
  "updatedAt": "2022-03-23T20:00:13.777Z",
  "devdoc": {
    "kind": "dev",
    "methods": {},
    "version": 1
  },
  "userdoc": {
    "kind": "user",
    "methods": {},
    "version": 1
  }
}