{
  "contractName": "SharedWalletFactory",
  "abi": [
    {
      "inputs": [],
      "stateMutability": "nonpayable",
      "type": "constructor"
    },
    {
      "inputs": [],
      "name": "walletsStorage",
      "outputs": [
        {
          "internalType": "contract SharedWalletsStorage",
          "name": "",
          "type": "address"
        }
      ],
      "stateMutability": "view",
      "type": "function",
      "constant": true
    },
    {
      "inputs": [],
      "name": "createNewSharedWallet",
      "outputs": [
        {
          "internalType": "address",
          "name": "",
          "type": "address"
        }
      ],
      "stateMutability": "nonpayable",
      "type": "function"
    }
  ],
  "bytecode": "0x608060405234801561001057600080fd5b5060405161001d9061007e565b604051809103906000f080158015610039573d6000803e3d6000fd5b506000806101000a81548173ffffffffffffffffffffffffffffffffffffffff021916908373ffffffffffffffffffffffffffffffffffffffff16021790555061008b565b6109718061200083390190565b611f668061009a6000396000f3fe608060405234801561001057600080fd5b5060043610610053576000357c0100000000000000000000000000000000000000000000000000000000900480638d4eebd414610058578063abcc915314610076575b600080fd5b610060610094565b60405161006d9190610211565b60405180910390f35b61007e61019f565b60405161008b919061028b565b60405180910390f35b6000803360008054906101000a900473ffffffffffffffffffffffffffffffffffffffff166040516100c5906101c3565b6100d09291906102a6565b604051809103906000f0801580156100ec573d6000803e3d6000fd5b50905060008054906101000a900473ffffffffffffffffffffffffffffffffffffffff1673ffffffffffffffffffffffffffffffffffffffff166351efa3f482336040518363ffffffff167c01000000000000000000000000000000000000000000000000000000000281526004016101669291906102a6565b600060405180830381600087803b15801561018057600080fd5b505af1158015610194573d6000803e3d6000fd5b505050508091505090565b60008054906101000a900473ffffffffffffffffffffffffffffffffffffffff1681565b611c61806102d083390190565b600073ffffffffffffffffffffffffffffffffffffffff82169050919050565b60006101fb826101d0565b9050919050565b61020b816101f0565b82525050565b60006020820190506102266000830184610202565b92915050565b6000819050919050565b600061025161024c610247846101d0565b61022c565b6101d0565b9050919050565b600061026382610236565b9050919050565b600061027582610258565b9050919050565b6102858161026a565b82525050565b60006020820190506102a0600083018461027c565b92915050565b60006040820190506102bb6000830185610202565b6102c86020830184610202565b939250505056fe60806040523480156200001157600080fd5b5060405162001c6138038062001c618339818101604052810190620000379190620001a5565b80600260006101000a81548173ffffffffffffffffffffffffffffffffffffffff021916908373ffffffffffffffffffffffffffffffffffffffff1602179055506004829080600181540180825580915050600190039060005260206000200160009091909190916101000a81548173ffffffffffffffffffffffffffffffffffffffff021916908373ffffffffffffffffffffffffffffffffffffffff1602179055506001600360008473ffffffffffffffffffffffffffffffffffffffff1673ffffffffffffffffffffffffffffffffffffffff16815260200190815260200160002060006101000a81548160ff0219169083151502179055505050620001ec565b600080fd5b600073ffffffffffffffffffffffffffffffffffffffff82169050919050565b60006200016d8262000140565b9050919050565b6200017f8162000160565b81146200018b57600080fd5b50565b6000815190506200019f8162000174565b92915050565b60008060408385031215620001bf57620001be6200013b565b5b6000620001cf858286016200018e565b9250506020620001e2858286016200018e565b9150509250929050565b611a6580620001fc6000396000f3fe6080604052600436106100fa576000357c01000000000000000000000000000000000000000000000000000000009004806381d12c581161009c578063a1a74aae11610076578063a1a74aae1461031b578063a230c52414610358578063abcc915314610395578063d0e30db0146103c0576100fa565b806381d12c58146102705780639d118770146102b35780639eab5253146102f0576100fa565b80634ba1f098116100d85780634ba1f098146101a25780635daf08ca146101cb578063663c2269146102085780636fb8c99514610233576100fa565b80631089f5ed146100ff5780632e1a7d4d1461013c578063464c5b6c14610179575b600080fd5b34801561010b57600080fd5b506101266004803603810190610121919061125c565b6103ca565b60405161013391906112a4565b60405180910390f35b34801561014857600080fd5b50610163600480360381019061015e919061125c565b6105c8565b60405161017091906112a4565b60405180910390f35b34801561018557600080fd5b506101a0600480360381019061019b919061125c565b610653565b005b3480156101ae57600080fd5b506101c960048036038101906101c4919061125c565b61077a565b005b3480156101d757600080fd5b506101f260048036038101906101ed919061125c565b610910565b6040516101ff9190611300565b60405180910390f35b34801561021457600080fd5b5061021d61094f565b60405161022a919061132a565b60405180910390f35b34801561023f57600080fd5b5061025a60048036038101906102559190611396565b610955565b604051610267919061132a565b60405180910390f35b34801561027c57600080fd5b506102976004803603810190610292919061125c565b610be9565b6040516102aa9796959493929190611460565b60405180910390f35b3480156102bf57600080fd5b506102da60048036038101906102d5919061125c565b610c92565b6040516102e791906112a4565b60405180910390f35b3480156102fc57600080fd5b50610305610cf1565b604051610312919061158d565b60405180910390f35b34801561032757600080fd5b50610342600480360381019061033d919061125c565b610d7f565b60405161034f91906112a4565b60405180910390f35b34801561036457600080fd5b5061037f600480360381019061037a91906115af565b610ff0565b60405161038c91906112a4565b60405180910390f35b3480156103a157600080fd5b506103aa611010565b6040516103b7919061163b565b60405180910390f35b6103c8611036565b005b60008060008084815260200190815260200160002090506103ec816000611038565b60048160010160009054906101000a900473ffffffffffffffffffffffffffffffffffffffff169080600181540180825580915050600190039060005260206000200160009091909190916101000a81548173ffffffffffffffffffffffffffffffffffffffff021916908373ffffffffffffffffffffffffffffffffffffffff1602179055506001600360008360010160009054906101000a900473ffffffffffffffffffffffffffffffffffffffff1673ffffffffffffffffffffffffffffffffffffffff1673ffffffffffffffffffffffffffffffffffffffff16815260200190815260200160002060006101000a81548160ff021916908315150217905550600260009054906101000a900473ffffffffffffffffffffffffffffffffffffffff1673ffffffffffffffffffffffffffffffffffffffff166351efa3f4308360010160009054906101000a900473ffffffffffffffffffffffffffffffffffffffff166040518363ffffffff167c010000000000000000000000000000000000000000000000000000000002815260040161058c929190611656565b600060405180830381600087803b1580156105a657600080fd5b505af11580156105ba573d6000803e3d6000fd5b505050506001915050919050565b60008060008084815260200190815260200160002090506105ea816002611038565b3073ffffffffffffffffffffffffffffffffffffffff16318160020154111561061257600080fd5b3373ffffffffffffffffffffffffffffffffffffffff166108fc82600201549081150290604051600060405180830381858888f19350505050915050919050565b60006003811115610667576106666113e9565b5b60008083815260200190815260200160002060000160149054906101000a900460ff16600381111561069c5761069b6113e9565b5b146106dc576040517f08c379a00000000000000000000000000000000000000000000000000000000081526004016106d3906116dc565b60405180910390fd5b3373ffffffffffffffffffffffffffffffffffffffff1660008083815260200190815260200160002060010160009054906101000a900473ffffffffffffffffffffffffffffffffffffffff1673ffffffffffffffffffffffffffffffffffffffff161461074957600080fd5b600160008083815260200190815260200160002060030160016101000a81548160ff02191690831515021790555050565b600360003373ffffffffffffffffffffffffffffffffffffffff1673ffffffffffffffffffffffffffffffffffffffff16815260200190815260200160002060009054906101000a900460ff166107d057600080fd5b6000151560008083815260200190815260200160002060050160003373ffffffffffffffffffffffffffffffffffffffff1673ffffffffffffffffffffffffffffffffffffffff16815260200190815260200160002060009054906101000a900460ff16151514610876576040517f08c379a000000000000000000000000000000000000000000000000000000000815260040161086d90611748565b60405180910390fd5b6001151560008083815260200190815260200160002060050160003373ffffffffffffffffffffffffffffffffffffffff1673ffffffffffffffffffffffffffffffffffffffff16815260200190815260200160002060009054906101000a9050505060008082815260200190815260200160002060040160008154809291906108ff90611797565b919050555061090d8161119d565b50565b6004818154811061092057600080fd5b906000526020600020016000915054906101000a900473ffffffffffffffffffffffffffffffffffffffff1681565b60015481565b6000600360003373ffffffffffffffffffffffffffffffffffffffff1673ffffffffffffffffffffffffffffffffffffffff16815260200190815260200160002060009054906101000a900460ff166109ad57600080fd5b60038460038111156109c2576109c16113e9565b5b1115610a03576040517f08c379a00000000000000000000000000000000000000000000000000000000081526004016109fa9061182c565b60405180910390fd5b60026003811115610a1757610a166113e9565b5b846003811115610a2a57610a296113e9565b5b1415610a7c576000831015610a3e57600080fd5b600073ffffffffffffffffffffffffffffffffffffffff168273ffffffffffffffffffffffffffffffffffffffff1614610a7757600080fd5b610ac4565b60008314610a8957600080fd5b600073ffffffffffffffffffffffffffffffffffffffff168273ffffffffffffffffffffffffffffffffffffffff161415610ac357600080fd5b5b600080600060015481526020019081526020016000209050338160000160006101000a81548173ffffffffffffffffffffffffffffffffffffffff021916908373ffffffffffffffffffffffffffffffffffffffff160217905550848160000160146101000a81548160ff02191690836003811115610b4657610b456113e9565b5b0217905550828160010160006101000a81548173ffffffffffffffffffffffffffffffffffffffff021916908373ffffffffffffffffffffffffffffffffffffffff1602179055508381600201819055506001816004018190555060008160030160006101000a81548160ff0219169083151502179055506000600154905060016000815480929190610bd890611797565b919050555080925050509392505050565b60006020528060005260406000206000915090508060000160009054906101000a900473ffffffffffffffffffffffffffffffffffffffff16908060000160149054906101000a900460ff16908060010160009054906101000a900473ffffffffffffffffffffffffffffffffffffffff16908060020154908060030160009054906101000a900460ff16908060030160019054906101000a900460ff16908060040154905087565b6000806000808481526020019081526020016000209050610cb4816003611038565b8060010160009054906101000a900473ffffffffffffffffffffffffffffffffffffffff1673ffffffffffffffffffffffffffffffffffffffff16ff5b60606004805480602002602001604051908101604052809291908181526020018280548015610d7557602002820191906000526020600020905b8160009054906101000a900473ffffffffffffffffffffffffffffffffffffffff1673ffffffffffffffffffffffffffffffffffffffff1681526020019060010190808311610d2b575b5050505050905090565b6000806000808481526020019081526020016000209050610da1816001611038565b60005b600480549050811015610fe4578160010160009054906101000a900473ffffffffffffffffffffffffffffffffffffffff1673ffffffffffffffffffffffffffffffffffffffff1660048281548110610e0057610dff61184c565b5b9060005260206000200160009054906101000a900473ffffffffffffffffffffffffffffffffffffffff1673ffffffffffffffffffffffffffffffffffffffff161415610fd157600060048281548110610e5d57610e5c61184c565b5b9060005260206000200160009054906101000a900473ffffffffffffffffffffffffffffffffffffffff16905060048281548110610e9e57610e9d61184c565b5b9060005260206000200160006101000a81549073ffffffffffffffffffffffffffffffffffffffff0219169055600360008273ffffffffffffffffffffffffffffffffffffffff1673ffffffffffffffffffffffffffffffffffffffff16815260200190815260200160002060006101000a81549060ff0219169055600260009054906101000a900473ffffffffffffffffffffffffffffffffffffffff1673ffffffffffffffffffffffffffffffffffffffff1663abfa796930836040518363ffffffff167c0100000000000000000000000000000000000000000000000000000000028152600401610f93929190611656565b600060405180830381600087803b158015610fad57600080fd5b505af1158015610fc1573d6000803e3d6000fd5b5050505060019350505050610feb565b8080610fdc90611797565b915050610da4565b5060009150505b919050565b60036020528060005260406000206000915054906101000a900460ff1681565b600260009054906101000a900473ffffffffffffffffffffffffffffffffffffffff1681565b565b3373ffffffffffffffffffffffffffffffffffffffff168260000160009054906101000a900473ffffffffffffffffffffffffffffffffffffffff1673ffffffffffffffffffffffffffffffffffffffff16146110ca576040517f08c379a00000000000000000000000000000000000000000000000000000000081526004016110c1906118ed565b60405180910390fd5b600115158260030160009054906101000a900460ff16151514611122576040517f08c379a000000000000000000000000000000000000000000000000000000000815260040161111990611959565b60405180910390fd5b806003811115611135576111346113e9565b5b8260000160149054906101000a900460ff166003811115611159576111586113e9565b5b14611199576040517f08c379a0000000000000000000000000000000000000000000000000000000008152600401611190906116dc565b60405180910390fd5b5050565b60006111ad6004805490506111ff565b9050806000808481526020019081526020016000206004015414156111fb57600160008084815260200190815260200160002060030160006101000a81548160ff0219169083151502179055505b5050565b6000600160028361121091906119a8565b61121a91906119d9565b9050919050565b600080fd5b6000819050919050565b61123981611226565b811461124457600080fd5b50565b60008135905061125681611230565b92915050565b60006020828403121561127257611271611221565b5b600061128084828501611247565b91505092915050565b60008115159050919050565b61129e81611289565b82525050565b60006020820190506112b96000830184611295565b92915050565b600073ffffffffffffffffffffffffffffffffffffffff82169050919050565b60006112ea826112bf565b9050919050565b6112fa816112df565b82525050565b600060208201905061131560008301846112f1565b92915050565b61132481611226565b82525050565b600060208201905061133f600083018461131b565b92915050565b6004811061135257600080fd5b50565b60008135905061136481611345565b92915050565b611373816112df565b811461137e57600080fd5b50565b6000813590506113908161136a565b92915050565b6000806000606084860312156113af576113ae611221565b5b60006113bd86828701611355565b93505060206113ce86828701611247565b92505060406113df86828701611381565b9150509250925092565b7f4e487b7100000000000000000000000000000000000000000000000000000000600052602160045260246000fd5b60048110611429576114286113e9565b5b50565b600081905061143a82611418565b919050565b600061144a8261142c565b9050919050565b61145a8161143f565b82525050565b600060e082019050611475600083018a6112f1565b6114826020830189611451565b61148f60408301886112f1565b61149c606083018761131b565b6114a96080830186611295565b6114b660a0830185611295565b6114c360c083018461131b565b98975050505050505050565b600081519050919050565b600082825260208201905092915050565b6000819050602082019050919050565b611504816112df565b82525050565b600061151683836114fb565b60208301905092915050565b6000602082019050919050565b600061153a826114cf565b61154481856114da565b935061154f836114eb565b8060005b83811015611580578151611567888261150a565b975061157283611522565b925050600181019050611553565b5085935050505092915050565b600060208201905081810360008301526115a7818461152f565b905092915050565b6000602082840312156115c5576115c4611221565b5b60006115d384828501611381565b91505092915050565b6000819050919050565b60006116016115fc6115f7846112bf565b6115dc565b6112bf565b9050919050565b6000611613826115e6565b9050919050565b600061162582611608565b9050919050565b6116358161161a565b82525050565b6000602082019050611650600083018461162c565b92915050565b600060408201905061166b60008301856112f1565b61167860208301846112f1565b9392505050565b600082825260208201905092915050565b7f57726f6e67207265717565737420696421000000000000000000000000000000600082015250565b60006116c660118361167f565b91506116d182611690565b602082019050919050565b600060208201905081810360008301526116f5816116b9565b9050919050565b7f416c726561647920766f74656420746f20746869732072657175657374210000600082015250565b6000611732601e8361167f565b915061173d826116fc565b602082019050919050565b6000602082019050818103600083015261176181611725565b9050919050565b7f4e487b7100000000000000000000000000000000000000000000000000000000600052601160045260246000fd5b60006117a282611226565b91507fffffffffffffffffffffffffffffffffffffffffffffffffffffffffffffffff8214156117d5576117d4611768565b5b600182019050919050565b7f496e76616c696420726571756573742074797065210000000000000000000000600082015250565b600061181660158361167f565b9150611821826117e0565b602082019050919050565b6000602082019050818103600083015261184581611809565b9050919050565b7f4e487b7100000000000000000000000000000000000000000000000000000000600052603260045260246000fd5b7f596f7520617265206e6f742074686520617574686f72206f662074686973207260008201527f6571756573742100000000000000000000000000000000000000000000000000602082015250565b60006118d760278361167f565b91506118e28261187b565b604082019050919050565b60006020820190508181036000830152611906816118ca565b9050919050565b7f52657175657374206973206e6f7420617070726f766564207965742100000000600082015250565b6000611943601c8361167f565b915061194e8261190d565b602082019050919050565b6000602082019050818103600083015261197281611936565b9050919050565b7f4e487b7100000000000000000000000000000000000000000000000000000000600052601260045260246000fd5b60006119b382611226565b91506119be83611226565b9250826119ce576119cd611979565b5b828204905092915050565b60006119e482611226565b91506119ef83611226565b9250827fffffffffffffffffffffffffffffffffffffffffffffffffffffffffffffffff03821115611a2457611a23611768565b5b82820190509291505056fea2646970667358221220d4bfffac386317ec51f88da5deb7a883e349c56ac0ebbc179c0e925e7728472764736f6c634300080c0033a2646970667358221220ecd34a39fa5e0bb58692efbdfcb55b31bdf6ee31991d50ccbba84e6a221bd0d964736f6c634300080c0033608060405260086000806101000a81548160ff021916908360ff16021790555034801561002b57600080fd5b506109368061003b6000396000f3fe608060405234801561001057600080fd5b506004361061005e576000357c01000000000000000000000000000000000000000000000000000000009004806351efa3f41461006357806368e170a81461007f578063abfa79691461009d575b600080fd5b61007d600480360381019061007891906105fd565b6100b9565b005b610087610295565b60405161009491906106fb565b60405180910390f35b6100b760048036038101906100b291906105fd565b610360565b005b81818173ffffffffffffffffffffffffffffffffffffffff1663a230c524826040518263ffffffff167c0100000000000000000000000000000000000000000000000000000000028152600401610110919061072c565b602060405180830381865afa15801561012d573d6000803e3d6000fd5b505050506040513d601f19601f82011682018060405250810190610151919061077f565b61015a57600080fd5b60008054906101000a900460ff1660ff16600160008573ffffffffffffffffffffffffffffffffffffffff1673ffffffffffffffffffffffffffffffffffffffff1681526020019081526020016000208054905011156101ef576040517f08c379a00000000000000000000000000000000000000000000000000000000081526004016101e69061082f565b60405180910390fd5b600160008473ffffffffffffffffffffffffffffffffffffffff1673ffffffffffffffffffffffffffffffffffffffff168152602001908152602001600020849080600181540180825580915050600190039060005260206000200160009091909190916101000a81548173ffffffffffffffffffffffffffffffffffffffff021916908373ffffffffffffffffffffffffffffffffffffffff16021790555050505050565b6060600160003373ffffffffffffffffffffffffffffffffffffffff1673ffffffffffffffffffffffffffffffffffffffff16815260200190815260200160002080548060200260200160405190810160405280929190818152602001828054801561035657602002820191906000526020600020905b8160009054906101000a900473ffffffffffffffffffffffffffffffffffffffff1673ffffffffffffffffffffffffffffffffffffffff168152602001906001019080831161030c575b5050505050905090565b81818173ffffffffffffffffffffffffffffffffffffffff1663a230c524826040518263ffffffff167c01000000000000000000000000000000000000000000000000000000000281526004016103b7919061072c565b602060405180830381865afa1580156103d4573d6000803e3d6000fd5b505050506040513d601f19601f820116820180604052508101906103f8919061077f565b61040157600080fd5b60005b600160008573ffffffffffffffffffffffffffffffffffffffff1673ffffffffffffffffffffffffffffffffffffffff16815260200190815260200160002080549050811015610593578473ffffffffffffffffffffffffffffffffffffffff16600160008673ffffffffffffffffffffffffffffffffffffffff1673ffffffffffffffffffffffffffffffffffffffff16815260200190815260200160002082815481106104b6576104b561084f565b5b9060005260206000200160009054906101000a900473ffffffffffffffffffffffffffffffffffffffff1673ffffffffffffffffffffffffffffffffffffffff16141561058057600160008573ffffffffffffffffffffffffffffffffffffffff1673ffffffffffffffffffffffffffffffffffffffff168152602001908152602001600020818154811061054e5761054d61084f565b5b9060005260206000200160006101000a81549073ffffffffffffffffffffffffffffffffffffffff0219169055610593565b808061058b906108b7565b915050610404565b5050505050565b600080fd5b600073ffffffffffffffffffffffffffffffffffffffff82169050919050565b60006105ca8261059f565b9050919050565b6105da816105bf565b81146105e557600080fd5b50565b6000813590506105f7816105d1565b92915050565b600080604083850312156106145761061361059a565b5b6000610622858286016105e8565b9250506020610633858286016105e8565b9150509250929050565b600081519050919050565b600082825260208201905092915050565b6000819050602082019050919050565b610672816105bf565b82525050565b60006106848383610669565b60208301905092915050565b6000602082019050919050565b60006106a88261063d565b6106b28185610648565b93506106bd83610659565b8060005b838110156106ee5781516106d58882610678565b97506106e083610690565b9250506001810190506106c1565b5085935050505092915050565b60006020820190508181036000830152610715818461069d565b905092915050565b610726816105bf565b82525050565b6000602082019050610741600083018461071d565b92915050565b60008115159050919050565b61075c81610747565b811461076757600080fd5b50565b60008151905061077981610753565b92915050565b6000602082840312156107955761079461059a565b5b60006107a38482850161076a565b91505092915050565b600082825260208201905092915050565b7f412073696e676c6520757365722063616e6e6f7420706172746963697061746560008201527f20696e206d6f7265207468616e20382077616c6c657473210000000000000000602082015250565b60006108196038836107ac565b9150610824826107bd565b604082019050919050565b600060208201905081810360008301526108488161080c565b9050919050565b7f4e487b7100000000000000000000000000000000000000000000000000000000600052603260045260246000fd5b7f4e487b7100000000000000000000000000000000000000000000000000000000600052601160045260246000fd5b6000819050919050565b60006108c2826108ad565b91507fffffffffffffffffffffffffffffffffffffffffffffffffffffffffffffffff8214156108f5576108f461087e565b5b60018201905091905056fea2646970667358221220c391475eb1f3a43cca15a02faab8da36701bbc0a3169e6e1b2b95771f2b2f60e64736f6c634300080c0033",
  "immutableReferences": {},
  "source": "//SPDX-License-Identifier: MIT\r\npragma solidity ^0.8.0;\r\n\r\nimport \"./SharedWallet.sol\";\r\nimport \"./SharedWalletsStorage.sol\";\r\n\r\ncontract SharedWalletFactory {\r\n    SharedWalletsStorage public walletsStorage;\r\n\r\n    constructor() {\r\n        walletsStorage = new SharedWalletsStorage();\r\n    }\r\n\r\n    function createNewSharedWallet() external returns (address) {\r\n        address newSharedWalletAddress = address(\r\n            new SharedWallet(msg.sender, address(walletsStorage))\r\n        );\r\n        walletsStorage.addWalletToUser(newSharedWalletAddress, msg.sender);\r\n\r\n        return newSharedWalletAddress;\r\n    }\r\n}\r\n",
  "sourcePath": "C:\\Users\\Joro\\Documents\\GitHub\\ShareIt\\contracts\\SharedWalletFactory.sol",
  "compiler": {
    "name": "solc",
    "version": "0.8.12+commit.f00d7308.Emscripten.clang"
  },
  "schemaVersion": "3.4.6",
  "updatedAt": "2022-03-24T23:41:20.905Z",
  "networkType": "ethereum",
  "devdoc": {
    "kind": "dev",
    "methods": {},
    "version": 1
  },
  "userdoc": {
    "kind": "user",
    "methods": {},
    "version": 1
  }
}