{
  "contractName": "SharedWallet",
  "abi": [
    {
      "inputs": [],
      "name": "InsufficientBalance",
      "type": "error"
    },
    {
      "inputs": [],
      "name": "InvalidInput",
      "type": "error"
    },
    {
      "inputs": [],
      "name": "InvalidRequest",
      "type": "error"
    },
    {
      "inputs": [],
      "name": "MemberOnly",
      "type": "error"
    },
    {
      "inputs": [],
      "name": "NonMemberOnly",
      "type": "error"
    },
    {
      "inputs": [],
      "name": "TransactionFailed",
      "type": "error"
    },
    {
      "anonymous": false,
      "inputs": [
        {
          "indexed": false,
          "internalType": "uint8",
          "name": "version",
          "type": "uint8"
        }
      ],
      "name": "Initialized",
      "type": "event"
    },
    {
      "inputs": [
        {
          "internalType": "uint256",
          "name": "_requestID",
          "type": "uint256"
        }
      ],
      "name": "acceptInvitation",
      "outputs": [],
      "stateMutability": "nonpayable",
      "type": "function"
    },
    {
      "inputs": [
        {
          "internalType": "uint256",
          "name": "_requestID",
          "type": "uint256"
        }
      ],
      "name": "acceptRequest",
      "outputs": [],
      "stateMutability": "nonpayable",
      "type": "function"
    },
    {
      "inputs": [
        {
          "internalType": "uint256",
          "name": "_id",
          "type": "uint256"
        }
      ],
      "name": "checkMemberHasVotedById",
      "outputs": [
        {
          "internalType": "bool",
          "name": "",
          "type": "bool"
        }
      ],
      "stateMutability": "view",
      "type": "function"
    },
    {
      "inputs": [
        {
          "internalType": "uint256",
          "name": "_requestTypeIdx",
          "type": "uint256"
        },
        {
          "internalType": "uint160",
          "name": "_data",
          "type": "uint160"
        }
      ],
      "name": "createRequest",
      "outputs": [],
      "stateMutability": "nonpayable",
      "type": "function"
    },
    {
      "inputs": [
        {
          "internalType": "uint256",
          "name": "_id",
          "type": "uint256"
        }
      ],
      "name": "getRequestDetails",
      "outputs": [
        {
          "internalType": "address",
          "name": "",
          "type": "address"
        },
        {
          "internalType": "enum Voting.RequestTypes",
          "name": "",
          "type": "uint8"
        },
        {
          "internalType": "uint160",
          "name": "",
          "type": "uint160"
        },
        {
          "internalType": "enum Voting.InvitationState",
          "name": "",
          "type": "uint8"
        },
        {
          "internalType": "bool",
          "name": "",
          "type": "bool"
        },
        {
          "internalType": "uint256",
          "name": "",
          "type": "uint256"
        }
      ],
      "stateMutability": "view",
      "type": "function"
    },
    {
      "inputs": [
        {
          "internalType": "address",
          "name": "",
          "type": "address"
        }
      ],
      "name": "isMember",
      "outputs": [
        {
          "internalType": "bool",
          "name": "",
          "type": "bool"
        }
      ],
      "stateMutability": "view",
      "type": "function"
    },
    {
      "inputs": [],
      "name": "name",
      "outputs": [
        {
          "internalType": "string",
          "name": "",
          "type": "string"
        }
      ],
      "stateMutability": "view",
      "type": "function"
    },
    {
      "inputs": [
        {
          "internalType": "uint256",
          "name": "_requestID",
          "type": "uint256"
        }
      ],
      "name": "rejectInvitation",
      "outputs": [],
      "stateMutability": "nonpayable",
      "type": "function"
    },
    {
      "inputs": [],
      "name": "requestsCounter",
      "outputs": [
        {
          "internalType": "uint256",
          "name": "",
          "type": "uint256"
        }
      ],
      "stateMutability": "view",
      "type": "function"
    },
    {
      "inputs": [],
      "name": "walletsStorage",
      "outputs": [
        {
          "internalType": "contract SharedWalletStorage",
          "name": "",
          "type": "address"
        }
      ],
      "stateMutability": "view",
      "type": "function"
    },
    {
      "inputs": [
        {
          "internalType": "address",
          "name": "_creator",
          "type": "address"
        },
        {
          "internalType": "address",
          "name": "_walletsStorageAddress",
          "type": "address"
        },
        {
          "internalType": "string",
          "name": "_name",
          "type": "string"
        }
      ],
      "name": "initialize",
      "outputs": [],
      "stateMutability": "nonpayable",
      "type": "function"
    },
    {
      "inputs": [],
      "name": "members",
      "outputs": [
        {
          "internalType": "address[]",
          "name": "",
          "type": "address[]"
        }
      ],
      "stateMutability": "view",
      "type": "function"
    },
    {
      "inputs": [],
      "name": "leave",
      "outputs": [],
      "stateMutability": "nonpayable",
      "type": "function"
    },
    {
      "inputs": [],
      "name": "deposit",
      "outputs": [],
      "stateMutability": "payable",
      "type": "function"
    }
  ],
  "bytecode": "0x608060405234801561001057600080fd5b506001600381905550612fd2806100286000396000f3fe6080604052600436106100dd5760003560e01c8063a230c5241161007f578063c1c1da4011610059578063c1c1da40146102ac578063d0e30db0146102d5578063d66d9e19146102df578063f34d4c63146102f6576100dd565b8063a230c52414610219578063abcc915314610256578063bdd4d18d14610281576100dd565b80634ba1f098116100bb5780634ba1f0981461015f57806354ebcf9b146101885780635aa6bb3b146101c5578063663c2269146101ee576100dd565b806306fdde03146100e25780634571e3a61461010d578063464c5b6c14610136575b600080fd5b3480156100ee57600080fd5b506100f7610338565b604051610104919061253b565b60405180910390f35b34801561011957600080fd5b50610134600480360381019061012f9190612704565b6103c6565b005b34801561014257600080fd5b5061015d600480360381019061015891906127a9565b6105a5565b005b34801561016b57600080fd5b50610186600480360381019061018191906127a9565b610738565b005b34801561019457600080fd5b506101af60048036038101906101aa91906127a9565b61092c565b6040516101bc91906127f1565b60405180910390f35b3480156101d157600080fd5b506101ec60048036038101906101e791906127a9565b610995565b005b3480156101fa57600080fd5b50610203610b4c565b604051610210919061281b565b60405180910390f35b34801561022557600080fd5b50610240600480360381019061023b9190612836565b610b52565b60405161024d91906127f1565b60405180910390f35b34801561026257600080fd5b5061026b610b72565b60405161027891906128c2565b60405180910390f35b34801561028d57600080fd5b50610296610b98565b6040516102a3919061299b565b60405180910390f35b3480156102b857600080fd5b506102d360048036038101906102ce91906129e9565b610c26565b005b6102dd61101c565b005b3480156102eb57600080fd5b506102f461101e565b005b34801561030257600080fd5b5061031d600480360381019061031891906127a9565b61134e565b60405161032f96959493929190612b06565b60405180910390f35b6007805461034590612b96565b80601f016020809104026020016040519081016040528092919081815260200182805461037190612b96565b80156103be5780601f10610393576101008083540402835291602001916103be565b820191906000526020600020905b8154815290600101906020018083116103a157829003601f168201915b505050505081565b60006103d26001611408565b905080156103f6576001600260016101000a81548160ff0219169083151502179055505b600082511415610432576040517fb4fa3fb300000000000000000000000000000000000000000000000000000000815260040160405180910390fd5b82600460006101000a81548173ffffffffffffffffffffffffffffffffffffffff021916908373ffffffffffffffffffffffffffffffffffffffff1602179055506006849080600181540180825580915050600190039060005260206000200160009091909190916101000a81548173ffffffffffffffffffffffffffffffffffffffff021916908373ffffffffffffffffffffffffffffffffffffffff1602179055506001600560008673ffffffffffffffffffffffffffffffffffffffff1673ffffffffffffffffffffffffffffffffffffffff16815260200190815260200160002060006101000a81548160ff02191690831515021790555081600790805190602001906105449291906123ff565b50801561059f576000600260016101000a81548160ff0219169083151502179055507f7f26b83ff96e1f2b6a682f133852f6798a09c465da95921460cefb384740249860016040516105969190612c10565b60405180910390a15b50505050565b600060038111156105b9576105b8612a38565b5b60008083815260200190815260200160002060000160149054906101000a900460ff1660038111156105ee576105ed612a38565b5b14158061065c57503373ffffffffffffffffffffffffffffffffffffffff1660008083815260200190815260200160002060010160009054906101000a900473ffffffffffffffffffffffffffffffffffffffff1673ffffffffffffffffffffffffffffffffffffffff1614155b806106ae57506001600381111561067657610675612a38565b5b60008083815260200190815260200160002060010160149054906101000a900460ff1660038111156106ab576106aa612a38565b5b14155b156106e5576040517f41abc80100000000000000000000000000000000000000000000000000000000815260040160405180910390fd5b600260008083815260200190815260200160002060010160146101000a81548160ff0219169083600381111561071e5761071d612a38565b5b021790555061072c336114fc565b6107358161158c565b50565b600560003373ffffffffffffffffffffffffffffffffffffffff1673ffffffffffffffffffffffffffffffffffffffff16815260200190815260200160002060009054906101000a900460ff166107bb576040517f2727adbd00000000000000000000000000000000000000000000000000000000815260040160405180910390fd5b6001151560008083815260200190815260200160002060010160159054906101000a900460ff161515148061085357506001151560008083815260200190815260200160002060030160003373ffffffffffffffffffffffffffffffffffffffff1673ffffffffffffffffffffffffffffffffffffffff16815260200190815260200160002060009054906101000a900460ff161515145b1561088a576040517f41abc80100000000000000000000000000000000000000000000000000000000815260040160405180910390fd5b600160008083815260200190815260200160002060030160003373ffffffffffffffffffffffffffffffffffffffff1673ffffffffffffffffffffffffffffffffffffffff16815260200190815260200160002060006101000a81548160ff021916908315150217905550600080828152602001908152602001600020600201600081548092919061091b90612c5a565b91905055506109298161158c565b50565b600080600083815260200190815260200160002060030160003373ffffffffffffffffffffffffffffffffffffffff1673ffffffffffffffffffffffffffffffffffffffff16815260200190815260200160002060009054906101000a900460ff169050919050565b600060038111156109a9576109a8612a38565b5b60008083815260200190815260200160002060000160149054906101000a900460ff1660038111156109de576109dd612a38565b5b141580610a4c57503373ffffffffffffffffffffffffffffffffffffffff1660008083815260200190815260200160002060010160009054906101000a900473ffffffffffffffffffffffffffffffffffffffff1673ffffffffffffffffffffffffffffffffffffffff1614155b80610a9d575060016003811115610a6657610a65612a38565b5b60008083815260200190815260200160002060010160149054906101000a900460ff166003811115610a9b57610a9a612a38565b5b145b15610ad4576040517f41abc80100000000000000000000000000000000000000000000000000000000815260040160405180910390fd5b600360008083815260200190815260200160002060010160146101000a81548160ff02191690836003811115610b0d57610b0c612a38565b5b0217905550610b1b336114fc565b600160008083815260200190815260200160002060010160156101000a81548160ff02191690831515021790555050565b60015481565b60056020528060005260406000206000915054906101000a900460ff1681565b600460009054906101000a900473ffffffffffffffffffffffffffffffffffffffff1681565b60606006805480602002602001604051908101604052809291908181526020018280548015610c1c57602002820191906000526020600020905b8160009054906101000a900473ffffffffffffffffffffffffffffffffffffffff1673ffffffffffffffffffffffffffffffffffffffff1681526020019060010190808311610bd2575b5050505050905090565b600560003373ffffffffffffffffffffffffffffffffffffffff1673ffffffffffffffffffffffffffffffffffffffff16815260200190815260200160002060009054906101000a900460ff16610ca9576040517f2727adbd00000000000000000000000000000000000000000000000000000000815260040160405180910390fd5b600380811115610cbc57610cbb612a38565b5b821115610cf5576040517fb4fa3fb300000000000000000000000000000000000000000000000000000000815260040160405180910390fd5b60026003811115610d0957610d08612a38565b5b60ff1682148015610d68575060008173ffffffffffffffffffffffffffffffffffffffff16111580610d6757503073ffffffffffffffffffffffffffffffffffffffff16318173ffffffffffffffffffffffffffffffffffffffff16115b5b15610d9f576040517fb4fa3fb300000000000000000000000000000000000000000000000000000000815260040160405180910390fd5b600073ffffffffffffffffffffffffffffffffffffffff168173ffffffffffffffffffffffffffffffffffffffff161415610e06576040517fb4fa3fb300000000000000000000000000000000000000000000000000000000815260040160405180910390fd5b600080600060015481526020019081526020016000209050338160000160006101000a81548173ffffffffffffffffffffffffffffffffffffffff021916908373ffffffffffffffffffffffffffffffffffffffff160217905550826003811115610e7457610e73612a38565b5b8160000160146101000a81548160ff02191690836003811115610e9a57610e99612a38565b5b0217905550818160010160006101000a81548173ffffffffffffffffffffffffffffffffffffffff021916908373ffffffffffffffffffffffffffffffffffffffff1602179055506001816002018190555060018160030160003373ffffffffffffffffffffffffffffffffffffffff1673ffffffffffffffffffffffffffffffffffffffff16815260200190815260200160002060006101000a81548160ff0219169083151502179055506000600154905060006003811115610f6157610f60612a38565b5b8260000160149054906101000a900460ff166003811115610f8557610f84612a38565b5b1415610fc75760018260010160146101000a81548160ff02191690836003811115610fb357610fb2612a38565b5b0217905550610fc28382611753565b610ff5565b60008260010160146101000a81548160ff02191690836003811115610fef57610fee612a38565b5b02179055505b6001600081548092919061100890612c5a565b91905055506110168161158c565b50505050565b565b600560003373ffffffffffffffffffffffffffffffffffffffff1673ffffffffffffffffffffffffffffffffffffffff16815260200190815260200160002060009054906101000a900460ff166110a1576040517f2727adbd00000000000000000000000000000000000000000000000000000000815260040160405180910390fd5b6000600680548060200260200160405190810160405280929190818152602001828054801561112557602002820191906000526020600020905b8160009054906101000a900473ffffffffffffffffffffffffffffffffffffffff1673ffffffffffffffffffffffffffffffffffffffff16815260200190600101908083116110db575b5050505050905060005b8151811015611349573373ffffffffffffffffffffffffffffffffffffffff1682828151811061116257611161612ca3565b5b602002602001015173ffffffffffffffffffffffffffffffffffffffff1614156113365781600183516111959190612cd2565b815181106111a6576111a5612ca3565b5b6020026020010151600682815481106111c2576111c1612ca3565b5b9060005260206000200160006101000a81548173ffffffffffffffffffffffffffffffffffffffff021916908373ffffffffffffffffffffffffffffffffffffffff160217905550600680548061121c5761121b612d06565b5b6001900381819060005260206000200160006101000a81549073ffffffffffffffffffffffffffffffffffffffff02191690559055600560003373ffffffffffffffffffffffffffffffffffffffff1673ffffffffffffffffffffffffffffffffffffffff16815260200190815260200160002060006101000a81549060ff0219169055600460009054906101000a900473ffffffffffffffffffffffffffffffffffffffff1673ffffffffffffffffffffffffffffffffffffffff1663abfa796930336040518363ffffffff1660e01b81526004016112fd929190612d35565b600060405180830381600087803b15801561131757600080fd5b505af115801561132b573d6000803e3d6000fd5b50505050505061134c565b808061134190612c5a565b91505061112f565b50505b565b600080600080600080600080600089815260200190815260200160002090508060000160009054906101000a900473ffffffffffffffffffffffffffffffffffffffff168160000160149054906101000a900460ff168260010160009054906101000a900473ffffffffffffffffffffffffffffffffffffffff168360010160149054906101000a900460ff168460010160159054906101000a900460ff1685600201549650965096509650965096505091939550919395565b6000600260019054906101000a900460ff16156114805760018260ff161480156114385750611436306117e6565b155b611477576040517f08c379a000000000000000000000000000000000000000000000000000000000815260040161146e90612dd0565b60405180910390fd5b600090506114f7565b8160ff16600260009054906101000a900460ff1660ff16106114d7576040517f08c379a00000000000000000000000000000000000000000000000000000000081526004016114ce90612dd0565b60405180910390fd5b81600260006101000a81548160ff021916908360ff160217905550600190505b919050565b600460009054906101000a900473ffffffffffffffffffffffffffffffffffffffff1673ffffffffffffffffffffffffffffffffffffffff1663ad4600ee826040518263ffffffff1660e01b81526004016115579190612df0565b600060405180830381600087803b15801561157157600080fd5b505af1158015611585573d6000803e3d6000fd5b5050505050565b6000611596611809565b905080600080848152602001908152602001600020600201541480156116035750600060038111156115cb576115ca612a38565b5b60008084815260200190815260200160002060000160149054906101000a900460ff166003811115611600576115ff612a38565b5b14155b1561163b57600160008084815260200190815260200160002060010160156101000a81548160ff02191690831515021790555061171d565b80600080848152602001908152602001600020600201541480156116a557506000600381111561166e5761166d612a38565b5b60008084815260200190815260200160002060000160149054906101000a900460ff1660038111156116a3576116a2612a38565b5b145b80156116e85750600260008084815260200190815260200160002060010160149054906101000a900460ff1660038111156116e3576116e2612a38565b5b60ff16145b1561171c57600160008084815260200190815260200160002060010160156101000a81548160ff0219169083151502179055505b5b60008083815260200190815260200160002060010160159054906101000a900460ff161561174f5761174e8261182e565b5b5050565b600460009054906101000a900473ffffffffffffffffffffffffffffffffffffffff1673ffffffffffffffffffffffffffffffffffffffff1663d8a3bc5683836040518363ffffffff1660e01b81526004016117b0929190612e0b565b600060405180830381600087803b1580156117ca57600080fd5b505af11580156117de573d6000803e3d6000fd5b505050505050565b6000808273ffffffffffffffffffffffffffffffffffffffff163b119050919050565b60006001600260068054905061181f9190612e63565b6118299190612e94565b905090565b6000600381111561184257611841612a38565b5b60008083815260200190815260200160002060000160149054906101000a900460ff16600381111561187757611876612a38565b5b141561188b57611886816119a3565b6119a0565b6001600381111561189f5761189e612a38565b5b60008083815260200190815260200160002060000160149054906101000a900460ff1660038111156118d4576118d3612a38565b5b14156118e8576118e381611bc0565b61199f565b600260038111156118fc576118fb612a38565b5b60008083815260200190815260200160002060000160149054906101000a900460ff16600381111561193157611930612a38565b5b14156119455761194081611f40565b61199e565b60038081111561195857611957612a38565b5b60008083815260200190815260200160002060000160149054906101000a900460ff16600381111561198d5761198c612a38565b5b141561199d5761199c81612147565b5b5b5b5b50565b600080600083815260200190815260200160002090506119c481600061236b565b60008160010160009054906101000a900473ffffffffffffffffffffffffffffffffffffffff169050600560008273ffffffffffffffffffffffffffffffffffffffff1673ffffffffffffffffffffffffffffffffffffffff16815260200190815260200160002060009054906101000a900460ff1615611a71576040517fbf3e1bca00000000000000000000000000000000000000000000000000000000815260040160405180910390fd5b6006819080600181540180825580915050600190039060005260206000200160009091909190916101000a81548173ffffffffffffffffffffffffffffffffffffffff021916908373ffffffffffffffffffffffffffffffffffffffff1602179055506001600560008373ffffffffffffffffffffffffffffffffffffffff1673ffffffffffffffffffffffffffffffffffffffff16815260200190815260200160002060006101000a81548160ff021916908315150217905550600460009054906101000a900473ffffffffffffffffffffffffffffffffffffffff1673ffffffffffffffffffffffffffffffffffffffff166351efa3f430836040518363ffffffff1660e01b8152600401611b89929190612d35565b600060405180830381600087803b158015611ba357600080fd5b505af1158015611bb7573d6000803e3d6000fd5b50505050505050565b60008060008381526020019081526020016000209050611be181600161236b565b60008160010160009054906101000a900473ffffffffffffffffffffffffffffffffffffffff169050600560008273ffffffffffffffffffffffffffffffffffffffff1673ffffffffffffffffffffffffffffffffffffffff16815260200190815260200160002060009054906101000a900460ff1615611c8e576040517f2727adbd00000000000000000000000000000000000000000000000000000000815260040160405180910390fd5b60006006805480602002602001604051908101604052809291908181526020018280548015611d1257602002820191906000526020600020905b8160009054906101000a900473ffffffffffffffffffffffffffffffffffffffff1673ffffffffffffffffffffffffffffffffffffffff1681526020019060010190808311611cc8575b5050505050905060005b8151811015611f38578273ffffffffffffffffffffffffffffffffffffffff16828281518110611d4f57611d4e612ca3565b5b602002602001015173ffffffffffffffffffffffffffffffffffffffff161415611f25578160018351611d829190612cd2565b81518110611d9357611d92612ca3565b5b602002602001015160068281548110611daf57611dae612ca3565b5b9060005260206000200160006101000a81548173ffffffffffffffffffffffffffffffffffffffff021916908373ffffffffffffffffffffffffffffffffffffffff1602179055506006805480611e0957611e08612d06565b5b6001900381819060005260206000200160006101000a81549073ffffffffffffffffffffffffffffffffffffffff02191690559055600560008473ffffffffffffffffffffffffffffffffffffffff1673ffffffffffffffffffffffffffffffffffffffff16815260200190815260200160002060006101000a81549060ff0219169055600460009054906101000a900473ffffffffffffffffffffffffffffffffffffffff1673ffffffffffffffffffffffffffffffffffffffff1663abfa796930856040518363ffffffff1660e01b8152600401611eea929190612d35565b600060405180830381600087803b158015611f0457600080fd5b505af1158015611f18573d6000803e3d6000fd5b5050505050505050611f3d565b8080611f3090612c5a565b915050611d1c565b505050505b50565b60026003541415611f86576040517f08c379a0000000000000000000000000000000000000000000000000000000008152600401611f7d90612f36565b60405180910390fd5b600260038190555060008060008381526020019081526020016000209050611faf81600261236b565b3073ffffffffffffffffffffffffffffffffffffffff16318160010160009054906101000a900473ffffffffffffffffffffffffffffffffffffffff1673ffffffffffffffffffffffffffffffffffffffff1611612039576040517ff4d678b800000000000000000000000000000000000000000000000000000000815260040160405180910390fd5b60008160000160009054906101000a900473ffffffffffffffffffffffffffffffffffffffff1673ffffffffffffffffffffffffffffffffffffffff168260010160009054906101000a900473ffffffffffffffffffffffffffffffffffffffff1673ffffffffffffffffffffffffffffffffffffffff166040516120bd90612f87565b60006040518083038185875af1925050503d80600081146120fa576040519150601f19603f3d011682016040523d82523d6000602084013e6120ff565b606091505b505090508061213a576040517fbf961a2800000000000000000000000000000000000000000000000000000000815260040160405180910390fd5b5050600160038190555050565b6000806000838152602001908152602001600020905061216881600361236b565b600060068054806020026020016040519081016040528092919081815260200182805480156121ec57602002820191906000526020600020905b8160009054906101000a900473ffffffffffffffffffffffffffffffffffffffff1673ffffffffffffffffffffffffffffffffffffffff16815260200190600101908083116121a2575b5050505050905060005b815181101561232d5760006005600084848151811061221857612217612ca3565b5b602002602001015173ffffffffffffffffffffffffffffffffffffffff1673ffffffffffffffffffffffffffffffffffffffff16815260200190815260200160002060006101000a81548160ff021916908315150217905550600460009054906101000a900473ffffffffffffffffffffffffffffffffffffffff1673ffffffffffffffffffffffffffffffffffffffff1663abfa7969308484815181106122c3576122c2612ca3565b5b60200260200101516040518363ffffffff1660e01b81526004016122e8929190612d35565b600060405180830381600087803b15801561230257600080fd5b505af1158015612316573d6000803e3d6000fd5b50505050808061232590612c5a565b9150506121f6565b508160010160009054906101000a900473ffffffffffffffffffffffffffffffffffffffff1673ffffffffffffffffffffffffffffffffffffffff16ff5b80600381111561237e5761237d612a38565b5b8260000160149054906101000a900460ff1660038111156123a2576123a1612a38565b5b1415806123c45750600015158260010160159054906101000a900460ff161515145b156123fb576040517f41abc80100000000000000000000000000000000000000000000000000000000815260040160405180910390fd5b5050565b82805461240b90612b96565b90600052602060002090601f01602090048101928261242d5760008555612474565b82601f1061244657805160ff1916838001178555612474565b82800160010185558215612474579182015b82811115612473578251825591602001919060010190612458565b5b5090506124819190612485565b5090565b5b8082111561249e576000816000905550600101612486565b5090565b600081519050919050565b600082825260208201905092915050565b60005b838110156124dc5780820151818401526020810190506124c1565b838111156124eb576000848401525b50505050565b6000601f19601f8301169050919050565b600061250d826124a2565b61251781856124ad565b93506125278185602086016124be565b612530816124f1565b840191505092915050565b600060208201905081810360008301526125558184612502565b905092915050565b6000604051905090565b600080fd5b600080fd5b600073ffffffffffffffffffffffffffffffffffffffff82169050919050565b600061259c82612571565b9050919050565b6125ac81612591565b81146125b757600080fd5b50565b6000813590506125c9816125a3565b92915050565b600080fd5b600080fd5b7f4e487b7100000000000000000000000000000000000000000000000000000000600052604160045260246000fd5b612611826124f1565b810181811067ffffffffffffffff821117156126305761262f6125d9565b5b80604052505050565b600061264361255d565b905061264f8282612608565b919050565b600067ffffffffffffffff82111561266f5761266e6125d9565b5b612678826124f1565b9050602081019050919050565b82818337600083830152505050565b60006126a76126a284612654565b612639565b9050828152602081018484840111156126c3576126c26125d4565b5b6126ce848285612685565b509392505050565b600082601f8301126126eb576126ea6125cf565b5b81356126fb848260208601612694565b91505092915050565b60008060006060848603121561271d5761271c612567565b5b600061272b868287016125ba565b935050602061273c868287016125ba565b925050604084013567ffffffffffffffff81111561275d5761275c61256c565b5b612769868287016126d6565b9150509250925092565b6000819050919050565b61278681612773565b811461279157600080fd5b50565b6000813590506127a38161277d565b92915050565b6000602082840312156127bf576127be612567565b5b60006127cd84828501612794565b91505092915050565b60008115159050919050565b6127eb816127d6565b82525050565b600060208201905061280660008301846127e2565b92915050565b61281581612773565b82525050565b6000602082019050612830600083018461280c565b92915050565b60006020828403121561284c5761284b612567565b5b600061285a848285016125ba565b91505092915050565b6000819050919050565b600061288861288361287e84612571565b612863565b612571565b9050919050565b600061289a8261286d565b9050919050565b60006128ac8261288f565b9050919050565b6128bc816128a1565b82525050565b60006020820190506128d760008301846128b3565b92915050565b600081519050919050565b600082825260208201905092915050565b6000819050602082019050919050565b61291281612591565b82525050565b60006129248383612909565b60208301905092915050565b6000602082019050919050565b6000612948826128dd565b61295281856128e8565b935061295d836128f9565b8060005b8381101561298e5781516129758882612918565b975061298083612930565b925050600181019050612961565b5085935050505092915050565b600060208201905081810360008301526129b5818461293d565b905092915050565b6129c681612571565b81146129d157600080fd5b50565b6000813590506129e3816129bd565b92915050565b60008060408385031215612a00576129ff612567565b5b6000612a0e85828601612794565b9250506020612a1f858286016129d4565b9150509250929050565b612a3281612591565b82525050565b7f4e487b7100000000000000000000000000000000000000000000000000000000600052602160045260246000fd5b60048110612a7857612a77612a38565b5b50565b6000819050612a8982612a67565b919050565b6000612a9982612a7b565b9050919050565b612aa981612a8e565b82525050565b612ab881612571565b82525050565b60048110612acf57612ace612a38565b5b50565b6000819050612ae082612abe565b919050565b6000612af082612ad2565b9050919050565b612b0081612ae5565b82525050565b600060c082019050612b1b6000830189612a29565b612b286020830188612aa0565b612b356040830187612aaf565b612b426060830186612af7565b612b4f60808301856127e2565b612b5c60a083018461280c565b979650505050505050565b7f4e487b7100000000000000000000000000000000000000000000000000000000600052602260045260246000fd5b60006002820490506001821680612bae57607f821691505b60208210811415612bc257612bc1612b67565b5b50919050565b6000819050919050565b600060ff82169050919050565b6000612bfa612bf5612bf084612bc8565b612863565b612bd2565b9050919050565b612c0a81612bdf565b82525050565b6000602082019050612c256000830184612c01565b92915050565b7f4e487b7100000000000000000000000000000000000000000000000000000000600052601160045260246000fd5b6000612c6582612773565b91507fffffffffffffffffffffffffffffffffffffffffffffffffffffffffffffffff821415612c9857612c97612c2b565b5b600182019050919050565b7f4e487b7100000000000000000000000000000000000000000000000000000000600052603260045260246000fd5b6000612cdd82612773565b9150612ce883612773565b925082821015612cfb57612cfa612c2b565b5b828203905092915050565b7f4e487b7100000000000000000000000000000000000000000000000000000000600052603160045260246000fd5b6000604082019050612d4a6000830185612a29565b612d576020830184612a29565b9392505050565b7f496e697469616c697a61626c653a20636f6e747261637420697320616c72656160008201527f647920696e697469616c697a6564000000000000000000000000000000000000602082015250565b6000612dba602e836124ad565b9150612dc582612d5e565b604082019050919050565b60006020820190508181036000830152612de981612dad565b9050919050565b6000602082019050612e056000830184612a29565b92915050565b6000604082019050612e206000830185612a29565b612e2d602083018461280c565b9392505050565b7f4e487b7100000000000000000000000000000000000000000000000000000000600052601260045260246000fd5b6000612e6e82612773565b9150612e7983612773565b925082612e8957612e88612e34565b5b828204905092915050565b6000612e9f82612773565b9150612eaa83612773565b9250827fffffffffffffffffffffffffffffffffffffffffffffffffffffffffffffffff03821115612edf57612ede612c2b565b5b828201905092915050565b7f5265656e7472616e637947756172643a207265656e7472616e742063616c6c00600082015250565b6000612f20601f836124ad565b9150612f2b82612eea565b602082019050919050565b60006020820190508181036000830152612f4f81612f13565b9050919050565b600081905092915050565b50565b6000612f71600083612f56565b9150612f7c82612f61565b600082019050919050565b6000612f9282612f64565b915081905091905056fea26469706673582212203970523670ebc1c5936f37a66af54b26c73da36aa8beafb3187b69c893f3c4f964736f6c634300080c0033",
  "immutableReferences": {},
  "source": "//SPDX-License-Identifier: MIT\r\npragma solidity ^0.8.0;\r\n\r\nimport \"./Voting.sol\";\r\nimport \"./SharedWalletStorage.sol\";\r\nimport \"@openzeppelin/contracts/security/ReentrancyGuard.sol\";\r\nimport \"@openzeppelin/contracts/proxy/utils/Initializable.sol\";\r\n\r\nerror NonMemberOnly();\r\nerror InsufficientBalance();\r\nerror TransactionFailed();\r\n\r\ncontract SharedWallet is Voting, Initializable, ReentrancyGuard {\r\n    SharedWalletStorage public walletsStorage;\r\n    mapping(address => bool) public isMember;\r\n    address[] private _members;\r\n    string public name;\r\n\r\n    modifier onlyMember() override {\r\n        if (!isMember[msg.sender]) revert MemberOnly();\r\n        _;\r\n    }\r\n\r\n    function initialize(\r\n        address _creator,\r\n        address _walletsStorageAddress,\r\n        string memory _name\r\n    ) public virtual initializer {\r\n        if (bytes(_name).length == 0) revert InvalidInput();\r\n\r\n        walletsStorage = SharedWalletStorage(_walletsStorageAddress);\r\n        _members.push(_creator);\r\n        isMember[_creator] = true;\r\n        name = _name;\r\n    }\r\n\r\n    function members() public view returns (address[] memory) {\r\n        return _members;\r\n    }\r\n\r\n    function _addMember(uint256 _requestId) private {\r\n        Request storage request = _requests[_requestId];\r\n        _validateRequest(request, RequestTypes.AddMember);\r\n\r\n        address newMember = address(request.data);\r\n\r\n        if (isMember[newMember]) revert NonMemberOnly();\r\n        _members.push(newMember);\r\n        isMember[newMember] = true;\r\n        walletsStorage.addWalletToUser(address(this), newMember);\r\n    }\r\n\r\n    function _removeMember(uint256 _requestId) private {\r\n        Request storage request = _requests[_requestId];\r\n        _validateRequest(request, RequestTypes.RemoveMember);\r\n\r\n        address memberToRemove = address(request.data);\r\n\r\n        if (isMember[memberToRemove]) revert MemberOnly();\r\n\r\n        address[] memory m_members = _members;\r\n        for (uint256 i = 0; i < m_members.length; i++)\r\n            if (m_members[i] == memberToRemove) {\r\n                _members[i] = m_members[m_members.length - 1];\r\n                _members.pop();\r\n                delete isMember[memberToRemove];\r\n                walletsStorage.removeWalletForUser(\r\n                    address(this),\r\n                    memberToRemove\r\n                );\r\n                return;\r\n            }\r\n    }\r\n\r\n    function _withdraw(uint256 _requestId) private nonReentrant {\r\n        Request storage request = _requests[_requestId];\r\n        _validateRequest(request, RequestTypes.Withdraw);\r\n\r\n        if (request.data <= address(this).balance) revert InsufficientBalance();\r\n\r\n        (bool success, ) = payable(request.author).call{value: request.data}(\r\n            \"\"\r\n        );\r\n        if (!success) revert TransactionFailed();\r\n    }\r\n\r\n    function _destroy(uint256 _requestId) private {\r\n        Request storage request = _requests[_requestId];\r\n        _validateRequest(request, RequestTypes.Destroy);\r\n\r\n        address[] memory m_members = _members;\r\n        for (uint256 i; i < m_members.length; i++) {\r\n            isMember[m_members[i]] = false;\r\n            walletsStorage.removeWalletForUser(address(this), m_members[i]);\r\n        }\r\n\r\n        selfdestruct(payable(address(request.data)));\r\n    }\r\n\r\n    function leave() external onlyMember {\r\n        address[] memory m_members = _members;\r\n        for (uint256 i = 0; i < m_members.length; i++)\r\n            if (m_members[i] == msg.sender) {\r\n                _members[i] = m_members[m_members.length - 1];\r\n                _members.pop();\r\n                delete isMember[msg.sender];\r\n                walletsStorage.removeWalletForUser(address(this), msg.sender);\r\n                return;\r\n            }\r\n    }\r\n\r\n    function _executeRequest(uint256 _requestID) internal override {\r\n        if (_requests[_requestID].requestType == RequestTypes.AddMember)\r\n            _addMember(_requestID);\r\n        else if (_requests[_requestID].requestType == RequestTypes.RemoveMember)\r\n            _removeMember(_requestID);\r\n        else if (_requests[_requestID].requestType == RequestTypes.Withdraw)\r\n            _withdraw(_requestID);\r\n        else if (_requests[_requestID].requestType == RequestTypes.Destroy)\r\n            _destroy(_requestID);\r\n    }\r\n\r\n    function _validateRequest(\r\n        Request storage _request,\r\n        RequestTypes _requestType\r\n    ) private view {\r\n        if (_request.requestType != _requestType || _request.approved == false)\r\n            revert InvalidRequest();\r\n    }\r\n\r\n    function _sendInvitation(address _user, uint256 _requestId)\r\n        internal\r\n        override\r\n    {\r\n        walletsStorage.sendUserInvitation(_user, _requestId);\r\n    }\r\n\r\n    function _removeInvitation(address _user) internal override {\r\n        walletsStorage.removeUserInvitation(_user);\r\n    }\r\n\r\n    function _quorum() internal view override returns (uint256) {\r\n        return _members.length / 2 + 1;\r\n    }\r\n\r\n    function deposit() external payable {}\r\n}\r\n",
  "sourcePath": "C:\\Users\\home\\Documents\\GitHub\\ShareIt\\contracts\\SharedWallet.sol",
  "compiler": {
    "name": "solc",
    "version": "0.8.12+commit.f00d7308.Emscripten.clang"
  },
  "schemaVersion": "3.4.7",
  "updatedAt": "2022-05-22T22:01:21.768Z",
  "devdoc": {
    "kind": "dev",
    "methods": {},
    "version": 1
  },
  "userdoc": {
    "kind": "user",
    "methods": {},
    "version": 1
  }
}