{
  "contractName": "SharedWallet",
  "abi": [
    {
      "inputs": [
        {
          "internalType": "address",
          "name": "_creator",
          "type": "address"
        },
        {
          "internalType": "address",
          "name": "_walletsStorageAddress",
          "type": "address"
        }
      ],
      "stateMutability": "nonpayable",
      "type": "constructor"
    },
    {
      "inputs": [
        {
          "internalType": "uint256",
          "name": "_requestID",
          "type": "uint256"
        }
      ],
      "name": "acceptInvitation",
      "outputs": [],
      "stateMutability": "nonpayable",
      "type": "function"
    },
    {
      "inputs": [
        {
          "internalType": "uint256",
          "name": "_requestID",
          "type": "uint256"
        }
      ],
      "name": "acceptRequest",
      "outputs": [],
      "stateMutability": "nonpayable",
      "type": "function"
    },
    {
      "inputs": [
        {
          "internalType": "enum Voting.RequestTypes",
          "name": "_requestType",
          "type": "uint8"
        },
        {
          "internalType": "uint256",
          "name": "_value",
          "type": "uint256"
        },
        {
          "internalType": "address",
          "name": "_addr",
          "type": "address"
        }
      ],
      "name": "createRequest",
      "outputs": [
        {
          "internalType": "uint256",
          "name": "",
          "type": "uint256"
        }
      ],
      "stateMutability": "nonpayable",
      "type": "function"
    },
    {
      "inputs": [
        {
          "internalType": "address",
          "name": "",
          "type": "address"
        }
      ],
      "name": "isMember",
      "outputs": [
        {
          "internalType": "bool",
          "name": "",
          "type": "bool"
        }
      ],
      "stateMutability": "view",
      "type": "function"
    },
    {
      "inputs": [
        {
          "internalType": "uint256",
          "name": "",
          "type": "uint256"
        }
      ],
      "name": "members",
      "outputs": [
        {
          "internalType": "address",
          "name": "",
          "type": "address"
        }
      ],
      "stateMutability": "view",
      "type": "function"
    },
    {
      "inputs": [
        {
          "internalType": "uint256",
          "name": "",
          "type": "uint256"
        }
      ],
      "name": "requests",
      "outputs": [
        {
          "internalType": "address",
          "name": "author",
          "type": "address"
        },
        {
          "internalType": "enum Voting.RequestTypes",
          "name": "requestType",
          "type": "uint8"
        },
        {
          "internalType": "address",
          "name": "addr",
          "type": "address"
        },
        {
          "internalType": "uint256",
          "name": "value",
          "type": "uint256"
        },
        {
          "internalType": "bool",
          "name": "approved",
          "type": "bool"
        },
        {
          "internalType": "bool",
          "name": "accepted",
          "type": "bool"
        },
        {
          "internalType": "uint256",
          "name": "proVotersCount",
          "type": "uint256"
        }
      ],
      "stateMutability": "view",
      "type": "function"
    },
    {
      "inputs": [],
      "name": "requestsCounter",
      "outputs": [
        {
          "internalType": "uint256",
          "name": "",
          "type": "uint256"
        }
      ],
      "stateMutability": "view",
      "type": "function"
    },
    {
      "inputs": [],
      "name": "walletsStorage",
      "outputs": [
        {
          "internalType": "contract SharedWalletsStorage",
          "name": "",
          "type": "address"
        }
      ],
      "stateMutability": "view",
      "type": "function"
    },
    {
      "inputs": [],
      "name": "getMembers",
      "outputs": [
        {
          "internalType": "address[]",
          "name": "",
          "type": "address[]"
        }
      ],
      "stateMutability": "view",
      "type": "function"
    },
    {
      "inputs": [
        {
          "internalType": "uint256",
          "name": "_requestId",
          "type": "uint256"
        }
      ],
      "name": "addMember",
      "outputs": [
        {
          "internalType": "bool",
          "name": "",
          "type": "bool"
        }
      ],
      "stateMutability": "nonpayable",
      "type": "function"
    },
    {
      "inputs": [
        {
          "internalType": "uint256",
          "name": "_requestId",
          "type": "uint256"
        }
      ],
      "name": "removeMember",
      "outputs": [
        {
          "internalType": "bool",
          "name": "",
          "type": "bool"
        }
      ],
      "stateMutability": "nonpayable",
      "type": "function"
    },
    {
      "inputs": [
        {
          "internalType": "uint256",
          "name": "_requestId",
          "type": "uint256"
        }
      ],
      "name": "withdraw",
      "outputs": [
        {
          "internalType": "bool",
          "name": "",
          "type": "bool"
        }
      ],
      "stateMutability": "nonpayable",
      "type": "function"
    },
    {
      "inputs": [
        {
          "internalType": "uint256",
          "name": "_requestId",
          "type": "uint256"
        }
      ],
      "name": "destroy",
      "outputs": [
        {
          "internalType": "bool",
          "name": "",
          "type": "bool"
        }
      ],
      "stateMutability": "nonpayable",
      "type": "function"
    },
    {
      "inputs": [],
      "name": "deposit",
      "outputs": [],
      "stateMutability": "payable",
      "type": "function"
    }
  ],
  "bytecode": "0x60806040523480156200001157600080fd5b5060405162001d0f38038062001d0f833981810160405281019062000037919062000252565b80600260006101000a81548173ffffffffffffffffffffffffffffffffffffffff021916908373ffffffffffffffffffffffffffffffffffffffff1602179055506004829080600181540180825580915050600190039060005260206000200160009091909190916101000a81548173ffffffffffffffffffffffffffffffffffffffff021916908373ffffffffffffffffffffffffffffffffffffffff1602179055506001600360008473ffffffffffffffffffffffffffffffffffffffff1673ffffffffffffffffffffffffffffffffffffffff16815260200190815260200160002060006101000a81548160ff021916908315150217905550600260009054906101000a900473ffffffffffffffffffffffffffffffffffffffff1673ffffffffffffffffffffffffffffffffffffffff16634ab07122836040518263ffffffff167c0100000000000000000000000000000000000000000000000000000000028152600401620001ac9190620002aa565b600060405180830381600087803b158015620001c757600080fd5b505af1158015620001dc573d6000803e3d6000fd5b505050505050620002c7565b600080fd5b600073ffffffffffffffffffffffffffffffffffffffff82169050919050565b60006200021a82620001ed565b9050919050565b6200022c816200020d565b81146200023857600080fd5b50565b6000815190506200024c8162000221565b92915050565b600080604083850312156200026c576200026b620001e8565b5b60006200027c858286016200023b565b92505060206200028f858286016200023b565b9150509250929050565b620002a4816200020d565b82525050565b6000602082019050620002c1600083018462000299565b92915050565b611a3880620002d76000396000f3fe6080604052600436106100fa576000357c01000000000000000000000000000000000000000000000000000000009004806381d12c581161009c578063a1a74aae11610076578063a1a74aae1461031b578063a230c52414610358578063abcc915314610395578063d0e30db0146103c0576100fa565b806381d12c58146102705780639d118770146102b35780639eab5253146102f0576100fa565b80634ba1f098116100d85780634ba1f098146101a25780635daf08ca146101cb578063663c2269146102085780636fb8c99514610233576100fa565b80631089f5ed146100ff5780632e1a7d4d1461013c578063464c5b6c14610179575b600080fd5b34801561010b57600080fd5b5061012660048036038101906101219190611258565b6103ca565b60405161013391906112a0565b60405180910390f35b34801561014857600080fd5b50610163600480360381019061015e9190611258565b6105c6565b60405161017091906112a0565b60405180910390f35b34801561018557600080fd5b506101a0600480360381019061019b9190611258565b610651565b005b3480156101ae57600080fd5b506101c960048036038101906101c49190611258565b610778565b005b3480156101d757600080fd5b506101f260048036038101906101ed9190611258565b61090e565b6040516101ff91906112fc565b60405180910390f35b34801561021457600080fd5b5061021d61094d565b60405161022a9190611326565b60405180910390f35b34801561023f57600080fd5b5061025a60048036038101906102559190611392565b610953565b6040516102679190611326565b60405180910390f35b34801561027c57600080fd5b5061029760048036038101906102929190611258565b610be7565b6040516102aa979695949392919061145c565b60405180910390f35b3480156102bf57600080fd5b506102da60048036038101906102d59190611258565b610c90565b6040516102e791906112a0565b60405180910390f35b3480156102fc57600080fd5b50610305610cef565b6040516103129190611589565b60405180910390f35b34801561032757600080fd5b50610342600480360381019061033d9190611258565b610d7d565b60405161034f91906112a0565b60405180910390f35b34801561036457600080fd5b5061037f600480360381019061037a91906115ab565b610fec565b60405161038c91906112a0565b60405180910390f35b3480156103a157600080fd5b506103aa61100c565b6040516103b79190611637565b60405180910390f35b6103c8611032565b005b60008060008084815260200190815260200160002090506103ec816000611034565b60048160010160009054906101000a900473ffffffffffffffffffffffffffffffffffffffff169080600181540180825580915050600190039060005260206000200160009091909190916101000a81548173ffffffffffffffffffffffffffffffffffffffff021916908373ffffffffffffffffffffffffffffffffffffffff1602179055506001600360008360010160009054906101000a900473ffffffffffffffffffffffffffffffffffffffff1673ffffffffffffffffffffffffffffffffffffffff1673ffffffffffffffffffffffffffffffffffffffff16815260200190815260200160002060006101000a81548160ff021916908315150217905550600260009054906101000a900473ffffffffffffffffffffffffffffffffffffffff1673ffffffffffffffffffffffffffffffffffffffff16634ab071228260010160009054906101000a900473ffffffffffffffffffffffffffffffffffffffff166040518263ffffffff167c010000000000000000000000000000000000000000000000000000000002815260040161058a91906112fc565b600060405180830381600087803b1580156105a457600080fd5b505af11580156105b8573d6000803e3d6000fd5b505050506001915050919050565b60008060008084815260200190815260200160002090506105e8816002611034565b3073ffffffffffffffffffffffffffffffffffffffff16318160020154111561061057600080fd5b3373ffffffffffffffffffffffffffffffffffffffff166108fc82600201549081150290604051600060405180830381858888f19350505050915050919050565b60006003811115610665576106646113e5565b5b60008083815260200190815260200160002060000160149054906101000a900460ff16600381111561069a576106996113e5565b5b146106da576040517f08c379a00000000000000000000000000000000000000000000000000000000081526004016106d1906116af565b60405180910390fd5b3373ffffffffffffffffffffffffffffffffffffffff1660008083815260200190815260200160002060010160009054906101000a900473ffffffffffffffffffffffffffffffffffffffff1673ffffffffffffffffffffffffffffffffffffffff161461074757600080fd5b600160008083815260200190815260200160002060030160016101000a81548160ff02191690831515021790555050565b600360003373ffffffffffffffffffffffffffffffffffffffff1673ffffffffffffffffffffffffffffffffffffffff16815260200190815260200160002060009054906101000a900460ff166107ce57600080fd5b6000151560008083815260200190815260200160002060050160003373ffffffffffffffffffffffffffffffffffffffff1673ffffffffffffffffffffffffffffffffffffffff16815260200190815260200160002060009054906101000a900460ff16151514610874576040517f08c379a000000000000000000000000000000000000000000000000000000000815260040161086b9061171b565b60405180910390fd5b6001151560008083815260200190815260200160002060050160003373ffffffffffffffffffffffffffffffffffffffff1673ffffffffffffffffffffffffffffffffffffffff16815260200190815260200160002060009054906101000a9050505060008082815260200190815260200160002060040160008154809291906108fd9061176a565b919050555061090b81611199565b50565b6004818154811061091e57600080fd5b906000526020600020016000915054906101000a900473ffffffffffffffffffffffffffffffffffffffff1681565b60015481565b6000600360003373ffffffffffffffffffffffffffffffffffffffff1673ffffffffffffffffffffffffffffffffffffffff16815260200190815260200160002060009054906101000a900460ff166109ab57600080fd5b60038460038111156109c0576109bf6113e5565b5b1115610a01576040517f08c379a00000000000000000000000000000000000000000000000000000000081526004016109f8906117ff565b60405180910390fd5b60026003811115610a1557610a146113e5565b5b846003811115610a2857610a276113e5565b5b1415610a7a576000831015610a3c57600080fd5b600073ffffffffffffffffffffffffffffffffffffffff168273ffffffffffffffffffffffffffffffffffffffff1614610a7557600080fd5b610ac2565b60008314610a8757600080fd5b600073ffffffffffffffffffffffffffffffffffffffff168273ffffffffffffffffffffffffffffffffffffffff161415610ac157600080fd5b5b600080600060015481526020019081526020016000209050338160000160006101000a81548173ffffffffffffffffffffffffffffffffffffffff021916908373ffffffffffffffffffffffffffffffffffffffff160217905550848160000160146101000a81548160ff02191690836003811115610b4457610b436113e5565b5b0217905550828160010160006101000a81548173ffffffffffffffffffffffffffffffffffffffff021916908373ffffffffffffffffffffffffffffffffffffffff1602179055508381600201819055506001816004018190555060008160030160006101000a81548160ff0219169083151502179055506000600154905060016000815480929190610bd69061176a565b919050555080925050509392505050565b60006020528060005260406000206000915090508060000160009054906101000a900473ffffffffffffffffffffffffffffffffffffffff16908060000160149054906101000a900460ff16908060010160009054906101000a900473ffffffffffffffffffffffffffffffffffffffff16908060020154908060030160009054906101000a900460ff16908060030160019054906101000a900460ff16908060040154905087565b6000806000808481526020019081526020016000209050610cb2816003611034565b8060010160009054906101000a900473ffffffffffffffffffffffffffffffffffffffff1673ffffffffffffffffffffffffffffffffffffffff16ff5b60606004805480602002602001604051908101604052809291908181526020018280548015610d7357602002820191906000526020600020905b8160009054906101000a900473ffffffffffffffffffffffffffffffffffffffff1673ffffffffffffffffffffffffffffffffffffffff1681526020019060010190808311610d29575b5050505050905090565b6000806000808481526020019081526020016000209050610d9f816001611034565b60005b600480549050811015610fe0578160010160009054906101000a900473ffffffffffffffffffffffffffffffffffffffff1673ffffffffffffffffffffffffffffffffffffffff1660048281548110610dfe57610dfd61181f565b5b9060005260206000200160009054906101000a900473ffffffffffffffffffffffffffffffffffffffff1673ffffffffffffffffffffffffffffffffffffffff161415610fcd57600060048281548110610e5b57610e5a61181f565b5b9060005260206000200160009054906101000a900473ffffffffffffffffffffffffffffffffffffffff16905060048281548110610e9c57610e9b61181f565b5b9060005260206000200160006101000a81549073ffffffffffffffffffffffffffffffffffffffff0219169055600360008273ffffffffffffffffffffffffffffffffffffffff1673ffffffffffffffffffffffffffffffffffffffff16815260200190815260200160002060006101000a81549060ff0219169055600260009054906101000a900473ffffffffffffffffffffffffffffffffffffffff1673ffffffffffffffffffffffffffffffffffffffff1663e22972f2826040518263ffffffff167c0100000000000000000000000000000000000000000000000000000000028152600401610f8f91906112fc565b600060405180830381600087803b158015610fa957600080fd5b505af1158015610fbd573d6000803e3d6000fd5b5050505060019350505050610fe7565b8080610fd89061176a565b915050610da2565b5060009150505b919050565b60036020528060005260406000206000915054906101000a900460ff1681565b600260009054906101000a900473ffffffffffffffffffffffffffffffffffffffff1681565b565b3373ffffffffffffffffffffffffffffffffffffffff168260000160009054906101000a900473ffffffffffffffffffffffffffffffffffffffff1673ffffffffffffffffffffffffffffffffffffffff16146110c6576040517f08c379a00000000000000000000000000000000000000000000000000000000081526004016110bd906118c0565b60405180910390fd5b600115158260030160009054906101000a900460ff1615151461111e576040517f08c379a00000000000000000000000000000000000000000000000000000000081526004016111159061192c565b60405180910390fd5b806003811115611131576111306113e5565b5b8260000160149054906101000a900460ff166003811115611155576111546113e5565b5b14611195576040517f08c379a000000000000000000000000000000000000000000000000000000000815260040161118c906116af565b60405180910390fd5b5050565b60006111a96004805490506111fb565b9050806000808481526020019081526020016000206004015414156111f757600160008084815260200190815260200160002060030160006101000a81548160ff0219169083151502179055505b5050565b6000600160028361120c919061197b565b61121691906119ac565b9050919050565b600080fd5b6000819050919050565b61123581611222565b811461124057600080fd5b50565b6000813590506112528161122c565b92915050565b60006020828403121561126e5761126d61121d565b5b600061127c84828501611243565b91505092915050565b60008115159050919050565b61129a81611285565b82525050565b60006020820190506112b56000830184611291565b92915050565b600073ffffffffffffffffffffffffffffffffffffffff82169050919050565b60006112e6826112bb565b9050919050565b6112f6816112db565b82525050565b600060208201905061131160008301846112ed565b92915050565b61132081611222565b82525050565b600060208201905061133b6000830184611317565b92915050565b6004811061134e57600080fd5b50565b60008135905061136081611341565b92915050565b61136f816112db565b811461137a57600080fd5b50565b60008135905061138c81611366565b92915050565b6000806000606084860312156113ab576113aa61121d565b5b60006113b986828701611351565b93505060206113ca86828701611243565b92505060406113db8682870161137d565b9150509250925092565b7f4e487b7100000000000000000000000000000000000000000000000000000000600052602160045260246000fd5b60048110611425576114246113e5565b5b50565b600081905061143682611414565b919050565b600061144682611428565b9050919050565b6114568161143b565b82525050565b600060e082019050611471600083018a6112ed565b61147e602083018961144d565b61148b60408301886112ed565b6114986060830187611317565b6114a56080830186611291565b6114b260a0830185611291565b6114bf60c0830184611317565b98975050505050505050565b600081519050919050565b600082825260208201905092915050565b6000819050602082019050919050565b611500816112db565b82525050565b600061151283836114f7565b60208301905092915050565b6000602082019050919050565b6000611536826114cb565b61154081856114d6565b935061154b836114e7565b8060005b8381101561157c5781516115638882611506565b975061156e8361151e565b92505060018101905061154f565b5085935050505092915050565b600060208201905081810360008301526115a3818461152b565b905092915050565b6000602082840312156115c1576115c061121d565b5b60006115cf8482850161137d565b91505092915050565b6000819050919050565b60006115fd6115f86115f3846112bb565b6115d8565b6112bb565b9050919050565b600061160f826115e2565b9050919050565b600061162182611604565b9050919050565b61163181611616565b82525050565b600060208201905061164c6000830184611628565b92915050565b600082825260208201905092915050565b7f57726f6e67207265717565737420696421000000000000000000000000000000600082015250565b6000611699601183611652565b91506116a482611663565b602082019050919050565b600060208201905081810360008301526116c88161168c565b9050919050565b7f416c726561647920766f74656420746f20746869732072657175657374210000600082015250565b6000611705601e83611652565b9150611710826116cf565b602082019050919050565b60006020820190508181036000830152611734816116f8565b9050919050565b7f4e487b7100000000000000000000000000000000000000000000000000000000600052601160045260246000fd5b600061177582611222565b91507fffffffffffffffffffffffffffffffffffffffffffffffffffffffffffffffff8214156117a8576117a761173b565b5b600182019050919050565b7f496e76616c696420726571756573742074797065210000000000000000000000600082015250565b60006117e9601583611652565b91506117f4826117b3565b602082019050919050565b60006020820190508181036000830152611818816117dc565b9050919050565b7f4e487b7100000000000000000000000000000000000000000000000000000000600052603260045260246000fd5b7f596f7520617265206e6f742074686520617574686f72206f662074686973207260008201527f6571756573742100000000000000000000000000000000000000000000000000602082015250565b60006118aa602783611652565b91506118b58261184e565b604082019050919050565b600060208201905081810360008301526118d98161189d565b9050919050565b7f52657175657374206973206e6f7420617070726f766564207965742100000000600082015250565b6000611916601c83611652565b9150611921826118e0565b602082019050919050565b6000602082019050818103600083015261194581611909565b9050919050565b7f4e487b7100000000000000000000000000000000000000000000000000000000600052601260045260246000fd5b600061198682611222565b915061199183611222565b9250826119a1576119a061194c565b5b828204905092915050565b60006119b782611222565b91506119c283611222565b9250827fffffffffffffffffffffffffffffffffffffffffffffffffffffffffffffffff038211156119f7576119f661173b565b5b82820190509291505056fea26469706673582212206364ba60ab6313e64ac3458caf47d8e7c5154ab612a79038a746d6e7a8ca199164736f6c634300080c0033",
  "immutableReferences": {},
  "source": "//SPDX-License-Identifier: MIT\r\npragma solidity ^0.8.0;\r\n\r\nimport \"./Voting.sol\";\r\nimport \"./SharedWalletsStorage.sol\";\r\n\r\ncontract SharedWallet is Voting {\r\n    SharedWalletsStorage public walletsStorage;\r\n    mapping(address => bool) public isMember;\r\n    address[] public members;\r\n\r\n    modifier onlyMember() override {\r\n        require(isMember[msg.sender]);\r\n        _;\r\n    }\r\n\r\n    constructor(\r\n        address _creator,\r\n        address _walletsStorageAddress\r\n    ) {\r\n        walletsStorage = SharedWalletsStorage(_walletsStorageAddress);\r\n\r\n        members.push(_creator);\r\n        isMember[_creator] = true;\r\n        walletsStorage.addWalletToUser(_creator);\r\n    }\r\n\r\n    function getMembers() public view returns (address[] memory) {\r\n        return members;\r\n    }\r\n\r\n    function addMember(uint256 _requestId) external returns (bool) {\r\n        Request storage request = requests[_requestId];\r\n        _validateRequest(request, RequestTypes.AddMember);\r\n\r\n        members.push(request.addr);\r\n        isMember[request.addr] = true;\r\n        walletsStorage.addWalletToUser(request.addr);\r\n        return true;\r\n    }\r\n\r\n    function removeMember(uint256 _requestId) external returns (bool) {\r\n        Request storage request = requests[_requestId];\r\n        _validateRequest(request, RequestTypes.RemoveMember);\r\n\r\n        for (uint256 i = 0; i < members.length; i++)\r\n            if (members[i] == request.addr) {\r\n                address deletedMember = members[i];\r\n                delete members[i];\r\n                delete isMember[deletedMember];\r\n                walletsStorage.removeWalletForUser(deletedMember);\r\n                return true;\r\n            }\r\n\r\n        return false;\r\n    }\r\n\r\n    function withdraw(uint256 _requestId) external returns (bool) {\r\n        Request storage request = requests[_requestId];\r\n        _validateRequest(request, RequestTypes.Withdraw);\r\n\r\n        require(request.value <= address(this).balance);\r\n\r\n        return payable(msg.sender).send(request.value);\r\n    }\r\n\r\n    function destroy(uint256 _requestId) external returns (bool) {\r\n        Request storage request = requests[_requestId];\r\n        _validateRequest(request, RequestTypes.Destroy);\r\n\r\n        selfdestruct(payable(request.addr));\r\n        return true;\r\n    }\r\n\r\n    function deposit() external payable {\r\n        \r\n    }\r\n\r\n    function _tryApproveRequest(uint256 _requestID) internal override {\r\n        uint256 goal = _getMajority(members.length);\r\n        if (requests[_requestID].proVotersCount == goal)\r\n            requests[_requestID].approved = true;\r\n    }\r\n\r\n    function _validateRequest(\r\n        Request storage _request,\r\n        RequestTypes _requestType\r\n    ) private view {\r\n        require(\r\n            _request.author == msg.sender,\r\n            \"You are not the author of this request!\"\r\n        );\r\n        require(_request.approved == true, \"Request is not approved yet!\");\r\n        require(_request.requestType == _requestType, \"Wrong request id!\");\r\n    }\r\n\r\n}\r\n",
  "sourcePath": "C:\\Users\\Joro\\Documents\\GitHub\\ShareIt\\contracts\\SharedWallet.sol",
  "compiler": {
    "name": "solc",
    "version": "0.8.12+commit.f00d7308.Emscripten.clang"
  },
  "schemaVersion": "3.4.6",
  "updatedAt": "2022-03-24T21:19:14.499Z",
  "devdoc": {
    "kind": "dev",
    "methods": {},
    "version": 1
  },
  "userdoc": {
    "kind": "user",
    "methods": {},
    "version": 1
  }
}