{
  "contractName": "SharedWalletFactory",
  "abi": [
    {
      "inputs": [],
      "stateMutability": "nonpayable",
      "type": "constructor"
    },
    {
      "inputs": [],
      "name": "lastWalletCreated",
      "outputs": [
        {
          "internalType": "address",
          "name": "",
          "type": "address"
        }
      ],
      "stateMutability": "view",
      "type": "function",
      "constant": true
    },
    {
      "inputs": [],
      "name": "walletsStorage",
      "outputs": [
        {
          "internalType": "address",
          "name": "",
          "type": "address"
        }
      ],
      "stateMutability": "view",
      "type": "function",
      "constant": true
    },
    {
      "inputs": [
        {
          "internalType": "string",
          "name": "_name",
          "type": "string"
        }
      ],
      "name": "createNewSharedWallet",
      "outputs": [],
      "stateMutability": "nonpayable",
      "type": "function"
    }
  ],
  "bytecode": "0x608060405234801561001057600080fd5b5060405161001d9061007e565b604051809103906000f080158015610039573d6000803e3d6000fd5b506000806101000a81548173ffffffffffffffffffffffffffffffffffffffff021916908373ffffffffffffffffffffffffffffffffffffffff16021790555061008b565b611513806137f983390190565b61375f8061009a6000396000f3fe60806040523480156200001157600080fd5b506004361062000063576000357c0100000000000000000000000000000000000000000000000000000000900480637ebe89c414620000685780639f21f9e4146200008a578063abcc915314620000aa575b600080fd5b62000072620000cc565b604051620000819190620002c5565b60405180910390f35b620000a86004803603810190620000a2919062000458565b620000f6565b005b620000b462000249565b604051620000c39190620002c5565b60405180910390f35b6000600160009054906101000a900473ffffffffffffffffffffffffffffffffffffffff16905090565b60003360008054906101000a900473ffffffffffffffffffffffffffffffffffffffff1683604051620001299062000272565b62000137939291906200053c565b604051809103906000f08015801562000154573d6000803e3d6000fd5b50905060008054906101000a900473ffffffffffffffffffffffffffffffffffffffff1673ffffffffffffffffffffffffffffffffffffffff166351efa3f482336040518363ffffffff167c0100000000000000000000000000000000000000000000000000000000028152600401620001d092919062000580565b600060405180830381600087803b158015620001eb57600080fd5b505af115801562000200573d6000803e3d6000fd5b5050505080600160006101000a81548173ffffffffffffffffffffffffffffffffffffffff021916908373ffffffffffffffffffffffffffffffffffffffff1602179055505050565b60008060009054906101000a900473ffffffffffffffffffffffffffffffffffffffff16905090565b61317c80620005ae83390190565b600073ffffffffffffffffffffffffffffffffffffffff82169050919050565b6000620002ad8262000280565b9050919050565b620002bf81620002a0565b82525050565b6000602082019050620002dc6000830184620002b4565b92915050565b6000604051905090565b600080fd5b600080fd5b600080fd5b600080fd5b6000601f19601f8301169050919050565b7f4e487b7100000000000000000000000000000000000000000000000000000000600052604160045260246000fd5b6200034b8262000300565b810181811067ffffffffffffffff821117156200036d576200036c62000311565b5b80604052505050565b600062000382620002e2565b905062000390828262000340565b919050565b600067ffffffffffffffff821115620003b357620003b262000311565b5b620003be8262000300565b9050602081019050919050565b82818337600083830152505050565b6000620003f1620003eb8462000395565b62000376565b90508281526020810184848401111562000410576200040f620002fb565b5b6200041d848285620003cb565b509392505050565b600082601f8301126200043d576200043c620002f6565b5b81356200044f848260208601620003da565b91505092915050565b600060208284031215620004715762000470620002ec565b5b600082013567ffffffffffffffff811115620004925762000491620002f1565b5b620004a08482850162000425565b91505092915050565b600081519050919050565b600082825260208201905092915050565b60005b83811015620004e5578082015181840152602081019050620004c8565b83811115620004f5576000848401525b50505050565b60006200050882620004a9565b620005148185620004b4565b935062000526818560208601620004c5565b620005318162000300565b840191505092915050565b6000606082019050620005536000830186620002b4565b620005626020830185620002b4565b8181036040830152620005768184620004fb565b9050949350505050565b6000604082019050620005976000830185620002b4565b620005a66020830184620002b4565b939250505056fe60806040523480156200001157600080fd5b506040516200317c3803806200317c833981810160405281019062000037919062000417565b6000815114156200004757600080fd5b81600260006101000a81548173ffffffffffffffffffffffffffffffffffffffff021916908373ffffffffffffffffffffffffffffffffffffffff1602179055506004839080600181540180825580915050600190039060005260206000200160009091909190916101000a81548173ffffffffffffffffffffffffffffffffffffffff021916908373ffffffffffffffffffffffffffffffffffffffff1602179055506001600360008573ffffffffffffffffffffffffffffffffffffffff1673ffffffffffffffffffffffffffffffffffffffff16815260200190815260200160002060006101000a81548160ff02191690831515021790555080600590805190602001906200015b92919062000165565b50505050620004f7565b8280546200017390620004c1565b90600052602060002090601f016020900481019282620001975760008555620001e3565b82601f10620001b257805160ff1916838001178555620001e3565b82800160010185558215620001e3579182015b82811115620001e2578251825591602001919060010190620001c5565b5b509050620001f29190620001f6565b5090565b5b8082111562000211576000816000905550600101620001f7565b5090565b6000604051905090565b600080fd5b600080fd5b600073ffffffffffffffffffffffffffffffffffffffff82169050919050565b6000620002568262000229565b9050919050565b620002688162000249565b81146200027457600080fd5b50565b60008151905062000288816200025d565b92915050565b600080fd5b600080fd5b6000601f19601f8301169050919050565b7f4e487b7100000000000000000000000000000000000000000000000000000000600052604160045260246000fd5b620002e38262000298565b810181811067ffffffffffffffff82111715620003055762000304620002a9565b5b80604052505050565b60006200031a62000215565b9050620003288282620002d8565b919050565b600067ffffffffffffffff8211156200034b576200034a620002a9565b5b620003568262000298565b9050602081019050919050565b60005b838110156200038357808201518184015260208101905062000366565b8381111562000393576000848401525b50505050565b6000620003b0620003aa846200032d565b6200030e565b905082815260208101848484011115620003cf57620003ce62000293565b5b620003dc84828562000363565b509392505050565b600082601f830112620003fc57620003fb6200028e565b5b81516200040e84826020860162000399565b91505092915050565b6000806000606084860312156200043357620004326200021f565b5b6000620004438682870162000277565b9350506020620004568682870162000277565b925050604084015167ffffffffffffffff8111156200047a576200047962000224565b5b6200048886828701620003e4565b9150509250925092565b7f4e487b7100000000000000000000000000000000000000000000000000000000600052602260045260246000fd5b60006002820490506001821680620004da57607f821691505b60208210811415620004f157620004f062000492565b5b50919050565b612c7580620005076000396000f3fe608060405260043610610131576000357c01000000000000000000000000000000000000000000000000000000009004806370a26c23116100bd578063bdd4d18d11610081578063bdd4d18d1461041a578063c1c1da4014610445578063d0e30db01461046e578063d66d9e1914610478578063ea3ca2221461048f57610131565b806370a26c23146102fb578063718d31d914610338578063a230c52414610375578063abcc9153146103b2578063ad207e16146103dd57610131565b80634ba1f098116101045780634ba1f0981461020457806354ebcf9b1461022d578063553da43e1461026a5780635aa6bb3b146102a7578063663c2269146102d057610131565b806306fdde0314610136578063158dfe3b146101615780632faa36681461019e578063464c5b6c146101db575b600080fd5b34801561014257600080fd5b5061014b6104cc565b60405161015891906122ec565b60405180910390f35b34801561016d57600080fd5b5061018860048036038101906101839190612349565b61055e565b60405161019591906123b7565b60405180910390f35b3480156101aa57600080fd5b506101c560048036038101906101c09190612349565b6105f1565b6040516101d291906123ed565b60405180910390f35b3480156101e757600080fd5b5061020260048036038101906101fd9190612349565b61061d565b005b34801561021057600080fd5b5061022b60048036038101906102269190612349565b6107ef565b005b34801561023957600080fd5b50610254600480360381019061024f9190612349565b6109f6565b60405161026191906123ed565b60405180910390f35b34801561027657600080fd5b50610291600480360381019061028c9190612349565b610a5f565b60405161029e919061247f565b60405180910390f35b3480156102b357600080fd5b506102ce60048036038101906102c99190612349565b610a8b565b005b3480156102dc57600080fd5b506102e5610c82565b6040516102f291906124a9565b60405180910390f35b34801561030757600080fd5b50610322600480360381019061031d9190612349565b610c8c565b60405161032f91906123b7565b60405180910390f35b34801561034457600080fd5b5061035f600480360381019061035a9190612349565b610ccb565b60405161036c91906124e0565b60405180910390f35b34801561038157600080fd5b5061039c60048036038101906103979190612527565b610d09565b6040516103a991906123ed565b60405180910390f35b3480156103be57600080fd5b506103c7610d5f565b6040516103d491906125b3565b60405180910390f35b3480156103e957600080fd5b5061040460048036038101906103ff9190612349565b610d89565b60405161041191906124a9565b60405180910390f35b34801561042657600080fd5b5061042f610da8565b60405161043c919061268c565b60405180910390f35b34801561045157600080fd5b5061046c600480360381019061046791906126da565b610e36565b005b6104766111b1565b005b34801561048457600080fd5b5061048d6111b3565b005b34801561049b57600080fd5b506104b660048036038101906104b19190612349565b611451565b6040516104c39190612729565b60405180910390f35b6060600580546104db90612773565b80601f016020809104026020016040519081016040528092919081815260200182805461050790612773565b80156105545780601f1061052957610100808354040283529160200191610554565b820191906000526020600020905b81548152906001019060200180831161053757829003601f168201915b5050505050905090565b60006002600381111561057457610573612408565b5b60008084815260200190815260200160002060000160149054906101000a900460ff1660038111156105a9576105a8612408565b5b14156105b457600080fd5b60008083815260200190815260200160002060010160009054906101000a900473ffffffffffffffffffffffffffffffffffffffff169050919050565b600080600083815260200190815260200160002060010160159054906101000a900460ff169050919050565b6000600381111561063157610630612408565b5b60008083815260200190815260200160002060000160149054906101000a900460ff16600381111561066657610665612408565b5b146106a6576040517f08c379a000000000000000000000000000000000000000000000000000000000815260040161069d906127f1565b60405180910390fd5b3373ffffffffffffffffffffffffffffffffffffffff1660008083815260200190815260200160002060010160009054906101000a900473ffffffffffffffffffffffffffffffffffffffff1673ffffffffffffffffffffffffffffffffffffffff161461071357600080fd5b6001600381111561072757610726612408565b5b60008083815260200190815260200160002060010160149054906101000a900460ff16600381111561075c5761075b612408565b5b1461079c576040517f08c379a00000000000000000000000000000000000000000000000000000000081526004016107939061285d565b60405180910390fd5b600260008083815260200190815260200160002060010160146101000a81548160ff021916908360038111156107d5576107d4612408565b5b02179055506107e3336114e3565b6107ec8161158f565b50565b600360003373ffffffffffffffffffffffffffffffffffffffff1673ffffffffffffffffffffffffffffffffffffffff16815260200190815260200160002060009054906101000a900460ff1661084557600080fd5b6000151560008083815260200190815260200160002060010160159054906101000a900460ff161515146108ae576040517f08c379a00000000000000000000000000000000000000000000000000000000081526004016108a5906128c9565b60405180910390fd5b6000151560008083815260200190815260200160002060030160003373ffffffffffffffffffffffffffffffffffffffff1673ffffffffffffffffffffffffffffffffffffffff16815260200190815260200160002060009054906101000a900460ff16151514610954576040517f08c379a000000000000000000000000000000000000000000000000000000000815260040161094b90612935565b60405180910390fd5b600160008083815260200190815260200160002060030160003373ffffffffffffffffffffffffffffffffffffffff1673ffffffffffffffffffffffffffffffffffffffff16815260200190815260200160002060006101000a81548160ff02191690831515021790555060008082815260200190815260200160002060020160008154809291906109e590612984565b91905055506109f38161158f565b50565b600080600083815260200190815260200160002060030160003373ffffffffffffffffffffffffffffffffffffffff1673ffffffffffffffffffffffffffffffffffffffff16815260200190815260200160002060009054906101000a900460ff169050919050565b600080600083815260200190815260200160002060000160149054906101000a900460ff169050919050565b60006003811115610a9f57610a9e612408565b5b60008083815260200190815260200160002060000160149054906101000a900460ff166003811115610ad457610ad3612408565b5b14610b14576040517f08c379a0000000000000000000000000000000000000000000000000000000008152600401610b0b906127f1565b60405180910390fd5b3373ffffffffffffffffffffffffffffffffffffffff1660008083815260200190815260200160002060010160009054906101000a900473ffffffffffffffffffffffffffffffffffffffff1673ffffffffffffffffffffffffffffffffffffffff1614610b8157600080fd5b60016003811115610b9557610b94612408565b5b60008083815260200190815260200160002060010160149054906101000a900460ff166003811115610bca57610bc9612408565b5b14610c0a576040517f08c379a0000000000000000000000000000000000000000000000000000000008152600401610c019061285d565b60405180910390fd5b600360008083815260200190815260200160002060010160146101000a81548160ff02191690836003811115610c4357610c42612408565b5b0217905550610c51336114e3565b600160008083815260200190815260200160002060010160156101000a81548160ff02191690831515021790555050565b6000600154905090565b600080600083815260200190815260200160002060000160009054906101000a900473ffffffffffffffffffffffffffffffffffffffff169050919050565b600080600083815260200190815260200160002060010160149054906101000a900460ff166003811115610d0257610d01612408565b5b9050919050565b6000600360008373ffffffffffffffffffffffffffffffffffffffff1673ffffffffffffffffffffffffffffffffffffffff16815260200190815260200160002060009054906101000a900460ff169050919050565b6000600260009054906101000a900473ffffffffffffffffffffffffffffffffffffffff16905090565b6000806000838152602001908152602001600020600201549050919050565b60606004805480602002602001604051908101604052809291908181526020018280548015610e2c57602002820191906000526020600020905b8160009054906101000a900473ffffffffffffffffffffffffffffffffffffffff1673ffffffffffffffffffffffffffffffffffffffff1681526020019060010190808311610de2575b5050505050905090565b600360003373ffffffffffffffffffffffffffffffffffffffff1673ffffffffffffffffffffffffffffffffffffffff16815260200190815260200160002060009054906101000a900460ff16610e8c57600080fd5b600380811115610e9f57610e9e612408565b5b821115610ee1576040517f08c379a0000000000000000000000000000000000000000000000000000000008152600401610ed890612a19565b60405180910390fd5b60026003811115610ef557610ef4612408565b5b60ff16821415610f605760008173ffffffffffffffffffffffffffffffffffffffff16118015610f5257503073ffffffffffffffffffffffffffffffffffffffff16318173ffffffffffffffffffffffffffffffffffffffff1611155b610f5b57600080fd5b610f9b565b600073ffffffffffffffffffffffffffffffffffffffff168173ffffffffffffffffffffffffffffffffffffffff161415610f9a57600080fd5b5b600080600060015481526020019081526020016000209050338160000160006101000a81548173ffffffffffffffffffffffffffffffffffffffff021916908373ffffffffffffffffffffffffffffffffffffffff16021790555082600381111561100957611008612408565b5b8160000160146101000a81548160ff0219169083600381111561102f5761102e612408565b5b0217905550818160010160006101000a81548173ffffffffffffffffffffffffffffffffffffffff021916908373ffffffffffffffffffffffffffffffffffffffff1602179055506001816002018190555060018160030160003373ffffffffffffffffffffffffffffffffffffffff1673ffffffffffffffffffffffffffffffffffffffff16815260200190815260200160002060006101000a81548160ff02191690831515021790555060006001549050600060038111156110f6576110f5612408565b5b8260000160149054906101000a900460ff16600381111561111a57611119612408565b5b141561115c5760018260010160146101000a81548160ff0219169083600381111561114857611147612408565b5b0217905550611157838261175c565b61118a565b60008260010160146101000a81548160ff0219169083600381111561118457611183612408565b5b02179055505b6001600081548092919061119d90612984565b91905055506111ab8161158f565b50505050565b565b6111bc33610d09565b6111c557600080fd5b60005b60048054905081101561144d573373ffffffffffffffffffffffffffffffffffffffff1660048281548110611200576111ff612a39565b5b9060005260206000200160009054906101000a900473ffffffffffffffffffffffffffffffffffffffff1673ffffffffffffffffffffffffffffffffffffffff16141561143a576004600160048054905061125b9190612a68565b8154811061126c5761126b612a39565b5b9060005260206000200160009054906101000a900473ffffffffffffffffffffffffffffffffffffffff16600482815481106112ab576112aa612a39565b5b9060005260206000200160006101000a81548173ffffffffffffffffffffffffffffffffffffffff021916908373ffffffffffffffffffffffffffffffffffffffff160217905550600480548061130557611304612a9c565b5b6001900381819060005260206000200160006101000a81549073ffffffffffffffffffffffffffffffffffffffff02191690559055600360003373ffffffffffffffffffffffffffffffffffffffff1673ffffffffffffffffffffffffffffffffffffffff16815260200190815260200160002060006101000a81549060ff0219169055600260009054906101000a900473ffffffffffffffffffffffffffffffffffffffff1673ffffffffffffffffffffffffffffffffffffffff1663abfa796930336040518363ffffffff167c0100000000000000000000000000000000000000000000000000000000028152600401611402929190612acb565b600060405180830381600087803b15801561141c57600080fd5b505af1158015611430573d6000803e3d6000fd5b505050505061144f565b808061144590612984565b9150506111c8565b505b565b60006002600381111561146757611466612408565b5b60008084815260200190815260200160002060000160149054906101000a900460ff16600381111561149c5761149b612408565b5b146114a657600080fd5b60008083815260200190815260200160002060010160009054906101000a900473ffffffffffffffffffffffffffffffffffffffff169050919050565b600260009054906101000a900473ffffffffffffffffffffffffffffffffffffffff1673ffffffffffffffffffffffffffffffffffffffff1663ad4600ee826040518263ffffffff167c010000000000000000000000000000000000000000000000000000000002815260040161155a91906123b7565b600060405180830381600087803b15801561157457600080fd5b505af1158015611588573d6000803e3d6000fd5b5050505050565b600061159f60048054905061180b565b9050806000808481526020019081526020016000206002015414801561160c5750600060038111156115d4576115d3612408565b5b60008084815260200190815260200160002060000160149054906101000a900460ff16600381111561160957611608612408565b5b14155b1561164457600160008084815260200190815260200160002060010160156101000a81548160ff021916908315150217905550611726565b80600080848152602001908152602001600020600201541480156116ae57506000600381111561167757611676612408565b5b60008084815260200190815260200160002060000160149054906101000a900460ff1660038111156116ac576116ab612408565b5b145b80156116f15750600260008084815260200190815260200160002060010160149054906101000a900460ff1660038111156116ec576116eb612408565b5b60ff16145b1561172557600160008084815260200190815260200160002060010160156101000a81548160ff0219169083151502179055505b5b60008083815260200190815260200160002060010160159054906101000a900460ff1615611758576117578261182d565b5b5050565b600260009054906101000a900473ffffffffffffffffffffffffffffffffffffffff1673ffffffffffffffffffffffffffffffffffffffff1663d8a3bc5683836040518363ffffffff167c01000000000000000000000000000000000000000000000000000000000281526004016117d5929190612af4565b600060405180830381600087803b1580156117ef57600080fd5b505af1158015611803573d6000803e3d6000fd5b505050505050565b6000600160028361181c9190612b4c565b6118269190612b7d565b9050919050565b6000600381111561184157611840612408565b5b60008083815260200190815260200160002060000160149054906101000a900460ff16600381111561187657611875612408565b5b141561188a57611885816119a2565b61199f565b6001600381111561189e5761189d612408565b5b60008083815260200190815260200160002060000160149054906101000a900460ff1660038111156118d3576118d2612408565b5b14156118e7576118e281611b6a565b61199e565b600260038111156118fb576118fa612408565b5b60008083815260200190815260200160002060000160149054906101000a900460ff1660038111156119305761192f612408565b5b14156119445761193f81611e57565b61199d565b60038081111561195757611956612408565b5b60008083815260200190815260200160002060000160149054906101000a900460ff16600381111561198c5761198b612408565b5b141561199c5761199b81611f7f565b5b5b5b5b50565b600080600083815260200190815260200160002090506119c3816000612180565b60008160010160009054906101000a900473ffffffffffffffffffffffffffffffffffffffff1690506119f581610d09565b156119ff57600080fd5b6004819080600181540180825580915050600190039060005260206000200160009091909190916101000a81548173ffffffffffffffffffffffffffffffffffffffff021916908373ffffffffffffffffffffffffffffffffffffffff1602179055506001600360008373ffffffffffffffffffffffffffffffffffffffff1673ffffffffffffffffffffffffffffffffffffffff16815260200190815260200160002060006101000a81548160ff021916908315150217905550600260009054906101000a900473ffffffffffffffffffffffffffffffffffffffff1673ffffffffffffffffffffffffffffffffffffffff166351efa3f430836040518363ffffffff167c0100000000000000000000000000000000000000000000000000000000028152600401611b33929190612acb565b600060405180830381600087803b158015611b4d57600080fd5b505af1158015611b61573d6000803e3d6000fd5b50505050505050565b60008060008381526020019081526020016000209050611b8b816001612180565b60008160010160009054906101000a900473ffffffffffffffffffffffffffffffffffffffff169050611bbd81610d09565b611bc657600080fd5b60005b600480549050811015611e50578173ffffffffffffffffffffffffffffffffffffffff1660048281548110611c0157611c00612a39565b5b9060005260206000200160009054906101000a900473ffffffffffffffffffffffffffffffffffffffff1673ffffffffffffffffffffffffffffffffffffffff161415611e3d5760046001600480549050611c5c9190612a68565b81548110611c6d57611c6c612a39565b5b9060005260206000200160009054906101000a900473ffffffffffffffffffffffffffffffffffffffff1660048281548110611cac57611cab612a39565b5b9060005260206000200160006101000a81548173ffffffffffffffffffffffffffffffffffffffff021916908373ffffffffffffffffffffffffffffffffffffffff1602179055506004805480611d0657611d05612a9c565b5b6001900381819060005260206000200160006101000a81549073ffffffffffffffffffffffffffffffffffffffff02191690559055600360008373ffffffffffffffffffffffffffffffffffffffff1673ffffffffffffffffffffffffffffffffffffffff16815260200190815260200160002060006101000a81549060ff0219169055600260009054906101000a900473ffffffffffffffffffffffffffffffffffffffff1673ffffffffffffffffffffffffffffffffffffffff1663abfa796930846040518363ffffffff167c0100000000000000000000000000000000000000000000000000000000028152600401611e03929190612acb565b600060405180830381600087803b158015611e1d57600080fd5b505af1158015611e31573d6000803e3d6000fd5b50505050505050611e54565b8080611e4890612984565b915050611bc9565b5050505b50565b60008060008381526020019081526020016000209050611e78816002612180565b3073ffffffffffffffffffffffffffffffffffffffff16318160010160009054906101000a900473ffffffffffffffffffffffffffffffffffffffff1673ffffffffffffffffffffffffffffffffffffffff161115611ed657600080fd5b8060000160009054906101000a900473ffffffffffffffffffffffffffffffffffffffff1673ffffffffffffffffffffffffffffffffffffffff166108fc8260010160009054906101000a900473ffffffffffffffffffffffffffffffffffffffff1673ffffffffffffffffffffffffffffffffffffffff169081150290604051600060405180830381858888f19350505050158015611f7a573d6000803e3d6000fd5b505050565b60008060008381526020019081526020016000209050611fa0816003612180565b60005b6004805490508110156121425760006003600060048481548110611fca57611fc9612a39565b5b9060005260206000200160009054906101000a900473ffffffffffffffffffffffffffffffffffffffff1673ffffffffffffffffffffffffffffffffffffffff1673ffffffffffffffffffffffffffffffffffffffff16815260200190815260200160002060006101000a81548160ff021916908315150217905550600260009054906101000a900473ffffffffffffffffffffffffffffffffffffffff1673ffffffffffffffffffffffffffffffffffffffff1663abfa7969306004848154811061209957612098612a39565b5b9060005260206000200160009054906101000a900473ffffffffffffffffffffffffffffffffffffffff166040518363ffffffff167c01000000000000000000000000000000000000000000000000000000000281526004016120fd929190612acb565b600060405180830381600087803b15801561211757600080fd5b505af115801561212b573d6000803e3d6000fd5b50505050808061213a90612984565b915050611fa3565b508060010160009054906101000a900473ffffffffffffffffffffffffffffffffffffffff1673ffffffffffffffffffffffffffffffffffffffff16ff5b80600381111561219357612192612408565b5b8260000160149054906101000a900460ff1660038111156121b7576121b6612408565b5b146121f7576040517f08c379a00000000000000000000000000000000000000000000000000000000081526004016121ee906127f1565b60405180910390fd5b600115158260010160159054906101000a900460ff1615151461224f576040517f08c379a000000000000000000000000000000000000000000000000000000000815260040161224690612c1f565b60405180910390fd5b5050565b600081519050919050565b600082825260208201905092915050565b60005b8381101561228d578082015181840152602081019050612272565b8381111561229c576000848401525b50505050565b6000601f19601f8301169050919050565b60006122be82612253565b6122c8818561225e565b93506122d881856020860161226f565b6122e1816122a2565b840191505092915050565b6000602082019050818103600083015261230681846122b3565b905092915050565b600080fd5b6000819050919050565b61232681612313565b811461233157600080fd5b50565b6000813590506123438161231d565b92915050565b60006020828403121561235f5761235e61230e565b5b600061236d84828501612334565b91505092915050565b600073ffffffffffffffffffffffffffffffffffffffff82169050919050565b60006123a182612376565b9050919050565b6123b181612396565b82525050565b60006020820190506123cc60008301846123a8565b92915050565b60008115159050919050565b6123e7816123d2565b82525050565b600060208201905061240260008301846123de565b92915050565b7f4e487b7100000000000000000000000000000000000000000000000000000000600052602160045260246000fd5b6004811061244857612447612408565b5b50565b600081905061245982612437565b919050565b60006124698261244b565b9050919050565b6124798161245e565b82525050565b60006020820190506124946000830184612470565b92915050565b6124a381612313565b82525050565b60006020820190506124be600083018461249a565b92915050565b600060ff82169050919050565b6124da816124c4565b82525050565b60006020820190506124f560008301846124d1565b92915050565b61250481612396565b811461250f57600080fd5b50565b600081359050612521816124fb565b92915050565b60006020828403121561253d5761253c61230e565b5b600061254b84828501612512565b91505092915050565b6000819050919050565b600061257961257461256f84612376565b612554565b612376565b9050919050565b600061258b8261255e565b9050919050565b600061259d82612580565b9050919050565b6125ad81612592565b82525050565b60006020820190506125c860008301846125a4565b92915050565b600081519050919050565b600082825260208201905092915050565b6000819050602082019050919050565b61260381612396565b82525050565b600061261583836125fa565b60208301905092915050565b6000602082019050919050565b6000612639826125ce565b61264381856125d9565b935061264e836125ea565b8060005b8381101561267f5781516126668882612609565b975061267183612621565b925050600181019050612652565b5085935050505092915050565b600060208201905081810360008301526126a6818461262e565b905092915050565b6126b781612376565b81146126c257600080fd5b50565b6000813590506126d4816126ae565b92915050565b600080604083850312156126f1576126f061230e565b5b60006126ff85828601612334565b9250506020612710858286016126c5565b9150509250929050565b61272381612376565b82525050565b600060208201905061273e600083018461271a565b92915050565b7f4e487b7100000000000000000000000000000000000000000000000000000000600052602260045260246000fd5b6000600282049050600182168061278b57607f821691505b6020821081141561279f5761279e612744565b5b50919050565b7f57726f6e67207265717565737420696421000000000000000000000000000000600082015250565b60006127db60118361225e565b91506127e6826127a5565b602082019050919050565b6000602082019050818103600083015261280a816127ce565b9050919050565b7f496e7669746174696f6e20616c72656164792061636365707465642100000000600082015250565b6000612847601c8361225e565b915061285282612811565b602082019050919050565b600060208201905081810360008301526128768161283a565b9050919050565b7f526571756573742068617320616c726561647920706173736564210000000000600082015250565b60006128b3601b8361225e565b91506128be8261287d565b602082019050919050565b600060208201905081810360008301526128e2816128a6565b9050919050565b7f416c726561647920766f74656420746f20746869732072657175657374210000600082015250565b600061291f601e8361225e565b915061292a826128e9565b602082019050919050565b6000602082019050818103600083015261294e81612912565b9050919050565b7f4e487b7100000000000000000000000000000000000000000000000000000000600052601160045260246000fd5b600061298f82612313565b91507fffffffffffffffffffffffffffffffffffffffffffffffffffffffffffffffff8214156129c2576129c1612955565b5b600182019050919050565b7f496e76616c696420726571756573742074797065210000000000000000000000600082015250565b6000612a0360158361225e565b9150612a0e826129cd565b602082019050919050565b60006020820190508181036000830152612a32816129f6565b9050919050565b7f4e487b7100000000000000000000000000000000000000000000000000000000600052603260045260246000fd5b6000612a7382612313565b9150612a7e83612313565b925082821015612a9157612a90612955565b5b828203905092915050565b7f4e487b7100000000000000000000000000000000000000000000000000000000600052603160045260246000fd5b6000604082019050612ae060008301856123a8565b612aed60208301846123a8565b9392505050565b6000604082019050612b0960008301856123a8565b612b16602083018461249a565b9392505050565b7f4e487b7100000000000000000000000000000000000000000000000000000000600052601260045260246000fd5b6000612b5782612313565b9150612b6283612313565b925082612b7257612b71612b1d565b5b828204905092915050565b6000612b8882612313565b9150612b9383612313565b9250827fffffffffffffffffffffffffffffffffffffffffffffffffffffffffffffffff03821115612bc857612bc7612955565b5b828201905092915050565b7f52657175657374206973206e6f7420617070726f766564207965742100000000600082015250565b6000612c09601c8361225e565b9150612c1482612bd3565b602082019050919050565b60006020820190508181036000830152612c3881612bfc565b905091905056fea26469706673582212206644ea5df38b275c2604e64e746dfcfdd1515c05271edb01dc9786d8b301892364736f6c634300080c0033a264697066735822122098faf6d9bdfce4017948f0802a7b63cf25b48c3877bff344fe74564ffd84430164736f6c634300080c0033608060405234801561001057600080fd5b506114f3806100206000396000f3fe608060405234801561001057600080fd5b506004361061009a576000357c010000000000000000000000000000000000000000000000000000000090048063a7f40e9711610078578063a7f40e97146100f7578063abfa796914610115578063ad4600ee14610131578063d8a3bc561461014d5761009a565b806351efa3f41461009f5780638b1df160146100bb5780639d9820f9146100d9575b600080fd5b6100b960048036038101906100b49190610faf565b610169565b005b6100c36102e1565b6040516100d091906110b7565b60405180910390f35b6100e161045c565b6040516100ee9190611197565b60405180910390f35b6100ff610625565b60405161010c9190611197565b60405180910390f35b61012f600480360381019061012a9190610faf565b6106ef565b005b61014b600480360381019061014691906111b9565b610a8b565b005b61016760048036038101906101629190611212565b610dc2565b005b8173ffffffffffffffffffffffffffffffffffffffff1663a230c524826040518263ffffffff167c01000000000000000000000000000000000000000000000000000000000281526004016101be9190611261565b602060405180830381865afa1580156101db573d6000803e3d6000fd5b505050506040513d601f19601f820116820180604052508101906101ff91906112b4565b61023e576040517f08c379a000000000000000000000000000000000000000000000000000000000815260040161023590611364565b60405180910390fd5b6000808273ffffffffffffffffffffffffffffffffffffffff1673ffffffffffffffffffffffffffffffffffffffff168152602001908152602001600020829080600181540180825580915050600190039060005260206000200160009091909190916101000a81548173ffffffffffffffffffffffffffffffffffffffff021916908373ffffffffffffffffffffffffffffffffffffffff1602179055505050565b60606000600160003373ffffffffffffffffffffffffffffffffffffffff1673ffffffffffffffffffffffffffffffffffffffff1681526020019081526020016000208054905067ffffffffffffffff81111561034157610340611384565b5b60405190808252806020026020018201604052801561036f5781602001602082028036833780820191505090505b50905060005b600160003373ffffffffffffffffffffffffffffffffffffffff1673ffffffffffffffffffffffffffffffffffffffff1681526020019081526020016000208054905081101561045457600160003373ffffffffffffffffffffffffffffffffffffffff1673ffffffffffffffffffffffffffffffffffffffff16815260200190815260200160002081815481106104105761040f6113b3565b5b906000526020600020906002020160010154828281518110610435576104346113b3565b5b602002602001018181525050808061044c90611411565b915050610375565b508091505090565b60606000600160003373ffffffffffffffffffffffffffffffffffffffff1673ffffffffffffffffffffffffffffffffffffffff1681526020019081526020016000208054905067ffffffffffffffff8111156104bc576104bb611384565b5b6040519080825280602002602001820160405280156104ea5781602001602082028036833780820191505090505b50905060005b600160003373ffffffffffffffffffffffffffffffffffffffff1673ffffffffffffffffffffffffffffffffffffffff1681526020019081526020016000208054905081101561061d57600160003373ffffffffffffffffffffffffffffffffffffffff1673ffffffffffffffffffffffffffffffffffffffff168152602001908152602001600020818154811061058b5761058a6113b3565b5b906000526020600020906002020160000160009054906101000a900473ffffffffffffffffffffffffffffffffffffffff168282815181106105d0576105cf6113b3565b5b602002602001019073ffffffffffffffffffffffffffffffffffffffff16908173ffffffffffffffffffffffffffffffffffffffff1681525050808061061590611411565b9150506104f0565b508091505090565b60606000803373ffffffffffffffffffffffffffffffffffffffff1673ffffffffffffffffffffffffffffffffffffffff1681526020019081526020016000208054806020026020016040519081016040528092919081815260200182805480156106e557602002820191906000526020600020905b8160009054906101000a900473ffffffffffffffffffffffffffffffffffffffff1673ffffffffffffffffffffffffffffffffffffffff168152602001906001019080831161069b575b5050505050905090565b8173ffffffffffffffffffffffffffffffffffffffff1663a230c524826040518263ffffffff167c01000000000000000000000000000000000000000000000000000000000281526004016107449190611261565b602060405180830381865afa158015610761573d6000803e3d6000fd5b505050506040513d601f19601f8201168201806040525081019061078591906112b4565b1561078f57600080fd5b60005b6000808373ffffffffffffffffffffffffffffffffffffffff1673ffffffffffffffffffffffffffffffffffffffff16815260200190815260200160002080549050811015610a85578273ffffffffffffffffffffffffffffffffffffffff166000808473ffffffffffffffffffffffffffffffffffffffff1673ffffffffffffffffffffffffffffffffffffffff1681526020019081526020016000208281548110610842576108416113b3565b5b9060005260206000200160009054906101000a900473ffffffffffffffffffffffffffffffffffffffff1673ffffffffffffffffffffffffffffffffffffffff161415610a72576000808373ffffffffffffffffffffffffffffffffffffffff1673ffffffffffffffffffffffffffffffffffffffff16815260200190815260200160002060016000808573ffffffffffffffffffffffffffffffffffffffff1673ffffffffffffffffffffffffffffffffffffffff16815260200190815260200160002080549050610915919061145a565b81548110610926576109256113b3565b5b9060005260206000200160009054906101000a900473ffffffffffffffffffffffffffffffffffffffff166000808473ffffffffffffffffffffffffffffffffffffffff1673ffffffffffffffffffffffffffffffffffffffff16815260200190815260200160002082815481106109a1576109a06113b3565b5b9060005260206000200160006101000a81548173ffffffffffffffffffffffffffffffffffffffff021916908373ffffffffffffffffffffffffffffffffffffffff1602179055506000808373ffffffffffffffffffffffffffffffffffffffff1673ffffffffffffffffffffffffffffffffffffffff168152602001908152602001600020805480610a3757610a3661148e565b5b6001900381819060005260206000200160006101000a81549073ffffffffffffffffffffffffffffffffffffffff0219169055905550610a87565b8080610a7d90611411565b915050610792565b505b5050565b60005b600160008373ffffffffffffffffffffffffffffffffffffffff1673ffffffffffffffffffffffffffffffffffffffff16815260200190815260200160002080549050811015610dbd573373ffffffffffffffffffffffffffffffffffffffff16600160008473ffffffffffffffffffffffffffffffffffffffff1673ffffffffffffffffffffffffffffffffffffffff1681526020019081526020016000208281548110610b4057610b3f6113b3565b5b906000526020600020906002020160000160009054906101000a900473ffffffffffffffffffffffffffffffffffffffff1673ffffffffffffffffffffffffffffffffffffffff161415610daa57600160008373ffffffffffffffffffffffffffffffffffffffff1673ffffffffffffffffffffffffffffffffffffffff16815260200190815260200160002060018060008573ffffffffffffffffffffffffffffffffffffffff1673ffffffffffffffffffffffffffffffffffffffff16815260200190815260200160002080549050610c1b919061145a565b81548110610c2c57610c2b6113b3565b5b9060005260206000209060020201600160008473ffffffffffffffffffffffffffffffffffffffff1673ffffffffffffffffffffffffffffffffffffffff1681526020019081526020016000208281548110610c8b57610c8a6113b3565b5b90600052602060002090600202016000820160009054906101000a900473ffffffffffffffffffffffffffffffffffffffff168160000160006101000a81548173ffffffffffffffffffffffffffffffffffffffff021916908373ffffffffffffffffffffffffffffffffffffffff16021790555060018201548160010155905050600160008373ffffffffffffffffffffffffffffffffffffffff1673ffffffffffffffffffffffffffffffffffffffff168152602001908152602001600020805480610d5c57610d5b61148e565b5b6001900381819060005260206000209060020201600080820160006101000a81549073ffffffffffffffffffffffffffffffffffffffff021916905560018201600090555050905550610dbf565b8080610db590611411565b915050610a8e565b505b50565b3373ffffffffffffffffffffffffffffffffffffffff1663a230c524836040518263ffffffff167c0100000000000000000000000000000000000000000000000000000000028152600401610e179190611261565b602060405180830381865afa158015610e34573d6000803e3d6000fd5b505050506040513d601f19601f82011682018060405250810190610e5891906112b4565b15610e6257600080fd5b600160008373ffffffffffffffffffffffffffffffffffffffff1673ffffffffffffffffffffffffffffffffffffffff16815260200190815260200160002060405180604001604052803373ffffffffffffffffffffffffffffffffffffffff16815260200183815250908060018154018082558091505060019003906000526020600020906002020160009091909190915060008201518160000160006101000a81548173ffffffffffffffffffffffffffffffffffffffff021916908373ffffffffffffffffffffffffffffffffffffffff1602179055506020820151816001015550505050565b600080fd5b600073ffffffffffffffffffffffffffffffffffffffff82169050919050565b6000610f7c82610f51565b9050919050565b610f8c81610f71565b8114610f9757600080fd5b50565b600081359050610fa981610f83565b92915050565b60008060408385031215610fc657610fc5610f4c565b5b6000610fd485828601610f9a565b9250506020610fe585828601610f9a565b9150509250929050565b600081519050919050565b600082825260208201905092915050565b6000819050602082019050919050565b6000819050919050565b61102e8161101b565b82525050565b60006110408383611025565b60208301905092915050565b6000602082019050919050565b600061106482610fef565b61106e8185610ffa565b93506110798361100b565b8060005b838110156110aa5781516110918882611034565b975061109c8361104c565b92505060018101905061107d565b5085935050505092915050565b600060208201905081810360008301526110d18184611059565b905092915050565b600081519050919050565b600082825260208201905092915050565b6000819050602082019050919050565b61110e81610f71565b82525050565b60006111208383611105565b60208301905092915050565b6000602082019050919050565b6000611144826110d9565b61114e81856110e4565b9350611159836110f5565b8060005b8381101561118a5781516111718882611114565b975061117c8361112c565b92505060018101905061115d565b5085935050505092915050565b600060208201905081810360008301526111b18184611139565b905092915050565b6000602082840312156111cf576111ce610f4c565b5b60006111dd84828501610f9a565b91505092915050565b6111ef8161101b565b81146111fa57600080fd5b50565b60008135905061120c816111e6565b92915050565b6000806040838503121561122957611228610f4c565b5b600061123785828601610f9a565b9250506020611248858286016111fd565b9150509250929050565b61125b81610f71565b82525050565b60006020820190506112766000830184611252565b92915050565b60008115159050919050565b6112918161127c565b811461129c57600080fd5b50565b6000815190506112ae81611288565b92915050565b6000602082840312156112ca576112c9610f4c565b5b60006112d88482850161129f565b91505092915050565b600082825260208201905092915050565b7f55736572206973206e6f742061206d656d626572206f6620746869732077616c60008201527f6c65742100000000000000000000000000000000000000000000000000000000602082015250565b600061134e6024836112e1565b9150611359826112f2565b604082019050919050565b6000602082019050818103600083015261137d81611341565b9050919050565b7f4e487b7100000000000000000000000000000000000000000000000000000000600052604160045260246000fd5b7f4e487b7100000000000000000000000000000000000000000000000000000000600052603260045260246000fd5b7f4e487b7100000000000000000000000000000000000000000000000000000000600052601160045260246000fd5b600061141c8261101b565b91507fffffffffffffffffffffffffffffffffffffffffffffffffffffffffffffffff82141561144f5761144e6113e2565b5b600182019050919050565b60006114658261101b565b91506114708361101b565b925082821015611483576114826113e2565b5b828203905092915050565b7f4e487b7100000000000000000000000000000000000000000000000000000000600052603160045260246000fdfea264697066735822122067ea964700e9e340c217aa507705b3b76920eaf58e8c7d778605c1da1b54f5b864736f6c634300080c0033",
  "immutableReferences": {},
  "source": "//SPDX-License-Identifier: MIT\r\npragma solidity ^0.8.0;\r\n\r\nimport \"./SharedWallet.sol\";\r\nimport \"./SharedWalletStorage.sol\";\r\n\r\ncontract SharedWalletFactory {\r\n    SharedWalletStorage private _walletsStorage;\r\n    address private _lastWalletCreated;\r\n\r\n    constructor() {\r\n        _walletsStorage = new SharedWalletStorage();\r\n    }\r\n\r\n    function lastWalletCreated() public view returns (address) {\r\n        return _lastWalletCreated;\r\n    }\r\n\r\n    function walletsStorage() public view returns (address) {\r\n        return address(_walletsStorage);\r\n    }\r\n\r\n    function createNewSharedWallet(string memory _name) external {\r\n        address newSharedWalletAddress = address(\r\n            new SharedWallet(msg.sender, address(_walletsStorage), _name)\r\n        );\r\n        _walletsStorage.addWalletToUser(newSharedWalletAddress, msg.sender);\r\n        _lastWalletCreated = newSharedWalletAddress;\r\n    }\r\n}\r\n",
  "sourcePath": "E:\\GitHub\\ShareIt\\contracts\\SharedWalletFactory.sol",
  "compiler": {
    "name": "solc",
    "version": "0.8.12+commit.f00d7308.Emscripten.clang"
  },
  "schemaVersion": "3.4.7",
  "updatedAt": "2022-04-08T20:13:50.912Z",
  "networkType": "ethereum",
  "devdoc": {
    "kind": "dev",
    "methods": {},
    "version": 1
  },
  "userdoc": {
    "kind": "user",
    "methods": {},
    "version": 1
  }
}