{
  "contractName": "SharedWallet",
  "abi": [
    {
      "inputs": [
        {
          "internalType": "address",
          "name": "_creator",
          "type": "address"
        },
        {
          "internalType": "address",
          "name": "_walletsStorageAddress",
          "type": "address"
        },
        {
          "internalType": "string",
          "name": "name_",
          "type": "string"
        }
      ],
      "stateMutability": "nonpayable",
      "type": "constructor"
    },
    {
      "inputs": [
        {
          "internalType": "uint256",
          "name": "_requestID",
          "type": "uint256"
        }
      ],
      "name": "acceptInvitation",
      "outputs": [],
      "stateMutability": "nonpayable",
      "type": "function"
    },
    {
      "inputs": [
        {
          "internalType": "uint256",
          "name": "_requestID",
          "type": "uint256"
        }
      ],
      "name": "acceptRequest",
      "outputs": [],
      "stateMutability": "nonpayable",
      "type": "function"
    },
    {
      "inputs": [
        {
          "internalType": "uint256",
          "name": "_id",
          "type": "uint256"
        }
      ],
      "name": "checkMemberHasVotedById",
      "outputs": [
        {
          "internalType": "bool",
          "name": "",
          "type": "bool"
        }
      ],
      "stateMutability": "view",
      "type": "function"
    },
    {
      "inputs": [
        {
          "internalType": "uint256",
          "name": "_id",
          "type": "uint256"
        }
      ],
      "name": "checkRequestIsAcceptedById",
      "outputs": [
        {
          "internalType": "uint8",
          "name": "",
          "type": "uint8"
        }
      ],
      "stateMutability": "view",
      "type": "function"
    },
    {
      "inputs": [
        {
          "internalType": "uint256",
          "name": "_id",
          "type": "uint256"
        }
      ],
      "name": "checkRequestIsApprovedById",
      "outputs": [
        {
          "internalType": "bool",
          "name": "",
          "type": "bool"
        }
      ],
      "stateMutability": "view",
      "type": "function"
    },
    {
      "inputs": [
        {
          "internalType": "uint256",
          "name": "_requestTypeIdx",
          "type": "uint256"
        },
        {
          "internalType": "uint160",
          "name": "_data",
          "type": "uint160"
        }
      ],
      "name": "createRequest",
      "outputs": [],
      "stateMutability": "nonpayable",
      "type": "function"
    },
    {
      "inputs": [
        {
          "internalType": "uint256",
          "name": "_id",
          "type": "uint256"
        }
      ],
      "name": "getRequestAddrById",
      "outputs": [
        {
          "internalType": "address",
          "name": "",
          "type": "address"
        }
      ],
      "stateMutability": "view",
      "type": "function"
    },
    {
      "inputs": [
        {
          "internalType": "uint256",
          "name": "_id",
          "type": "uint256"
        }
      ],
      "name": "getRequestAuthorById",
      "outputs": [
        {
          "internalType": "address",
          "name": "",
          "type": "address"
        }
      ],
      "stateMutability": "view",
      "type": "function"
    },
    {
      "inputs": [
        {
          "internalType": "uint256",
          "name": "_id",
          "type": "uint256"
        }
      ],
      "name": "getRequestProVotersCountById",
      "outputs": [
        {
          "internalType": "uint256",
          "name": "",
          "type": "uint256"
        }
      ],
      "stateMutability": "view",
      "type": "function"
    },
    {
      "inputs": [
        {
          "internalType": "uint256",
          "name": "_id",
          "type": "uint256"
        }
      ],
      "name": "getRequestTypeById",
      "outputs": [
        {
          "internalType": "enum Voting.RequestTypes",
          "name": "",
          "type": "uint8"
        }
      ],
      "stateMutability": "view",
      "type": "function"
    },
    {
      "inputs": [
        {
          "internalType": "uint256",
          "name": "_id",
          "type": "uint256"
        }
      ],
      "name": "getRequestValueById",
      "outputs": [
        {
          "internalType": "uint160",
          "name": "",
          "type": "uint160"
        }
      ],
      "stateMutability": "view",
      "type": "function"
    },
    {
      "inputs": [
        {
          "internalType": "uint256",
          "name": "_requestID",
          "type": "uint256"
        }
      ],
      "name": "rejectInvitation",
      "outputs": [],
      "stateMutability": "nonpayable",
      "type": "function"
    },
    {
      "inputs": [],
      "name": "requestsCounter",
      "outputs": [
        {
          "internalType": "uint256",
          "name": "",
          "type": "uint256"
        }
      ],
      "stateMutability": "view",
      "type": "function"
    },
    {
      "inputs": [],
      "name": "members",
      "outputs": [
        {
          "internalType": "address[]",
          "name": "",
          "type": "address[]"
        }
      ],
      "stateMutability": "view",
      "type": "function"
    },
    {
      "inputs": [],
      "name": "name",
      "outputs": [
        {
          "internalType": "string",
          "name": "",
          "type": "string"
        }
      ],
      "stateMutability": "view",
      "type": "function"
    },
    {
      "inputs": [],
      "name": "walletsStorage",
      "outputs": [
        {
          "internalType": "contract SharedWalletStorage",
          "name": "",
          "type": "address"
        }
      ],
      "stateMutability": "view",
      "type": "function"
    },
    {
      "inputs": [
        {
          "internalType": "address",
          "name": "_user",
          "type": "address"
        }
      ],
      "name": "isMember",
      "outputs": [
        {
          "internalType": "bool",
          "name": "",
          "type": "bool"
        }
      ],
      "stateMutability": "view",
      "type": "function"
    },
    {
      "inputs": [],
      "name": "leave",
      "outputs": [],
      "stateMutability": "nonpayable",
      "type": "function"
    },
    {
      "inputs": [],
      "name": "deposit",
      "outputs": [],
      "stateMutability": "payable",
      "type": "function"
    }
  ],
  "bytecode": "0x60806040523480156200001157600080fd5b5060405162002fd938038062002fd9833981810160405281019062000037919062000417565b6000815114156200004757600080fd5b81600260006101000a81548173ffffffffffffffffffffffffffffffffffffffff021916908373ffffffffffffffffffffffffffffffffffffffff1602179055506004839080600181540180825580915050600190039060005260206000200160009091909190916101000a81548173ffffffffffffffffffffffffffffffffffffffff021916908373ffffffffffffffffffffffffffffffffffffffff1602179055506001600360008573ffffffffffffffffffffffffffffffffffffffff1673ffffffffffffffffffffffffffffffffffffffff16815260200190815260200160002060006101000a81548160ff02191690831515021790555080600590805190602001906200015b92919062000165565b50505050620004f7565b8280546200017390620004c1565b90600052602060002090601f016020900481019282620001975760008555620001e3565b82601f10620001b257805160ff1916838001178555620001e3565b82800160010185558215620001e3579182015b82811115620001e2578251825591602001919060010190620001c5565b5b509050620001f29190620001f6565b5090565b5b8082111562000211576000816000905550600101620001f7565b5090565b6000604051905090565b600080fd5b600080fd5b600073ffffffffffffffffffffffffffffffffffffffff82169050919050565b6000620002568262000229565b9050919050565b620002688162000249565b81146200027457600080fd5b50565b60008151905062000288816200025d565b92915050565b600080fd5b600080fd5b6000601f19601f8301169050919050565b7f4e487b7100000000000000000000000000000000000000000000000000000000600052604160045260246000fd5b620002e38262000298565b810181811067ffffffffffffffff82111715620003055762000304620002a9565b5b80604052505050565b60006200031a62000215565b9050620003288282620002d8565b919050565b600067ffffffffffffffff8211156200034b576200034a620002a9565b5b620003568262000298565b9050602081019050919050565b60005b838110156200038357808201518184015260208101905062000366565b8381111562000393576000848401525b50505050565b6000620003b0620003aa846200032d565b6200030e565b905082815260208101848484011115620003cf57620003ce62000293565b5b620003dc84828562000363565b509392505050565b600082601f830112620003fc57620003fb6200028e565b5b81516200040e84826020860162000399565b91505092915050565b6000806000606084860312156200043357620004326200021f565b5b6000620004438682870162000277565b9350506020620004568682870162000277565b925050604084015167ffffffffffffffff8111156200047a576200047962000224565b5b6200048886828701620003e4565b9150509250925092565b7f4e487b7100000000000000000000000000000000000000000000000000000000600052602260045260246000fd5b60006002820490506001821680620004da57607f821691505b60208210811415620004f157620004f062000492565b5b50919050565b612ad280620005076000396000f3fe608060405260043610610131576000357c01000000000000000000000000000000000000000000000000000000009004806370a26c23116100bd578063bdd4d18d11610081578063bdd4d18d1461041a578063c1c1da4014610445578063d0e30db01461046e578063d66d9e1914610478578063ea3ca2221461048f57610131565b806370a26c23146102fb578063718d31d914610338578063a230c52414610375578063abcc9153146103b2578063ad207e16146103dd57610131565b80634ba1f098116101045780634ba1f0981461020457806354ebcf9b1461022d578063553da43e1461026a5780635aa6bb3b146102a7578063663c2269146102d057610131565b806306fdde0314610136578063158dfe3b146101615780632faa36681461019e578063464c5b6c146101db575b600080fd5b34801561014257600080fd5b5061014b6104cc565b6040516101589190612149565b60405180910390f35b34801561016d57600080fd5b50610188600480360381019061018391906121a6565b61055e565b6040516101959190612214565b60405180910390f35b3480156101aa57600080fd5b506101c560048036038101906101c091906121a6565b6105f1565b6040516101d2919061224a565b60405180910390f35b3480156101e757600080fd5b5061020260048036038101906101fd91906121a6565b61061d565b005b34801561021057600080fd5b5061022b600480360381019061022691906121a6565b6107ef565b005b34801561023957600080fd5b50610254600480360381019061024f91906121a6565b6109f6565b604051610261919061224a565b60405180910390f35b34801561027657600080fd5b50610291600480360381019061028c91906121a6565b610a5f565b60405161029e91906122dc565b60405180910390f35b3480156102b357600080fd5b506102ce60048036038101906102c991906121a6565b610a8b565b005b3480156102dc57600080fd5b506102e5610c82565b6040516102f29190612306565b60405180910390f35b34801561030757600080fd5b50610322600480360381019061031d91906121a6565b610c8c565b60405161032f9190612214565b60405180910390f35b34801561034457600080fd5b5061035f600480360381019061035a91906121a6565b610ccb565b60405161036c919061233d565b60405180910390f35b34801561038157600080fd5b5061039c60048036038101906103979190612384565b610d09565b6040516103a9919061224a565b60405180910390f35b3480156103be57600080fd5b506103c7610d5f565b6040516103d49190612410565b60405180910390f35b3480156103e957600080fd5b5061040460048036038101906103ff91906121a6565b610d89565b6040516104119190612306565b60405180910390f35b34801561042657600080fd5b5061042f610da8565b60405161043c91906124e9565b60405180910390f35b34801561045157600080fd5b5061046c60048036038101906104679190612537565b610e36565b005b6104766111b1565b005b34801561048457600080fd5b5061048d6111b3565b005b34801561049b57600080fd5b506104b660048036038101906104b191906121a6565b611451565b6040516104c39190612586565b60405180910390f35b6060600580546104db906125d0565b80601f0160208091040260200160405190810160405280929190818152602001828054610507906125d0565b80156105545780601f1061052957610100808354040283529160200191610554565b820191906000526020600020905b81548152906001019060200180831161053757829003601f168201915b5050505050905090565b60006002600381111561057457610573612265565b5b60008084815260200190815260200160002060000160149054906101000a900460ff1660038111156105a9576105a8612265565b5b14156105b457600080fd5b60008083815260200190815260200160002060010160009054906101000a900473ffffffffffffffffffffffffffffffffffffffff169050919050565b600080600083815260200190815260200160002060010160159054906101000a900460ff169050919050565b6000600381111561063157610630612265565b5b60008083815260200190815260200160002060000160149054906101000a900460ff16600381111561066657610665612265565b5b146106a6576040517f08c379a000000000000000000000000000000000000000000000000000000000815260040161069d9061264e565b60405180910390fd5b3373ffffffffffffffffffffffffffffffffffffffff1660008083815260200190815260200160002060010160009054906101000a900473ffffffffffffffffffffffffffffffffffffffff1673ffffffffffffffffffffffffffffffffffffffff161461071357600080fd5b6001600381111561072757610726612265565b5b60008083815260200190815260200160002060010160149054906101000a900460ff16600381111561075c5761075b612265565b5b1461079c576040517f08c379a0000000000000000000000000000000000000000000000000000000008152600401610793906126ba565b60405180910390fd5b600260008083815260200190815260200160002060010160146101000a81548160ff021916908360038111156107d5576107d4612265565b5b02179055506107e3336114e3565b6107ec8161158f565b50565b600360003373ffffffffffffffffffffffffffffffffffffffff1673ffffffffffffffffffffffffffffffffffffffff16815260200190815260200160002060009054906101000a900460ff1661084557600080fd5b6000151560008083815260200190815260200160002060010160159054906101000a900460ff161515146108ae576040517f08c379a00000000000000000000000000000000000000000000000000000000081526004016108a590612726565b60405180910390fd5b6000151560008083815260200190815260200160002060030160003373ffffffffffffffffffffffffffffffffffffffff1673ffffffffffffffffffffffffffffffffffffffff16815260200190815260200160002060009054906101000a900460ff16151514610954576040517f08c379a000000000000000000000000000000000000000000000000000000000815260040161094b90612792565b60405180910390fd5b600160008083815260200190815260200160002060030160003373ffffffffffffffffffffffffffffffffffffffff1673ffffffffffffffffffffffffffffffffffffffff16815260200190815260200160002060006101000a81548160ff02191690831515021790555060008082815260200190815260200160002060020160008154809291906109e5906127e1565b91905055506109f38161158f565b50565b600080600083815260200190815260200160002060030160003373ffffffffffffffffffffffffffffffffffffffff1673ffffffffffffffffffffffffffffffffffffffff16815260200190815260200160002060009054906101000a900460ff169050919050565b600080600083815260200190815260200160002060000160149054906101000a900460ff169050919050565b60006003811115610a9f57610a9e612265565b5b60008083815260200190815260200160002060000160149054906101000a900460ff166003811115610ad457610ad3612265565b5b14610b14576040517f08c379a0000000000000000000000000000000000000000000000000000000008152600401610b0b9061264e565b60405180910390fd5b3373ffffffffffffffffffffffffffffffffffffffff1660008083815260200190815260200160002060010160009054906101000a900473ffffffffffffffffffffffffffffffffffffffff1673ffffffffffffffffffffffffffffffffffffffff1614610b8157600080fd5b60016003811115610b9557610b94612265565b5b60008083815260200190815260200160002060010160149054906101000a900460ff166003811115610bca57610bc9612265565b5b14610c0a576040517f08c379a0000000000000000000000000000000000000000000000000000000008152600401610c01906126ba565b60405180910390fd5b600360008083815260200190815260200160002060010160146101000a81548160ff02191690836003811115610c4357610c42612265565b5b0217905550610c51336114e3565b600160008083815260200190815260200160002060010160156101000a81548160ff02191690831515021790555050565b6000600154905090565b600080600083815260200190815260200160002060000160009054906101000a900473ffffffffffffffffffffffffffffffffffffffff169050919050565b600080600083815260200190815260200160002060010160149054906101000a900460ff166003811115610d0257610d01612265565b5b9050919050565b6000600360008373ffffffffffffffffffffffffffffffffffffffff1673ffffffffffffffffffffffffffffffffffffffff16815260200190815260200160002060009054906101000a900460ff169050919050565b6000600260009054906101000a900473ffffffffffffffffffffffffffffffffffffffff16905090565b6000806000838152602001908152602001600020600201549050919050565b60606004805480602002602001604051908101604052809291908181526020018280548015610e2c57602002820191906000526020600020905b8160009054906101000a900473ffffffffffffffffffffffffffffffffffffffff1673ffffffffffffffffffffffffffffffffffffffff1681526020019060010190808311610de2575b5050505050905090565b600360003373ffffffffffffffffffffffffffffffffffffffff1673ffffffffffffffffffffffffffffffffffffffff16815260200190815260200160002060009054906101000a900460ff16610e8c57600080fd5b600380811115610e9f57610e9e612265565b5b821115610ee1576040517f08c379a0000000000000000000000000000000000000000000000000000000008152600401610ed890612876565b60405180910390fd5b60026003811115610ef557610ef4612265565b5b60ff16821415610f605760008173ffffffffffffffffffffffffffffffffffffffff16118015610f5257503073ffffffffffffffffffffffffffffffffffffffff16318173ffffffffffffffffffffffffffffffffffffffff1611155b610f5b57600080fd5b610f9b565b600073ffffffffffffffffffffffffffffffffffffffff168173ffffffffffffffffffffffffffffffffffffffff161415610f9a57600080fd5b5b600080600060015481526020019081526020016000209050338160000160006101000a81548173ffffffffffffffffffffffffffffffffffffffff021916908373ffffffffffffffffffffffffffffffffffffffff16021790555082600381111561100957611008612265565b5b8160000160146101000a81548160ff0219169083600381111561102f5761102e612265565b5b0217905550818160010160006101000a81548173ffffffffffffffffffffffffffffffffffffffff021916908373ffffffffffffffffffffffffffffffffffffffff1602179055506001816002018190555060018160030160003373ffffffffffffffffffffffffffffffffffffffff1673ffffffffffffffffffffffffffffffffffffffff16815260200190815260200160002060006101000a81548160ff02191690831515021790555060006001549050600060038111156110f6576110f5612265565b5b8260000160149054906101000a900460ff16600381111561111a57611119612265565b5b141561115c5760018260010160146101000a81548160ff0219169083600381111561114857611147612265565b5b0217905550611157838261175c565b61118a565b60008260010160146101000a81548160ff0219169083600381111561118457611183612265565b5b02179055505b6001600081548092919061119d906127e1565b91905055506111ab8161158f565b50505050565b565b6111bc33610d09565b6111c557600080fd5b60005b60048054905081101561144d573373ffffffffffffffffffffffffffffffffffffffff1660048281548110611200576111ff612896565b5b9060005260206000200160009054906101000a900473ffffffffffffffffffffffffffffffffffffffff1673ffffffffffffffffffffffffffffffffffffffff16141561143a576004600160048054905061125b91906128c5565b8154811061126c5761126b612896565b5b9060005260206000200160009054906101000a900473ffffffffffffffffffffffffffffffffffffffff16600482815481106112ab576112aa612896565b5b9060005260206000200160006101000a81548173ffffffffffffffffffffffffffffffffffffffff021916908373ffffffffffffffffffffffffffffffffffffffff1602179055506004805480611305576113046128f9565b5b6001900381819060005260206000200160006101000a81549073ffffffffffffffffffffffffffffffffffffffff02191690559055600360003373ffffffffffffffffffffffffffffffffffffffff1673ffffffffffffffffffffffffffffffffffffffff16815260200190815260200160002060006101000a81549060ff0219169055600260009054906101000a900473ffffffffffffffffffffffffffffffffffffffff1673ffffffffffffffffffffffffffffffffffffffff1663abfa796930336040518363ffffffff167c0100000000000000000000000000000000000000000000000000000000028152600401611402929190612928565b600060405180830381600087803b15801561141c57600080fd5b505af1158015611430573d6000803e3d6000fd5b505050505061144f565b8080611445906127e1565b9150506111c8565b505b565b60006002600381111561146757611466612265565b5b60008084815260200190815260200160002060000160149054906101000a900460ff16600381111561149c5761149b612265565b5b146114a657600080fd5b60008083815260200190815260200160002060010160009054906101000a900473ffffffffffffffffffffffffffffffffffffffff169050919050565b600260009054906101000a900473ffffffffffffffffffffffffffffffffffffffff1673ffffffffffffffffffffffffffffffffffffffff1663ad4600ee826040518263ffffffff167c010000000000000000000000000000000000000000000000000000000002815260040161155a9190612214565b600060405180830381600087803b15801561157457600080fd5b505af1158015611588573d6000803e3d6000fd5b5050505050565b600061159f60048054905061180b565b9050806000808481526020019081526020016000206002015414801561160c5750600060038111156115d4576115d3612265565b5b60008084815260200190815260200160002060000160149054906101000a900460ff16600381111561160957611608612265565b5b14155b1561164457600160008084815260200190815260200160002060010160156101000a81548160ff021916908315150217905550611726565b80600080848152602001908152602001600020600201541480156116ae57506000600381111561167757611676612265565b5b60008084815260200190815260200160002060000160149054906101000a900460ff1660038111156116ac576116ab612265565b5b145b80156116f15750600260008084815260200190815260200160002060010160149054906101000a900460ff1660038111156116ec576116eb612265565b5b60ff16145b1561172557600160008084815260200190815260200160002060010160156101000a81548160ff0219169083151502179055505b5b60008083815260200190815260200160002060010160159054906101000a900460ff1615611758576117578261182d565b5b5050565b600260009054906101000a900473ffffffffffffffffffffffffffffffffffffffff1673ffffffffffffffffffffffffffffffffffffffff1663d8a3bc5683836040518363ffffffff167c01000000000000000000000000000000000000000000000000000000000281526004016117d5929190612951565b600060405180830381600087803b1580156117ef57600080fd5b505af1158015611803573d6000803e3d6000fd5b505050505050565b6000600160028361181c91906129a9565b61182691906129da565b9050919050565b6000600381111561184157611840612265565b5b60008083815260200190815260200160002060000160149054906101000a900460ff16600381111561187657611875612265565b5b141561188a57611885816119a2565b61199f565b6001600381111561189e5761189d612265565b5b60008083815260200190815260200160002060000160149054906101000a900460ff1660038111156118d3576118d2612265565b5b14156118e7576118e281611b6a565b61199e565b600260038111156118fb576118fa612265565b5b60008083815260200190815260200160002060000160149054906101000a900460ff1660038111156119305761192f612265565b5b14156119445761193f81611e57565b61199d565b60038081111561195757611956612265565b5b60008083815260200190815260200160002060000160149054906101000a900460ff16600381111561198c5761198b612265565b5b141561199c5761199b81611f7f565b5b5b5b5b50565b600080600083815260200190815260200160002090506119c3816000611fdd565b60008160010160009054906101000a900473ffffffffffffffffffffffffffffffffffffffff1690506119f581610d09565b156119ff57600080fd5b6004819080600181540180825580915050600190039060005260206000200160009091909190916101000a81548173ffffffffffffffffffffffffffffffffffffffff021916908373ffffffffffffffffffffffffffffffffffffffff1602179055506001600360008373ffffffffffffffffffffffffffffffffffffffff1673ffffffffffffffffffffffffffffffffffffffff16815260200190815260200160002060006101000a81548160ff021916908315150217905550600260009054906101000a900473ffffffffffffffffffffffffffffffffffffffff1673ffffffffffffffffffffffffffffffffffffffff166351efa3f430836040518363ffffffff167c0100000000000000000000000000000000000000000000000000000000028152600401611b33929190612928565b600060405180830381600087803b158015611b4d57600080fd5b505af1158015611b61573d6000803e3d6000fd5b50505050505050565b60008060008381526020019081526020016000209050611b8b816001611fdd565b60008160010160009054906101000a900473ffffffffffffffffffffffffffffffffffffffff169050611bbd81610d09565b611bc657600080fd5b60005b600480549050811015611e50578173ffffffffffffffffffffffffffffffffffffffff1660048281548110611c0157611c00612896565b5b9060005260206000200160009054906101000a900473ffffffffffffffffffffffffffffffffffffffff1673ffffffffffffffffffffffffffffffffffffffff161415611e3d5760046001600480549050611c5c91906128c5565b81548110611c6d57611c6c612896565b5b9060005260206000200160009054906101000a900473ffffffffffffffffffffffffffffffffffffffff1660048281548110611cac57611cab612896565b5b9060005260206000200160006101000a81548173ffffffffffffffffffffffffffffffffffffffff021916908373ffffffffffffffffffffffffffffffffffffffff1602179055506004805480611d0657611d056128f9565b5b6001900381819060005260206000200160006101000a81549073ffffffffffffffffffffffffffffffffffffffff02191690559055600360008373ffffffffffffffffffffffffffffffffffffffff1673ffffffffffffffffffffffffffffffffffffffff16815260200190815260200160002060006101000a81549060ff0219169055600260009054906101000a900473ffffffffffffffffffffffffffffffffffffffff1673ffffffffffffffffffffffffffffffffffffffff1663abfa796930846040518363ffffffff167c0100000000000000000000000000000000000000000000000000000000028152600401611e03929190612928565b600060405180830381600087803b158015611e1d57600080fd5b505af1158015611e31573d6000803e3d6000fd5b50505050505050611e54565b8080611e48906127e1565b915050611bc9565b5050505b50565b60008060008381526020019081526020016000209050611e78816002611fdd565b3073ffffffffffffffffffffffffffffffffffffffff16318160010160009054906101000a900473ffffffffffffffffffffffffffffffffffffffff1673ffffffffffffffffffffffffffffffffffffffff161115611ed657600080fd5b8060000160009054906101000a900473ffffffffffffffffffffffffffffffffffffffff1673ffffffffffffffffffffffffffffffffffffffff166108fc8260010160009054906101000a900473ffffffffffffffffffffffffffffffffffffffff1673ffffffffffffffffffffffffffffffffffffffff169081150290604051600060405180830381858888f19350505050158015611f7a573d6000803e3d6000fd5b505050565b60008060008381526020019081526020016000209050611fa0816003611fdd565b8060010160009054906101000a900473ffffffffffffffffffffffffffffffffffffffff1673ffffffffffffffffffffffffffffffffffffffff16ff5b806003811115611ff057611fef612265565b5b8260000160149054906101000a900460ff16600381111561201457612013612265565b5b14612054576040517f08c379a000000000000000000000000000000000000000000000000000000000815260040161204b9061264e565b60405180910390fd5b600115158260010160159054906101000a900460ff161515146120ac576040517f08c379a00000000000000000000000000000000000000000000000000000000081526004016120a390612a7c565b60405180910390fd5b5050565b600081519050919050565b600082825260208201905092915050565b60005b838110156120ea5780820151818401526020810190506120cf565b838111156120f9576000848401525b50505050565b6000601f19601f8301169050919050565b600061211b826120b0565b61212581856120bb565b93506121358185602086016120cc565b61213e816120ff565b840191505092915050565b600060208201905081810360008301526121638184612110565b905092915050565b600080fd5b6000819050919050565b61218381612170565b811461218e57600080fd5b50565b6000813590506121a08161217a565b92915050565b6000602082840312156121bc576121bb61216b565b5b60006121ca84828501612191565b91505092915050565b600073ffffffffffffffffffffffffffffffffffffffff82169050919050565b60006121fe826121d3565b9050919050565b61220e816121f3565b82525050565b60006020820190506122296000830184612205565b92915050565b60008115159050919050565b6122448161222f565b82525050565b600060208201905061225f600083018461223b565b92915050565b7f4e487b7100000000000000000000000000000000000000000000000000000000600052602160045260246000fd5b600481106122a5576122a4612265565b5b50565b60008190506122b682612294565b919050565b60006122c6826122a8565b9050919050565b6122d6816122bb565b82525050565b60006020820190506122f160008301846122cd565b92915050565b61230081612170565b82525050565b600060208201905061231b60008301846122f7565b92915050565b600060ff82169050919050565b61233781612321565b82525050565b6000602082019050612352600083018461232e565b92915050565b612361816121f3565b811461236c57600080fd5b50565b60008135905061237e81612358565b92915050565b60006020828403121561239a5761239961216b565b5b60006123a88482850161236f565b91505092915050565b6000819050919050565b60006123d66123d16123cc846121d3565b6123b1565b6121d3565b9050919050565b60006123e8826123bb565b9050919050565b60006123fa826123dd565b9050919050565b61240a816123ef565b82525050565b60006020820190506124256000830184612401565b92915050565b600081519050919050565b600082825260208201905092915050565b6000819050602082019050919050565b612460816121f3565b82525050565b60006124728383612457565b60208301905092915050565b6000602082019050919050565b60006124968261242b565b6124a08185612436565b93506124ab83612447565b8060005b838110156124dc5781516124c38882612466565b97506124ce8361247e565b9250506001810190506124af565b5085935050505092915050565b60006020820190508181036000830152612503818461248b565b905092915050565b612514816121d3565b811461251f57600080fd5b50565b6000813590506125318161250b565b92915050565b6000806040838503121561254e5761254d61216b565b5b600061255c85828601612191565b925050602061256d85828601612522565b9150509250929050565b612580816121d3565b82525050565b600060208201905061259b6000830184612577565b92915050565b7f4e487b7100000000000000000000000000000000000000000000000000000000600052602260045260246000fd5b600060028204905060018216806125e857607f821691505b602082108114156125fc576125fb6125a1565b5b50919050565b7f57726f6e67207265717565737420696421000000000000000000000000000000600082015250565b60006126386011836120bb565b915061264382612602565b602082019050919050565b600060208201905081810360008301526126678161262b565b9050919050565b7f496e7669746174696f6e20616c72656164792061636365707465642100000000600082015250565b60006126a4601c836120bb565b91506126af8261266e565b602082019050919050565b600060208201905081810360008301526126d381612697565b9050919050565b7f526571756573742068617320616c726561647920706173736564210000000000600082015250565b6000612710601b836120bb565b915061271b826126da565b602082019050919050565b6000602082019050818103600083015261273f81612703565b9050919050565b7f416c726561647920766f74656420746f20746869732072657175657374210000600082015250565b600061277c601e836120bb565b915061278782612746565b602082019050919050565b600060208201905081810360008301526127ab8161276f565b9050919050565b7f4e487b7100000000000000000000000000000000000000000000000000000000600052601160045260246000fd5b60006127ec82612170565b91507fffffffffffffffffffffffffffffffffffffffffffffffffffffffffffffffff82141561281f5761281e6127b2565b5b600182019050919050565b7f496e76616c696420726571756573742074797065210000000000000000000000600082015250565b60006128606015836120bb565b915061286b8261282a565b602082019050919050565b6000602082019050818103600083015261288f81612853565b9050919050565b7f4e487b7100000000000000000000000000000000000000000000000000000000600052603260045260246000fd5b60006128d082612170565b91506128db83612170565b9250828210156128ee576128ed6127b2565b5b828203905092915050565b7f4e487b7100000000000000000000000000000000000000000000000000000000600052603160045260246000fd5b600060408201905061293d6000830185612205565b61294a6020830184612205565b9392505050565b60006040820190506129666000830185612205565b61297360208301846122f7565b9392505050565b7f4e487b7100000000000000000000000000000000000000000000000000000000600052601260045260246000fd5b60006129b482612170565b91506129bf83612170565b9250826129cf576129ce61297a565b5b828204905092915050565b60006129e582612170565b91506129f083612170565b9250827fffffffffffffffffffffffffffffffffffffffffffffffffffffffffffffffff03821115612a2557612a246127b2565b5b828201905092915050565b7f52657175657374206973206e6f7420617070726f766564207965742100000000600082015250565b6000612a66601c836120bb565b9150612a7182612a30565b602082019050919050565b60006020820190508181036000830152612a9581612a59565b905091905056fea2646970667358221220c20e675e758e3a7187dfb5e2ad8d1831ac01ecc4052f7c2eac013b3346dfe08e64736f6c634300080c0033",
  "immutableReferences": {},
  "source": "//SPDX-License-Identifier: MIT\r\npragma solidity ^0.8.0;\r\n\r\nimport \"./Voting.sol\";\r\nimport \"./SharedWalletStorage.sol\";\r\n\r\ncontract SharedWallet is Voting {\r\n    SharedWalletStorage private _walletsStorage;\r\n    mapping(address => bool) private _isMember;\r\n    address[] private _members;\r\n    string private _name;\r\n\r\n    modifier onlyMember() override {\r\n        require(_isMember[msg.sender]);\r\n        _;\r\n    }\r\n\r\n    constructor(\r\n        address _creator,\r\n        address _walletsStorageAddress,\r\n        string memory name_\r\n    ) {\r\n        require(bytes(name_).length != 0);\r\n        _walletsStorage = SharedWalletStorage(_walletsStorageAddress);\r\n\r\n        _members.push(_creator);\r\n        _isMember[_creator] = true;\r\n        _name = name_;\r\n    }\r\n\r\n    function members() public view returns (address[] memory) {\r\n        return _members;\r\n    }\r\n\r\n    function name() public view returns (string memory) {\r\n        return _name;\r\n    }\r\n\r\n    function walletsStorage() public view returns (SharedWalletStorage) {\r\n        return _walletsStorage;\r\n    }\r\n\r\n    function isMember(address _user) public view returns (bool) {\r\n        return _isMember[_user];\r\n    }\r\n\r\n    function _addMember(uint256 _requestId) private {\r\n        Request storage request = _requests[_requestId];\r\n        _validateRequest(request, RequestTypes.AddMember);\r\n\r\n        address newMember = address(request.data);\r\n\r\n        require(!isMember(newMember));\r\n        _members.push(newMember);\r\n        _isMember[newMember] = true;\r\n        _walletsStorage.addWalletToUser(address(this), newMember);\r\n    }\r\n\r\n    function _removeMember(uint256 _requestId) private {\r\n        Request storage request = _requests[_requestId];\r\n        _validateRequest(request, RequestTypes.RemoveMember);\r\n\r\n        address memberToRemove = address(request.data);\r\n\r\n        require(isMember(memberToRemove));\r\n        for (uint256 i = 0; i < _members.length; i++)\r\n            if (_members[i] == memberToRemove) {\r\n                _members[i] = _members[_members.length - 1];\r\n                _members.pop();\r\n                delete _isMember[memberToRemove];\r\n                _walletsStorage.removeWalletForUser(\r\n                    address(this),\r\n                    memberToRemove\r\n                );\r\n                return;\r\n            }\r\n    }\r\n\r\n    function _withdraw(uint256 _requestId) private {\r\n        Request storage request = _requests[_requestId];\r\n        _validateRequest(request, RequestTypes.Withdraw);\r\n\r\n        require(request.data <= address(this).balance);\r\n\r\n        payable(request.author).transfer(request.data);\r\n    }\r\n\r\n    function _destroy(uint256 _requestId) private {\r\n        Request storage request = _requests[_requestId];\r\n        _validateRequest(request, RequestTypes.Destroy);\r\n\r\n        selfdestruct(payable(address(request.data)));\r\n    }\r\n\r\n    function leave() external {\r\n        require(isMember(msg.sender));\r\n        for (uint256 i = 0; i < _members.length; i++)\r\n            if (_members[i] == msg.sender) {\r\n                _members[i] = _members[_members.length - 1];\r\n                _members.pop();\r\n                delete _isMember[msg.sender];\r\n                _walletsStorage.removeWalletForUser(address(this), msg.sender);\r\n                return;\r\n            }\r\n    }\r\n\r\n    function _tryApproveRequest(uint256 _requestId) internal override {\r\n        uint256 goal = _getMajority(_members.length);\r\n        if (\r\n            _requests[_requestId].proVotersCount == goal &&\r\n            _requests[_requestId].requestType != RequestTypes.AddMember\r\n        ) _requests[_requestId].approved = true;\r\n        else if (\r\n            _requests[_requestId].proVotersCount == goal &&\r\n            _requests[_requestId].requestType == RequestTypes.AddMember &&\r\n            uint8(_requests[_requestId].invitationAccepted) == 2\r\n        ) _requests[_requestId].approved = true;\r\n\r\n        if (_requests[_requestId].approved) _executeRequest(_requestId);\r\n    }\r\n\r\n    function _executeRequest(uint256 _requestId) private {\r\n        if (_requests[_requestId].requestType == RequestTypes.AddMember)\r\n            _addMember(_requestId);\r\n        else if (_requests[_requestId].requestType == RequestTypes.RemoveMember)\r\n            _removeMember(_requestId);\r\n        else if (_requests[_requestId].requestType == RequestTypes.Withdraw)\r\n            _withdraw(_requestId);\r\n        else if (_requests[_requestId].requestType == RequestTypes.Destroy)\r\n            _destroy(_requestId);\r\n    }\r\n\r\n    function _validateRequest(\r\n        Request storage _request,\r\n        RequestTypes _requestType\r\n    ) private view {\r\n        require(_request.requestType == _requestType, \"Wrong request id!\");\r\n        require(_request.approved == true, \"Request is not approved yet!\");\r\n    }\r\n\r\n    function _sendInvitation(address _user, uint256 _requestId)\r\n        internal\r\n        override\r\n    {\r\n        _walletsStorage.sendUserInvitation(_user, _requestId);\r\n    }\r\n\r\n    function _removeInvitation(address _user) internal override {\r\n        _walletsStorage.removeUserInvitation(_user);\r\n    }\r\n\r\n    function deposit() external payable {}\r\n}\r\n",
  "sourcePath": "C:\\Users\\Joro\\Documents\\GitHub\\ShareIt\\contracts\\SharedWallet.sol",
  "compiler": {
    "name": "solc",
    "version": "0.8.12+commit.f00d7308.Emscripten.clang"
  },
  "schemaVersion": "3.4.6",
  "updatedAt": "2022-04-06T23:00:29.713Z",
  "devdoc": {
    "kind": "dev",
    "methods": {},
    "version": 1
  },
  "userdoc": {
    "kind": "user",
    "methods": {},
    "version": 1
  }
}