{
  "contractName": "SharedWalletFactory",
  "abi": [
    {
      "inputs": [],
      "stateMutability": "nonpayable",
      "type": "constructor"
    },
    {
      "inputs": [],
      "name": "walletsStorage",
      "outputs": [
        {
          "internalType": "contract SharedWalletsStorage",
          "name": "",
          "type": "address"
        }
      ],
      "stateMutability": "view",
      "type": "function"
    },
    {
      "inputs": [
        {
          "internalType": "uint256",
          "name": "_maxMembers",
          "type": "uint256"
        }
      ],
      "name": "createNewSharedWallet",
      "outputs": [],
      "stateMutability": "nonpayable",
      "type": "function"
    }
  ],
  "bytecode": "0x608060405234801561001057600080fd5b5060405161001d9061007e565b604051809103906000f080158015610039573d6000803e3d6000fd5b506000806101000a81548173ffffffffffffffffffffffffffffffffffffffff021916908373ffffffffffffffffffffffffffffffffffffffff16021790555061008b565b6108e68061208a83390190565b611ff08061009a6000396000f3fe608060405234801561001057600080fd5b5060043610610053576000357c0100000000000000000000000000000000000000000000000000000000900480634a43a27314610058578063abcc915314610074575b600080fd5b610072600480360381019061006d919061015b565b610092565b005b61007c6100ee565b6040516100899190610207565b60405180910390f35b338160008054906101000a900473ffffffffffffffffffffffffffffffffffffffff166040516100c190610112565b6100cd93929190610252565b604051809103906000f0801580156100e9573d6000803e3d6000fd5b505050565b60008054906101000a900473ffffffffffffffffffffffffffffffffffffffff1681565b611d31806200028a83390190565b600080fd5b6000819050919050565b61013881610125565b811461014357600080fd5b50565b6000813590506101558161012f565b92915050565b60006020828403121561017157610170610120565b5b600061017f84828501610146565b91505092915050565b600073ffffffffffffffffffffffffffffffffffffffff82169050919050565b6000819050919050565b60006101cd6101c86101c384610188565b6101a8565b610188565b9050919050565b60006101df826101b2565b9050919050565b60006101f1826101d4565b9050919050565b610201816101e6565b82525050565b600060208201905061021c60008301846101f8565b92915050565b600061022d82610188565b9050919050565b61023d81610222565b82525050565b61024c81610125565b82525050565b60006060820190506102676000830186610234565b6102746020830185610243565b61028160408301846101f8565b94935050505056fe60806040523480156200001157600080fd5b5060405162001d3138038062001d31833981810160405281019062000037919062000321565b600c8211156200007e576040517f08c379a0000000000000000000000000000000000000000000000000000000008152600401620000759062000404565b60405180910390fd5b80600260006101000a81548173ffffffffffffffffffffffffffffffffffffffff021916908373ffffffffffffffffffffffffffffffffffffffff160217905550816003819055506005839080600181540180825580915050600190039060005260206000200160009091909190916101000a81548173ffffffffffffffffffffffffffffffffffffffff021916908373ffffffffffffffffffffffffffffffffffffffff1602179055506001600460008573ffffffffffffffffffffffffffffffffffffffff1673ffffffffffffffffffffffffffffffffffffffff16815260200190815260200160002060006101000a81548160ff021916908315150217905550600260009054906101000a900473ffffffffffffffffffffffffffffffffffffffff1673ffffffffffffffffffffffffffffffffffffffff16634ab07122846040518263ffffffff167c0100000000000000000000000000000000000000000000000000000000028152600401620001fa919062000437565b600060405180830381600087803b1580156200021557600080fd5b505af11580156200022a573d6000803e3d6000fd5b5050505050505062000454565b600080fd5b600073ffffffffffffffffffffffffffffffffffffffff82169050919050565b600062000269826200023c565b9050919050565b6200027b816200025c565b81146200028757600080fd5b50565b6000815190506200029b8162000270565b92915050565b6000819050919050565b620002b681620002a1565b8114620002c257600080fd5b50565b600081519050620002d681620002ab565b92915050565b6000620002e9826200025c565b9050919050565b620002fb81620002dc565b81146200030757600080fd5b50565b6000815190506200031b81620002f0565b92915050565b6000806000606084860312156200033d576200033c62000237565b5b60006200034d868287016200028a565b93505060206200036086828701620002c5565b925050604062000373868287016200030a565b9150509250925092565b600082825260208201905092915050565b7f43616e6e6f742068617665206d6f7265207468616e203132206d656d6265727360008201527f20696e20612073696e676c65207368617265642077616c6c6574210000000000602082015250565b6000620003ec603b836200037d565b9150620003f9826200038e565b604082019050919050565b600060208201905081810360008301526200041f81620003dd565b9050919050565b62000431816200025c565b82525050565b60006020820190506200044e600083018462000426565b92915050565b6118cd80620004646000396000f3fe6080604052600436106100c8576000357c01000000000000000000000000000000000000000000000000000000009004806381d12c581161008157806381d12c58146102195780639d1187701461025b5780639eab525314610298578063a1a74aae146102c3578063a230c52414610300578063bf4386a01461033d576100cf565b80631089f5ed146100d15780632e1a7d4d1461010e5780634ba1f0981461014b5780635daf08ca14610174578063663c2269146101b15780636fb8c995146101dc576100cf565b366100cf57005b005b3480156100dd57600080fd5b506100f860048036038101906100f391906110e3565b610368565b604051610105919061112b565b60405180910390f35b34801561011a57600080fd5b50610135600480360381019061013091906110e3565b6105ad565b604051610142919061112b565b60405180910390f35b34801561015757600080fd5b50610172600480360381019061016d91906110e3565b610638565b005b34801561018057600080fd5b5061019b600480360381019061019691906110e3565b6107ce565b6040516101a89190611187565b60405180910390f35b3480156101bd57600080fd5b506101c661080d565b6040516101d391906111b1565b60405180910390f35b3480156101e857600080fd5b5061020360048036038101906101fe919061121d565b610813565b60405161021091906111b1565b60405180910390f35b34801561022557600080fd5b50610240600480360381019061023b91906110e3565b610aa7565b604051610252969594939291906112e7565b60405180910390f35b34801561026757600080fd5b50610282600480360381019061027d91906110e3565b610b3d565b60405161028f919061112b565b60405180910390f35b3480156102a457600080fd5b506102ad610b9c565b6040516102ba9190611406565b60405180910390f35b3480156102cf57600080fd5b506102ea60048036038101906102e591906110e3565b610c2a565b6040516102f7919061112b565b60405180910390f35b34801561030c57600080fd5b5061032760048036038101906103229190611428565b610e99565b604051610334919061112b565b60405180910390f35b34801561034957600080fd5b50610352610eb9565b60405161035f91906111b1565b60405180910390f35b600080600080848152602001908152602001600020905061038a816000610ebf565b600354600580549050106103d3576040517f08c379a00000000000000000000000000000000000000000000000000000000081526004016103ca906114d8565b60405180910390fd5b60058160010160009054906101000a900473ffffffffffffffffffffffffffffffffffffffff169080600181540180825580915050600190039060005260206000200160009091909190916101000a81548173ffffffffffffffffffffffffffffffffffffffff021916908373ffffffffffffffffffffffffffffffffffffffff1602179055506001600460008360010160009054906101000a900473ffffffffffffffffffffffffffffffffffffffff1673ffffffffffffffffffffffffffffffffffffffff1673ffffffffffffffffffffffffffffffffffffffff16815260200190815260200160002060006101000a81548160ff021916908315150217905550600260009054906101000a900473ffffffffffffffffffffffffffffffffffffffff1673ffffffffffffffffffffffffffffffffffffffff16634ab071228260010160009054906101000a900473ffffffffffffffffffffffffffffffffffffffff166040518263ffffffff167c01000000000000000000000000000000000000000000000000000000000281526004016105719190611187565b600060405180830381600087803b15801561058b57600080fd5b505af115801561059f573d6000803e3d6000fd5b505050506001915050919050565b60008060008084815260200190815260200160002090506105cf816002610ebf565b3073ffffffffffffffffffffffffffffffffffffffff1631816002015411156105f757600080fd5b3373ffffffffffffffffffffffffffffffffffffffff166108fc82600201549081150290604051600060405180830381858888f19350505050915050919050565b600460003373ffffffffffffffffffffffffffffffffffffffff1673ffffffffffffffffffffffffffffffffffffffff16815260200190815260200160002060009054906101000a900460ff1661068e57600080fd5b6000151560008083815260200190815260200160002060040160003373ffffffffffffffffffffffffffffffffffffffff1673ffffffffffffffffffffffffffffffffffffffff16815260200190815260200160002060009054906101000a900460ff16151514610734576040517f08c379a000000000000000000000000000000000000000000000000000000000815260040161072b90611544565b60405180910390fd5b6001151560008083815260200190815260200160002060040160003373ffffffffffffffffffffffffffffffffffffffff1673ffffffffffffffffffffffffffffffffffffffff16815260200190815260200160002060009054906101000a9050505060008082815260200190815260200160002060030160008154809291906107bd90611593565b91905055506107cb81611024565b50565b600581815481106107de57600080fd5b906000526020600020016000915054906101000a900473ffffffffffffffffffffffffffffffffffffffff1681565b60015481565b6000600460003373ffffffffffffffffffffffffffffffffffffffff1673ffffffffffffffffffffffffffffffffffffffff16815260200190815260200160002060009054906101000a900460ff1661086b57600080fd5b60038460038111156108805761087f611270565b5b11156108c1576040517f08c379a00000000000000000000000000000000000000000000000000000000081526004016108b890611628565b60405180910390fd5b600260038111156108d5576108d4611270565b5b8460038111156108e8576108e7611270565b5b141561093a5760008310156108fc57600080fd5b600073ffffffffffffffffffffffffffffffffffffffff168273ffffffffffffffffffffffffffffffffffffffff161461093557600080fd5b610982565b6000831461094757600080fd5b600073ffffffffffffffffffffffffffffffffffffffff168273ffffffffffffffffffffffffffffffffffffffff16141561098157600080fd5b5b600080600060015481526020019081526020016000209050338160000160006101000a81548173ffffffffffffffffffffffffffffffffffffffff021916908373ffffffffffffffffffffffffffffffffffffffff160217905550848160000160146101000a81548160ff02191690836003811115610a0457610a03611270565b5b0217905550828160010160006101000a81548173ffffffffffffffffffffffffffffffffffffffff021916908373ffffffffffffffffffffffffffffffffffffffff1602179055508381600201819055506001816003018190555060008160050160006101000a81548160ff0219169083151502179055506000600154905060016000815480929190610a9690611593565b919050555080925050509392505050565b60006020528060005260406000206000915090508060000160009054906101000a900473ffffffffffffffffffffffffffffffffffffffff16908060000160149054906101000a900460ff16908060010160009054906101000a900473ffffffffffffffffffffffffffffffffffffffff16908060020154908060030154908060050160009054906101000a900460ff16905086565b6000806000808481526020019081526020016000209050610b5f816003610ebf565b8060010160009054906101000a900473ffffffffffffffffffffffffffffffffffffffff1673ffffffffffffffffffffffffffffffffffffffff16ff5b60606005805480602002602001604051908101604052809291908181526020018280548015610c2057602002820191906000526020600020905b8160009054906101000a900473ffffffffffffffffffffffffffffffffffffffff1673ffffffffffffffffffffffffffffffffffffffff1681526020019060010190808311610bd6575b5050505050905090565b6000806000808481526020019081526020016000209050610c4c816001610ebf565b60005b600580549050811015610e8d578160010160009054906101000a900473ffffffffffffffffffffffffffffffffffffffff1673ffffffffffffffffffffffffffffffffffffffff1660058281548110610cab57610caa611648565b5b9060005260206000200160009054906101000a900473ffffffffffffffffffffffffffffffffffffffff1673ffffffffffffffffffffffffffffffffffffffff161415610e7a57600060058281548110610d0857610d07611648565b5b9060005260206000200160009054906101000a900473ffffffffffffffffffffffffffffffffffffffff16905060058281548110610d4957610d48611648565b5b9060005260206000200160006101000a81549073ffffffffffffffffffffffffffffffffffffffff0219169055600460008273ffffffffffffffffffffffffffffffffffffffff1673ffffffffffffffffffffffffffffffffffffffff16815260200190815260200160002060006101000a81549060ff0219169055600260009054906101000a900473ffffffffffffffffffffffffffffffffffffffff1673ffffffffffffffffffffffffffffffffffffffff1663e22972f2826040518263ffffffff167c0100000000000000000000000000000000000000000000000000000000028152600401610e3c9190611187565b600060405180830381600087803b158015610e5657600080fd5b505af1158015610e6a573d6000803e3d6000fd5b5050505060019350505050610e94565b8080610e8590611593565b915050610c4f565b5060009150505b919050565b60046020528060005260406000206000915054906101000a900460ff1681565b60035481565b3373ffffffffffffffffffffffffffffffffffffffff168260000160009054906101000a900473ffffffffffffffffffffffffffffffffffffffff1673ffffffffffffffffffffffffffffffffffffffff1614610f51576040517f08c379a0000000000000000000000000000000000000000000000000000000008152600401610f48906116e9565b60405180910390fd5b600115158260050160009054906101000a900460ff16151514610fa9576040517f08c379a0000000000000000000000000000000000000000000000000000000008152600401610fa090611755565b60405180910390fd5b806003811115610fbc57610fbb611270565b5b8260000160149054906101000a900460ff166003811115610fe057610fdf611270565b5b14611020576040517f08c379a0000000000000000000000000000000000000000000000000000000008152600401611017906117c1565b60405180910390fd5b5050565b6000611034600580549050611086565b90508060008084815260200190815260200160002060030154141561108257600160008084815260200190815260200160002060050160006101000a81548160ff0219169083151502179055505b5050565b600060016002836110979190611810565b6110a19190611841565b9050919050565b600080fd5b6000819050919050565b6110c0816110ad565b81146110cb57600080fd5b50565b6000813590506110dd816110b7565b92915050565b6000602082840312156110f9576110f86110a8565b5b6000611107848285016110ce565b91505092915050565b60008115159050919050565b61112581611110565b82525050565b6000602082019050611140600083018461111c565b92915050565b600073ffffffffffffffffffffffffffffffffffffffff82169050919050565b600061117182611146565b9050919050565b61118181611166565b82525050565b600060208201905061119c6000830184611178565b92915050565b6111ab816110ad565b82525050565b60006020820190506111c660008301846111a2565b92915050565b600481106111d957600080fd5b50565b6000813590506111eb816111cc565b92915050565b6111fa81611166565b811461120557600080fd5b50565b600081359050611217816111f1565b92915050565b600080600060608486031215611236576112356110a8565b5b6000611244868287016111dc565b9350506020611255868287016110ce565b925050604061126686828701611208565b9150509250925092565b7f4e487b7100000000000000000000000000000000000000000000000000000000600052602160045260246000fd5b600481106112b0576112af611270565b5b50565b60008190506112c18261129f565b919050565b60006112d1826112b3565b9050919050565b6112e1816112c6565b82525050565b600060c0820190506112fc6000830189611178565b61130960208301886112d8565b6113166040830187611178565b61132360608301866111a2565b61133060808301856111a2565b61133d60a083018461111c565b979650505050505050565b600081519050919050565b600082825260208201905092915050565b6000819050602082019050919050565b61137d81611166565b82525050565b600061138f8383611374565b60208301905092915050565b6000602082019050919050565b60006113b382611348565b6113bd8185611353565b93506113c883611364565b8060005b838110156113f95781516113e08882611383565b97506113eb8361139b565b9250506001810190506113cc565b5085935050505092915050565b6000602082019050818103600083015261142081846113a8565b905092915050565b60006020828403121561143e5761143d6110a8565b5b600061144c84828501611208565b91505092915050565b600082825260208201905092915050565b7f4d6178696d756d206e756d626572206f66206d656d626572732072656163686560008201527f6421000000000000000000000000000000000000000000000000000000000000602082015250565b60006114c2602283611455565b91506114cd82611466565b604082019050919050565b600060208201905081810360008301526114f1816114b5565b9050919050565b7f416c726561647920766f74656420746f20746869732072657175657374210000600082015250565b600061152e601e83611455565b9150611539826114f8565b602082019050919050565b6000602082019050818103600083015261155d81611521565b9050919050565b7f4e487b7100000000000000000000000000000000000000000000000000000000600052601160045260246000fd5b600061159e826110ad565b91507fffffffffffffffffffffffffffffffffffffffffffffffffffffffffffffffff8214156115d1576115d0611564565b5b600182019050919050565b7f496e76616c696420726571756573742074797065210000000000000000000000600082015250565b6000611612601583611455565b915061161d826115dc565b602082019050919050565b6000602082019050818103600083015261164181611605565b9050919050565b7f4e487b7100000000000000000000000000000000000000000000000000000000600052603260045260246000fd5b7f596f7520617265206e6f742074686520617574686f72206f662074686973207260008201527f6571756573742100000000000000000000000000000000000000000000000000602082015250565b60006116d3602783611455565b91506116de82611677565b604082019050919050565b60006020820190508181036000830152611702816116c6565b9050919050565b7f52657175657374206973206e6f7420617070726f766564207965742100000000600082015250565b600061173f601c83611455565b915061174a82611709565b602082019050919050565b6000602082019050818103600083015261176e81611732565b9050919050565b7f57726f6e67207265717565737420696421000000000000000000000000000000600082015250565b60006117ab601183611455565b91506117b682611775565b602082019050919050565b600060208201905081810360008301526117da8161179e565b9050919050565b7f4e487b7100000000000000000000000000000000000000000000000000000000600052601260045260246000fd5b600061181b826110ad565b9150611826836110ad565b925082611836576118356117e1565b5b828204905092915050565b600061184c826110ad565b9150611857836110ad565b9250827fffffffffffffffffffffffffffffffffffffffffffffffffffffffffffffffff0382111561188c5761188b611564565b5b82820190509291505056fea2646970667358221220cf4cb06d4b4f21ddb8f0ae08ec3a2fc667260836282cb55753e773a0a68e01b664736f6c634300080c0033a264697066735822122054daa7888654b129231ebb0cb572448e6a8652cd878f2ffa6835d6725f57a02b64736f6c634300080c0033608060405260086000806101000a81548160ff021916908360ff16021790555034801561002b57600080fd5b506108ab8061003b6000396000f3fe608060405234801561001057600080fd5b5060043610610069576000357c0100000000000000000000000000000000000000000000000000000000900480632bf727671461006e5780634ab071221461008c5780635c2d4450146100a8578063e22972f2146100d8575b600080fd5b6100766100f4565b604051610083919061057b565b60405180910390f35b6100a660048036038101906100a191906105f9565b610105565b005b6100c260048036038101906100bd919061065c565b6102dc565b6040516100cf91906106ab565b60405180910390f35b6100f260048036038101906100ed91906105f9565b61032a565b005b60008054906101000a900460ff1681565b3373ffffffffffffffffffffffffffffffffffffffff1663a230c524826040518263ffffffff167c010000000000000000000000000000000000000000000000000000000002815260040161015a91906106ab565b602060405180830381865afa158015610177573d6000803e3d6000fd5b505050506040513d601f19601f8201168201806040525081019061019b91906106fe565b6101a457600080fd5b60008054906101000a900460ff1660ff16600160008373ffffffffffffffffffffffffffffffffffffffff1673ffffffffffffffffffffffffffffffffffffffff168152602001908152602001600020805490501115610239576040517f08c379a0000000000000000000000000000000000000000000000000000000008152600401610230906107ae565b60405180910390fd5b600160008273ffffffffffffffffffffffffffffffffffffffff1673ffffffffffffffffffffffffffffffffffffffff168152602001908152602001600020339080600181540180825580915050600190039060005260206000200160009091909190916101000a81548173ffffffffffffffffffffffffffffffffffffffff021916908373ffffffffffffffffffffffffffffffffffffffff16021790555050565b600160205281600052604060002081815481106102f857600080fd5b906000526020600020016000915091509054906101000a900473ffffffffffffffffffffffffffffffffffffffff1681565b3373ffffffffffffffffffffffffffffffffffffffff1663a230c524826040518263ffffffff167c010000000000000000000000000000000000000000000000000000000002815260040161037f91906106ab565b602060405180830381865afa15801561039c573d6000803e3d6000fd5b505050506040513d601f19601f820116820180604052508101906103c091906106fe565b6103c957600080fd5b60005b600160008373ffffffffffffffffffffffffffffffffffffffff1673ffffffffffffffffffffffffffffffffffffffff1681526020019081526020016000208054905081101561055b573373ffffffffffffffffffffffffffffffffffffffff16600160008473ffffffffffffffffffffffffffffffffffffffff1673ffffffffffffffffffffffffffffffffffffffff168152602001908152602001600020828154811061047e5761047d6107ce565b5b9060005260206000200160009054906101000a900473ffffffffffffffffffffffffffffffffffffffff1673ffffffffffffffffffffffffffffffffffffffff16141561054857600160008373ffffffffffffffffffffffffffffffffffffffff1673ffffffffffffffffffffffffffffffffffffffff1681526020019081526020016000208181548110610516576105156107ce565b5b9060005260206000200160006101000a81549073ffffffffffffffffffffffffffffffffffffffff021916905561055b565b80806105539061082c565b9150506103cc565b5050565b600060ff82169050919050565b6105758161055f565b82525050565b6000602082019050610590600083018461056c565b92915050565b600080fd5b600073ffffffffffffffffffffffffffffffffffffffff82169050919050565b60006105c68261059b565b9050919050565b6105d6816105bb565b81146105e157600080fd5b50565b6000813590506105f3816105cd565b92915050565b60006020828403121561060f5761060e610596565b5b600061061d848285016105e4565b91505092915050565b6000819050919050565b61063981610626565b811461064457600080fd5b50565b60008135905061065681610630565b92915050565b6000806040838503121561067357610672610596565b5b6000610681858286016105e4565b925050602061069285828601610647565b9150509250929050565b6106a5816105bb565b82525050565b60006020820190506106c0600083018461069c565b92915050565b60008115159050919050565b6106db816106c6565b81146106e657600080fd5b50565b6000815190506106f8816106d2565b92915050565b60006020828403121561071457610713610596565b5b6000610722848285016106e9565b91505092915050565b600082825260208201905092915050565b7f412073696e676c6520757365722063616e6e6f7420706172746963697061746560008201527f20696e206d6f7265207468616e20382077616c6c657473210000000000000000602082015250565b600061079860388361072b565b91506107a38261073c565b604082019050919050565b600060208201905081810360008301526107c78161078b565b9050919050565b7f4e487b7100000000000000000000000000000000000000000000000000000000600052603260045260246000fd5b7f4e487b7100000000000000000000000000000000000000000000000000000000600052601160045260246000fd5b600061083782610626565b91507fffffffffffffffffffffffffffffffffffffffffffffffffffffffffffffffff82141561086a576108696107fd565b5b60018201905091905056fea2646970667358221220175360b8562b7a504b135318a9ab77220efcbd8829bcc94c6838ffcb18bef80064736f6c634300080c0033",
  "immutableReferences": {},
  "source": "//SPDX-License-Identifier: MIT\r\npragma solidity ^0.8.0;\r\n\r\nimport \"./SharedWallet.sol\";\r\nimport \"./SharedWalletsStorage.sol\";\r\n\r\ncontract SharedWalletFactory {\r\n    SharedWalletsStorage public walletsStorage;\r\n\r\n    constructor() {\r\n        walletsStorage = new SharedWalletsStorage();\r\n    }\r\n\r\n    function createNewSharedWallet(uint256 _maxMembers) external {\r\n        new SharedWallet(msg.sender, _maxMembers, walletsStorage);\r\n    }\r\n}\r\n",
  "sourcePath": "C:\\Users\\Joro\\Documents\\GitHub\\ShareIt\\contracts\\SharedWalletFactory.sol",
  "compiler": {
    "name": "solc",
    "version": "0.8.12+commit.f00d7308.Emscripten.clang"
  },
  "schemaVersion": "3.4.6",
  "updatedAt": "2022-03-24T11:35:16.112Z",
  "devdoc": {
    "kind": "dev",
    "methods": {},
    "version": 1
  },
  "userdoc": {
    "kind": "user",
    "methods": {},
    "version": 1
  }
}