{
  "contractName": "SharedWallet",
  "abi": [
    {
      "inputs": [
        {
          "internalType": "address",
          "name": "_creator",
          "type": "address"
        },
        {
          "internalType": "uint256",
          "name": "_maxMembers",
          "type": "uint256"
        },
        {
          "internalType": "contract SharedWalletStorage",
          "name": "_walletStorage",
          "type": "address"
        }
      ],
      "stateMutability": "nonpayable",
      "type": "constructor"
    },
    {
      "stateMutability": "payable",
      "type": "fallback"
    },
    {
      "inputs": [
        {
          "internalType": "uint256",
          "name": "_requestID",
          "type": "uint256"
        }
      ],
      "name": "acceptRequest",
      "outputs": [],
      "stateMutability": "nonpayable",
      "type": "function"
    },
    {
      "inputs": [
        {
          "internalType": "enum Voting.RequestTypes",
          "name": "_requestType",
          "type": "uint8"
        },
        {
          "internalType": "uint256",
          "name": "_value",
          "type": "uint256"
        },
        {
          "internalType": "address",
          "name": "_addr",
          "type": "address"
        }
      ],
      "name": "createRequest",
      "outputs": [
        {
          "internalType": "uint256",
          "name": "",
          "type": "uint256"
        }
      ],
      "stateMutability": "nonpayable",
      "type": "function"
    },
    {
      "inputs": [],
      "name": "maxMembers",
      "outputs": [
        {
          "internalType": "uint256",
          "name": "",
          "type": "uint256"
        }
      ],
      "stateMutability": "view",
      "type": "function"
    },
    {
      "inputs": [
        {
          "internalType": "uint256",
          "name": "",
          "type": "uint256"
        }
      ],
      "name": "members",
      "outputs": [
        {
          "internalType": "address",
          "name": "",
          "type": "address"
        }
      ],
      "stateMutability": "view",
      "type": "function"
    },
    {
      "inputs": [
        {
          "internalType": "uint256",
          "name": "",
          "type": "uint256"
        }
      ],
      "name": "requests",
      "outputs": [
        {
          "internalType": "address",
          "name": "author",
          "type": "address"
        },
        {
          "internalType": "enum Voting.RequestTypes",
          "name": "requestType",
          "type": "uint8"
        },
        {
          "internalType": "address",
          "name": "addr",
          "type": "address"
        },
        {
          "internalType": "uint256",
          "name": "value",
          "type": "uint256"
        },
        {
          "internalType": "uint256",
          "name": "proVotersCount",
          "type": "uint256"
        },
        {
          "internalType": "bool",
          "name": "approved",
          "type": "bool"
        }
      ],
      "stateMutability": "view",
      "type": "function"
    },
    {
      "inputs": [],
      "name": "requestsCounter",
      "outputs": [
        {
          "internalType": "uint256",
          "name": "",
          "type": "uint256"
        }
      ],
      "stateMutability": "view",
      "type": "function"
    },
    {
      "stateMutability": "payable",
      "type": "receive"
    },
    {
      "inputs": [],
      "name": "getMembers",
      "outputs": [
        {
          "internalType": "address[]",
          "name": "",
          "type": "address[]"
        }
      ],
      "stateMutability": "view",
      "type": "function"
    },
    {
      "inputs": [
        {
          "internalType": "uint256",
          "name": "_requestId",
          "type": "uint256"
        }
      ],
      "name": "addMember",
      "outputs": [
        {
          "internalType": "bool",
          "name": "",
          "type": "bool"
        }
      ],
      "stateMutability": "nonpayable",
      "type": "function"
    },
    {
      "inputs": [
        {
          "internalType": "uint256",
          "name": "_requestId",
          "type": "uint256"
        }
      ],
      "name": "removeMember",
      "outputs": [
        {
          "internalType": "bool",
          "name": "",
          "type": "bool"
        }
      ],
      "stateMutability": "nonpayable",
      "type": "function"
    },
    {
      "inputs": [
        {
          "internalType": "uint256",
          "name": "_requestId",
          "type": "uint256"
        }
      ],
      "name": "destroy",
      "outputs": [],
      "stateMutability": "nonpayable",
      "type": "function"
    },
    {
      "inputs": [
        {
          "internalType": "uint256",
          "name": "_requestID",
          "type": "uint256"
        }
      ],
      "name": "tryApproveRequest",
      "outputs": [],
      "stateMutability": "nonpayable",
      "type": "function"
    }
  ],
  "bytecode": "0x60806040523480156200001157600080fd5b5060405162001ddf38038062001ddf8339818101604052810190620000379190620002cb565b600c8211156200007e576040517f08c379a00000000000000000000000000000000000000000000000000000000081526004016200007590620003ae565b60405180910390fd5b80600260006101000a81548173ffffffffffffffffffffffffffffffffffffffff021916908373ffffffffffffffffffffffffffffffffffffffff160217905550816003819055506004839080600181540180825580915050600190039060005260206000200160009091909190916101000a81548173ffffffffffffffffffffffffffffffffffffffff021916908373ffffffffffffffffffffffffffffffffffffffff160217905550600260009054906101000a900473ffffffffffffffffffffffffffffffffffffffff1673ffffffffffffffffffffffffffffffffffffffff166351efa3f430856040518363ffffffff167c0100000000000000000000000000000000000000000000000000000000028152600401620001a4929190620003e1565b600060405180830381600087803b158015620001bf57600080fd5b505af1158015620001d4573d6000803e3d6000fd5b505050505050506200040e565b600080fd5b600073ffffffffffffffffffffffffffffffffffffffff82169050919050565b60006200021382620001e6565b9050919050565b620002258162000206565b81146200023157600080fd5b50565b60008151905062000245816200021a565b92915050565b6000819050919050565b62000260816200024b565b81146200026c57600080fd5b50565b600081519050620002808162000255565b92915050565b6000620002938262000206565b9050919050565b620002a58162000286565b8114620002b157600080fd5b50565b600081519050620002c5816200029a565b92915050565b600080600060608486031215620002e757620002e6620001e1565b5b6000620002f78682870162000234565b93505060206200030a868287016200026f565b92505060406200031d86828701620002b4565b9150509250925092565b600082825260208201905092915050565b7f43616e6e6f742068617665206d6f7265207468616e203132206d656d6265727360008201527f20696e20612073696e676c65207368617265642077616c6c6574210000000000602082015250565b600062000396603b8362000327565b9150620003a38262000338565b604082019050919050565b60006020820190508181036000830152620003c98162000387565b9050919050565b620003db8162000206565b82525050565b6000604082019050620003f86000830185620003d0565b620004076020830184620003d0565b9392505050565b6119c1806200041e6000396000f3fe6080604052600436106100bd576000357c01000000000000000000000000000000000000000000000000000000009004806381d12c581161008157806381d12c58146101d15780639d118770146102135780639eab52531461023c578063a1a74aae14610267578063bbe37f1e146102a4578063bf4386a0146102cd576100c4565b80631089f5ed146100c65780634ba1f098146101035780635daf08ca1461012c578063663c2269146101695780636fb8c99514610194576100c4565b366100c457005b005b3480156100d257600080fd5b506100ed60048036038101906100e891906111a4565b6102f8565b6040516100fa91906111ec565b60405180910390f35b34801561010f57600080fd5b5061012a600480360381019061012591906111a4565b61061a565b005b34801561013857600080fd5b50610153600480360381019061014e91906111a4565b61075a565b6040516101609190611248565b60405180910390f35b34801561017557600080fd5b5061017e610799565b60405161018b9190611272565b60405180910390f35b3480156101a057600080fd5b506101bb60048036038101906101b691906112de565b61079f565b6040516101c89190611272565b60405180910390f35b3480156101dd57600080fd5b506101f860048036038101906101f391906111a4565b6109dd565b60405161020a969594939291906113a8565b60405180910390f35b34801561021f57600080fd5b5061023a600480360381019061023591906111a4565b610a73565b005b34801561024857600080fd5b50610251610cd8565b60405161025e91906114c7565b60405180910390f35b34801561027357600080fd5b5061028e600480360381019061028991906111a4565b610d66565b60405161029b91906111ec565b60405180910390f35b3480156102b057600080fd5b506102cb60048036038101906102c691906111a4565b6110df565b005b3480156102d957600080fd5b506102e2611141565b6040516102ef9190611272565b60405180910390f35b60008060008084815260200190815260200160002090503373ffffffffffffffffffffffffffffffffffffffff168160000160009054906101000a900473ffffffffffffffffffffffffffffffffffffffff1673ffffffffffffffffffffffffffffffffffffffff16146103a1576040517f08c379a00000000000000000000000000000000000000000000000000000000081526004016103989061156c565b60405180910390fd5b600115158160050160009054906101000a900460ff161515146103f9576040517f08c379a00000000000000000000000000000000000000000000000000000000081526004016103f0906115d8565b60405180910390fd5b6000600381111561040d5761040c611331565b5b8160000160149054906101000a900460ff16600381111561043157610430611331565b5b14610471576040517f08c379a000000000000000000000000000000000000000000000000000000000815260040161046890611644565b60405180910390fd5b600354600480549050106104ba576040517f08c379a00000000000000000000000000000000000000000000000000000000081526004016104b1906116d6565b60405180910390fd5b60048160010160009054906101000a900473ffffffffffffffffffffffffffffffffffffffff169080600181540180825580915050600190039060005260206000200160009091909190916101000a81548173ffffffffffffffffffffffffffffffffffffffff021916908373ffffffffffffffffffffffffffffffffffffffff160217905550600260009054906101000a900473ffffffffffffffffffffffffffffffffffffffff1673ffffffffffffffffffffffffffffffffffffffff166351efa3f4308360010160009054906101000a900473ffffffffffffffffffffffffffffffffffffffff166040518363ffffffff167c01000000000000000000000000000000000000000000000000000000000281526004016105de9291906116f6565b600060405180830381600087803b1580156105f857600080fd5b505af115801561060c573d6000803e3d6000fd5b505050506001915050919050565b6000151560008083815260200190815260200160002060040160003373ffffffffffffffffffffffffffffffffffffffff1673ffffffffffffffffffffffffffffffffffffffff16815260200190815260200160002060009054906101000a900460ff161515146106c0576040517f08c379a00000000000000000000000000000000000000000000000000000000081526004016106b79061176b565b60405180910390fd5b6001151560008083815260200190815260200160002060040160003373ffffffffffffffffffffffffffffffffffffffff1673ffffffffffffffffffffffffffffffffffffffff16815260200190815260200160002060009054906101000a905050506000808281526020019081526020016000206003016000815480929190610749906117ba565b9190505550610757816110df565b50565b6004818154811061076a57600080fd5b906000526020600020016000915054906101000a900473ffffffffffffffffffffffffffffffffffffffff1681565b60015481565b600060038460038111156107b6576107b5611331565b5b11156107f7576040517f08c379a00000000000000000000000000000000000000000000000000000000081526004016107ee9061184f565b60405180910390fd5b6002600381111561080b5761080a611331565b5b84600381111561081e5761081d611331565b5b141561087057600083101561083257600080fd5b600073ffffffffffffffffffffffffffffffffffffffff168273ffffffffffffffffffffffffffffffffffffffff161461086b57600080fd5b6108b8565b6000831461087d57600080fd5b600073ffffffffffffffffffffffffffffffffffffffff168273ffffffffffffffffffffffffffffffffffffffff1614156108b757600080fd5b5b600080600060015481526020019081526020016000209050338160000160006101000a81548173ffffffffffffffffffffffffffffffffffffffff021916908373ffffffffffffffffffffffffffffffffffffffff160217905550848160000160146101000a81548160ff0219169083600381111561093a57610939611331565b5b0217905550828160010160006101000a81548173ffffffffffffffffffffffffffffffffffffffff021916908373ffffffffffffffffffffffffffffffffffffffff1602179055508381600201819055506000816003018190555060008160050160006101000a81548160ff02191690831515021790555060006001549050600160008154809291906109cc906117ba565b919050555080925050509392505050565b60006020528060005260406000206000915090508060000160009054906101000a900473ffffffffffffffffffffffffffffffffffffffff16908060000160149054906101000a900460ff16908060010160009054906101000a900473ffffffffffffffffffffffffffffffffffffffff16908060020154908060030154908060050160009054906101000a900460ff16905086565b6000805b6004805490508160ff161015610b18573273ffffffffffffffffffffffffffffffffffffffff1660048260ff1681548110610ab557610ab461186f565b5b9060005260206000200160009054906101000a900473ffffffffffffffffffffffffffffffffffffffff1673ffffffffffffffffffffffffffffffffffffffff161415610b055760019150610b18565b8080610b10906118ab565b915050610a77565b5080610b2357600080fd5b600080600084815260200190815260200160002090503373ffffffffffffffffffffffffffffffffffffffff168160000160009054906101000a900473ffffffffffffffffffffffffffffffffffffffff1673ffffffffffffffffffffffffffffffffffffffff1614610bcb576040517f08c379a0000000000000000000000000000000000000000000000000000000008152600401610bc29061156c565b60405180910390fd5b600115158160050160009054906101000a900460ff16151514610c23576040517f08c379a0000000000000000000000000000000000000000000000000000000008152600401610c1a906115d8565b60405180910390fd5b60026003811115610c3757610c36611331565b5b8160000160149054906101000a900460ff166003811115610c5b57610c5a611331565b5b14610c9b576040517f08c379a0000000000000000000000000000000000000000000000000000000008152600401610c9290611644565b60405180910390fd5b8060010160009054906101000a900473ffffffffffffffffffffffffffffffffffffffff1673ffffffffffffffffffffffffffffffffffffffff16ff5b60606004805480602002602001604051908101604052809291908181526020018280548015610d5c57602002820191906000526020600020905b8160009054906101000a900473ffffffffffffffffffffffffffffffffffffffff1673ffffffffffffffffffffffffffffffffffffffff1681526020019060010190808311610d12575b5050505050905090565b60008060008084815260200190815260200160002090503373ffffffffffffffffffffffffffffffffffffffff168160000160009054906101000a900473ffffffffffffffffffffffffffffffffffffffff1673ffffffffffffffffffffffffffffffffffffffff1614610e0f576040517f08c379a0000000000000000000000000000000000000000000000000000000008152600401610e069061156c565b60405180910390fd5b600115158160050160009054906101000a900460ff16151514610e67576040517f08c379a0000000000000000000000000000000000000000000000000000000008152600401610e5e906115d8565b60405180910390fd5b60016003811115610e7b57610e7a611331565b5b8160000160149054906101000a900460ff166003811115610e9f57610e9e611331565b5b14610edf576040517f08c379a0000000000000000000000000000000000000000000000000000000008152600401610ed690611644565b60405180910390fd5b60005b6004805490508110156110d3578160010160009054906101000a900473ffffffffffffffffffffffffffffffffffffffff1673ffffffffffffffffffffffffffffffffffffffff1660048281548110610f3e57610f3d61186f565b5b9060005260206000200160009054906101000a900473ffffffffffffffffffffffffffffffffffffffff1673ffffffffffffffffffffffffffffffffffffffff1614156110c057600060048281548110610f9b57610f9a61186f565b5b9060005260206000200160009054906101000a900473ffffffffffffffffffffffffffffffffffffffff16905060048281548110610fdc57610fdb61186f565b5b9060005260206000200160006101000a81549073ffffffffffffffffffffffffffffffffffffffff0219169055600260009054906101000a900473ffffffffffffffffffffffffffffffffffffffff1673ffffffffffffffffffffffffffffffffffffffff1663abfa796930836040518363ffffffff167c01000000000000000000000000000000000000000000000000000000000281526004016110829291906116f6565b600060405180830381600087803b15801561109c57600080fd5b505af11580156110b0573d6000803e3d6000fd5b50505050600193505050506110da565b80806110cb906117ba565b915050610ee2565b5060009150505b919050565b60006110ef600480549050611147565b90508060008084815260200190815260200160002060030154141561113d57600160008084815260200190815260200160002060050160006101000a81548160ff0219169083151502179055505b5050565b60035481565b600060016002836111589190611904565b6111629190611935565b9050919050565b600080fd5b6000819050919050565b6111818161116e565b811461118c57600080fd5b50565b60008135905061119e81611178565b92915050565b6000602082840312156111ba576111b9611169565b5b60006111c88482850161118f565b91505092915050565b60008115159050919050565b6111e6816111d1565b82525050565b600060208201905061120160008301846111dd565b92915050565b600073ffffffffffffffffffffffffffffffffffffffff82169050919050565b600061123282611207565b9050919050565b61124281611227565b82525050565b600060208201905061125d6000830184611239565b92915050565b61126c8161116e565b82525050565b60006020820190506112876000830184611263565b92915050565b6004811061129a57600080fd5b50565b6000813590506112ac8161128d565b92915050565b6112bb81611227565b81146112c657600080fd5b50565b6000813590506112d8816112b2565b92915050565b6000806000606084860312156112f7576112f6611169565b5b60006113058682870161129d565b93505060206113168682870161118f565b9250506040611327868287016112c9565b9150509250925092565b7f4e487b7100000000000000000000000000000000000000000000000000000000600052602160045260246000fd5b6004811061137157611370611331565b5b50565b600081905061138282611360565b919050565b600061139282611374565b9050919050565b6113a281611387565b82525050565b600060c0820190506113bd6000830189611239565b6113ca6020830188611399565b6113d76040830187611239565b6113e46060830186611263565b6113f16080830185611263565b6113fe60a08301846111dd565b979650505050505050565b600081519050919050565b600082825260208201905092915050565b6000819050602082019050919050565b61143e81611227565b82525050565b60006114508383611435565b60208301905092915050565b6000602082019050919050565b600061147482611409565b61147e8185611414565b935061148983611425565b8060005b838110156114ba5781516114a18882611444565b97506114ac8361145c565b92505060018101905061148d565b5085935050505092915050565b600060208201905081810360008301526114e18184611469565b905092915050565b600082825260208201905092915050565b7f596f7520617265206e6f742074686520617574686f72206f662074686973207260008201527f6571756573742100000000000000000000000000000000000000000000000000602082015250565b60006115566027836114e9565b9150611561826114fa565b604082019050919050565b6000602082019050818103600083015261158581611549565b9050919050565b7f52657175657374206973206e6f7420617070726f766564207965742100000000600082015250565b60006115c2601c836114e9565b91506115cd8261158c565b602082019050919050565b600060208201905081810360008301526115f1816115b5565b9050919050565b7f57726f6e67207265717565737420696421000000000000000000000000000000600082015250565b600061162e6011836114e9565b9150611639826115f8565b602082019050919050565b6000602082019050818103600083015261165d81611621565b9050919050565b7f4d6178696d756d206e756d626572206f66206d656d626572732072656163686560008201527f6421000000000000000000000000000000000000000000000000000000000000602082015250565b60006116c06022836114e9565b91506116cb82611664565b604082019050919050565b600060208201905081810360008301526116ef816116b3565b9050919050565b600060408201905061170b6000830185611239565b6117186020830184611239565b9392505050565b7f416c726561647920766f74656420746f20746869732072657175657374210000600082015250565b6000611755601e836114e9565b91506117608261171f565b602082019050919050565b6000602082019050818103600083015261178481611748565b9050919050565b7f4e487b7100000000000000000000000000000000000000000000000000000000600052601160045260246000fd5b60006117c58261116e565b91507fffffffffffffffffffffffffffffffffffffffffffffffffffffffffffffffff8214156117f8576117f761178b565b5b600182019050919050565b7f496e76616c696420726571756573742074797065210000000000000000000000600082015250565b60006118396015836114e9565b915061184482611803565b602082019050919050565b600060208201905081810360008301526118688161182c565b9050919050565b7f4e487b7100000000000000000000000000000000000000000000000000000000600052603260045260246000fd5b600060ff82169050919050565b60006118b68261189e565b915060ff8214156118ca576118c961178b565b5b600182019050919050565b7f4e487b7100000000000000000000000000000000000000000000000000000000600052601260045260246000fd5b600061190f8261116e565b915061191a8361116e565b92508261192a576119296118d5565b5b828204905092915050565b60006119408261116e565b915061194b8361116e565b9250827fffffffffffffffffffffffffffffffffffffffffffffffffffffffffffffffff038211156119805761197f61178b565b5b82820190509291505056fea264697066735822122071d752dd19e0cd3fb83fb5fe644bcae51f7abd7d2159a96a2c91e3b2f5b5456464736f6c634300080c0033",
  "immutableReferences": {},
  "source": "//SPDX-License-Identifier: UNLICENSED\r\npragma solidity ^0.8.0;\r\n\r\nimport \"./Voting.sol\";\r\nimport \"./SharedWalletStorage.sol\";\r\n\r\ncontract SharedWallet is Voting {\r\n    SharedWalletStorage walletStorage;\r\n    uint256 public maxMembers;\r\n    address[] public members;\r\n\r\n    modifier onlyMember() {\r\n        bool isMember = false;\r\n        for (uint8 i = 0; i < members.length; i++)\r\n            if (members[i] == tx.origin) {\r\n                isMember = true;\r\n                break;\r\n            }\r\n\r\n        require(isMember);\r\n        _;\r\n    }\r\n\r\n    constructor(address _creator, uint256 _maxMembers, SharedWalletStorage _walletStorage) {\r\n        require(\r\n            _maxMembers <= 12,\r\n            \"Cannot have more than 12 members in a single shared wallet!\"\r\n        );\r\n\r\n        walletStorage = _walletStorage;\r\n        maxMembers = _maxMembers;\r\n\r\n        members.push(_creator);\r\n        walletStorage.addWalletToUser(address(this), _creator);\r\n    }\r\n\r\n    function getMembers() public view returns (address[] memory) {\r\n        return members;\r\n    }\r\n\r\n    function addMember(uint256 _requestId) public returns (bool) {\r\n        Request storage request = requests[_requestId];\r\n        require(request.author == msg.sender, \"You are not the author of this request!\");\r\n        require(request.approved == true, \"Request is not approved yet!\");\r\n        require(request.requestType == RequestTypes.AddMember, \"Wrong request id!\");\r\n\r\n        require(\r\n            members.length < maxMembers,\r\n            \"Maximum number of members reached!\"\r\n        );\r\n\r\n        members.push(request.addr);\r\n        walletStorage.addWalletToUser(address(this), request.addr);\r\n        return true;\r\n    }\r\n\r\n    function removeMember(uint256 _requestId) public returns (bool) {        \r\n        Request storage request = requests[_requestId];\r\n        require(request.author == msg.sender, \"You are not the author of this request!\");\r\n        require(request.approved == true, \"Request is not approved yet!\");\r\n        require(request.requestType == RequestTypes.RemoveMember, \"Wrong request id!\");\r\n\r\n        for (uint256 i = 0; i < members.length; i++)\r\n            if (members[i] == request.addr) {\r\n                address deletedMember = members[i];\r\n                delete members[i];\r\n                walletStorage.removeWalletForUser(address(this), deletedMember);\r\n                return true;\r\n            }\r\n\r\n        return false;\r\n    }\r\n\r\n    function withdraw(uint256 _requestId) private returns (bool) {\r\n        Request storage request = requests[_requestId];\r\n        require(request.author == msg.sender, \"You are not the author of this request!\");\r\n        require(request.approved == true, \"Request is not approved yet!\");\r\n        require(request.requestType == RequestTypes.Withdraw, \"Wrong request id!\");\r\n\r\n        require(request.value <= address(this).balance);\r\n\r\n        return payable(msg.sender).send(request.value);\r\n    }\r\n\r\n    function destroy(uint256 _requestId) external onlyMember {\r\n        Request storage request = requests[_requestId];\r\n        require(request.author == msg.sender, \"You are not the author of this request!\");\r\n        require(request.approved == true, \"Request is not approved yet!\");\r\n        require(request.requestType == RequestTypes.Withdraw, \"Wrong request id!\");\r\n\r\n        selfdestruct(payable(request.addr));\r\n    }\r\n\r\n    function tryApproveRequest(uint256 _requestID) public override {\r\n        uint256 goal = _getMajority(members.length);\r\n        if (requests[_requestID].proVotersCount == goal)\r\n            requests[_requestID].approved = true;\r\n    }\r\n\r\n    receive() external payable {}\r\n\r\n    fallback() external payable {}\r\n\r\n}\r\n",
  "sourcePath": "C:\\Users\\Joro\\Documents\\GitHub\\ShareIt\\contracts\\SharedWallet.sol",
  "compiler": {
    "name": "solc",
    "version": "0.8.12+commit.f00d7308.Emscripten.clang"
  },
  "schemaVersion": "3.4.6",
  "updatedAt": "2022-03-23T20:38:02.756Z",
  "devdoc": {
    "kind": "dev",
    "methods": {},
    "version": 1
  },
  "userdoc": {
    "kind": "user",
    "methods": {},
    "version": 1
  }
}