{
  "contractName": "SharedWalletFactory",
  "abi": [
    {
      "inputs": [],
      "stateMutability": "nonpayable",
      "type": "constructor"
    },
    {
      "inputs": [],
      "name": "lastWalletCreated",
      "outputs": [
        {
          "internalType": "address",
          "name": "",
          "type": "address"
        }
      ],
      "stateMutability": "view",
      "type": "function"
    },
    {
      "inputs": [],
      "name": "walletsStorage",
      "outputs": [
        {
          "internalType": "address",
          "name": "",
          "type": "address"
        }
      ],
      "stateMutability": "view",
      "type": "function"
    },
    {
      "inputs": [
        {
          "internalType": "string",
          "name": "_name",
          "type": "string"
        }
      ],
      "name": "createNewSharedWallet",
      "outputs": [],
      "stateMutability": "nonpayable",
      "type": "function"
    }
  ],
  "bytecode": "0x608060405234801561001057600080fd5b5060405161001d9061007e565b604051809103906000f080158015610039573d6000803e3d6000fd5b506000806101000a81548173ffffffffffffffffffffffffffffffffffffffff021916908373ffffffffffffffffffffffffffffffffffffffff16021790555061008b565b6111088061362983390190565b61358f8061009a6000396000f3fe60806040523480156200001157600080fd5b506004361062000063576000357c0100000000000000000000000000000000000000000000000000000000900480637ebe89c414620000685780639f21f9e4146200008a578063abcc915314620000aa575b600080fd5b62000072620000cc565b604051620000819190620002c5565b60405180910390f35b620000a86004803603810190620000a2919062000458565b620000f6565b005b620000b462000249565b604051620000c39190620002c5565b60405180910390f35b6000600160009054906101000a900473ffffffffffffffffffffffffffffffffffffffff16905090565b60003360008054906101000a900473ffffffffffffffffffffffffffffffffffffffff1683604051620001299062000272565b62000137939291906200053c565b604051809103906000f08015801562000154573d6000803e3d6000fd5b50905060008054906101000a900473ffffffffffffffffffffffffffffffffffffffff1673ffffffffffffffffffffffffffffffffffffffff166351efa3f482336040518363ffffffff167c0100000000000000000000000000000000000000000000000000000000028152600401620001d092919062000580565b600060405180830381600087803b158015620001eb57600080fd5b505af115801562000200573d6000803e3d6000fd5b5050505080600160006101000a81548173ffffffffffffffffffffffffffffffffffffffff021916908373ffffffffffffffffffffffffffffffffffffffff1602179055505050565b60008060009054906101000a900473ffffffffffffffffffffffffffffffffffffffff16905090565b612fac80620005ae83390190565b600073ffffffffffffffffffffffffffffffffffffffff82169050919050565b6000620002ad8262000280565b9050919050565b620002bf81620002a0565b82525050565b6000602082019050620002dc6000830184620002b4565b92915050565b6000604051905090565b600080fd5b600080fd5b600080fd5b600080fd5b6000601f19601f8301169050919050565b7f4e487b7100000000000000000000000000000000000000000000000000000000600052604160045260246000fd5b6200034b8262000300565b810181811067ffffffffffffffff821117156200036d576200036c62000311565b5b80604052505050565b600062000382620002e2565b905062000390828262000340565b919050565b600067ffffffffffffffff821115620003b357620003b262000311565b5b620003be8262000300565b9050602081019050919050565b82818337600083830152505050565b6000620003f1620003eb8462000395565b62000376565b90508281526020810184848401111562000410576200040f620002fb565b5b6200041d848285620003cb565b509392505050565b600082601f8301126200043d576200043c620002f6565b5b81356200044f848260208601620003da565b91505092915050565b600060208284031215620004715762000470620002ec565b5b600082013567ffffffffffffffff811115620004925762000491620002f1565b5b620004a08482850162000425565b91505092915050565b600081519050919050565b600082825260208201905092915050565b60005b83811015620004e5578082015181840152602081019050620004c8565b83811115620004f5576000848401525b50505050565b60006200050882620004a9565b620005148185620004b4565b935062000526818560208601620004c5565b620005318162000300565b840191505092915050565b6000606082019050620005536000830186620002b4565b620005626020830185620002b4565b8181036040830152620005768184620004fb565b9050949350505050565b6000604082019050620005976000830185620002b4565b620005a66020830184620002b4565b939250505056fe60806040523480156200001157600080fd5b5060405162002fac38038062002fac833981810160405281019062000037919062000417565b6000815114156200004757600080fd5b81600260006101000a81548173ffffffffffffffffffffffffffffffffffffffff021916908373ffffffffffffffffffffffffffffffffffffffff1602179055506004839080600181540180825580915050600190039060005260206000200160009091909190916101000a81548173ffffffffffffffffffffffffffffffffffffffff021916908373ffffffffffffffffffffffffffffffffffffffff1602179055506001600360008573ffffffffffffffffffffffffffffffffffffffff1673ffffffffffffffffffffffffffffffffffffffff16815260200190815260200160002060006101000a81548160ff02191690831515021790555080600590805190602001906200015b92919062000165565b50505050620004f7565b8280546200017390620004c1565b90600052602060002090601f016020900481019282620001975760008555620001e3565b82601f10620001b257805160ff1916838001178555620001e3565b82800160010185558215620001e3579182015b82811115620001e2578251825591602001919060010190620001c5565b5b509050620001f29190620001f6565b5090565b5b8082111562000211576000816000905550600101620001f7565b5090565b6000604051905090565b600080fd5b600080fd5b600073ffffffffffffffffffffffffffffffffffffffff82169050919050565b6000620002568262000229565b9050919050565b620002688162000249565b81146200027457600080fd5b50565b60008151905062000288816200025d565b92915050565b600080fd5b600080fd5b6000601f19601f8301169050919050565b7f4e487b7100000000000000000000000000000000000000000000000000000000600052604160045260246000fd5b620002e38262000298565b810181811067ffffffffffffffff82111715620003055762000304620002a9565b5b80604052505050565b60006200031a62000215565b9050620003288282620002d8565b919050565b600067ffffffffffffffff8211156200034b576200034a620002a9565b5b620003568262000298565b9050602081019050919050565b60005b838110156200038357808201518184015260208101905062000366565b8381111562000393576000848401525b50505050565b6000620003b0620003aa846200032d565b6200030e565b905082815260208101848484011115620003cf57620003ce62000293565b5b620003dc84828562000363565b509392505050565b600082601f830112620003fc57620003fb6200028e565b5b81516200040e84826020860162000399565b91505092915050565b6000806000606084860312156200043357620004326200021f565b5b6000620004438682870162000277565b9350506020620004568682870162000277565b925050604084015167ffffffffffffffff8111156200047a576200047962000224565b5b6200048886828701620003e4565b9150509250925092565b7f4e487b7100000000000000000000000000000000000000000000000000000000600052602260045260246000fd5b60006002820490506001821680620004da57607f821691505b60208210811415620004f157620004f062000492565b5b50919050565b612aa580620005076000396000f3fe608060405260043610610131576000357c01000000000000000000000000000000000000000000000000000000009004806370a26c23116100bd578063bdd4d18d11610081578063bdd4d18d1461041a578063c1c1da4014610445578063d0e30db01461046e578063d66d9e1914610478578063ea3ca2221461048f57610131565b806370a26c23146102fb578063718d31d914610338578063a230c52414610375578063abcc9153146103b2578063ad207e16146103dd57610131565b80634ba1f098116101045780634ba1f0981461020457806354ebcf9b1461022d578063553da43e1461026a5780635aa6bb3b146102a7578063663c2269146102d057610131565b806306fdde0314610136578063158dfe3b146101615780632faa36681461019e578063464c5b6c146101db575b600080fd5b34801561014257600080fd5b5061014b6104cc565b6040516101589190612145565b60405180910390f35b34801561016d57600080fd5b50610188600480360381019061018391906121a2565b61055e565b6040516101959190612210565b60405180910390f35b3480156101aa57600080fd5b506101c560048036038101906101c091906121a2565b6105f1565b6040516101d29190612246565b60405180910390f35b3480156101e757600080fd5b5061020260048036038101906101fd91906121a2565b61061d565b005b34801561021057600080fd5b5061022b600480360381019061022691906121a2565b6107ef565b005b34801561023957600080fd5b50610254600480360381019061024f91906121a2565b6109f6565b6040516102619190612246565b60405180910390f35b34801561027657600080fd5b50610291600480360381019061028c91906121a2565b610a5f565b60405161029e91906122d8565b60405180910390f35b3480156102b357600080fd5b506102ce60048036038101906102c991906121a2565b610a8b565b005b3480156102dc57600080fd5b506102e5610c82565b6040516102f29190612302565b60405180910390f35b34801561030757600080fd5b50610322600480360381019061031d91906121a2565b610c8c565b60405161032f9190612210565b60405180910390f35b34801561034457600080fd5b5061035f600480360381019061035a91906121a2565b610ccb565b60405161036c9190612339565b60405180910390f35b34801561038157600080fd5b5061039c60048036038101906103979190612380565b610d09565b6040516103a99190612246565b60405180910390f35b3480156103be57600080fd5b506103c7610d5f565b6040516103d4919061240c565b60405180910390f35b3480156103e957600080fd5b5061040460048036038101906103ff91906121a2565b610d89565b6040516104119190612302565b60405180910390f35b34801561042657600080fd5b5061042f610da8565b60405161043c91906124e5565b60405180910390f35b34801561045157600080fd5b5061046c60048036038101906104679190612533565b610e36565b005b6104766111b0565b005b34801561048457600080fd5b5061048d6111b2565b005b34801561049b57600080fd5b506104b660048036038101906104b191906121a2565b611450565b6040516104c39190612582565b60405180910390f35b6060600580546104db906125cc565b80601f0160208091040260200160405190810160405280929190818152602001828054610507906125cc565b80156105545780601f1061052957610100808354040283529160200191610554565b820191906000526020600020905b81548152906001019060200180831161053757829003601f168201915b5050505050905090565b60006002600381111561057457610573612261565b5b60008084815260200190815260200160002060000160149054906101000a900460ff1660038111156105a9576105a8612261565b5b14156105b457600080fd5b60008083815260200190815260200160002060010160009054906101000a900473ffffffffffffffffffffffffffffffffffffffff169050919050565b600080600083815260200190815260200160002060010160159054906101000a900460ff169050919050565b6000600381111561063157610630612261565b5b60008083815260200190815260200160002060000160149054906101000a900460ff16600381111561066657610665612261565b5b146106a6576040517f08c379a000000000000000000000000000000000000000000000000000000000815260040161069d9061264a565b60405180910390fd5b3373ffffffffffffffffffffffffffffffffffffffff1660008083815260200190815260200160002060010160009054906101000a900473ffffffffffffffffffffffffffffffffffffffff1673ffffffffffffffffffffffffffffffffffffffff161461071357600080fd5b6001600381111561072757610726612261565b5b60008083815260200190815260200160002060010160149054906101000a900460ff16600381111561075c5761075b612261565b5b1461079c576040517f08c379a0000000000000000000000000000000000000000000000000000000008152600401610793906126b6565b60405180910390fd5b600260008083815260200190815260200160002060010160146101000a81548160ff021916908360038111156107d5576107d4612261565b5b02179055506107e3336114e2565b6107ec8161158e565b50565b600360003373ffffffffffffffffffffffffffffffffffffffff1673ffffffffffffffffffffffffffffffffffffffff16815260200190815260200160002060009054906101000a900460ff1661084557600080fd5b6000151560008083815260200190815260200160002060010160159054906101000a900460ff161515146108ae576040517f08c379a00000000000000000000000000000000000000000000000000000000081526004016108a590612722565b60405180910390fd5b6000151560008083815260200190815260200160002060030160003373ffffffffffffffffffffffffffffffffffffffff1673ffffffffffffffffffffffffffffffffffffffff16815260200190815260200160002060009054906101000a900460ff16151514610954576040517f08c379a000000000000000000000000000000000000000000000000000000000815260040161094b9061278e565b60405180910390fd5b600160008083815260200190815260200160002060030160003373ffffffffffffffffffffffffffffffffffffffff1673ffffffffffffffffffffffffffffffffffffffff16815260200190815260200160002060006101000a81548160ff02191690831515021790555060008082815260200190815260200160002060020160008154809291906109e5906127dd565b91905055506109f38161158e565b50565b600080600083815260200190815260200160002060030160003373ffffffffffffffffffffffffffffffffffffffff1673ffffffffffffffffffffffffffffffffffffffff16815260200190815260200160002060009054906101000a900460ff169050919050565b600080600083815260200190815260200160002060000160149054906101000a900460ff169050919050565b60006003811115610a9f57610a9e612261565b5b60008083815260200190815260200160002060000160149054906101000a900460ff166003811115610ad457610ad3612261565b5b14610b14576040517f08c379a0000000000000000000000000000000000000000000000000000000008152600401610b0b9061264a565b60405180910390fd5b3373ffffffffffffffffffffffffffffffffffffffff1660008083815260200190815260200160002060010160009054906101000a900473ffffffffffffffffffffffffffffffffffffffff1673ffffffffffffffffffffffffffffffffffffffff1614610b8157600080fd5b60016003811115610b9557610b94612261565b5b60008083815260200190815260200160002060010160149054906101000a900460ff166003811115610bca57610bc9612261565b5b14610c0a576040517f08c379a0000000000000000000000000000000000000000000000000000000008152600401610c01906126b6565b60405180910390fd5b600360008083815260200190815260200160002060010160146101000a81548160ff02191690836003811115610c4357610c42612261565b5b0217905550610c51336114e2565b600160008083815260200190815260200160002060010160156101000a81548160ff02191690831515021790555050565b6000600154905090565b600080600083815260200190815260200160002060000160009054906101000a900473ffffffffffffffffffffffffffffffffffffffff169050919050565b600080600083815260200190815260200160002060010160149054906101000a900460ff166003811115610d0257610d01612261565b5b9050919050565b6000600360008373ffffffffffffffffffffffffffffffffffffffff1673ffffffffffffffffffffffffffffffffffffffff16815260200190815260200160002060009054906101000a900460ff169050919050565b6000600260009054906101000a900473ffffffffffffffffffffffffffffffffffffffff16905090565b6000806000838152602001908152602001600020600201549050919050565b60606004805480602002602001604051908101604052809291908181526020018280548015610e2c57602002820191906000526020600020905b8160009054906101000a900473ffffffffffffffffffffffffffffffffffffffff1673ffffffffffffffffffffffffffffffffffffffff1681526020019060010190808311610de2575b5050505050905090565b600360003373ffffffffffffffffffffffffffffffffffffffff1673ffffffffffffffffffffffffffffffffffffffff16815260200190815260200160002060009054906101000a900460ff16610e8c57600080fd5b600380811115610e9f57610e9e612261565b5b821115610ee1576040517f08c379a0000000000000000000000000000000000000000000000000000000008152600401610ed890612872565b60405180910390fd5b60026003811115610ef557610ef4612261565b5b60ff16821415610f605760008173ffffffffffffffffffffffffffffffffffffffff16118015610f5257503073ffffffffffffffffffffffffffffffffffffffff16318173ffffffffffffffffffffffffffffffffffffffff1611155b610f5b57600080fd5b610f9b565b600073ffffffffffffffffffffffffffffffffffffffff168173ffffffffffffffffffffffffffffffffffffffff161415610f9a57600080fd5b5b600080600060015481526020019081526020016000209050338160000160006101000a81548173ffffffffffffffffffffffffffffffffffffffff021916908373ffffffffffffffffffffffffffffffffffffffff16021790555082600381111561100957611008612261565b5b8160000160146101000a81548160ff0219169083600381111561102f5761102e612261565b5b0217905550818160010160006101000a81548173ffffffffffffffffffffffffffffffffffffffff021916908373ffffffffffffffffffffffffffffffffffffffff1602179055506001816002018190555060018160030160003373ffffffffffffffffffffffffffffffffffffffff1673ffffffffffffffffffffffffffffffffffffffff16815260200190815260200160002060006101000a81548160ff021916908315150217905550600060038111156110ef576110ee612261565b5b8160000160149054906101000a900460ff16600381111561111357611112612261565b5b14156111545760018160010160146101000a81548160ff0219169083600381111561114157611140612261565b5b021790555061114f8261175b565b611182565b60008160010160146101000a81548160ff0219169083600381111561117c5761117b612261565b5b02179055505b600060015490506001600081548092919061119c906127dd565b91905055506111aa8161158e565b50505050565b565b6111bb33610d09565b6111c457600080fd5b60005b60048054905081101561144c573373ffffffffffffffffffffffffffffffffffffffff16600482815481106111ff576111fe612892565b5b9060005260206000200160009054906101000a900473ffffffffffffffffffffffffffffffffffffffff1673ffffffffffffffffffffffffffffffffffffffff161415611439576004600160048054905061125a91906128c1565b8154811061126b5761126a612892565b5b9060005260206000200160009054906101000a900473ffffffffffffffffffffffffffffffffffffffff16600482815481106112aa576112a9612892565b5b9060005260206000200160006101000a81548173ffffffffffffffffffffffffffffffffffffffff021916908373ffffffffffffffffffffffffffffffffffffffff1602179055506004805480611304576113036128f5565b5b6001900381819060005260206000200160006101000a81549073ffffffffffffffffffffffffffffffffffffffff02191690559055600360003373ffffffffffffffffffffffffffffffffffffffff1673ffffffffffffffffffffffffffffffffffffffff16815260200190815260200160002060006101000a81549060ff0219169055600260009054906101000a900473ffffffffffffffffffffffffffffffffffffffff1673ffffffffffffffffffffffffffffffffffffffff1663abfa796930336040518363ffffffff167c0100000000000000000000000000000000000000000000000000000000028152600401611401929190612924565b600060405180830381600087803b15801561141b57600080fd5b505af115801561142f573d6000803e3d6000fd5b505050505061144e565b8080611444906127dd565b9150506111c7565b505b565b60006002600381111561146657611465612261565b5b60008084815260200190815260200160002060000160149054906101000a900460ff16600381111561149b5761149a612261565b5b146114a557600080fd5b60008083815260200190815260200160002060010160009054906101000a900473ffffffffffffffffffffffffffffffffffffffff169050919050565b600260009054906101000a900473ffffffffffffffffffffffffffffffffffffffff1673ffffffffffffffffffffffffffffffffffffffff1663ad4600ee826040518263ffffffff167c01000000000000000000000000000000000000000000000000000000000281526004016115599190612210565b600060405180830381600087803b15801561157357600080fd5b505af1158015611587573d6000803e3d6000fd5b5050505050565b600061159e600480549050611807565b9050806000808481526020019081526020016000206002015414801561160b5750600060038111156115d3576115d2612261565b5b60008084815260200190815260200160002060000160149054906101000a900460ff16600381111561160857611607612261565b5b14155b1561164357600160008084815260200190815260200160002060010160156101000a81548160ff021916908315150217905550611725565b80600080848152602001908152602001600020600201541480156116ad57506000600381111561167657611675612261565b5b60008084815260200190815260200160002060000160149054906101000a900460ff1660038111156116ab576116aa612261565b5b145b80156116f05750600260008084815260200190815260200160002060010160149054906101000a900460ff1660038111156116eb576116ea612261565b5b60ff16145b1561172457600160008084815260200190815260200160002060010160156101000a81548160ff0219169083151502179055505b5b60008083815260200190815260200160002060010160159054906101000a900460ff16156117575761175682611829565b5b5050565b600260009054906101000a900473ffffffffffffffffffffffffffffffffffffffff1673ffffffffffffffffffffffffffffffffffffffff1663ad4600ee826040518263ffffffff167c01000000000000000000000000000000000000000000000000000000000281526004016117d29190612210565b600060405180830381600087803b1580156117ec57600080fd5b505af1158015611800573d6000803e3d6000fd5b5050505050565b60006001600283611818919061297c565b61182291906129ad565b9050919050565b6000600381111561183d5761183c612261565b5b60008083815260200190815260200160002060000160149054906101000a900460ff16600381111561187257611871612261565b5b1415611886576118818161199e565b61199b565b6001600381111561189a57611899612261565b5b60008083815260200190815260200160002060000160149054906101000a900460ff1660038111156118cf576118ce612261565b5b14156118e3576118de81611b66565b61199a565b600260038111156118f7576118f6612261565b5b60008083815260200190815260200160002060000160149054906101000a900460ff16600381111561192c5761192b612261565b5b14156119405761193b81611e53565b611999565b60038081111561195357611952612261565b5b60008083815260200190815260200160002060000160149054906101000a900460ff16600381111561198857611987612261565b5b14156119985761199781611f7b565b5b5b5b5b50565b600080600083815260200190815260200160002090506119bf816000611fd9565b60008160010160009054906101000a900473ffffffffffffffffffffffffffffffffffffffff1690506119f181610d09565b156119fb57600080fd5b6004819080600181540180825580915050600190039060005260206000200160009091909190916101000a81548173ffffffffffffffffffffffffffffffffffffffff021916908373ffffffffffffffffffffffffffffffffffffffff1602179055506001600360008373ffffffffffffffffffffffffffffffffffffffff1673ffffffffffffffffffffffffffffffffffffffff16815260200190815260200160002060006101000a81548160ff021916908315150217905550600260009054906101000a900473ffffffffffffffffffffffffffffffffffffffff1673ffffffffffffffffffffffffffffffffffffffff166351efa3f430836040518363ffffffff167c0100000000000000000000000000000000000000000000000000000000028152600401611b2f929190612924565b600060405180830381600087803b158015611b4957600080fd5b505af1158015611b5d573d6000803e3d6000fd5b50505050505050565b60008060008381526020019081526020016000209050611b87816001611fd9565b60008160010160009054906101000a900473ffffffffffffffffffffffffffffffffffffffff169050611bb981610d09565b611bc257600080fd5b60005b600480549050811015611e4c578173ffffffffffffffffffffffffffffffffffffffff1660048281548110611bfd57611bfc612892565b5b9060005260206000200160009054906101000a900473ffffffffffffffffffffffffffffffffffffffff1673ffffffffffffffffffffffffffffffffffffffff161415611e395760046001600480549050611c5891906128c1565b81548110611c6957611c68612892565b5b9060005260206000200160009054906101000a900473ffffffffffffffffffffffffffffffffffffffff1660048281548110611ca857611ca7612892565b5b9060005260206000200160006101000a81548173ffffffffffffffffffffffffffffffffffffffff021916908373ffffffffffffffffffffffffffffffffffffffff1602179055506004805480611d0257611d016128f5565b5b6001900381819060005260206000200160006101000a81549073ffffffffffffffffffffffffffffffffffffffff02191690559055600360008373ffffffffffffffffffffffffffffffffffffffff1673ffffffffffffffffffffffffffffffffffffffff16815260200190815260200160002060006101000a81549060ff0219169055600260009054906101000a900473ffffffffffffffffffffffffffffffffffffffff1673ffffffffffffffffffffffffffffffffffffffff1663abfa796930846040518363ffffffff167c0100000000000000000000000000000000000000000000000000000000028152600401611dff929190612924565b600060405180830381600087803b158015611e1957600080fd5b505af1158015611e2d573d6000803e3d6000fd5b50505050505050611e50565b8080611e44906127dd565b915050611bc5565b5050505b50565b60008060008381526020019081526020016000209050611e74816002611fd9565b3073ffffffffffffffffffffffffffffffffffffffff16318160010160009054906101000a900473ffffffffffffffffffffffffffffffffffffffff1673ffffffffffffffffffffffffffffffffffffffff161115611ed257600080fd5b8060000160009054906101000a900473ffffffffffffffffffffffffffffffffffffffff1673ffffffffffffffffffffffffffffffffffffffff166108fc8260010160009054906101000a900473ffffffffffffffffffffffffffffffffffffffff1673ffffffffffffffffffffffffffffffffffffffff169081150290604051600060405180830381858888f19350505050158015611f76573d6000803e3d6000fd5b505050565b60008060008381526020019081526020016000209050611f9c816003611fd9565b8060010160009054906101000a900473ffffffffffffffffffffffffffffffffffffffff1673ffffffffffffffffffffffffffffffffffffffff16ff5b806003811115611fec57611feb612261565b5b8260000160149054906101000a900460ff1660038111156120105761200f612261565b5b14612050576040517f08c379a00000000000000000000000000000000000000000000000000000000081526004016120479061264a565b60405180910390fd5b600115158260010160159054906101000a900460ff161515146120a8576040517f08c379a000000000000000000000000000000000000000000000000000000000815260040161209f90612a4f565b60405180910390fd5b5050565b600081519050919050565b600082825260208201905092915050565b60005b838110156120e65780820151818401526020810190506120cb565b838111156120f5576000848401525b50505050565b6000601f19601f8301169050919050565b6000612117826120ac565b61212181856120b7565b93506121318185602086016120c8565b61213a816120fb565b840191505092915050565b6000602082019050818103600083015261215f818461210c565b905092915050565b600080fd5b6000819050919050565b61217f8161216c565b811461218a57600080fd5b50565b60008135905061219c81612176565b92915050565b6000602082840312156121b8576121b7612167565b5b60006121c68482850161218d565b91505092915050565b600073ffffffffffffffffffffffffffffffffffffffff82169050919050565b60006121fa826121cf565b9050919050565b61220a816121ef565b82525050565b60006020820190506122256000830184612201565b92915050565b60008115159050919050565b6122408161222b565b82525050565b600060208201905061225b6000830184612237565b92915050565b7f4e487b7100000000000000000000000000000000000000000000000000000000600052602160045260246000fd5b600481106122a1576122a0612261565b5b50565b60008190506122b282612290565b919050565b60006122c2826122a4565b9050919050565b6122d2816122b7565b82525050565b60006020820190506122ed60008301846122c9565b92915050565b6122fc8161216c565b82525050565b600060208201905061231760008301846122f3565b92915050565b600060ff82169050919050565b6123338161231d565b82525050565b600060208201905061234e600083018461232a565b92915050565b61235d816121ef565b811461236857600080fd5b50565b60008135905061237a81612354565b92915050565b60006020828403121561239657612395612167565b5b60006123a48482850161236b565b91505092915050565b6000819050919050565b60006123d26123cd6123c8846121cf565b6123ad565b6121cf565b9050919050565b60006123e4826123b7565b9050919050565b60006123f6826123d9565b9050919050565b612406816123eb565b82525050565b600060208201905061242160008301846123fd565b92915050565b600081519050919050565b600082825260208201905092915050565b6000819050602082019050919050565b61245c816121ef565b82525050565b600061246e8383612453565b60208301905092915050565b6000602082019050919050565b600061249282612427565b61249c8185612432565b93506124a783612443565b8060005b838110156124d85781516124bf8882612462565b97506124ca8361247a565b9250506001810190506124ab565b5085935050505092915050565b600060208201905081810360008301526124ff8184612487565b905092915050565b612510816121cf565b811461251b57600080fd5b50565b60008135905061252d81612507565b92915050565b6000806040838503121561254a57612549612167565b5b60006125588582860161218d565b92505060206125698582860161251e565b9150509250929050565b61257c816121cf565b82525050565b60006020820190506125976000830184612573565b92915050565b7f4e487b7100000000000000000000000000000000000000000000000000000000600052602260045260246000fd5b600060028204905060018216806125e457607f821691505b602082108114156125f8576125f761259d565b5b50919050565b7f57726f6e67207265717565737420696421000000000000000000000000000000600082015250565b60006126346011836120b7565b915061263f826125fe565b602082019050919050565b6000602082019050818103600083015261266381612627565b9050919050565b7f496e7669746174696f6e20616c72656164792061636365707465642100000000600082015250565b60006126a0601c836120b7565b91506126ab8261266a565b602082019050919050565b600060208201905081810360008301526126cf81612693565b9050919050565b7f526571756573742068617320616c726561647920706173736564210000000000600082015250565b600061270c601b836120b7565b9150612717826126d6565b602082019050919050565b6000602082019050818103600083015261273b816126ff565b9050919050565b7f416c726561647920766f74656420746f20746869732072657175657374210000600082015250565b6000612778601e836120b7565b915061278382612742565b602082019050919050565b600060208201905081810360008301526127a78161276b565b9050919050565b7f4e487b7100000000000000000000000000000000000000000000000000000000600052601160045260246000fd5b60006127e88261216c565b91507fffffffffffffffffffffffffffffffffffffffffffffffffffffffffffffffff82141561281b5761281a6127ae565b5b600182019050919050565b7f496e76616c696420726571756573742074797065210000000000000000000000600082015250565b600061285c6015836120b7565b915061286782612826565b602082019050919050565b6000602082019050818103600083015261288b8161284f565b9050919050565b7f4e487b7100000000000000000000000000000000000000000000000000000000600052603260045260246000fd5b60006128cc8261216c565b91506128d78361216c565b9250828210156128ea576128e96127ae565b5b828203905092915050565b7f4e487b7100000000000000000000000000000000000000000000000000000000600052603160045260246000fd5b60006040820190506129396000830185612201565b6129466020830184612201565b9392505050565b7f4e487b7100000000000000000000000000000000000000000000000000000000600052601260045260246000fd5b60006129878261216c565b91506129928361216c565b9250826129a2576129a161294d565b5b828204905092915050565b60006129b88261216c565b91506129c38361216c565b9250827fffffffffffffffffffffffffffffffffffffffffffffffffffffffffffffffff038211156129f8576129f76127ae565b5b828201905092915050565b7f52657175657374206973206e6f7420617070726f766564207965742100000000600082015250565b6000612a39601c836120b7565b9150612a4482612a03565b602082019050919050565b60006020820190508181036000830152612a6881612a2c565b905091905056fea2646970667358221220108737c391d0aa1d94b90351cff235f05ff8fe316dd4f9bd48b84155c7b2d0dd64736f6c634300080c0033a2646970667358221220cc4863686e22b2134b80f03ac1c71d243d9c2a28d7bc9b610d8b55e46c2dcb5264736f6c634300080c0033608060405234801561001057600080fd5b506110e8806100206000396000f3fe608060405234801561001057600080fd5b506004361061007f576000357c01000000000000000000000000000000000000000000000000000000009004806351efa3f41461008457806364ec7cee146100a05780637716a28c146100bc578063a7f40e97146100da578063abfa7969146100f8578063ad4600ee14610114575b600080fd5b61009e60048036038101906100999190610d1f565b610130565b005b6100ba60048036038101906100b59190610d5f565b6102a8565b005b6100c46103eb565b6040516100d19190610e4a565b60405180910390f35b6100e26104b6565b6040516100ef9190610e4a565b60405180910390f35b610112600480360381019061010d9190610d1f565b610580565b005b61012e60048036038101906101299190610d5f565b61091c565b005b8173ffffffffffffffffffffffffffffffffffffffff1663a230c524826040518263ffffffff167c01000000000000000000000000000000000000000000000000000000000281526004016101859190610e7b565b602060405180830381865afa1580156101a2573d6000803e3d6000fd5b505050506040513d601f19601f820116820180604052508101906101c69190610ece565b610205576040517f08c379a00000000000000000000000000000000000000000000000000000000081526004016101fc90610f7e565b60405180910390fd5b6000808273ffffffffffffffffffffffffffffffffffffffff1673ffffffffffffffffffffffffffffffffffffffff168152602001908152602001600020829080600181540180825580915050600190039060005260206000200160009091909190916101000a81548173ffffffffffffffffffffffffffffffffffffffff021916908373ffffffffffffffffffffffffffffffffffffffff1602179055505050565b3373ffffffffffffffffffffffffffffffffffffffff1663a230c524826040518263ffffffff167c01000000000000000000000000000000000000000000000000000000000281526004016102fd9190610e7b565b602060405180830381865afa15801561031a573d6000803e3d6000fd5b505050506040513d601f19601f8201168201806040525081019061033e9190610ece565b1561034857600080fd5b600160008273ffffffffffffffffffffffffffffffffffffffff1673ffffffffffffffffffffffffffffffffffffffff168152602001908152602001600020339080600181540180825580915050600190039060005260206000200160009091909190916101000a81548173ffffffffffffffffffffffffffffffffffffffff021916908373ffffffffffffffffffffffffffffffffffffffff16021790555050565b6060600160003373ffffffffffffffffffffffffffffffffffffffff1673ffffffffffffffffffffffffffffffffffffffff1681526020019081526020016000208054806020026020016040519081016040528092919081815260200182805480156104ac57602002820191906000526020600020905b8160009054906101000a900473ffffffffffffffffffffffffffffffffffffffff1673ffffffffffffffffffffffffffffffffffffffff1681526020019060010190808311610462575b5050505050905090565b60606000803373ffffffffffffffffffffffffffffffffffffffff1673ffffffffffffffffffffffffffffffffffffffff16815260200190815260200160002080548060200260200160405190810160405280929190818152602001828054801561057657602002820191906000526020600020905b8160009054906101000a900473ffffffffffffffffffffffffffffffffffffffff1673ffffffffffffffffffffffffffffffffffffffff168152602001906001019080831161052c575b5050505050905090565b8173ffffffffffffffffffffffffffffffffffffffff1663a230c524826040518263ffffffff167c01000000000000000000000000000000000000000000000000000000000281526004016105d59190610e7b565b602060405180830381865afa1580156105f2573d6000803e3d6000fd5b505050506040513d601f19601f820116820180604052508101906106169190610ece565b1561062057600080fd5b60005b6000808373ffffffffffffffffffffffffffffffffffffffff1673ffffffffffffffffffffffffffffffffffffffff16815260200190815260200160002080549050811015610916578273ffffffffffffffffffffffffffffffffffffffff166000808473ffffffffffffffffffffffffffffffffffffffff1673ffffffffffffffffffffffffffffffffffffffff16815260200190815260200160002082815481106106d3576106d2610f9e565b5b9060005260206000200160009054906101000a900473ffffffffffffffffffffffffffffffffffffffff1673ffffffffffffffffffffffffffffffffffffffff161415610903576000808373ffffffffffffffffffffffffffffffffffffffff1673ffffffffffffffffffffffffffffffffffffffff16815260200190815260200160002060016000808573ffffffffffffffffffffffffffffffffffffffff1673ffffffffffffffffffffffffffffffffffffffff168152602001908152602001600020805490506107a69190611006565b815481106107b7576107b6610f9e565b5b9060005260206000200160009054906101000a900473ffffffffffffffffffffffffffffffffffffffff166000808473ffffffffffffffffffffffffffffffffffffffff1673ffffffffffffffffffffffffffffffffffffffff168152602001908152602001600020828154811061083257610831610f9e565b5b9060005260206000200160006101000a81548173ffffffffffffffffffffffffffffffffffffffff021916908373ffffffffffffffffffffffffffffffffffffffff1602179055506000808373ffffffffffffffffffffffffffffffffffffffff1673ffffffffffffffffffffffffffffffffffffffff1681526020019081526020016000208054806108c8576108c761103a565b5b6001900381819060005260206000200160006101000a81549073ffffffffffffffffffffffffffffffffffffffff0219169055905550610918565b808061090e90611069565b915050610623565b505b5050565b3373ffffffffffffffffffffffffffffffffffffffff1663a230c524826040518263ffffffff167c01000000000000000000000000000000000000000000000000000000000281526004016109719190610e7b565b602060405180830381865afa15801561098e573d6000803e3d6000fd5b505050506040513d601f19601f820116820180604052508101906109b29190610ece565b156109bc57600080fd5b60005b600160008373ffffffffffffffffffffffffffffffffffffffff1673ffffffffffffffffffffffffffffffffffffffff16815260200190815260200160002080549050811015610cb7573373ffffffffffffffffffffffffffffffffffffffff16600160008473ffffffffffffffffffffffffffffffffffffffff1673ffffffffffffffffffffffffffffffffffffffff1681526020019081526020016000208281548110610a7157610a70610f9e565b5b9060005260206000200160009054906101000a900473ffffffffffffffffffffffffffffffffffffffff1673ffffffffffffffffffffffffffffffffffffffff161415610ca457600160008373ffffffffffffffffffffffffffffffffffffffff1673ffffffffffffffffffffffffffffffffffffffff16815260200190815260200160002060018060008573ffffffffffffffffffffffffffffffffffffffff1673ffffffffffffffffffffffffffffffffffffffff16815260200190815260200160002080549050610b459190611006565b81548110610b5657610b55610f9e565b5b9060005260206000200160009054906101000a900473ffffffffffffffffffffffffffffffffffffffff16600160008473ffffffffffffffffffffffffffffffffffffffff1673ffffffffffffffffffffffffffffffffffffffff1681526020019081526020016000208281548110610bd257610bd1610f9e565b5b9060005260206000200160006101000a81548173ffffffffffffffffffffffffffffffffffffffff021916908373ffffffffffffffffffffffffffffffffffffffff160217905550600160008373ffffffffffffffffffffffffffffffffffffffff1673ffffffffffffffffffffffffffffffffffffffff168152602001908152602001600020805480610c6957610c6861103a565b5b6001900381819060005260206000200160006101000a81549073ffffffffffffffffffffffffffffffffffffffff0219169055905550610cb9565b8080610caf90611069565b9150506109bf565b505b50565b600080fd5b600073ffffffffffffffffffffffffffffffffffffffff82169050919050565b6000610cec82610cc1565b9050919050565b610cfc81610ce1565b8114610d0757600080fd5b50565b600081359050610d1981610cf3565b92915050565b60008060408385031215610d3657610d35610cbc565b5b6000610d4485828601610d0a565b9250506020610d5585828601610d0a565b9150509250929050565b600060208284031215610d7557610d74610cbc565b5b6000610d8384828501610d0a565b91505092915050565b600081519050919050565b600082825260208201905092915050565b6000819050602082019050919050565b610dc181610ce1565b82525050565b6000610dd38383610db8565b60208301905092915050565b6000602082019050919050565b6000610df782610d8c565b610e018185610d97565b9350610e0c83610da8565b8060005b83811015610e3d578151610e248882610dc7565b9750610e2f83610ddf565b925050600181019050610e10565b5085935050505092915050565b60006020820190508181036000830152610e648184610dec565b905092915050565b610e7581610ce1565b82525050565b6000602082019050610e906000830184610e6c565b92915050565b60008115159050919050565b610eab81610e96565b8114610eb657600080fd5b50565b600081519050610ec881610ea2565b92915050565b600060208284031215610ee457610ee3610cbc565b5b6000610ef284828501610eb9565b91505092915050565b600082825260208201905092915050565b7f55736572206973206e6f742061206d656d626572206f6620746869732077616c60008201527f6c65742100000000000000000000000000000000000000000000000000000000602082015250565b6000610f68602483610efb565b9150610f7382610f0c565b604082019050919050565b60006020820190508181036000830152610f9781610f5b565b9050919050565b7f4e487b7100000000000000000000000000000000000000000000000000000000600052603260045260246000fd5b6000819050919050565b7f4e487b7100000000000000000000000000000000000000000000000000000000600052601160045260246000fd5b600061101182610fcd565b915061101c83610fcd565b92508282101561102f5761102e610fd7565b5b828203905092915050565b7f4e487b7100000000000000000000000000000000000000000000000000000000600052603160045260246000fd5b600061107482610fcd565b91507fffffffffffffffffffffffffffffffffffffffffffffffffffffffffffffffff8214156110a7576110a6610fd7565b5b60018201905091905056fea26469706673582212205790d366a543daf8ccf80e0c50fc710169174f44edcfc13354cc43784a3f011a64736f6c634300080c0033",
  "immutableReferences": {},
  "source": "//SPDX-License-Identifier: MIT\r\npragma solidity ^0.8.0;\r\n\r\nimport \"./SharedWallet.sol\";\r\nimport \"./SharedWalletStorage.sol\";\r\n\r\ncontract SharedWalletFactory {\r\n    SharedWalletStorage private _walletsStorage;\r\n    address private _lastWalletCreated;\r\n\r\n    constructor() {\r\n        _walletsStorage = new SharedWalletStorage();\r\n    }\r\n\r\n    function lastWalletCreated() public view returns (address) {\r\n        return _lastWalletCreated;\r\n    }\r\n\r\n    function walletsStorage() public view returns (address) {\r\n        return address(_walletsStorage);\r\n    }\r\n\r\n    function createNewSharedWallet(string memory _name) external {\r\n        address newSharedWalletAddress = address(\r\n            new SharedWallet(msg.sender, address(_walletsStorage), _name)\r\n        );\r\n        _walletsStorage.addWalletToUser(newSharedWalletAddress, msg.sender);\r\n        _lastWalletCreated = newSharedWalletAddress;\r\n    }\r\n}\r\n",
  "sourcePath": "C:\\Users\\Joro\\Documents\\GitHub\\ShareIt\\contracts\\SharedWalletFactory.sol",
  "compiler": {
    "name": "solc",
    "version": "0.8.12+commit.f00d7308.Emscripten.clang"
  },
  "schemaVersion": "3.4.6",
  "updatedAt": "2022-04-06T14:46:03.548Z",
  "devdoc": {
    "kind": "dev",
    "methods": {},
    "version": 1
  },
  "userdoc": {
    "kind": "user",
    "methods": {},
    "version": 1
  }
}