{
  "contractName": "SharedWalletsStorage",
  "abi": [
    {
      "inputs": [],
      "name": "userWallets",
      "outputs": [
        {
          "internalType": "address[]",
          "name": "",
          "type": "address[]"
        }
      ],
      "stateMutability": "view",
      "type": "function"
    },
    {
      "inputs": [],
      "name": "maxWalletsPerUser",
      "outputs": [
        {
          "internalType": "uint8",
          "name": "",
          "type": "uint8"
        }
      ],
      "stateMutability": "view",
      "type": "function"
    },
    {
      "inputs": [
        {
          "internalType": "address",
          "name": "_newWallet",
          "type": "address"
        },
        {
          "internalType": "address",
          "name": "_user",
          "type": "address"
        }
      ],
      "name": "addWalletToUser",
      "outputs": [],
      "stateMutability": "nonpayable",
      "type": "function"
    },
    {
      "inputs": [
        {
          "internalType": "address",
          "name": "_newWallet",
          "type": "address"
        },
        {
          "internalType": "address",
          "name": "_user",
          "type": "address"
        }
      ],
      "name": "removeWalletForUser",
      "outputs": [],
      "stateMutability": "nonpayable",
      "type": "function"
    }
  ],
  "bytecode": "0x608060405260086000806101000a81548160ff021916908360ff16021790555034801561002b57600080fd5b506109ac8061003b6000396000f3fe608060405234801561001057600080fd5b5060043610610069576000357c0100000000000000000000000000000000000000000000000000000000900480632bf727671461006e57806351efa3f41461008c578063a7f40e97146100a8578063abfa7969146100c6575b600080fd5b6100766100e2565b60405161008391906105f5565b60405180910390f35b6100a660048036038101906100a19190610673565b6100f8565b005b6100b06102d4565b6040516100bd9190610771565b60405180910390f35b6100e060048036038101906100db9190610673565b61039f565b005b60008060009054906101000a900460ff16905090565b81818173ffffffffffffffffffffffffffffffffffffffff1663a230c524826040518263ffffffff167c010000000000000000000000000000000000000000000000000000000002815260040161014f91906107a2565b602060405180830381865afa15801561016c573d6000803e3d6000fd5b505050506040513d601f19601f8201168201806040525081019061019091906107f5565b61019957600080fd5b60008054906101000a900460ff1660ff16600160008573ffffffffffffffffffffffffffffffffffffffff1673ffffffffffffffffffffffffffffffffffffffff16815260200190815260200160002080549050111561022e576040517f08c379a0000000000000000000000000000000000000000000000000000000008152600401610225906108a5565b60405180910390fd5b600160008473ffffffffffffffffffffffffffffffffffffffff1673ffffffffffffffffffffffffffffffffffffffff168152602001908152602001600020849080600181540180825580915050600190039060005260206000200160009091909190916101000a81548173ffffffffffffffffffffffffffffffffffffffff021916908373ffffffffffffffffffffffffffffffffffffffff16021790555050505050565b6060600160003373ffffffffffffffffffffffffffffffffffffffff1673ffffffffffffffffffffffffffffffffffffffff16815260200190815260200160002080548060200260200160405190810160405280929190818152602001828054801561039557602002820191906000526020600020905b8160009054906101000a900473ffffffffffffffffffffffffffffffffffffffff1673ffffffffffffffffffffffffffffffffffffffff168152602001906001019080831161034b575b5050505050905090565b81818173ffffffffffffffffffffffffffffffffffffffff1663a230c524826040518263ffffffff167c01000000000000000000000000000000000000000000000000000000000281526004016103f691906107a2565b602060405180830381865afa158015610413573d6000803e3d6000fd5b505050506040513d601f19601f8201168201806040525081019061043791906107f5565b61044057600080fd5b60005b600160008573ffffffffffffffffffffffffffffffffffffffff1673ffffffffffffffffffffffffffffffffffffffff168152602001908152602001600020805490508110156105d2578473ffffffffffffffffffffffffffffffffffffffff16600160008673ffffffffffffffffffffffffffffffffffffffff1673ffffffffffffffffffffffffffffffffffffffff16815260200190815260200160002082815481106104f5576104f46108c5565b5b9060005260206000200160009054906101000a900473ffffffffffffffffffffffffffffffffffffffff1673ffffffffffffffffffffffffffffffffffffffff1614156105bf57600160008573ffffffffffffffffffffffffffffffffffffffff1673ffffffffffffffffffffffffffffffffffffffff168152602001908152602001600020818154811061058d5761058c6108c5565b5b9060005260206000200160006101000a81549073ffffffffffffffffffffffffffffffffffffffff02191690556105d2565b80806105ca9061092d565b915050610443565b5050505050565b600060ff82169050919050565b6105ef816105d9565b82525050565b600060208201905061060a60008301846105e6565b92915050565b600080fd5b600073ffffffffffffffffffffffffffffffffffffffff82169050919050565b600061064082610615565b9050919050565b61065081610635565b811461065b57600080fd5b50565b60008135905061066d81610647565b92915050565b6000806040838503121561068a57610689610610565b5b60006106988582860161065e565b92505060206106a98582860161065e565b9150509250929050565b600081519050919050565b600082825260208201905092915050565b6000819050602082019050919050565b6106e881610635565b82525050565b60006106fa83836106df565b60208301905092915050565b6000602082019050919050565b600061071e826106b3565b61072881856106be565b9350610733836106cf565b8060005b8381101561076457815161074b88826106ee565b975061075683610706565b925050600181019050610737565b5085935050505092915050565b6000602082019050818103600083015261078b8184610713565b905092915050565b61079c81610635565b82525050565b60006020820190506107b76000830184610793565b92915050565b60008115159050919050565b6107d2816107bd565b81146107dd57600080fd5b50565b6000815190506107ef816107c9565b92915050565b60006020828403121561080b5761080a610610565b5b6000610819848285016107e0565b91505092915050565b600082825260208201905092915050565b7f412073696e676c6520757365722063616e6e6f7420706172746963697061746560008201527f20696e206d6f7265207468616e20382077616c6c657473210000000000000000602082015250565b600061088f603883610822565b915061089a82610833565b604082019050919050565b600060208201905081810360008301526108be81610882565b9050919050565b7f4e487b7100000000000000000000000000000000000000000000000000000000600052603260045260246000fd5b7f4e487b7100000000000000000000000000000000000000000000000000000000600052601160045260246000fd5b6000819050919050565b600061093882610923565b91507fffffffffffffffffffffffffffffffffffffffffffffffffffffffffffffffff82141561096b5761096a6108f4565b5b60018201905091905056fea264697066735822122004caaa744cef6983a019796b266db487cd59172f828bd468f486c6fb8c25e08c64736f6c634300080c0033",
  "immutableReferences": {},
  "source": "//SPDX-License-Identifier: MIT\r\npragma solidity ^0.8.0;\r\n\r\nimport \"./SharedWallet.sol\";\r\n\r\ncontract SharedWalletsStorage {\r\n    uint8 private _maxWalletsPerUser = 8;\r\n    mapping(address => address[]) private _usersWallets;\r\n\r\n    modifier onlyWalletMember(address _newWallet, address _user) {\r\n        require(SharedWallet(_newWallet).isMember(_user));\r\n        _;\r\n    }\r\n\r\n    function userWallets() public view returns (address[] memory) {\r\n        return _usersWallets[msg.sender];\r\n    }\r\n\r\n    function maxWalletsPerUser() public view returns (uint8) {\r\n        return _maxWalletsPerUser;\r\n    }\r\n\r\n    function addWalletToUser(address _newWallet, address _user)\r\n        external\r\n        onlyWalletMember(_newWallet, _user)\r\n    {\r\n        require(\r\n            _usersWallets[_user].length <= _maxWalletsPerUser,\r\n            \"A single user cannot participate in more than 8 wallets!\"\r\n        );\r\n        _usersWallets[_user].push(_newWallet);\r\n    }\r\n\r\n    function removeWalletForUser(address _newWallet, address _user)\r\n        external\r\n        onlyWalletMember(_newWallet, _user)\r\n    {\r\n        for (uint256 i = 0; i < _usersWallets[_user].length; i++)\r\n            if (_usersWallets[_user][i] == _newWallet) {\r\n                delete _usersWallets[_user][i];\r\n                break;\r\n            }\r\n    }\r\n}\r\n",
  "sourcePath": "C:\\Users\\Joro\\Documents\\GitHub\\ShareIt\\contracts\\SharedWalletsStorage.sol",
  "compiler": {
    "name": "solc",
    "version": "0.8.12+commit.f00d7308.Emscripten.clang"
  },
  "schemaVersion": "3.4.6",
  "updatedAt": "2022-03-26T14:13:00.877Z",
  "devdoc": {
    "kind": "dev",
    "methods": {},
    "version": 1
  },
  "userdoc": {
    "kind": "user",
    "methods": {},
    "version": 1
  }
}