{
  "contractName": "SharedWallet",
  "abi": [
    {
      "inputs": [
        {
          "internalType": "address",
          "name": "_creator",
          "type": "address"
        },
        {
          "internalType": "address",
          "name": "_walletsStorageAddress",
          "type": "address"
        },
        {
          "internalType": "string",
          "name": "name_",
          "type": "string"
        }
      ],
      "stateMutability": "nonpayable",
      "type": "constructor"
    },
    {
      "inputs": [
        {
          "internalType": "uint256",
          "name": "_requestID",
          "type": "uint256"
        }
      ],
      "name": "acceptInvitation",
      "outputs": [],
      "stateMutability": "nonpayable",
      "type": "function"
    },
    {
      "inputs": [
        {
          "internalType": "uint256",
          "name": "_requestID",
          "type": "uint256"
        }
      ],
      "name": "acceptRequest",
      "outputs": [],
      "stateMutability": "nonpayable",
      "type": "function"
    },
    {
      "inputs": [
        {
          "internalType": "uint256",
          "name": "_id",
          "type": "uint256"
        }
      ],
      "name": "checkMemberHasVotedById",
      "outputs": [
        {
          "internalType": "bool",
          "name": "",
          "type": "bool"
        }
      ],
      "stateMutability": "view",
      "type": "function"
    },
    {
      "inputs": [
        {
          "internalType": "uint256",
          "name": "_id",
          "type": "uint256"
        }
      ],
      "name": "checkRequestIsAcceptedById",
      "outputs": [
        {
          "internalType": "uint8",
          "name": "",
          "type": "uint8"
        }
      ],
      "stateMutability": "view",
      "type": "function"
    },
    {
      "inputs": [
        {
          "internalType": "uint256",
          "name": "_id",
          "type": "uint256"
        }
      ],
      "name": "checkRequestIsApprovedById",
      "outputs": [
        {
          "internalType": "bool",
          "name": "",
          "type": "bool"
        }
      ],
      "stateMutability": "view",
      "type": "function"
    },
    {
      "inputs": [
        {
          "internalType": "uint256",
          "name": "_requestTypeIdx",
          "type": "uint256"
        },
        {
          "internalType": "uint160",
          "name": "_data",
          "type": "uint160"
        }
      ],
      "name": "createRequest",
      "outputs": [],
      "stateMutability": "nonpayable",
      "type": "function"
    },
    {
      "inputs": [
        {
          "internalType": "uint256",
          "name": "_id",
          "type": "uint256"
        }
      ],
      "name": "getRequestAddrById",
      "outputs": [
        {
          "internalType": "address",
          "name": "",
          "type": "address"
        }
      ],
      "stateMutability": "view",
      "type": "function"
    },
    {
      "inputs": [
        {
          "internalType": "uint256",
          "name": "_id",
          "type": "uint256"
        }
      ],
      "name": "getRequestAuthorById",
      "outputs": [
        {
          "internalType": "address",
          "name": "",
          "type": "address"
        }
      ],
      "stateMutability": "view",
      "type": "function"
    },
    {
      "inputs": [
        {
          "internalType": "uint256",
          "name": "_id",
          "type": "uint256"
        }
      ],
      "name": "getRequestProVotersCountById",
      "outputs": [
        {
          "internalType": "uint256",
          "name": "",
          "type": "uint256"
        }
      ],
      "stateMutability": "view",
      "type": "function"
    },
    {
      "inputs": [
        {
          "internalType": "uint256",
          "name": "_id",
          "type": "uint256"
        }
      ],
      "name": "getRequestTypeById",
      "outputs": [
        {
          "internalType": "enum Voting.RequestTypes",
          "name": "",
          "type": "uint8"
        }
      ],
      "stateMutability": "view",
      "type": "function"
    },
    {
      "inputs": [
        {
          "internalType": "uint256",
          "name": "_id",
          "type": "uint256"
        }
      ],
      "name": "getRequestValueById",
      "outputs": [
        {
          "internalType": "uint160",
          "name": "",
          "type": "uint160"
        }
      ],
      "stateMutability": "view",
      "type": "function"
    },
    {
      "inputs": [
        {
          "internalType": "uint256",
          "name": "_requestID",
          "type": "uint256"
        }
      ],
      "name": "rejectInvitation",
      "outputs": [],
      "stateMutability": "nonpayable",
      "type": "function"
    },
    {
      "inputs": [],
      "name": "requestsCounter",
      "outputs": [
        {
          "internalType": "uint256",
          "name": "",
          "type": "uint256"
        }
      ],
      "stateMutability": "view",
      "type": "function"
    },
    {
      "inputs": [],
      "name": "members",
      "outputs": [
        {
          "internalType": "address[]",
          "name": "",
          "type": "address[]"
        }
      ],
      "stateMutability": "view",
      "type": "function"
    },
    {
      "inputs": [],
      "name": "name",
      "outputs": [
        {
          "internalType": "string",
          "name": "",
          "type": "string"
        }
      ],
      "stateMutability": "view",
      "type": "function"
    },
    {
      "inputs": [],
      "name": "walletsStorage",
      "outputs": [
        {
          "internalType": "contract SharedWalletStorage",
          "name": "",
          "type": "address"
        }
      ],
      "stateMutability": "view",
      "type": "function"
    },
    {
      "inputs": [
        {
          "internalType": "address",
          "name": "_user",
          "type": "address"
        }
      ],
      "name": "isMember",
      "outputs": [
        {
          "internalType": "bool",
          "name": "",
          "type": "bool"
        }
      ],
      "stateMutability": "view",
      "type": "function"
    },
    {
      "inputs": [],
      "name": "leave",
      "outputs": [],
      "stateMutability": "nonpayable",
      "type": "function"
    },
    {
      "inputs": [],
      "name": "deposit",
      "outputs": [],
      "stateMutability": "payable",
      "type": "function"
    }
  ],
  "bytecode": "0x60a06040523480156200001157600080fd5b50604051620031973803806200319783398181016040528101906200003791906200040a565b6000815114156200004757600080fd5b8173ffffffffffffffffffffffffffffffffffffffff1660808173ffffffffffffffffffffffffffffffffffffffff16815250506003839080600181540180825580915050600190039060005260206000200160009091909190916101000a81548173ffffffffffffffffffffffffffffffffffffffff021916908373ffffffffffffffffffffffffffffffffffffffff1602179055506001600260008573ffffffffffffffffffffffffffffffffffffffff1673ffffffffffffffffffffffffffffffffffffffff16815260200190815260200160002060006101000a81548160ff02191690831515021790555080600490805190602001906200014e92919062000158565b50505050620004ea565b8280546200016690620004b4565b90600052602060002090601f0160209004810192826200018a5760008555620001d6565b82601f10620001a557805160ff1916838001178555620001d6565b82800160010185558215620001d6579182015b82811115620001d5578251825591602001919060010190620001b8565b5b509050620001e59190620001e9565b5090565b5b8082111562000204576000816000905550600101620001ea565b5090565b6000604051905090565b600080fd5b600080fd5b600073ffffffffffffffffffffffffffffffffffffffff82169050919050565b600062000249826200021c565b9050919050565b6200025b816200023c565b81146200026757600080fd5b50565b6000815190506200027b8162000250565b92915050565b600080fd5b600080fd5b6000601f19601f8301169050919050565b7f4e487b7100000000000000000000000000000000000000000000000000000000600052604160045260246000fd5b620002d6826200028b565b810181811067ffffffffffffffff82111715620002f857620002f76200029c565b5b80604052505050565b60006200030d62000208565b90506200031b8282620002cb565b919050565b600067ffffffffffffffff8211156200033e576200033d6200029c565b5b62000349826200028b565b9050602081019050919050565b60005b838110156200037657808201518184015260208101905062000359565b8381111562000386576000848401525b50505050565b6000620003a36200039d8462000320565b62000301565b905082815260208101848484011115620003c257620003c162000286565b5b620003cf84828562000356565b509392505050565b600082601f830112620003ef57620003ee62000281565b5b8151620004018482602086016200038c565b91505092915050565b60008060006060848603121562000426576200042562000212565b5b600062000436868287016200026a565b935050602062000449868287016200026a565b925050604084015167ffffffffffffffff8111156200046d576200046c62000217565b5b6200047b86828701620003d7565b9150509250925092565b7f4e487b7100000000000000000000000000000000000000000000000000000000600052602260045260246000fd5b60006002820490506001821680620004cd57607f821691505b60208210811415620004e457620004e362000485565b5b50919050565b608051612c676200053060003960008181610d6301528181611389015281816114e10152818161175801528181611ab401528181611d82015261203c0152612c676000f3fe608060405260043610610131576000357c01000000000000000000000000000000000000000000000000000000009004806370a26c23116100bd578063bdd4d18d11610081578063bdd4d18d1461041a578063c1c1da4014610445578063d0e30db01461046e578063d66d9e1914610478578063ea3ca2221461048f57610131565b806370a26c23146102fb578063718d31d914610338578063a230c52414610375578063abcc9153146103b2578063ad207e16146103dd57610131565b80634ba1f098116101045780634ba1f0981461020457806354ebcf9b1461022d578063553da43e1461026a5780635aa6bb3b146102a7578063663c2269146102d057610131565b806306fdde0314610136578063158dfe3b146101615780632faa36681461019e578063464c5b6c146101db575b600080fd5b34801561014257600080fd5b5061014b6104cc565b60405161015891906122de565b60405180910390f35b34801561016d57600080fd5b506101886004803603810190610183919061233b565b61055e565b60405161019591906123a9565b60405180910390f35b3480156101aa57600080fd5b506101c560048036038101906101c0919061233b565b6105f1565b6040516101d291906123df565b60405180910390f35b3480156101e757600080fd5b5061020260048036038101906101fd919061233b565b61061d565b005b34801561021057600080fd5b5061022b6004803603810190610226919061233b565b6107ef565b005b34801561023957600080fd5b50610254600480360381019061024f919061233b565b6109f6565b60405161026191906123df565b60405180910390f35b34801561027657600080fd5b50610291600480360381019061028c919061233b565b610a5f565b60405161029e9190612471565b60405180910390f35b3480156102b357600080fd5b506102ce60048036038101906102c9919061233b565b610a8b565b005b3480156102dc57600080fd5b506102e5610c82565b6040516102f2919061249b565b60405180910390f35b34801561030757600080fd5b50610322600480360381019061031d919061233b565b610c8c565b60405161032f91906123a9565b60405180910390f35b34801561034457600080fd5b5061035f600480360381019061035a919061233b565b610ccb565b60405161036c91906124d2565b60405180910390f35b34801561038157600080fd5b5061039c60048036038101906103979190612519565b610d09565b6040516103a991906123df565b60405180910390f35b3480156103be57600080fd5b506103c7610d5f565b6040516103d491906125a5565b60405180910390f35b3480156103e957600080fd5b5061040460048036038101906103ff919061233b565b610d87565b604051610411919061249b565b60405180910390f35b34801561042657600080fd5b5061042f610da6565b60405161043c919061267e565b60405180910390f35b34801561045157600080fd5b5061046c600480360381019061046791906126cc565b610e34565b005b6104766111af565b005b34801561048457600080fd5b5061048d6111b1565b005b34801561049b57600080fd5b506104b660048036038101906104b1919061233b565b61144d565b6040516104c3919061271b565b60405180910390f35b6060600480546104db90612765565b80601f016020809104026020016040519081016040528092919081815260200182805461050790612765565b80156105545780601f1061052957610100808354040283529160200191610554565b820191906000526020600020905b81548152906001019060200180831161053757829003601f168201915b5050505050905090565b600060026003811115610574576105736123fa565b5b60008084815260200190815260200160002060000160149054906101000a900460ff1660038111156105a9576105a86123fa565b5b14156105b457600080fd5b60008083815260200190815260200160002060010160009054906101000a900473ffffffffffffffffffffffffffffffffffffffff169050919050565b600080600083815260200190815260200160002060010160159054906101000a900460ff169050919050565b60006003811115610631576106306123fa565b5b60008083815260200190815260200160002060000160149054906101000a900460ff166003811115610666576106656123fa565b5b146106a6576040517f08c379a000000000000000000000000000000000000000000000000000000000815260040161069d906127e3565b60405180910390fd5b3373ffffffffffffffffffffffffffffffffffffffff1660008083815260200190815260200160002060010160009054906101000a900473ffffffffffffffffffffffffffffffffffffffff1673ffffffffffffffffffffffffffffffffffffffff161461071357600080fd5b60016003811115610727576107266123fa565b5b60008083815260200190815260200160002060010160149054906101000a900460ff16600381111561075c5761075b6123fa565b5b1461079c576040517f08c379a00000000000000000000000000000000000000000000000000000000081526004016107939061284f565b60405180910390fd5b600260008083815260200190815260200160002060010160146101000a81548160ff021916908360038111156107d5576107d46123fa565b5b02179055506107e3336114df565b6107ec81611589565b50565b600260003373ffffffffffffffffffffffffffffffffffffffff1673ffffffffffffffffffffffffffffffffffffffff16815260200190815260200160002060009054906101000a900460ff1661084557600080fd5b6000151560008083815260200190815260200160002060010160159054906101000a900460ff161515146108ae576040517f08c379a00000000000000000000000000000000000000000000000000000000081526004016108a5906128bb565b60405180910390fd5b6000151560008083815260200190815260200160002060030160003373ffffffffffffffffffffffffffffffffffffffff1673ffffffffffffffffffffffffffffffffffffffff16815260200190815260200160002060009054906101000a900460ff16151514610954576040517f08c379a000000000000000000000000000000000000000000000000000000000815260040161094b90612927565b60405180910390fd5b600160008083815260200190815260200160002060030160003373ffffffffffffffffffffffffffffffffffffffff1673ffffffffffffffffffffffffffffffffffffffff16815260200190815260200160002060006101000a81548160ff02191690831515021790555060008082815260200190815260200160002060020160008154809291906109e590612976565b91905055506109f381611589565b50565b600080600083815260200190815260200160002060030160003373ffffffffffffffffffffffffffffffffffffffff1673ffffffffffffffffffffffffffffffffffffffff16815260200190815260200160002060009054906101000a900460ff169050919050565b600080600083815260200190815260200160002060000160149054906101000a900460ff169050919050565b60006003811115610a9f57610a9e6123fa565b5b60008083815260200190815260200160002060000160149054906101000a900460ff166003811115610ad457610ad36123fa565b5b14610b14576040517f08c379a0000000000000000000000000000000000000000000000000000000008152600401610b0b906127e3565b60405180910390fd5b3373ffffffffffffffffffffffffffffffffffffffff1660008083815260200190815260200160002060010160009054906101000a900473ffffffffffffffffffffffffffffffffffffffff1673ffffffffffffffffffffffffffffffffffffffff1614610b8157600080fd5b60016003811115610b9557610b946123fa565b5b60008083815260200190815260200160002060010160149054906101000a900460ff166003811115610bca57610bc96123fa565b5b14610c0a576040517f08c379a0000000000000000000000000000000000000000000000000000000008152600401610c019061284f565b60405180910390fd5b600360008083815260200190815260200160002060010160146101000a81548160ff02191690836003811115610c4357610c426123fa565b5b0217905550610c51336114df565b600160008083815260200190815260200160002060010160156101000a81548160ff02191690831515021790555050565b6000600154905090565b600080600083815260200190815260200160002060000160009054906101000a900473ffffffffffffffffffffffffffffffffffffffff169050919050565b600080600083815260200190815260200160002060010160149054906101000a900460ff166003811115610d0257610d016123fa565b5b9050919050565b6000600260008373ffffffffffffffffffffffffffffffffffffffff1673ffffffffffffffffffffffffffffffffffffffff16815260200190815260200160002060009054906101000a900460ff169050919050565b60007f0000000000000000000000000000000000000000000000000000000000000000905090565b6000806000838152602001908152602001600020600201549050919050565b60606003805480602002602001604051908101604052809291908181526020018280548015610e2a57602002820191906000526020600020905b8160009054906101000a900473ffffffffffffffffffffffffffffffffffffffff1673ffffffffffffffffffffffffffffffffffffffff1681526020019060010190808311610de0575b5050505050905090565b600260003373ffffffffffffffffffffffffffffffffffffffff1673ffffffffffffffffffffffffffffffffffffffff16815260200190815260200160002060009054906101000a900460ff16610e8a57600080fd5b600380811115610e9d57610e9c6123fa565b5b821115610edf576040517f08c379a0000000000000000000000000000000000000000000000000000000008152600401610ed690612a0b565b60405180910390fd5b60026003811115610ef357610ef26123fa565b5b60ff16821415610f5e5760008173ffffffffffffffffffffffffffffffffffffffff16118015610f5057503073ffffffffffffffffffffffffffffffffffffffff16318173ffffffffffffffffffffffffffffffffffffffff1611155b610f5957600080fd5b610f99565b600073ffffffffffffffffffffffffffffffffffffffff168173ffffffffffffffffffffffffffffffffffffffff161415610f9857600080fd5b5b600080600060015481526020019081526020016000209050338160000160006101000a81548173ffffffffffffffffffffffffffffffffffffffff021916908373ffffffffffffffffffffffffffffffffffffffff160217905550826003811115611007576110066123fa565b5b8160000160146101000a81548160ff0219169083600381111561102d5761102c6123fa565b5b0217905550818160010160006101000a81548173ffffffffffffffffffffffffffffffffffffffff021916908373ffffffffffffffffffffffffffffffffffffffff1602179055506001816002018190555060018160030160003373ffffffffffffffffffffffffffffffffffffffff1673ffffffffffffffffffffffffffffffffffffffff16815260200190815260200160002060006101000a81548160ff02191690831515021790555060006001549050600060038111156110f4576110f36123fa565b5b8260000160149054906101000a900460ff166003811115611118576111176123fa565b5b141561115a5760018260010160146101000a81548160ff02191690836003811115611146576111456123fa565b5b02179055506111558382611756565b611188565b60008260010160146101000a81548160ff02191690836003811115611182576111816123fa565b5b02179055505b6001600081548092919061119b90612976565b91905055506111a981611589565b50505050565b565b6111ba33610d09565b6111c357600080fd5b60005b600380549050811015611449573373ffffffffffffffffffffffffffffffffffffffff16600382815481106111fe576111fd612a2b565b5b9060005260206000200160009054906101000a900473ffffffffffffffffffffffffffffffffffffffff1673ffffffffffffffffffffffffffffffffffffffff16141561143657600360016003805490506112599190612a5a565b8154811061126a57611269612a2b565b5b9060005260206000200160009054906101000a900473ffffffffffffffffffffffffffffffffffffffff16600382815481106112a9576112a8612a2b565b5b9060005260206000200160006101000a81548173ffffffffffffffffffffffffffffffffffffffff021916908373ffffffffffffffffffffffffffffffffffffffff160217905550600380548061130357611302612a8e565b5b6001900381819060005260206000200160006101000a81549073ffffffffffffffffffffffffffffffffffffffff02191690559055600260003373ffffffffffffffffffffffffffffffffffffffff1673ffffffffffffffffffffffffffffffffffffffff16815260200190815260200160002060006101000a81549060ff02191690557f000000000000000000000000000000000000000000000000000000000000000073ffffffffffffffffffffffffffffffffffffffff1663abfa796930336040518363ffffffff167c01000000000000000000000000000000000000000000000000000000000281526004016113fe929190612abd565b600060405180830381600087803b15801561141857600080fd5b505af115801561142c573d6000803e3d6000fd5b505050505061144b565b808061144190612976565b9150506111c6565b505b565b600060026003811115611463576114626123fa565b5b60008084815260200190815260200160002060000160149054906101000a900460ff166003811115611498576114976123fa565b5b146114a257600080fd5b60008083815260200190815260200160002060010160009054906101000a900473ffffffffffffffffffffffffffffffffffffffff169050919050565b7f000000000000000000000000000000000000000000000000000000000000000073ffffffffffffffffffffffffffffffffffffffff1663ad4600ee826040518263ffffffff167c010000000000000000000000000000000000000000000000000000000002815260040161155491906123a9565b600060405180830381600087803b15801561156e57600080fd5b505af1158015611582573d6000803e3d6000fd5b5050505050565b6000611599600380549050611803565b905080600080848152602001908152602001600020600201541480156116065750600060038111156115ce576115cd6123fa565b5b60008084815260200190815260200160002060000160149054906101000a900460ff166003811115611603576116026123fa565b5b14155b1561163e57600160008084815260200190815260200160002060010160156101000a81548160ff021916908315150217905550611720565b80600080848152602001908152602001600020600201541480156116a8575060006003811115611671576116706123fa565b5b60008084815260200190815260200160002060000160149054906101000a900460ff1660038111156116a6576116a56123fa565b5b145b80156116eb5750600260008084815260200190815260200160002060010160149054906101000a900460ff1660038111156116e6576116e56123fa565b5b60ff16145b1561171f57600160008084815260200190815260200160002060010160156101000a81548160ff0219169083151502179055505b5b60008083815260200190815260200160002060010160159054906101000a900460ff16156117525761175182611825565b5b5050565b7f000000000000000000000000000000000000000000000000000000000000000073ffffffffffffffffffffffffffffffffffffffff1663d8a3bc5683836040518363ffffffff167c01000000000000000000000000000000000000000000000000000000000281526004016117cd929190612ae6565b600060405180830381600087803b1580156117e757600080fd5b505af11580156117fb573d6000803e3d6000fd5b505050505050565b600060016002836118149190612b3e565b61181e9190612b6f565b9050919050565b60006003811115611839576118386123fa565b5b60008083815260200190815260200160002060000160149054906101000a900460ff16600381111561186e5761186d6123fa565b5b14156118825761187d8161199a565b611997565b60016003811115611896576118956123fa565b5b60008083815260200190815260200160002060000160149054906101000a900460ff1660038111156118cb576118ca6123fa565b5b14156118df576118da81611b60565b611996565b600260038111156118f3576118f26123fa565b5b60008083815260200190815260200160002060000160149054906101000a900460ff166003811115611928576119276123fa565b5b141561193c5761193781611e4b565b611995565b60038081111561194f5761194e6123fa565b5b60008083815260200190815260200160002060000160149054906101000a900460ff166003811115611984576119836123fa565b5b14156119945761199381611f73565b5b5b5b5b50565b600080600083815260200190815260200160002090506119bb816000612172565b60008160010160009054906101000a900473ffffffffffffffffffffffffffffffffffffffff1690506119ed81610d09565b156119f757600080fd5b6003819080600181540180825580915050600190039060005260206000200160009091909190916101000a81548173ffffffffffffffffffffffffffffffffffffffff021916908373ffffffffffffffffffffffffffffffffffffffff1602179055506001600260008373ffffffffffffffffffffffffffffffffffffffff1673ffffffffffffffffffffffffffffffffffffffff16815260200190815260200160002060006101000a81548160ff0219169083151502179055507f000000000000000000000000000000000000000000000000000000000000000073ffffffffffffffffffffffffffffffffffffffff166351efa3f430836040518363ffffffff167c0100000000000000000000000000000000000000000000000000000000028152600401611b29929190612abd565b600060405180830381600087803b158015611b4357600080fd5b505af1158015611b57573d6000803e3d6000fd5b50505050505050565b60008060008381526020019081526020016000209050611b81816001612172565b60008160010160009054906101000a900473ffffffffffffffffffffffffffffffffffffffff169050611bb381610d09565b611bbc57600080fd5b60005b600380549050811015611e44578173ffffffffffffffffffffffffffffffffffffffff1660038281548110611bf757611bf6612a2b565b5b9060005260206000200160009054906101000a900473ffffffffffffffffffffffffffffffffffffffff1673ffffffffffffffffffffffffffffffffffffffff161415611e315760036001600380549050611c529190612a5a565b81548110611c6357611c62612a2b565b5b9060005260206000200160009054906101000a900473ffffffffffffffffffffffffffffffffffffffff1660038281548110611ca257611ca1612a2b565b5b9060005260206000200160006101000a81548173ffffffffffffffffffffffffffffffffffffffff021916908373ffffffffffffffffffffffffffffffffffffffff1602179055506003805480611cfc57611cfb612a8e565b5b6001900381819060005260206000200160006101000a81549073ffffffffffffffffffffffffffffffffffffffff02191690559055600260008373ffffffffffffffffffffffffffffffffffffffff1673ffffffffffffffffffffffffffffffffffffffff16815260200190815260200160002060006101000a81549060ff02191690557f000000000000000000000000000000000000000000000000000000000000000073ffffffffffffffffffffffffffffffffffffffff1663abfa796930846040518363ffffffff167c0100000000000000000000000000000000000000000000000000000000028152600401611df7929190612abd565b600060405180830381600087803b158015611e1157600080fd5b505af1158015611e25573d6000803e3d6000fd5b50505050505050611e48565b8080611e3c90612976565b915050611bbf565b5050505b50565b60008060008381526020019081526020016000209050611e6c816002612172565b3073ffffffffffffffffffffffffffffffffffffffff16318160010160009054906101000a900473ffffffffffffffffffffffffffffffffffffffff1673ffffffffffffffffffffffffffffffffffffffff161115611eca57600080fd5b8060000160009054906101000a900473ffffffffffffffffffffffffffffffffffffffff1673ffffffffffffffffffffffffffffffffffffffff166108fc8260010160009054906101000a900473ffffffffffffffffffffffffffffffffffffffff1673ffffffffffffffffffffffffffffffffffffffff169081150290604051600060405180830381858888f19350505050158015611f6e573d6000803e3d6000fd5b505050565b60008060008381526020019081526020016000209050611f94816003612172565b60005b6003805490508110156121345760006002600060038481548110611fbe57611fbd612a2b565b5b9060005260206000200160009054906101000a900473ffffffffffffffffffffffffffffffffffffffff1673ffffffffffffffffffffffffffffffffffffffff1673ffffffffffffffffffffffffffffffffffffffff16815260200190815260200160002060006101000a81548160ff0219169083151502179055507f000000000000000000000000000000000000000000000000000000000000000073ffffffffffffffffffffffffffffffffffffffff1663abfa7969306003848154811061208b5761208a612a2b565b5b9060005260206000200160009054906101000a900473ffffffffffffffffffffffffffffffffffffffff166040518363ffffffff167c01000000000000000000000000000000000000000000000000000000000281526004016120ef929190612abd565b600060405180830381600087803b15801561210957600080fd5b505af115801561211d573d6000803e3d6000fd5b50505050808061212c90612976565b915050611f97565b508060010160009054906101000a900473ffffffffffffffffffffffffffffffffffffffff1673ffffffffffffffffffffffffffffffffffffffff16ff5b806003811115612185576121846123fa565b5b8260000160149054906101000a900460ff1660038111156121a9576121a86123fa565b5b146121e9576040517f08c379a00000000000000000000000000000000000000000000000000000000081526004016121e0906127e3565b60405180910390fd5b600115158260010160159054906101000a900460ff16151514612241576040517f08c379a000000000000000000000000000000000000000000000000000000000815260040161223890612c11565b60405180910390fd5b5050565b600081519050919050565b600082825260208201905092915050565b60005b8381101561227f578082015181840152602081019050612264565b8381111561228e576000848401525b50505050565b6000601f19601f8301169050919050565b60006122b082612245565b6122ba8185612250565b93506122ca818560208601612261565b6122d381612294565b840191505092915050565b600060208201905081810360008301526122f881846122a5565b905092915050565b600080fd5b6000819050919050565b61231881612305565b811461232357600080fd5b50565b6000813590506123358161230f565b92915050565b60006020828403121561235157612350612300565b5b600061235f84828501612326565b91505092915050565b600073ffffffffffffffffffffffffffffffffffffffff82169050919050565b600061239382612368565b9050919050565b6123a381612388565b82525050565b60006020820190506123be600083018461239a565b92915050565b60008115159050919050565b6123d9816123c4565b82525050565b60006020820190506123f460008301846123d0565b92915050565b7f4e487b7100000000000000000000000000000000000000000000000000000000600052602160045260246000fd5b6004811061243a576124396123fa565b5b50565b600081905061244b82612429565b919050565b600061245b8261243d565b9050919050565b61246b81612450565b82525050565b60006020820190506124866000830184612462565b92915050565b61249581612305565b82525050565b60006020820190506124b0600083018461248c565b92915050565b600060ff82169050919050565b6124cc816124b6565b82525050565b60006020820190506124e760008301846124c3565b92915050565b6124f681612388565b811461250157600080fd5b50565b600081359050612513816124ed565b92915050565b60006020828403121561252f5761252e612300565b5b600061253d84828501612504565b91505092915050565b6000819050919050565b600061256b61256661256184612368565b612546565b612368565b9050919050565b600061257d82612550565b9050919050565b600061258f82612572565b9050919050565b61259f81612584565b82525050565b60006020820190506125ba6000830184612596565b92915050565b600081519050919050565b600082825260208201905092915050565b6000819050602082019050919050565b6125f581612388565b82525050565b600061260783836125ec565b60208301905092915050565b6000602082019050919050565b600061262b826125c0565b61263581856125cb565b9350612640836125dc565b8060005b8381101561267157815161265888826125fb565b975061266383612613565b925050600181019050612644565b5085935050505092915050565b600060208201905081810360008301526126988184612620565b905092915050565b6126a981612368565b81146126b457600080fd5b50565b6000813590506126c6816126a0565b92915050565b600080604083850312156126e3576126e2612300565b5b60006126f185828601612326565b9250506020612702858286016126b7565b9150509250929050565b61271581612368565b82525050565b6000602082019050612730600083018461270c565b92915050565b7f4e487b7100000000000000000000000000000000000000000000000000000000600052602260045260246000fd5b6000600282049050600182168061277d57607f821691505b6020821081141561279157612790612736565b5b50919050565b7f57726f6e67207265717565737420696421000000000000000000000000000000600082015250565b60006127cd601183612250565b91506127d882612797565b602082019050919050565b600060208201905081810360008301526127fc816127c0565b9050919050565b7f496e7669746174696f6e20616c72656164792061636365707465642100000000600082015250565b6000612839601c83612250565b915061284482612803565b602082019050919050565b600060208201905081810360008301526128688161282c565b9050919050565b7f526571756573742068617320616c726561647920706173736564210000000000600082015250565b60006128a5601b83612250565b91506128b08261286f565b602082019050919050565b600060208201905081810360008301526128d481612898565b9050919050565b7f416c726561647920766f74656420746f20746869732072657175657374210000600082015250565b6000612911601e83612250565b915061291c826128db565b602082019050919050565b6000602082019050818103600083015261294081612904565b9050919050565b7f4e487b7100000000000000000000000000000000000000000000000000000000600052601160045260246000fd5b600061298182612305565b91507fffffffffffffffffffffffffffffffffffffffffffffffffffffffffffffffff8214156129b4576129b3612947565b5b600182019050919050565b7f496e76616c696420726571756573742074797065210000000000000000000000600082015250565b60006129f5601583612250565b9150612a00826129bf565b602082019050919050565b60006020820190508181036000830152612a24816129e8565b9050919050565b7f4e487b7100000000000000000000000000000000000000000000000000000000600052603260045260246000fd5b6000612a6582612305565b9150612a7083612305565b925082821015612a8357612a82612947565b5b828203905092915050565b7f4e487b7100000000000000000000000000000000000000000000000000000000600052603160045260246000fd5b6000604082019050612ad2600083018561239a565b612adf602083018461239a565b9392505050565b6000604082019050612afb600083018561239a565b612b08602083018461248c565b9392505050565b7f4e487b7100000000000000000000000000000000000000000000000000000000600052601260045260246000fd5b6000612b4982612305565b9150612b5483612305565b925082612b6457612b63612b0f565b5b828204905092915050565b6000612b7a82612305565b9150612b8583612305565b9250827fffffffffffffffffffffffffffffffffffffffffffffffffffffffffffffffff03821115612bba57612bb9612947565b5b828201905092915050565b7f52657175657374206973206e6f7420617070726f766564207965742100000000600082015250565b6000612bfb601c83612250565b9150612c0682612bc5565b602082019050919050565b60006020820190508181036000830152612c2a81612bee565b905091905056fea2646970667358221220981c53663ea4a75d48e83eb6496bb8626a2639da38430d48e15b8ec964b122e364736f6c634300080c0033",
  "immutableReferences": {
    "41": [
      {
        "length": 32,
        "start": 3427
      },
      {
        "length": 32,
        "start": 5001
      },
      {
        "length": 32,
        "start": 5345
      },
      {
        "length": 32,
        "start": 5976
      },
      {
        "length": 32,
        "start": 6836
      },
      {
        "length": 32,
        "start": 7554
      },
      {
        "length": 32,
        "start": 8252
      }
    ]
  },
  "source": "//SPDX-License-Identifier: MIT\r\npragma solidity ^0.8.0;\r\n\r\nimport \"./Voting.sol\";\r\nimport \"./SharedWalletStorage.sol\";\r\n\r\ncontract SharedWallet is Voting {\r\n    SharedWalletStorage private immutable _walletsStorage;\r\n    mapping(address => bool) private _isMember;\r\n    address[] private _members;\r\n    string private _name;\r\n\r\n    modifier onlyMember() override {\r\n        require(_isMember[msg.sender]);\r\n        _;\r\n    }\r\n\r\n    constructor(\r\n        address _creator,\r\n        address _walletsStorageAddress,\r\n        string memory name_\r\n    ) {\r\n        require(bytes(name_).length != 0);\r\n        _walletsStorage = SharedWalletStorage(_walletsStorageAddress);\r\n\r\n        _members.push(_creator);\r\n        _isMember[_creator] = true;\r\n        _name = name_;\r\n    }\r\n\r\n    function members() public view returns (address[] memory) {\r\n        return _members;\r\n    }\r\n\r\n    function name() public view returns (string memory) {\r\n        return _name;\r\n    }\r\n\r\n    function walletsStorage() public view returns (SharedWalletStorage) {\r\n        return _walletsStorage;\r\n    }\r\n\r\n    function isMember(address _user) public view returns (bool) {\r\n        return _isMember[_user];\r\n    }\r\n\r\n    function _addMember(uint256 _requestId) private {\r\n        Request storage request = _requests[_requestId];\r\n        _validateRequest(request, RequestTypes.AddMember);\r\n\r\n        address newMember = address(request.data);\r\n\r\n        require(!isMember(newMember));\r\n        _members.push(newMember);\r\n        _isMember[newMember] = true;\r\n        _walletsStorage.addWalletToUser(address(this), newMember);\r\n    }\r\n\r\n    function _removeMember(uint256 _requestId) private {\r\n        Request storage request = _requests[_requestId];\r\n        _validateRequest(request, RequestTypes.RemoveMember);\r\n\r\n        address memberToRemove = address(request.data);\r\n\r\n        require(isMember(memberToRemove));\r\n        for (uint256 i = 0; i < _members.length; i++)\r\n            if (_members[i] == memberToRemove) {\r\n                _members[i] = _members[_members.length - 1];\r\n                _members.pop();\r\n                delete _isMember[memberToRemove];\r\n                _walletsStorage.removeWalletForUser(\r\n                    address(this),\r\n                    memberToRemove\r\n                );\r\n                return;\r\n            }\r\n    }\r\n\r\n    function _withdraw(uint256 _requestId) private {\r\n        Request storage request = _requests[_requestId];\r\n        _validateRequest(request, RequestTypes.Withdraw);\r\n\r\n        require(request.data <= address(this).balance);\r\n\r\n        payable(request.author).transfer(request.data);\r\n    }\r\n\r\n    function _destroy(uint256 _requestId) private {\r\n        Request storage request = _requests[_requestId];\r\n        _validateRequest(request, RequestTypes.Destroy);\r\n\r\n        for (uint256 i; i < _members.length; i++) {\r\n            _isMember[_members[i]] = false;\r\n            _walletsStorage.removeWalletForUser(address(this), _members[i]);\r\n        }\r\n\r\n        selfdestruct(payable(address(request.data)));\r\n    }\r\n\r\n    function leave() external {\r\n        require(isMember(msg.sender));\r\n        for (uint256 i = 0; i < _members.length; i++)\r\n            if (_members[i] == msg.sender) {\r\n                _members[i] = _members[_members.length - 1];\r\n                _members.pop();\r\n                delete _isMember[msg.sender];\r\n                _walletsStorage.removeWalletForUser(address(this), msg.sender);\r\n                return;\r\n            }\r\n    }\r\n\r\n    function _tryApproveRequest(uint256 _requestId) internal override {\r\n        uint256 goal = _getMajority(_members.length);\r\n        if (\r\n            _requests[_requestId].proVotersCount == goal &&\r\n            _requests[_requestId].requestType != RequestTypes.AddMember\r\n        ) _requests[_requestId].approved = true;\r\n        else if (\r\n            _requests[_requestId].proVotersCount == goal &&\r\n            _requests[_requestId].requestType == RequestTypes.AddMember &&\r\n            uint8(_requests[_requestId].invitationAccepted) == 2\r\n        ) _requests[_requestId].approved = true;\r\n\r\n        if (_requests[_requestId].approved) _executeRequest(_requestId);\r\n    }\r\n\r\n    function _executeRequest(uint256 _requestId) private {\r\n        if (_requests[_requestId].requestType == RequestTypes.AddMember)\r\n            _addMember(_requestId);\r\n        else if (_requests[_requestId].requestType == RequestTypes.RemoveMember)\r\n            _removeMember(_requestId);\r\n        else if (_requests[_requestId].requestType == RequestTypes.Withdraw)\r\n            _withdraw(_requestId);\r\n        else if (_requests[_requestId].requestType == RequestTypes.Destroy)\r\n            _destroy(_requestId);\r\n    }\r\n\r\n    function _validateRequest(\r\n        Request storage _request,\r\n        RequestTypes _requestType\r\n    ) private view {\r\n        require(_request.requestType == _requestType, \"Wrong request id!\");\r\n        require(_request.approved == true, \"Request is not approved yet!\");\r\n    }\r\n\r\n    function _sendInvitation(address _user, uint256 _requestId)\r\n        internal\r\n        override\r\n    {\r\n        _walletsStorage.sendUserInvitation(_user, _requestId);\r\n    }\r\n\r\n    function _removeInvitation(address _user) internal override {\r\n        _walletsStorage.removeUserInvitation(_user);\r\n    }\r\n\r\n    function deposit() external payable {}\r\n}\r\n",
  "sourcePath": "C:\\Users\\home\\Documents\\GitHub\\ShareIt\\contracts\\SharedWallet.sol",
  "compiler": {
    "name": "solc",
    "version": "0.8.12+commit.f00d7308.Emscripten.clang"
  },
  "schemaVersion": "3.4.7",
  "updatedAt": "2022-05-18T14:09:58.328Z",
  "devdoc": {
    "kind": "dev",
    "methods": {},
    "version": 1
  },
  "userdoc": {
    "kind": "user",
    "methods": {},
    "version": 1
  }
}