{
  "contractName": "SharedWallet",
  "abi": [
    {
      "inputs": [
        {
          "internalType": "address",
          "name": "creator",
          "type": "address"
        },
        {
          "internalType": "uint256",
          "name": "_maxMembers",
          "type": "uint256"
        },
        {
          "internalType": "address",
          "name": "_storage",
          "type": "address"
        }
      ],
      "stateMutability": "nonpayable",
      "type": "constructor"
    },
    {
      "stateMutability": "payable",
      "type": "fallback"
    },
    {
      "inputs": [],
      "name": "maxMembers",
      "outputs": [
        {
          "internalType": "uint256",
          "name": "",
          "type": "uint256"
        }
      ],
      "stateMutability": "view",
      "type": "function"
    },
    {
      "inputs": [
        {
          "internalType": "uint256",
          "name": "",
          "type": "uint256"
        }
      ],
      "name": "members",
      "outputs": [
        {
          "internalType": "address",
          "name": "",
          "type": "address"
        }
      ],
      "stateMutability": "view",
      "type": "function"
    },
    {
      "stateMutability": "payable",
      "type": "receive"
    },
    {
      "inputs": [],
      "name": "getMembers",
      "outputs": [
        {
          "internalType": "address[]",
          "name": "",
          "type": "address[]"
        }
      ],
      "stateMutability": "view",
      "type": "function"
    },
    {
      "inputs": [
        {
          "internalType": "address",
          "name": "_benefieciery",
          "type": "address"
        }
      ],
      "name": "destroy",
      "outputs": [],
      "stateMutability": "nonpayable",
      "type": "function"
    }
  ],
  "bytecode": "0x60806040523480156200001157600080fd5b5060405162000af538038062000af5833981810160405281019062000037919062000358565b600c8211156200007e576040517f08c379a000000000000000000000000000000000000000000000000000000000815260040162000075906200043b565b60405180910390fd5b806000806101000a81548173ffffffffffffffffffffffffffffffffffffffff021916908373ffffffffffffffffffffffffffffffffffffffff160217905550816001819055506002839080600181540180825580915050600190039060005260206000200160009091909190916101000a81548173ffffffffffffffffffffffffffffffffffffffff021916908373ffffffffffffffffffffffffffffffffffffffff16021790555062000142836200014c640100000000026401000000009004565b5050505062000533565b6000600154600280549050106200019a576040517f08c379a00000000000000000000000000000000000000000000000000000000081526004016200019190620004d3565b60405180910390fd5b6002829080600181540180825580915050600190039060005260206000200160009091909190916101000a81548173ffffffffffffffffffffffffffffffffffffffff021916908373ffffffffffffffffffffffffffffffffffffffff16021790555060008054906101000a900473ffffffffffffffffffffffffffffffffffffffff1673ffffffffffffffffffffffffffffffffffffffff166351efa3f430846040518363ffffffff167c01000000000000000000000000000000000000000000000000000000000281526004016200027692919062000506565b600060405180830381600087803b1580156200029157600080fd5b505af1158015620002a6573d6000803e3d6000fd5b5050505060019050919050565b600080fd5b600073ffffffffffffffffffffffffffffffffffffffff82169050919050565b6000620002e582620002b8565b9050919050565b620002f781620002d8565b81146200030357600080fd5b50565b6000815190506200031781620002ec565b92915050565b6000819050919050565b62000332816200031d565b81146200033e57600080fd5b50565b600081519050620003528162000327565b92915050565b600080600060608486031215620003745762000373620002b3565b5b6000620003848682870162000306565b9350506020620003978682870162000341565b9250506040620003aa8682870162000306565b9150509250925092565b600082825260208201905092915050565b7f43616e6e6f742068617665206d6f7265207468616e203132206d656d6265727360008201527f20696e20612073696e676c65207368617265642077616c6c6574210000000000602082015250565b600062000423603b83620003b4565b91506200043082620003c5565b604082019050919050565b60006020820190508181036000830152620004568162000414565b9050919050565b7f4d6178696d756d206e756d626572206f66206d656d626572732072656163686560008201527f6421000000000000000000000000000000000000000000000000000000000000602082015250565b6000620004bb602283620003b4565b9150620004c8826200045d565b604082019050919050565b60006020820190508181036000830152620004ee81620004ac565b9050919050565b6200050081620002d8565b82525050565b60006040820190506200051d6000830185620004f5565b6200052c6020830184620004f5565b9392505050565b6105b280620005436000396000f3fe60806040526004361061005f576000357c010000000000000000000000000000000000000000000000000000000090048062f55d9d146100685780635daf08ca146100915780639eab5253146100ce578063bf4386a0146100f957610066565b3661006657005b005b34801561007457600080fd5b5061008f600480360381019061008a9190610323565b610124565b005b34801561009d57600080fd5b506100b860048036038101906100b39190610386565b6101ed565b6040516100c591906103c2565b60405180910390f35b3480156100da57600080fd5b506100e361022c565b6040516100f0919061049b565b60405180910390f35b34801561010557600080fd5b5061010e6102ba565b60405161011b91906104cc565b60405180910390f35b6000805b6002805490508160ff1610156101c9573273ffffffffffffffffffffffffffffffffffffffff1660028260ff1681548110610166576101656104e7565b5b9060005260206000200160009054906101000a900473ffffffffffffffffffffffffffffffffffffffff1673ffffffffffffffffffffffffffffffffffffffff1614156101b657600191506101c9565b80806101c190610552565b915050610128565b50806101d457600080fd5b8173ffffffffffffffffffffffffffffffffffffffff16ff5b600281815481106101fd57600080fd5b906000526020600020016000915054906101000a900473ffffffffffffffffffffffffffffffffffffffff1681565b606060028054806020026020016040519081016040528092919081815260200182805480156102b057602002820191906000526020600020905b8160009054906101000a900473ffffffffffffffffffffffffffffffffffffffff1673ffffffffffffffffffffffffffffffffffffffff1681526020019060010190808311610266575b5050505050905090565b60015481565b600080fd5b600073ffffffffffffffffffffffffffffffffffffffff82169050919050565b60006102f0826102c5565b9050919050565b610300816102e5565b811461030b57600080fd5b50565b60008135905061031d816102f7565b92915050565b600060208284031215610339576103386102c0565b5b60006103478482850161030e565b91505092915050565b6000819050919050565b61036381610350565b811461036e57600080fd5b50565b6000813590506103808161035a565b92915050565b60006020828403121561039c5761039b6102c0565b5b60006103aa84828501610371565b91505092915050565b6103bc816102e5565b82525050565b60006020820190506103d760008301846103b3565b92915050565b600081519050919050565b600082825260208201905092915050565b6000819050602082019050919050565b610412816102e5565b82525050565b60006104248383610409565b60208301905092915050565b6000602082019050919050565b6000610448826103dd565b61045281856103e8565b935061045d836103f9565b8060005b8381101561048e5781516104758882610418565b975061048083610430565b925050600181019050610461565b5085935050505092915050565b600060208201905081810360008301526104b5818461043d565b905092915050565b6104c681610350565b82525050565b60006020820190506104e160008301846104bd565b92915050565b7f4e487b7100000000000000000000000000000000000000000000000000000000600052603260045260246000fd5b7f4e487b7100000000000000000000000000000000000000000000000000000000600052601160045260246000fd5b600060ff82169050919050565b600061055d82610545565b915060ff82141561057157610570610516565b5b60018201905091905056fea2646970667358221220c9def22314cee5989a7851f0401aa84da01edfd297e18ef57a648409f41a06a264736f6c634300080c0033",
  "immutableReferences": {},
  "source": "//SPDX-License-Identifier: UNLICENSED\r\npragma solidity ^0.8.0;\r\n\r\nimport \"./SharedWalletStorage.sol\";\r\nimport \"./SharedWalletFactory.sol\";\r\n\r\ncontract SharedWallet {\r\n    SharedWalletStorage walletStorage;\r\n    uint256 public maxMembers;\r\n    address[] public members;\r\n\r\n    modifier onlyMember() {\r\n        bool isMember = false;\r\n        for (uint8 i = 0; i < members.length; i++)\r\n            if (members[i] == tx.origin) {\r\n                isMember = true;\r\n                break;\r\n            }\r\n\r\n        require(isMember);\r\n        _;\r\n    }\r\n\r\n    constructor(address creator, uint256 _maxMembers, address _storage) {\r\n        require(\r\n            _maxMembers <= 12,\r\n            \"Cannot have more than 12 members in a single shared wallet!\"\r\n        );\r\n\r\n        walletStorage = SharedWalletStorage(_storage);\r\n        maxMembers = _maxMembers;\r\n\r\n        members.push(creator);\r\n        _addMember(creator);\r\n    }\r\n\r\n    function getMembers() public view returns (address[] memory) {\r\n        return members;\r\n    }\r\n\r\n    function _addMember(address _newMember) private returns (bool) {\r\n        // add voting\r\n        require(\r\n            members.length < maxMembers,\r\n            \"Maximum number of members reached!\"\r\n        );\r\n\r\n        members.push(_newMember);\r\n        walletStorage.addWalletToUser(address(this), _newMember);\r\n        return true;\r\n    }\r\n\r\n    function _removeMember(address _member) private returns (bool) {\r\n        // add voting\r\n        for (uint256 i = 0; i < members.length; i++)\r\n            if (members[i] == _member) {\r\n                address deletedMember = members[i];\r\n                delete members[i];\r\n                walletStorage.removeWalletForUser(address(this), deletedMember);\r\n                return true;\r\n            }\r\n\r\n        return false;\r\n    }\r\n\r\n    function _withdraw(uint256 amountInWei) private returns (bool) {\r\n        // add voting\r\n        require(amountInWei <= address(this).balance);\r\n\r\n        return payable(msg.sender).send(amountInWei);\r\n    }\r\n\r\n    function destroy(address _benefieciery) external onlyMember {\r\n        // add voting\r\n        selfdestruct(payable(_benefieciery));\r\n    }\r\n\r\n    receive() external payable {}\r\n\r\n    fallback() external payable {}\r\n\r\n}\r\n",
  "sourcePath": "C:\\Users\\Joro\\Documents\\GitHub\\ShareIt\\contracts\\SharedWallet.sol",
  "compiler": {
    "name": "solc",
    "version": "0.8.12+commit.f00d7308.Emscripten.clang"
  },
  "schemaVersion": "3.4.6",
  "updatedAt": "2022-03-23T15:24:14.926Z",
  "devdoc": {
    "kind": "dev",
    "methods": {},
    "version": 1
  },
  "userdoc": {
    "kind": "user",
    "methods": {},
    "version": 1
  }
}