{
  "contractName": "SharedWallet",
  "abi": [
    {
      "inputs": [
        {
          "internalType": "address",
          "name": "_creator",
          "type": "address"
        },
        {
          "internalType": "contract SharedWalletsStorage",
          "name": "_walletsStorage",
          "type": "address"
        }
      ],
      "stateMutability": "nonpayable",
      "type": "constructor"
    },
    {
      "stateMutability": "payable",
      "type": "fallback"
    },
    {
      "inputs": [
        {
          "internalType": "uint256",
          "name": "_requestID",
          "type": "uint256"
        }
      ],
      "name": "acceptRequest",
      "outputs": [],
      "stateMutability": "nonpayable",
      "type": "function"
    },
    {
      "inputs": [
        {
          "internalType": "enum Voting.RequestTypes",
          "name": "_requestType",
          "type": "uint8"
        },
        {
          "internalType": "uint256",
          "name": "_value",
          "type": "uint256"
        },
        {
          "internalType": "address",
          "name": "_addr",
          "type": "address"
        }
      ],
      "name": "createRequest",
      "outputs": [
        {
          "internalType": "uint256",
          "name": "",
          "type": "uint256"
        }
      ],
      "stateMutability": "nonpayable",
      "type": "function"
    },
    {
      "inputs": [
        {
          "internalType": "address",
          "name": "",
          "type": "address"
        }
      ],
      "name": "isMember",
      "outputs": [
        {
          "internalType": "bool",
          "name": "",
          "type": "bool"
        }
      ],
      "stateMutability": "view",
      "type": "function"
    },
    {
      "inputs": [
        {
          "internalType": "uint256",
          "name": "",
          "type": "uint256"
        }
      ],
      "name": "members",
      "outputs": [
        {
          "internalType": "address",
          "name": "",
          "type": "address"
        }
      ],
      "stateMutability": "view",
      "type": "function"
    },
    {
      "inputs": [
        {
          "internalType": "uint256",
          "name": "",
          "type": "uint256"
        }
      ],
      "name": "requests",
      "outputs": [
        {
          "internalType": "address",
          "name": "author",
          "type": "address"
        },
        {
          "internalType": "enum Voting.RequestTypes",
          "name": "requestType",
          "type": "uint8"
        },
        {
          "internalType": "address",
          "name": "addr",
          "type": "address"
        },
        {
          "internalType": "uint256",
          "name": "value",
          "type": "uint256"
        },
        {
          "internalType": "uint256",
          "name": "proVotersCount",
          "type": "uint256"
        },
        {
          "internalType": "bool",
          "name": "approved",
          "type": "bool"
        }
      ],
      "stateMutability": "view",
      "type": "function"
    },
    {
      "inputs": [],
      "name": "requestsCounter",
      "outputs": [
        {
          "internalType": "uint256",
          "name": "",
          "type": "uint256"
        }
      ],
      "stateMutability": "view",
      "type": "function"
    },
    {
      "stateMutability": "payable",
      "type": "receive"
    },
    {
      "inputs": [],
      "name": "getMembers",
      "outputs": [
        {
          "internalType": "address[]",
          "name": "",
          "type": "address[]"
        }
      ],
      "stateMutability": "view",
      "type": "function"
    },
    {
      "inputs": [
        {
          "internalType": "uint256",
          "name": "_requestId",
          "type": "uint256"
        }
      ],
      "name": "addMember",
      "outputs": [
        {
          "internalType": "bool",
          "name": "",
          "type": "bool"
        }
      ],
      "stateMutability": "nonpayable",
      "type": "function"
    },
    {
      "inputs": [
        {
          "internalType": "uint256",
          "name": "_requestId",
          "type": "uint256"
        }
      ],
      "name": "removeMember",
      "outputs": [
        {
          "internalType": "bool",
          "name": "",
          "type": "bool"
        }
      ],
      "stateMutability": "nonpayable",
      "type": "function"
    },
    {
      "inputs": [
        {
          "internalType": "uint256",
          "name": "_requestId",
          "type": "uint256"
        }
      ],
      "name": "withdraw",
      "outputs": [
        {
          "internalType": "bool",
          "name": "",
          "type": "bool"
        }
      ],
      "stateMutability": "nonpayable",
      "type": "function"
    },
    {
      "inputs": [
        {
          "internalType": "uint256",
          "name": "_requestId",
          "type": "uint256"
        }
      ],
      "name": "destroy",
      "outputs": [
        {
          "internalType": "bool",
          "name": "",
          "type": "bool"
        }
      ],
      "stateMutability": "nonpayable",
      "type": "function"
    }
  ],
  "bytecode": "0x60806040523480156200001157600080fd5b5060405162001ad238038062001ad2833981810160405281019062000037919062000297565b80600260006101000a81548173ffffffffffffffffffffffffffffffffffffffff021916908373ffffffffffffffffffffffffffffffffffffffff1602179055506004829080600181540180825580915050600190039060005260206000200160009091909190916101000a81548173ffffffffffffffffffffffffffffffffffffffff021916908373ffffffffffffffffffffffffffffffffffffffff1602179055506001600360008473ffffffffffffffffffffffffffffffffffffffff1673ffffffffffffffffffffffffffffffffffffffff16815260200190815260200160002060006101000a81548160ff021916908315150217905550600260009054906101000a900473ffffffffffffffffffffffffffffffffffffffff1673ffffffffffffffffffffffffffffffffffffffff16634ab07122836040518263ffffffff167c0100000000000000000000000000000000000000000000000000000000028152600401620001ac9190620002ef565b600060405180830381600087803b158015620001c757600080fd5b505af1158015620001dc573d6000803e3d6000fd5b5050505050506200030c565b600080fd5b600073ffffffffffffffffffffffffffffffffffffffff82169050919050565b60006200021a82620001ed565b9050919050565b6200022c816200020d565b81146200023857600080fd5b50565b6000815190506200024c8162000221565b92915050565b60006200025f826200020d565b9050919050565b620002718162000252565b81146200027d57600080fd5b50565b600081519050620002918162000266565b92915050565b60008060408385031215620002b157620002b0620001e8565b5b6000620002c1858286016200023b565b9250506020620002d48582860162000280565b9150509250929050565b620002e9816200020d565b82525050565b6000602082019050620003066000830184620002de565b92915050565b6117b6806200031c6000396000f3fe6080604052600436106100bd576000357c0100000000000000000000000000000000000000000000000000000000900480636fb8c995116100815780636fb8c995146101d157806381d12c581461020e5780639d118770146102505780639eab52531461028d578063a1a74aae146102b8578063a230c524146102f5576100c4565b80631089f5ed146100c65780632e1a7d4d146101035780634ba1f098146101405780635daf08ca14610169578063663c2269146101a6576100c4565b366100c457005b005b3480156100d257600080fd5b506100ed60048036038101906100e8919061105e565b610332565b6040516100fa91906110a6565b60405180910390f35b34801561010f57600080fd5b5061012a6004803603810190610125919061105e565b61052e565b60405161013791906110a6565b60405180910390f35b34801561014c57600080fd5b506101676004803603810190610162919061105e565b6105b9565b005b34801561017557600080fd5b50610190600480360381019061018b919061105e565b61074f565b60405161019d9190611102565b60405180910390f35b3480156101b257600080fd5b506101bb61078e565b6040516101c8919061112c565b60405180910390f35b3480156101dd57600080fd5b506101f860048036038101906101f39190611198565b610794565b604051610205919061112c565b60405180910390f35b34801561021a57600080fd5b506102356004803603810190610230919061105e565b610a28565b60405161024796959493929190611262565b60405180910390f35b34801561025c57600080fd5b506102776004803603810190610272919061105e565b610abe565b60405161028491906110a6565b60405180910390f35b34801561029957600080fd5b506102a2610b1d565b6040516102af9190611381565b60405180910390f35b3480156102c457600080fd5b506102df60048036038101906102da919061105e565b610bab565b6040516102ec91906110a6565b60405180910390f35b34801561030157600080fd5b5061031c600480360381019061031791906113a3565b610e1a565b60405161032991906110a6565b60405180910390f35b6000806000808481526020019081526020016000209050610354816000610e3a565b60048160010160009054906101000a900473ffffffffffffffffffffffffffffffffffffffff169080600181540180825580915050600190039060005260206000200160009091909190916101000a81548173ffffffffffffffffffffffffffffffffffffffff021916908373ffffffffffffffffffffffffffffffffffffffff1602179055506001600360008360010160009054906101000a900473ffffffffffffffffffffffffffffffffffffffff1673ffffffffffffffffffffffffffffffffffffffff1673ffffffffffffffffffffffffffffffffffffffff16815260200190815260200160002060006101000a81548160ff021916908315150217905550600260009054906101000a900473ffffffffffffffffffffffffffffffffffffffff1673ffffffffffffffffffffffffffffffffffffffff16634ab071228260010160009054906101000a900473ffffffffffffffffffffffffffffffffffffffff166040518263ffffffff167c01000000000000000000000000000000000000000000000000000000000281526004016104f29190611102565b600060405180830381600087803b15801561050c57600080fd5b505af1158015610520573d6000803e3d6000fd5b505050506001915050919050565b6000806000808481526020019081526020016000209050610550816002610e3a565b3073ffffffffffffffffffffffffffffffffffffffff16318160020154111561057857600080fd5b3373ffffffffffffffffffffffffffffffffffffffff166108fc82600201549081150290604051600060405180830381858888f19350505050915050919050565b600360003373ffffffffffffffffffffffffffffffffffffffff1673ffffffffffffffffffffffffffffffffffffffff16815260200190815260200160002060009054906101000a900460ff1661060f57600080fd5b6000151560008083815260200190815260200160002060040160003373ffffffffffffffffffffffffffffffffffffffff1673ffffffffffffffffffffffffffffffffffffffff16815260200190815260200160002060009054906101000a900460ff161515146106b5576040517f08c379a00000000000000000000000000000000000000000000000000000000081526004016106ac9061142d565b60405180910390fd5b6001151560008083815260200190815260200160002060040160003373ffffffffffffffffffffffffffffffffffffffff1673ffffffffffffffffffffffffffffffffffffffff16815260200190815260200160002060009054906101000a90505050600080828152602001908152602001600020600301600081548092919061073e9061147c565b919050555061074c81610f9f565b50565b6004818154811061075f57600080fd5b906000526020600020016000915054906101000a900473ffffffffffffffffffffffffffffffffffffffff1681565b60015481565b6000600360003373ffffffffffffffffffffffffffffffffffffffff1673ffffffffffffffffffffffffffffffffffffffff16815260200190815260200160002060009054906101000a900460ff166107ec57600080fd5b6003846003811115610801576108006111eb565b5b1115610842576040517f08c379a000000000000000000000000000000000000000000000000000000000815260040161083990611511565b60405180910390fd5b60026003811115610856576108556111eb565b5b846003811115610869576108686111eb565b5b14156108bb57600083101561087d57600080fd5b600073ffffffffffffffffffffffffffffffffffffffff168273ffffffffffffffffffffffffffffffffffffffff16146108b657600080fd5b610903565b600083146108c857600080fd5b600073ffffffffffffffffffffffffffffffffffffffff168273ffffffffffffffffffffffffffffffffffffffff16141561090257600080fd5b5b600080600060015481526020019081526020016000209050338160000160006101000a81548173ffffffffffffffffffffffffffffffffffffffff021916908373ffffffffffffffffffffffffffffffffffffffff160217905550848160000160146101000a81548160ff02191690836003811115610985576109846111eb565b5b0217905550828160010160006101000a81548173ffffffffffffffffffffffffffffffffffffffff021916908373ffffffffffffffffffffffffffffffffffffffff1602179055508381600201819055506001816003018190555060008160050160006101000a81548160ff0219169083151502179055506000600154905060016000815480929190610a179061147c565b919050555080925050509392505050565b60006020528060005260406000206000915090508060000160009054906101000a900473ffffffffffffffffffffffffffffffffffffffff16908060000160149054906101000a900460ff16908060010160009054906101000a900473ffffffffffffffffffffffffffffffffffffffff16908060020154908060030154908060050160009054906101000a900460ff16905086565b6000806000808481526020019081526020016000209050610ae0816003610e3a565b8060010160009054906101000a900473ffffffffffffffffffffffffffffffffffffffff1673ffffffffffffffffffffffffffffffffffffffff16ff5b60606004805480602002602001604051908101604052809291908181526020018280548015610ba157602002820191906000526020600020905b8160009054906101000a900473ffffffffffffffffffffffffffffffffffffffff1673ffffffffffffffffffffffffffffffffffffffff1681526020019060010190808311610b57575b5050505050905090565b6000806000808481526020019081526020016000209050610bcd816001610e3a565b60005b600480549050811015610e0e578160010160009054906101000a900473ffffffffffffffffffffffffffffffffffffffff1673ffffffffffffffffffffffffffffffffffffffff1660048281548110610c2c57610c2b611531565b5b9060005260206000200160009054906101000a900473ffffffffffffffffffffffffffffffffffffffff1673ffffffffffffffffffffffffffffffffffffffff161415610dfb57600060048281548110610c8957610c88611531565b5b9060005260206000200160009054906101000a900473ffffffffffffffffffffffffffffffffffffffff16905060048281548110610cca57610cc9611531565b5b9060005260206000200160006101000a81549073ffffffffffffffffffffffffffffffffffffffff0219169055600360008273ffffffffffffffffffffffffffffffffffffffff1673ffffffffffffffffffffffffffffffffffffffff16815260200190815260200160002060006101000a81549060ff0219169055600260009054906101000a900473ffffffffffffffffffffffffffffffffffffffff1673ffffffffffffffffffffffffffffffffffffffff1663e22972f2826040518263ffffffff167c0100000000000000000000000000000000000000000000000000000000028152600401610dbd9190611102565b600060405180830381600087803b158015610dd757600080fd5b505af1158015610deb573d6000803e3d6000fd5b5050505060019350505050610e15565b8080610e069061147c565b915050610bd0565b5060009150505b919050565b60036020528060005260406000206000915054906101000a900460ff1681565b3373ffffffffffffffffffffffffffffffffffffffff168260000160009054906101000a900473ffffffffffffffffffffffffffffffffffffffff1673ffffffffffffffffffffffffffffffffffffffff1614610ecc576040517f08c379a0000000000000000000000000000000000000000000000000000000008152600401610ec3906115d2565b60405180910390fd5b600115158260050160009054906101000a900460ff16151514610f24576040517f08c379a0000000000000000000000000000000000000000000000000000000008152600401610f1b9061163e565b60405180910390fd5b806003811115610f3757610f366111eb565b5b8260000160149054906101000a900460ff166003811115610f5b57610f5a6111eb565b5b14610f9b576040517f08c379a0000000000000000000000000000000000000000000000000000000008152600401610f92906116aa565b60405180910390fd5b5050565b6000610faf600480549050611001565b905080600080848152602001908152602001600020600301541415610ffd57600160008084815260200190815260200160002060050160006101000a81548160ff0219169083151502179055505b5050565b6000600160028361101291906116f9565b61101c919061172a565b9050919050565b600080fd5b6000819050919050565b61103b81611028565b811461104657600080fd5b50565b60008135905061105881611032565b92915050565b60006020828403121561107457611073611023565b5b600061108284828501611049565b91505092915050565b60008115159050919050565b6110a08161108b565b82525050565b60006020820190506110bb6000830184611097565b92915050565b600073ffffffffffffffffffffffffffffffffffffffff82169050919050565b60006110ec826110c1565b9050919050565b6110fc816110e1565b82525050565b600060208201905061111760008301846110f3565b92915050565b61112681611028565b82525050565b6000602082019050611141600083018461111d565b92915050565b6004811061115457600080fd5b50565b60008135905061116681611147565b92915050565b611175816110e1565b811461118057600080fd5b50565b6000813590506111928161116c565b92915050565b6000806000606084860312156111b1576111b0611023565b5b60006111bf86828701611157565b93505060206111d086828701611049565b92505060406111e186828701611183565b9150509250925092565b7f4e487b7100000000000000000000000000000000000000000000000000000000600052602160045260246000fd5b6004811061122b5761122a6111eb565b5b50565b600081905061123c8261121a565b919050565b600061124c8261122e565b9050919050565b61125c81611241565b82525050565b600060c08201905061127760008301896110f3565b6112846020830188611253565b61129160408301876110f3565b61129e606083018661111d565b6112ab608083018561111d565b6112b860a0830184611097565b979650505050505050565b600081519050919050565b600082825260208201905092915050565b6000819050602082019050919050565b6112f8816110e1565b82525050565b600061130a83836112ef565b60208301905092915050565b6000602082019050919050565b600061132e826112c3565b61133881856112ce565b9350611343836112df565b8060005b8381101561137457815161135b88826112fe565b975061136683611316565b925050600181019050611347565b5085935050505092915050565b6000602082019050818103600083015261139b8184611323565b905092915050565b6000602082840312156113b9576113b8611023565b5b60006113c784828501611183565b91505092915050565b600082825260208201905092915050565b7f416c726561647920766f74656420746f20746869732072657175657374210000600082015250565b6000611417601e836113d0565b9150611422826113e1565b602082019050919050565b600060208201905081810360008301526114468161140a565b9050919050565b7f4e487b7100000000000000000000000000000000000000000000000000000000600052601160045260246000fd5b600061148782611028565b91507fffffffffffffffffffffffffffffffffffffffffffffffffffffffffffffffff8214156114ba576114b961144d565b5b600182019050919050565b7f496e76616c696420726571756573742074797065210000000000000000000000600082015250565b60006114fb6015836113d0565b9150611506826114c5565b602082019050919050565b6000602082019050818103600083015261152a816114ee565b9050919050565b7f4e487b7100000000000000000000000000000000000000000000000000000000600052603260045260246000fd5b7f596f7520617265206e6f742074686520617574686f72206f662074686973207260008201527f6571756573742100000000000000000000000000000000000000000000000000602082015250565b60006115bc6027836113d0565b91506115c782611560565b604082019050919050565b600060208201905081810360008301526115eb816115af565b9050919050565b7f52657175657374206973206e6f7420617070726f766564207965742100000000600082015250565b6000611628601c836113d0565b9150611633826115f2565b602082019050919050565b600060208201905081810360008301526116578161161b565b9050919050565b7f57726f6e67207265717565737420696421000000000000000000000000000000600082015250565b60006116946011836113d0565b915061169f8261165e565b602082019050919050565b600060208201905081810360008301526116c381611687565b9050919050565b7f4e487b7100000000000000000000000000000000000000000000000000000000600052601260045260246000fd5b600061170482611028565b915061170f83611028565b92508261171f5761171e6116ca565b5b828204905092915050565b600061173582611028565b915061174083611028565b9250827fffffffffffffffffffffffffffffffffffffffffffffffffffffffffffffffff038211156117755761177461144d565b5b82820190509291505056fea26469706673582212202524e22478e8b5e5987e2d39a4ff2341290a40227691c300ebc87ca410f0b93864736f6c634300080c0033",
  "immutableReferences": {},
  "source": "//SPDX-License-Identifier: MIT\r\npragma solidity ^0.8.0;\r\n\r\nimport \"./Voting.sol\";\r\nimport \"./SharedWalletsStorage.sol\";\r\n\r\ncontract SharedWallet is Voting {\r\n    SharedWalletsStorage walletsStorage;\r\n    mapping(address => bool) public isMember;\r\n    address[] public members;\r\n\r\n    modifier onlyMember() override {\r\n        require(isMember[msg.sender]);\r\n        _;\r\n    }\r\n\r\n    constructor(\r\n        address _creator,\r\n        SharedWalletsStorage _walletsStorage\r\n    ) {\r\n        walletsStorage = _walletsStorage;\r\n\r\n        members.push(_creator);\r\n        isMember[_creator] = true;\r\n        walletsStorage.addWalletToUser(_creator);\r\n    }\r\n\r\n    function getMembers() public view returns (address[] memory) {\r\n        return members;\r\n    }\r\n\r\n    function addMember(uint256 _requestId) external returns (bool) {\r\n        Request storage request = requests[_requestId];\r\n        _validateRequest(request, RequestTypes.AddMember);\r\n\r\n        members.push(request.addr);\r\n        isMember[request.addr] = true;\r\n        walletsStorage.addWalletToUser(request.addr);\r\n        return true;\r\n    }\r\n\r\n    function removeMember(uint256 _requestId) external returns (bool) {\r\n        Request storage request = requests[_requestId];\r\n        _validateRequest(request, RequestTypes.RemoveMember);\r\n\r\n        for (uint256 i = 0; i < members.length; i++)\r\n            if (members[i] == request.addr) {\r\n                address deletedMember = members[i];\r\n                delete members[i];\r\n                delete isMember[deletedMember];\r\n                walletsStorage.removeWalletForUser(deletedMember);\r\n                return true;\r\n            }\r\n\r\n        return false;\r\n    }\r\n\r\n    function withdraw(uint256 _requestId) external returns (bool) {\r\n        Request storage request = requests[_requestId];\r\n        _validateRequest(request, RequestTypes.Withdraw);\r\n\r\n        require(request.value <= address(this).balance);\r\n\r\n        return payable(msg.sender).send(request.value);\r\n    }\r\n\r\n    function destroy(uint256 _requestId) external returns (bool) {\r\n        Request storage request = requests[_requestId];\r\n        _validateRequest(request, RequestTypes.Destroy);\r\n\r\n        selfdestruct(payable(request.addr));\r\n        return true;\r\n    }\r\n\r\n    function _tryApproveRequest(uint256 _requestID) internal override {\r\n        uint256 goal = _getMajority(members.length);\r\n        if (requests[_requestID].proVotersCount == goal)\r\n            requests[_requestID].approved = true;\r\n    }\r\n\r\n    function _validateRequest(\r\n        Request storage _request,\r\n        RequestTypes _requestType\r\n    ) private view {\r\n        require(\r\n            _request.author == msg.sender,\r\n            \"You are not the author of this request!\"\r\n        );\r\n        require(_request.approved == true, \"Request is not approved yet!\");\r\n        require(_request.requestType == _requestType, \"Wrong request id!\");\r\n    }\r\n\r\n    receive() external payable {}\r\n\r\n    fallback() external payable {}\r\n}\r\n",
  "sourcePath": "C:\\Users\\Joro\\Documents\\GitHub\\ShareIt\\contracts\\SharedWallet.sol",
  "compiler": {
    "name": "solc",
    "version": "0.8.12+commit.f00d7308.Emscripten.clang"
  },
  "schemaVersion": "3.4.6",
  "updatedAt": "2022-03-24T11:57:23.380Z",
  "devdoc": {
    "kind": "dev",
    "methods": {},
    "version": 1
  },
  "userdoc": {
    "kind": "user",
    "methods": {},
    "version": 1
  }
}