{
  "contractName": "SharedWalletFactory",
  "abi": [
    {
      "inputs": [],
      "stateMutability": "nonpayable",
      "type": "constructor"
    },
    {
      "inputs": [],
      "name": "walletStorage",
      "outputs": [
        {
          "internalType": "contract SharedWalletStorage",
          "name": "",
          "type": "address"
        }
      ],
      "stateMutability": "view",
      "type": "function"
    },
    {
      "inputs": [
        {
          "internalType": "uint256",
          "name": "_maxMembers",
          "type": "uint256"
        }
      ],
      "name": "createNewSharedWallet",
      "outputs": [],
      "stateMutability": "nonpayable",
      "type": "function"
    }
  ],
  "bytecode": "0x608060405234801561001057600080fd5b5060405161001d9061007e565b604051809103906000f080158015610039573d6000803e3d6000fd5b506000806101000a81548173ffffffffffffffffffffffffffffffffffffffff021916908373ffffffffffffffffffffffffffffffffffffffff16021790555061008b565b6107c880610ec883390190565b610e2e8061009a6000396000f3fe60806040523480156200001157600080fd5b506004361062000057576000357c01000000000000000000000000000000000000000000000000000000009004806314a0bc6f146200005c5780634a43a273146200007e575b600080fd5b620000666200009e565b604051620000759190620001bc565b60405180910390f35b6200009c600480360381019062000096919062000219565b620000c2565b005b60008054906101000a900473ffffffffffffffffffffffffffffffffffffffff1681565b338160008054906101000a900473ffffffffffffffffffffffffffffffffffffffff16604051620000f39062000123565b620001019392919062000281565b604051809103906000f0801580156200011e573d6000803e3d6000fd5b505050565b610b3a80620002bf83390190565b600073ffffffffffffffffffffffffffffffffffffffff82169050919050565b6000819050919050565b60006200017c62000176620001708462000131565b62000151565b62000131565b9050919050565b600062000190826200015b565b9050919050565b6000620001a48262000183565b9050919050565b620001b68162000197565b82525050565b6000602082019050620001d36000830184620001ab565b92915050565b600080fd5b6000819050919050565b620001f381620001de565b8114620001ff57600080fd5b50565b6000813590506200021381620001e8565b92915050565b600060208284031215620002325762000231620001d9565b5b6000620002428482850162000202565b91505092915050565b6000620002588262000131565b9050919050565b6200026a816200024b565b82525050565b6200027b81620001de565b82525050565b60006060820190506200029860008301866200025f565b620002a7602083018562000270565b620002b66040830184620001ab565b94935050505056fe60806040523480156200001157600080fd5b5060405162000b3a38038062000b3a83398181016040528101906200003791906200039d565b600c8211156200007e576040517f08c379a0000000000000000000000000000000000000000000000000000000008152600401620000759062000480565b60405180910390fd5b806000806101000a81548173ffffffffffffffffffffffffffffffffffffffff021916908373ffffffffffffffffffffffffffffffffffffffff160217905550816001819055506002839080600181540180825580915050600190039060005260206000200160009091909190916101000a81548173ffffffffffffffffffffffffffffffffffffffff021916908373ffffffffffffffffffffffffffffffffffffffff16021790555062000142836200014c640100000000026401000000009004565b5050505062000578565b6000600154600280549050106200019a576040517f08c379a0000000000000000000000000000000000000000000000000000000008152600401620001919062000518565b60405180910390fd5b6002829080600181540180825580915050600190039060005260206000200160009091909190916101000a81548173ffffffffffffffffffffffffffffffffffffffff021916908373ffffffffffffffffffffffffffffffffffffffff16021790555060008054906101000a900473ffffffffffffffffffffffffffffffffffffffff1673ffffffffffffffffffffffffffffffffffffffff166351efa3f430846040518363ffffffff167c0100000000000000000000000000000000000000000000000000000000028152600401620002769291906200054b565b600060405180830381600087803b1580156200029157600080fd5b505af1158015620002a6573d6000803e3d6000fd5b5050505060019050919050565b600080fd5b600073ffffffffffffffffffffffffffffffffffffffff82169050919050565b6000620002e582620002b8565b9050919050565b620002f781620002d8565b81146200030357600080fd5b50565b6000815190506200031781620002ec565b92915050565b6000819050919050565b62000332816200031d565b81146200033e57600080fd5b50565b600081519050620003528162000327565b92915050565b60006200036582620002d8565b9050919050565b620003778162000358565b81146200038357600080fd5b50565b60008151905062000397816200036c565b92915050565b600080600060608486031215620003b957620003b8620002b3565b5b6000620003c98682870162000306565b9350506020620003dc8682870162000341565b9250506040620003ef8682870162000386565b9150509250925092565b600082825260208201905092915050565b7f43616e6e6f742068617665206d6f7265207468616e203132206d656d6265727360008201527f20696e20612073696e676c65207368617265642077616c6c6574210000000000602082015250565b600062000468603b83620003f9565b915062000475826200040a565b604082019050919050565b600060208201905081810360008301526200049b8162000459565b9050919050565b7f4d6178696d756d206e756d626572206f66206d656d626572732072656163686560008201527f6421000000000000000000000000000000000000000000000000000000000000602082015250565b600062000500602283620003f9565b91506200050d82620004a2565b604082019050919050565b600060208201905081810360008301526200053381620004f1565b9050919050565b6200054581620002d8565b82525050565b60006040820190506200056260008301856200053a565b6200057160208301846200053a565b9392505050565b6105b280620005886000396000f3fe60806040526004361061005f576000357c010000000000000000000000000000000000000000000000000000000090048062f55d9d146100685780635daf08ca146100915780639eab5253146100ce578063bf4386a0146100f957610066565b3661006657005b005b34801561007457600080fd5b5061008f600480360381019061008a9190610323565b610124565b005b34801561009d57600080fd5b506100b860048036038101906100b39190610386565b6101ed565b6040516100c591906103c2565b60405180910390f35b3480156100da57600080fd5b506100e361022c565b6040516100f0919061049b565b60405180910390f35b34801561010557600080fd5b5061010e6102ba565b60405161011b91906104cc565b60405180910390f35b6000805b6002805490508160ff1610156101c9573273ffffffffffffffffffffffffffffffffffffffff1660028260ff1681548110610166576101656104e7565b5b9060005260206000200160009054906101000a900473ffffffffffffffffffffffffffffffffffffffff1673ffffffffffffffffffffffffffffffffffffffff1614156101b657600191506101c9565b80806101c190610552565b915050610128565b50806101d457600080fd5b8173ffffffffffffffffffffffffffffffffffffffff16ff5b600281815481106101fd57600080fd5b906000526020600020016000915054906101000a900473ffffffffffffffffffffffffffffffffffffffff1681565b606060028054806020026020016040519081016040528092919081815260200182805480156102b057602002820191906000526020600020905b8160009054906101000a900473ffffffffffffffffffffffffffffffffffffffff1673ffffffffffffffffffffffffffffffffffffffff1681526020019060010190808311610266575b5050505050905090565b60015481565b600080fd5b600073ffffffffffffffffffffffffffffffffffffffff82169050919050565b60006102f0826102c5565b9050919050565b610300816102e5565b811461030b57600080fd5b50565b60008135905061031d816102f7565b92915050565b600060208284031215610339576103386102c0565b5b60006103478482850161030e565b91505092915050565b6000819050919050565b61036381610350565b811461036e57600080fd5b50565b6000813590506103808161035a565b92915050565b60006020828403121561039c5761039b6102c0565b5b60006103aa84828501610371565b91505092915050565b6103bc816102e5565b82525050565b60006020820190506103d760008301846103b3565b92915050565b600081519050919050565b600082825260208201905092915050565b6000819050602082019050919050565b610412816102e5565b82525050565b60006104248383610409565b60208301905092915050565b6000602082019050919050565b6000610448826103dd565b61045281856103e8565b935061045d836103f9565b8060005b8381101561048e5781516104758882610418565b975061048083610430565b925050600181019050610461565b5085935050505092915050565b600060208201905081810360008301526104b5818461043d565b905092915050565b6104c681610350565b82525050565b60006020820190506104e160008301846104bd565b92915050565b7f4e487b7100000000000000000000000000000000000000000000000000000000600052603260045260246000fd5b7f4e487b7100000000000000000000000000000000000000000000000000000000600052601160045260246000fd5b600060ff82169050919050565b600061055d82610545565b915060ff82141561057157610570610516565b5b60018201905091905056fea26469706673582212205f37907792a0197f563a34545ecc2922874f12b9b98042f4ea17270c6fcd787264736f6c634300080c0033a26469706673582212209b2e3b201c4269eca5bdc7eda65caaad4ed56f4460b449646c60c4ffc04d927c64736f6c634300080c0033608060405260086000806101000a81548160ff021916908360ff16021790555034801561002b57600080fd5b5061078d8061003b6000396000f3fe608060405234801561001057600080fd5b5060043610610069576000357c0100000000000000000000000000000000000000000000000000000000900480632bf727671461006e57806351efa3f41461008c5780635c2d4450146100a8578063abfa7969146100d8575b600080fd5b6100766100f4565b60405161008391906104af565b60405180910390f35b6100a660048036038101906100a1919061052d565b610105565b005b6100c260048036038101906100bd91906105a3565b610276565b6040516100cf91906105f2565b60405180910390f35b6100f260048036038101906100ed919061052d565b6102c4565b005b60008054906101000a900460ff1681565b8173ffffffffffffffffffffffffffffffffffffffff163373ffffffffffffffffffffffffffffffffffffffff161461013d57600080fd5b60008054906101000a900460ff1660ff16600160008373ffffffffffffffffffffffffffffffffffffffff1673ffffffffffffffffffffffffffffffffffffffff1681526020019081526020016000208054905011156101d2576040517f08c379a00000000000000000000000000000000000000000000000000000000081526004016101c990610690565b60405180910390fd5b600160008273ffffffffffffffffffffffffffffffffffffffff1673ffffffffffffffffffffffffffffffffffffffff168152602001908152602001600020829080600181540180825580915050600190039060005260206000200160009091909190916101000a81548173ffffffffffffffffffffffffffffffffffffffff021916908373ffffffffffffffffffffffffffffffffffffffff1602179055505050565b6001602052816000526040600020818154811061029257600080fd5b906000526020600020016000915091509054906101000a900473ffffffffffffffffffffffffffffffffffffffff1681565b8173ffffffffffffffffffffffffffffffffffffffff163373ffffffffffffffffffffffffffffffffffffffff16146102fc57600080fd5b60005b600160008373ffffffffffffffffffffffffffffffffffffffff1673ffffffffffffffffffffffffffffffffffffffff1681526020019081526020016000208054905081101561048e578273ffffffffffffffffffffffffffffffffffffffff16600160008473ffffffffffffffffffffffffffffffffffffffff1673ffffffffffffffffffffffffffffffffffffffff16815260200190815260200160002082815481106103b1576103b06106b0565b5b9060005260206000200160009054906101000a900473ffffffffffffffffffffffffffffffffffffffff1673ffffffffffffffffffffffffffffffffffffffff16141561047b57600160008373ffffffffffffffffffffffffffffffffffffffff1673ffffffffffffffffffffffffffffffffffffffff1681526020019081526020016000208181548110610449576104486106b0565b5b9060005260206000200160006101000a81549073ffffffffffffffffffffffffffffffffffffffff021916905561048e565b80806104869061070e565b9150506102ff565b505050565b600060ff82169050919050565b6104a981610493565b82525050565b60006020820190506104c460008301846104a0565b92915050565b600080fd5b600073ffffffffffffffffffffffffffffffffffffffff82169050919050565b60006104fa826104cf565b9050919050565b61050a816104ef565b811461051557600080fd5b50565b60008135905061052781610501565b92915050565b60008060408385031215610544576105436104ca565b5b600061055285828601610518565b925050602061056385828601610518565b9150509250929050565b6000819050919050565b6105808161056d565b811461058b57600080fd5b50565b60008135905061059d81610577565b92915050565b600080604083850312156105ba576105b96104ca565b5b60006105c885828601610518565b92505060206105d98582860161058e565b9150509250929050565b6105ec816104ef565b82525050565b600060208201905061060760008301846105e3565b92915050565b600082825260208201905092915050565b7f412073696e676c6520757365722063616e6e6f7420706172746963697061746560008201527f20696e206d6f7265207468616e20382077616c6c657473210000000000000000602082015250565b600061067a60388361060d565b91506106858261061e565b604082019050919050565b600060208201905081810360008301526106a98161066d565b9050919050565b7f4e487b7100000000000000000000000000000000000000000000000000000000600052603260045260246000fd5b7f4e487b7100000000000000000000000000000000000000000000000000000000600052601160045260246000fd5b60006107198261056d565b91507fffffffffffffffffffffffffffffffffffffffffffffffffffffffffffffffff82141561074c5761074b6106df565b5b60018201905091905056fea264697066735822122056d7846b7588ad8c9ca8261a48b45995b14f23394b79a177cbcf6e99d7b1219064736f6c634300080c0033",
  "immutableReferences": {},
  "source": "//SPDX-License-Identifier: UNLICENSED\r\npragma solidity ^0.8.0;\r\n\r\nimport \"./SharedWallet.sol\";\r\nimport \"./SharedWalletStorage.sol\";\r\n\r\ncontract SharedWalletFactory {\r\n    SharedWalletStorage public walletStorage;\r\n\r\n    constructor() {\r\n        walletStorage = new SharedWalletStorage();\r\n    }\r\n\r\n    function createNewSharedWallet(uint256 _maxMembers) external {\r\n        new SharedWallet(msg.sender, _maxMembers, walletStorage);\r\n    }\r\n}\r\n",
  "sourcePath": "C:\\Users\\Joro\\Documents\\GitHub\\ShareIt\\contracts\\SharedWalletFactory.sol",
  "compiler": {
    "name": "solc",
    "version": "0.8.12+commit.f00d7308.Emscripten.clang"
  },
  "schemaVersion": "3.4.6",
  "updatedAt": "2022-03-23T18:10:35.982Z",
  "devdoc": {
    "kind": "dev",
    "methods": {},
    "version": 1
  },
  "userdoc": {
    "kind": "user",
    "methods": {},
    "version": 1
  }
}