{
  "contractName": "SharedWalletFactory",
  "abi": [
    {
      "inputs": [],
      "stateMutability": "nonpayable",
      "type": "constructor"
    },
    {
      "inputs": [],
      "name": "storageAddress",
      "outputs": [
        {
          "internalType": "address",
          "name": "",
          "type": "address"
        }
      ],
      "stateMutability": "view",
      "type": "function"
    },
    {
      "inputs": [
        {
          "internalType": "uint256",
          "name": "_maxMembers",
          "type": "uint256"
        }
      ],
      "name": "createNewSharedWallet",
      "outputs": [],
      "stateMutability": "nonpayable",
      "type": "function"
    }
  ],
  "bytecode": "0x608060405234801561001057600080fd5b5060405161001d9061007e565b604051809103906000f080158015610039573d6000803e3d6000fd5b506000806101000a81548173ffffffffffffffffffffffffffffffffffffffff021916908373ffffffffffffffffffffffffffffffffffffffff16021790555061008b565b6106bc80610c2383390190565b610b898061009a6000396000f3fe608060405234801561001057600080fd5b5060043610610053576000357c0100000000000000000000000000000000000000000000000000000000900480634a43a2731461005857806385aa92a714610074575b600080fd5b610072600480360381019061006d9190610205565b610092565b005b61007c610199565b6040516100899190610273565b60405180910390f35b60008160008054906101000a900473ffffffffffffffffffffffffffffffffffffffff166040516100c2906101bd565b6100cd92919061029d565b604051809103906000f0801580156100e9573d6000803e3d6000fd5b50905060008054906101000a900473ffffffffffffffffffffffffffffffffffffffff1673ffffffffffffffffffffffffffffffffffffffff166351efa3f482336040518363ffffffff167c01000000000000000000000000000000000000000000000000000000000281526004016101639291906102c6565b600060405180830381600087803b15801561017d57600080fd5b505af1158015610191573d6000803e3d6000fd5b505050505050565b60008054906101000a900473ffffffffffffffffffffffffffffffffffffffff1681565b610864806102f083390190565b600080fd5b6000819050919050565b6101e2816101cf565b81146101ed57600080fd5b50565b6000813590506101ff816101d9565b92915050565b60006020828403121561021b5761021a6101ca565b5b6000610229848285016101f0565b91505092915050565b600073ffffffffffffffffffffffffffffffffffffffff82169050919050565b600061025d82610232565b9050919050565b61026d81610252565b82525050565b60006020820190506102886000830184610264565b92915050565b610297816101cf565b82525050565b60006040820190506102b2600083018561028e565b6102bf6020830184610264565b9392505050565b60006040820190506102db6000830185610264565b6102e86020830184610264565b939250505056fe608060405234801561001057600080fd5b50604051610864380380610864833981810160405281019061003291906101c0565b600c821115610076576040517f08c379a000000000000000000000000000000000000000000000000000000000815260040161006d90610283565b60405180910390fd5b806000806101000a81548173ffffffffffffffffffffffffffffffffffffffff021916908373ffffffffffffffffffffffffffffffffffffffff160217905550816001819055506002339080600181540180825580915050600190039060005260206000200160009091909190916101000a81548173ffffffffffffffffffffffffffffffffffffffff021916908373ffffffffffffffffffffffffffffffffffffffff16021790555050506102a3565b600080fd5b6000819050919050565b61013f8161012c565b811461014a57600080fd5b50565b60008151905061015c81610136565b92915050565b600073ffffffffffffffffffffffffffffffffffffffff82169050919050565b600061018d82610162565b9050919050565b61019d81610182565b81146101a857600080fd5b50565b6000815190506101ba81610194565b92915050565b600080604083850312156101d7576101d6610127565b5b60006101e58582860161014d565b92505060206101f6858286016101ab565b9150509250929050565b600082825260208201905092915050565b7f43616e6e6f742068617665206d6f7265207468616e203132206d656d6265727360008201527f20696e20612073696e676c65207368617265642077616c6c6574210000000000602082015250565b600061026d603b83610200565b915061027882610211565b604082019050919050565b6000602082019050818103600083015261029c81610260565b9050919050565b6105b2806102b26000396000f3fe60806040526004361061005f576000357c010000000000000000000000000000000000000000000000000000000090048062f55d9d146100685780635daf08ca146100915780639eab5253146100ce578063bf4386a0146100f957610066565b3661006657005b005b34801561007457600080fd5b5061008f600480360381019061008a9190610323565b610124565b005b34801561009d57600080fd5b506100b860048036038101906100b39190610386565b6101ed565b6040516100c591906103c2565b60405180910390f35b3480156100da57600080fd5b506100e361022c565b6040516100f0919061049b565b60405180910390f35b34801561010557600080fd5b5061010e6102ba565b60405161011b91906104cc565b60405180910390f35b6000805b6002805490508160ff1610156101c9573273ffffffffffffffffffffffffffffffffffffffff1660028260ff1681548110610166576101656104e7565b5b9060005260206000200160009054906101000a900473ffffffffffffffffffffffffffffffffffffffff1673ffffffffffffffffffffffffffffffffffffffff1614156101b657600191506101c9565b80806101c190610552565b915050610128565b50806101d457600080fd5b8173ffffffffffffffffffffffffffffffffffffffff16ff5b600281815481106101fd57600080fd5b906000526020600020016000915054906101000a900473ffffffffffffffffffffffffffffffffffffffff1681565b606060028054806020026020016040519081016040528092919081815260200182805480156102b057602002820191906000526020600020905b8160009054906101000a900473ffffffffffffffffffffffffffffffffffffffff1673ffffffffffffffffffffffffffffffffffffffff1681526020019060010190808311610266575b5050505050905090565b60015481565b600080fd5b600073ffffffffffffffffffffffffffffffffffffffff82169050919050565b60006102f0826102c5565b9050919050565b610300816102e5565b811461030b57600080fd5b50565b60008135905061031d816102f7565b92915050565b600060208284031215610339576103386102c0565b5b60006103478482850161030e565b91505092915050565b6000819050919050565b61036381610350565b811461036e57600080fd5b50565b6000813590506103808161035a565b92915050565b60006020828403121561039c5761039b6102c0565b5b60006103aa84828501610371565b91505092915050565b6103bc816102e5565b82525050565b60006020820190506103d760008301846103b3565b92915050565b600081519050919050565b600082825260208201905092915050565b6000819050602082019050919050565b610412816102e5565b82525050565b60006104248383610409565b60208301905092915050565b6000602082019050919050565b6000610448826103dd565b61045281856103e8565b935061045d836103f9565b8060005b8381101561048e5781516104758882610418565b975061048083610430565b925050600181019050610461565b5085935050505092915050565b600060208201905081810360008301526104b5818461043d565b905092915050565b6104c681610350565b82525050565b60006020820190506104e160008301846104bd565b92915050565b7f4e487b7100000000000000000000000000000000000000000000000000000000600052603260045260246000fd5b7f4e487b7100000000000000000000000000000000000000000000000000000000600052601160045260246000fd5b600060ff82169050919050565b600061055d82610545565b915060ff82141561057157610570610516565b5b60018201905091905056fea2646970667358221220e4a4704da8271b9fb79375fa6b95dd68d262ef789fed3d50d3d5de326bef2af764736f6c634300080c0033a26469706673582212203ccfe442d762c32f997d0f0b2f063ca7db374589dd3888eb1189a477691ed38364736f6c634300080c0033608060405234801561001057600080fd5b5061069c806100206000396000f3fe608060405234801561001057600080fd5b5060043610610053576000357c01000000000000000000000000000000000000000000000000000000009004806351efa3f4146100585780635c2d445014610074575b600080fd5b610072600480360381019061006d919061033a565b6100a4565b005b61008e600480360381019061008991906103b0565b61015a565b60405161009b91906103ff565b60405180910390f35b6100ae81836101a8565b6100b757600080fd5b6000808273ffffffffffffffffffffffffffffffffffffffff1673ffffffffffffffffffffffffffffffffffffffff168152602001908152602001600020829080600181540180825580915050600190039060005260206000200160009091909190916101000a81548173ffffffffffffffffffffffffffffffffffffffff021916908373ffffffffffffffffffffffffffffffffffffffff1602179055505050565b6000602052816000526040600020818154811061017657600080fd5b906000526020600020016000915091509054906101000a900473ffffffffffffffffffffffffffffffffffffffff1681565b6000808273ffffffffffffffffffffffffffffffffffffffff16639eab52536040518163ffffffff167c0100000000000000000000000000000000000000000000000000000000028152600401600060405180830381865afa158015610212573d6000803e3d6000fd5b505050506040513d6000823e3d601f19601f8201168201806040525081019061023b9190610588565b905060005b81518160ff1610156102bb578473ffffffffffffffffffffffffffffffffffffffff16828260ff1681518110610279576102786105d1565b5b602002602001015173ffffffffffffffffffffffffffffffffffffffff1614156102a8576001925050506102c2565b80806102b39061063c565b915050610240565b5060009150505b92915050565b6000604051905090565b600080fd5b600080fd5b600073ffffffffffffffffffffffffffffffffffffffff82169050919050565b6000610307826102dc565b9050919050565b610317816102fc565b811461032257600080fd5b50565b6000813590506103348161030e565b92915050565b60008060408385031215610351576103506102d2565b5b600061035f85828601610325565b925050602061037085828601610325565b9150509250929050565b6000819050919050565b61038d8161037a565b811461039857600080fd5b50565b6000813590506103aa81610384565b92915050565b600080604083850312156103c7576103c66102d2565b5b60006103d585828601610325565b92505060206103e68582860161039b565b9150509250929050565b6103f9816102fc565b82525050565b600060208201905061041460008301846103f0565b92915050565b600080fd5b6000601f19601f8301169050919050565b7f4e487b7100000000000000000000000000000000000000000000000000000000600052604160045260246000fd5b6104688261041f565b810181811067ffffffffffffffff8211171561048757610486610430565b5b80604052505050565b600061049a6102c8565b90506104a6828261045f565b919050565b600067ffffffffffffffff8211156104c6576104c5610430565b5b602082029050602081019050919050565b600080fd5b6000815190506104eb8161030e565b92915050565b60006105046104ff846104ab565b610490565b90508083825260208201905060208402830185811115610527576105266104d7565b5b835b81811015610550578061053c88826104dc565b845260208401935050602081019050610529565b5050509392505050565b600082601f83011261056f5761056e61041a565b5b815161057f8482602086016104f1565b91505092915050565b60006020828403121561059e5761059d6102d2565b5b600082015167ffffffffffffffff8111156105bc576105bb6102d7565b5b6105c88482850161055a565b91505092915050565b7f4e487b7100000000000000000000000000000000000000000000000000000000600052603260045260246000fd5b7f4e487b7100000000000000000000000000000000000000000000000000000000600052601160045260246000fd5b600060ff82169050919050565b60006106478261062f565b915060ff82141561065b5761065a610600565b5b60018201905091905056fea2646970667358221220703aa07117b9f1565394450e09d2efe646a3530837eac8a6de45e0df695ae76064736f6c634300080c0033",
  "immutableReferences": {},
  "source": "//SPDX-License-Identifier: UNLICENSED\r\npragma solidity ^0.8.0;\r\n\r\nimport \"./SharedWallet.sol\";\r\nimport \"./SharedWalletStorage.sol\";\r\n\r\ncontract SharedWalletFactory {\r\n    address public storageAddress;\r\n\r\n    constructor() {\r\n        storageAddress = address(new SharedWalletStorage());\r\n    }\r\n\r\n    function createNewSharedWallet(uint256 _maxMembers) external {\r\n        SharedWallet wallet = new SharedWallet(_maxMembers, storageAddress);\r\n        SharedWalletStorage(storageAddress).addWalletToUser(\r\n            address(wallet),\r\n            msg.sender\r\n        );\r\n    }\r\n}\r\n",
  "sourcePath": "C:\\Users\\Joro\\Documents\\GitHub\\ShareIt\\contracts\\SharedWalletFactory.sol",
  "compiler": {
    "name": "solc",
    "version": "0.8.12+commit.f00d7308.Emscripten.clang"
  },
  "schemaVersion": "3.4.6",
  "updatedAt": "2022-03-22T20:32:46.174Z",
  "devdoc": {
    "kind": "dev",
    "methods": {},
    "version": 1
  },
  "userdoc": {
    "kind": "user",
    "methods": {},
    "version": 1
  }
}