{
  "contractName": "SharedWallet",
  "abi": [
    {
      "inputs": [
        {
          "internalType": "address",
          "name": "_creator",
          "type": "address"
        },
        {
          "internalType": "address",
          "name": "_walletsStorageAddress",
          "type": "address"
        },
        {
          "internalType": "string",
          "name": "name_",
          "type": "string"
        }
      ],
      "stateMutability": "nonpayable",
      "type": "constructor"
    },
    {
      "anonymous": false,
      "inputs": [
        {
          "indexed": false,
          "internalType": "uint256",
          "name": "requestId",
          "type": "uint256"
        },
        {
          "indexed": true,
          "internalType": "address",
          "name": "to",
          "type": "address"
        }
      ],
      "name": "InvitationSent",
      "type": "event"
    },
    {
      "anonymous": false,
      "inputs": [
        {
          "indexed": false,
          "internalType": "uint256",
          "name": "requestId",
          "type": "uint256"
        }
      ],
      "name": "RequestCreated",
      "type": "event"
    },
    {
      "inputs": [
        {
          "internalType": "uint256",
          "name": "_requestID",
          "type": "uint256"
        }
      ],
      "name": "acceptInvitation",
      "outputs": [],
      "stateMutability": "nonpayable",
      "type": "function"
    },
    {
      "inputs": [
        {
          "internalType": "uint256",
          "name": "_requestID",
          "type": "uint256"
        }
      ],
      "name": "acceptRequest",
      "outputs": [],
      "stateMutability": "nonpayable",
      "type": "function"
    },
    {
      "inputs": [
        {
          "internalType": "uint256",
          "name": "_id",
          "type": "uint256"
        }
      ],
      "name": "checkMemberHasVotedById",
      "outputs": [
        {
          "internalType": "bool",
          "name": "",
          "type": "bool"
        }
      ],
      "stateMutability": "view",
      "type": "function"
    },
    {
      "inputs": [
        {
          "internalType": "uint256",
          "name": "_id",
          "type": "uint256"
        }
      ],
      "name": "checkRequestIsAcceptedById",
      "outputs": [
        {
          "internalType": "bool",
          "name": "",
          "type": "bool"
        }
      ],
      "stateMutability": "view",
      "type": "function"
    },
    {
      "inputs": [
        {
          "internalType": "uint256",
          "name": "_id",
          "type": "uint256"
        }
      ],
      "name": "checkRequestIsApprovedById",
      "outputs": [
        {
          "internalType": "bool",
          "name": "",
          "type": "bool"
        }
      ],
      "stateMutability": "view",
      "type": "function"
    },
    {
      "inputs": [
        {
          "internalType": "uint256",
          "name": "_requestTypeIdx",
          "type": "uint256"
        },
        {
          "internalType": "uint256",
          "name": "_value",
          "type": "uint256"
        },
        {
          "internalType": "address",
          "name": "_addr",
          "type": "address"
        }
      ],
      "name": "createRequest",
      "outputs": [],
      "stateMutability": "nonpayable",
      "type": "function"
    },
    {
      "inputs": [
        {
          "internalType": "uint256",
          "name": "_id",
          "type": "uint256"
        }
      ],
      "name": "getRequestAddrById",
      "outputs": [
        {
          "internalType": "address",
          "name": "",
          "type": "address"
        }
      ],
      "stateMutability": "view",
      "type": "function"
    },
    {
      "inputs": [
        {
          "internalType": "uint256",
          "name": "_id",
          "type": "uint256"
        }
      ],
      "name": "getRequestAuthorById",
      "outputs": [
        {
          "internalType": "address",
          "name": "",
          "type": "address"
        }
      ],
      "stateMutability": "view",
      "type": "function"
    },
    {
      "inputs": [
        {
          "internalType": "uint256",
          "name": "_id",
          "type": "uint256"
        }
      ],
      "name": "getRequestProVotersCountById",
      "outputs": [
        {
          "internalType": "uint256",
          "name": "",
          "type": "uint256"
        }
      ],
      "stateMutability": "view",
      "type": "function"
    },
    {
      "inputs": [
        {
          "internalType": "uint256",
          "name": "_id",
          "type": "uint256"
        }
      ],
      "name": "getRequestTypeById",
      "outputs": [
        {
          "internalType": "enum Voting.RequestTypes",
          "name": "",
          "type": "uint8"
        }
      ],
      "stateMutability": "view",
      "type": "function"
    },
    {
      "inputs": [
        {
          "internalType": "uint256",
          "name": "_id",
          "type": "uint256"
        }
      ],
      "name": "getRequestValueById",
      "outputs": [
        {
          "internalType": "uint256",
          "name": "",
          "type": "uint256"
        }
      ],
      "stateMutability": "view",
      "type": "function"
    },
    {
      "inputs": [],
      "name": "requestsCounter",
      "outputs": [
        {
          "internalType": "uint256",
          "name": "",
          "type": "uint256"
        }
      ],
      "stateMutability": "view",
      "type": "function"
    },
    {
      "inputs": [],
      "name": "members",
      "outputs": [
        {
          "internalType": "address[]",
          "name": "",
          "type": "address[]"
        }
      ],
      "stateMutability": "view",
      "type": "function"
    },
    {
      "inputs": [],
      "name": "name",
      "outputs": [
        {
          "internalType": "string",
          "name": "",
          "type": "string"
        }
      ],
      "stateMutability": "view",
      "type": "function"
    },
    {
      "inputs": [],
      "name": "walletsStorage",
      "outputs": [
        {
          "internalType": "contract SharedWalletStorage",
          "name": "",
          "type": "address"
        }
      ],
      "stateMutability": "view",
      "type": "function"
    },
    {
      "inputs": [
        {
          "internalType": "address",
          "name": "_user",
          "type": "address"
        }
      ],
      "name": "isMember",
      "outputs": [
        {
          "internalType": "bool",
          "name": "",
          "type": "bool"
        }
      ],
      "stateMutability": "view",
      "type": "function"
    },
    {
      "inputs": [],
      "name": "leave",
      "outputs": [],
      "stateMutability": "nonpayable",
      "type": "function"
    },
    {
      "inputs": [],
      "name": "deposit",
      "outputs": [],
      "stateMutability": "payable",
      "type": "function"
    }
  ],
  "bytecode": "0x60806040523480156200001157600080fd5b5060405162002b1038038062002b10833981810160405281019062000037919062000407565b81600260006101000a81548173ffffffffffffffffffffffffffffffffffffffff021916908373ffffffffffffffffffffffffffffffffffffffff1602179055506004839080600181540180825580915050600190039060005260206000200160009091909190916101000a81548173ffffffffffffffffffffffffffffffffffffffff021916908373ffffffffffffffffffffffffffffffffffffffff1602179055506001600360008573ffffffffffffffffffffffffffffffffffffffff1673ffffffffffffffffffffffffffffffffffffffff16815260200190815260200160002060006101000a81548160ff02191690831515021790555080600590805190602001906200014b92919062000155565b50505050620004e7565b8280546200016390620004b1565b90600052602060002090601f016020900481019282620001875760008555620001d3565b82601f10620001a257805160ff1916838001178555620001d3565b82800160010185558215620001d3579182015b82811115620001d2578251825591602001919060010190620001b5565b5b509050620001e29190620001e6565b5090565b5b8082111562000201576000816000905550600101620001e7565b5090565b6000604051905090565b600080fd5b600080fd5b600073ffffffffffffffffffffffffffffffffffffffff82169050919050565b6000620002468262000219565b9050919050565b620002588162000239565b81146200026457600080fd5b50565b60008151905062000278816200024d565b92915050565b600080fd5b600080fd5b6000601f19601f8301169050919050565b7f4e487b7100000000000000000000000000000000000000000000000000000000600052604160045260246000fd5b620002d38262000288565b810181811067ffffffffffffffff82111715620002f557620002f462000299565b5b80604052505050565b60006200030a62000205565b9050620003188282620002c8565b919050565b600067ffffffffffffffff8211156200033b576200033a62000299565b5b620003468262000288565b9050602081019050919050565b60005b838110156200037357808201518184015260208101905062000356565b8381111562000383576000848401525b50505050565b6000620003a06200039a846200031d565b620002fe565b905082815260208101848484011115620003bf57620003be62000283565b5b620003cc84828562000353565b509392505050565b600082601f830112620003ec57620003eb6200027e565b5b8151620003fe84826020860162000389565b91505092915050565b6000806000606084860312156200042357620004226200020f565b5b6000620004338682870162000267565b9350506020620004468682870162000267565b925050604084015167ffffffffffffffff8111156200046a576200046962000214565b5b6200047886828701620003d4565b9150509250925092565b7f4e487b7100000000000000000000000000000000000000000000000000000000600052602260045260246000fd5b60006002820490506001821680620004ca57607f821691505b60208210811415620004e157620004e062000482565b5b50919050565b61261980620004f76000396000f3fe608060405260043610610126576000357c01000000000000000000000000000000000000000000000000000000009004806370a26c23116100b2578063ad207e1611610081578063ad207e16146103d2578063bdd4d18d1461040f578063d0e30db01461043a578063d66d9e1914610444578063ea3ca2221461045b57610126565b806370a26c23146102f0578063718d31d91461032d578063a230c5241461036a578063abcc9153146103a757610126565b80634ba1f098116100f95780634ba1f098146101f957806354ebcf9b14610222578063553da43e1461025f57806365eba6071461029c578063663c2269146102c557610126565b806306fdde031461012b578063158dfe3b146101565780632faa366814610193578063464c5b6c146101d0575b600080fd5b34801561013757600080fd5b50610140610498565b60405161014d9190611d33565b60405180910390f35b34801561016257600080fd5b5061017d60048036038101906101789190611d90565b61052a565b60405161018a9190611dfe565b60405180910390f35b34801561019f57600080fd5b506101ba60048036038101906101b59190611d90565b610569565b6040516101c79190611e34565b60405180910390f35b3480156101dc57600080fd5b506101f760048036038101906101f29190611d90565b610595565b005b34801561020557600080fd5b50610220600480360381019061021b9190611d90565b61072e565b005b34801561022e57600080fd5b5061024960048036038101906102449190611d90565b610935565b6040516102569190611e34565b60405180910390f35b34801561026b57600080fd5b5061028660048036038101906102819190611d90565b61099e565b6040516102939190611ec6565b60405180910390f35b3480156102a857600080fd5b506102c360048036038101906102be9190611f0d565b6109ca565b005b3480156102d157600080fd5b506102da610d80565b6040516102e79190611f6f565b60405180910390f35b3480156102fc57600080fd5b5061031760048036038101906103129190611d90565b610d8a565b6040516103249190611dfe565b60405180910390f35b34801561033957600080fd5b50610354600480360381019061034f9190611d90565b610dc9565b6040516103619190611e34565b60405180910390f35b34801561037657600080fd5b50610391600480360381019061038c9190611f8a565b610df5565b60405161039e9190611e34565b60405180910390f35b3480156103b357600080fd5b506103bc610e4b565b6040516103c99190612016565b60405180910390f35b3480156103de57600080fd5b506103f960048036038101906103f49190611d90565b610e75565b6040516104069190611f6f565b60405180910390f35b34801561041b57600080fd5b50610424610e94565b60405161043191906120ef565b60405180910390f35b610442610f22565b005b34801561045057600080fd5b50610459610f24565b005b34801561046757600080fd5b50610482600480360381019061047d9190611d90565b6111c2565b60405161048f9190611f6f565b60405180910390f35b6060600580546104a790612140565b80601f01602080910402602001604051908101604052809291908181526020018280546104d390612140565b80156105205780601f106104f557610100808354040283529160200191610520565b820191906000526020600020905b81548152906001019060200180831161050357829003601f168201915b5050505050905090565b600080600083815260200190815260200160002060010160009054906101000a900473ffffffffffffffffffffffffffffffffffffffff169050919050565b600080600083815260200190815260200160002060030160009054906101000a900460ff169050919050565b3373ffffffffffffffffffffffffffffffffffffffff1660008083815260200190815260200160002060010160009054906101000a900473ffffffffffffffffffffffffffffffffffffffff1673ffffffffffffffffffffffffffffffffffffffff161461060257600080fd5b6000151560008083815260200190815260200160002060030160019054906101000a900460ff1615151461066b576040517f08c379a0000000000000000000000000000000000000000000000000000000008152600401610662906121be565b60405180910390fd5b6000600381111561067f5761067e611e4f565b5b60008083815260200190815260200160002060000160149054906101000a900460ff1660038111156106b4576106b3611e4f565b5b146106f4576040517f08c379a00000000000000000000000000000000000000000000000000000000081526004016106eb9061222a565b60405180910390fd5b600160008083815260200190815260200160002060030160016101000a81548160ff02191690831515021790555061072b816111e1565b50565b600360003373ffffffffffffffffffffffffffffffffffffffff1673ffffffffffffffffffffffffffffffffffffffff16815260200190815260200160002060009054906101000a900460ff1661078457600080fd5b6000151560008083815260200190815260200160002060030160009054906101000a900460ff161515146107ed576040517f08c379a00000000000000000000000000000000000000000000000000000000081526004016107e490612296565b60405180910390fd5b6000151560008083815260200190815260200160002060050160003373ffffffffffffffffffffffffffffffffffffffff1673ffffffffffffffffffffffffffffffffffffffff16815260200190815260200160002060009054906101000a900460ff16151514610893576040517f08c379a000000000000000000000000000000000000000000000000000000000815260040161088a90612302565b60405180910390fd5b600160008083815260200190815260200160002060050160003373ffffffffffffffffffffffffffffffffffffffff1673ffffffffffffffffffffffffffffffffffffffff16815260200190815260200160002060006101000a81548160ff021916908315150217905550600080828152602001908152602001600020600401600081548092919061092490612351565b9190505550610932816111e1565b50565b600080600083815260200190815260200160002060050160003373ffffffffffffffffffffffffffffffffffffffff1673ffffffffffffffffffffffffffffffffffffffff16815260200190815260200160002060009054906101000a900460ff169050919050565b600080600083815260200190815260200160002060000160149054906101000a900460ff169050919050565b600360003373ffffffffffffffffffffffffffffffffffffffff1673ffffffffffffffffffffffffffffffffffffffff16815260200190815260200160002060009054906101000a900460ff16610a2057600080fd5b600380811115610a3357610a32611e4f565b5b831115610a75576040517f08c379a0000000000000000000000000000000000000000000000000000000008152600401610a6c906123e6565b60405180910390fd5b60026003811115610a8957610a88611e4f565b5b60ff16831415610ac857600082118015610aba57503073ffffffffffffffffffffffffffffffffffffffff16318211155b610ac357600080fd5b610b03565b600073ffffffffffffffffffffffffffffffffffffffff168173ffffffffffffffffffffffffffffffffffffffff161415610b0257600080fd5b5b600080600060015481526020019081526020016000209050338160000160006101000a81548173ffffffffffffffffffffffffffffffffffffffff021916908373ffffffffffffffffffffffffffffffffffffffff160217905550836003811115610b7157610b70611e4f565b5b8160000160146101000a81548160ff02191690836003811115610b9757610b96611e4f565b5b0217905550818160010160006101000a81548173ffffffffffffffffffffffffffffffffffffffff021916908373ffffffffffffffffffffffffffffffffffffffff1602179055508281600201819055506001816004018190555060008160030160006101000a81548160ff02191690831515021790555060018160050160003373ffffffffffffffffffffffffffffffffffffffff1673ffffffffffffffffffffffffffffffffffffffff16815260200190815260200160002060006101000a81548160ff0219169083151502179055506000600154905060016000815480929190610c8390612351565b91905055507f97890542421e06ad80deca7ba945fd211a48ec6d89da2510960446025b78e32481604051610cb79190611f6f565b60405180910390a160006003811115610cd357610cd2611e4f565b5b8260000160149054906101000a900460ff166003811115610cf757610cf6611e4f565b5b1415610d70578160010160009054906101000a900473ffffffffffffffffffffffffffffffffffffffff1673ffffffffffffffffffffffffffffffffffffffff167fca39aa1a9bd391bf4b38b7f1ef7464e7bf0ab732922638cef4a9dc71568b2bf482604051610d679190611f6f565b60405180910390a25b610d79816111e1565b5050505050565b6000600154905090565b600080600083815260200190815260200160002060000160009054906101000a900473ffffffffffffffffffffffffffffffffffffffff169050919050565b600080600083815260200190815260200160002060030160019054906101000a900460ff169050919050565b6000600360008373ffffffffffffffffffffffffffffffffffffffff1673ffffffffffffffffffffffffffffffffffffffff16815260200190815260200160002060009054906101000a900460ff169050919050565b6000600260009054906101000a900473ffffffffffffffffffffffffffffffffffffffff16905090565b6000806000838152602001908152602001600020600401549050919050565b60606004805480602002602001604051908101604052809291908181526020018280548015610f1857602002820191906000526020600020905b8160009054906101000a900473ffffffffffffffffffffffffffffffffffffffff1673ffffffffffffffffffffffffffffffffffffffff1681526020019060010190808311610ece575b5050505050905090565b565b610f2d33610df5565b610f3657600080fd5b60005b6004805490508110156111be573373ffffffffffffffffffffffffffffffffffffffff1660048281548110610f7157610f70612406565b5b9060005260206000200160009054906101000a900473ffffffffffffffffffffffffffffffffffffffff1673ffffffffffffffffffffffffffffffffffffffff1614156111ab5760046001600480549050610fcc9190612435565b81548110610fdd57610fdc612406565b5b9060005260206000200160009054906101000a900473ffffffffffffffffffffffffffffffffffffffff166004828154811061101c5761101b612406565b5b9060005260206000200160006101000a81548173ffffffffffffffffffffffffffffffffffffffff021916908373ffffffffffffffffffffffffffffffffffffffff160217905550600480548061107657611075612469565b5b6001900381819060005260206000200160006101000a81549073ffffffffffffffffffffffffffffffffffffffff02191690559055600360003373ffffffffffffffffffffffffffffffffffffffff1673ffffffffffffffffffffffffffffffffffffffff16815260200190815260200160002060006101000a81549060ff0219169055600260009054906101000a900473ffffffffffffffffffffffffffffffffffffffff1673ffffffffffffffffffffffffffffffffffffffff1663abfa796930336040518363ffffffff167c0100000000000000000000000000000000000000000000000000000000028152600401611173929190612498565b600060405180830381600087803b15801561118d57600080fd5b505af11580156111a1573d6000803e3d6000fd5b50505050506111c0565b80806111b690612351565b915050610f39565b505b565b6000806000838152602001908152602001600020600201549050919050565b60006111f1600480549050611396565b9050806000808481526020019081526020016000206004015414801561125e57506000600381111561122657611225611e4f565b5b60008084815260200190815260200160002060000160149054906101000a900460ff16600381111561125b5761125a611e4f565b5b14155b1561129657600160008084815260200190815260200160002060030160006101000a81548160ff021916908315150217905550611360565b80600080848152602001908152602001600020600401541480156113005750600060038111156112c9576112c8611e4f565b5b60008084815260200190815260200160002060000160149054906101000a900460ff1660038111156112fe576112fd611e4f565b5b145b801561132b575060008083815260200190815260200160002060030160019054906101000a900460ff165b1561135f57600160008084815260200190815260200160002060030160006101000a81548160ff0219169083151502179055505b5b60008083815260200190815260200160002060030160009054906101000a900460ff161561139257611391826113b8565b5b5050565b600060016002836113a791906124f0565b6113b19190612521565b9050919050565b600060038111156113cc576113cb611e4f565b5b60008083815260200190815260200160002060000160149054906101000a900460ff16600381111561140157611400611e4f565b5b1415611415576114108161152d565b61152a565b6001600381111561142957611428611e4f565b5b60008083815260200190815260200160002060000160149054906101000a900460ff16600381111561145e5761145d611e4f565b5b14156114725761146d8161175b565b611529565b6002600381111561148657611485611e4f565b5b60008083815260200190815260200160002060000160149054906101000a900460ff1660038111156114bb576114ba611e4f565b5b14156114cf576114ca81611aad565b611528565b6003808111156114e2576114e1611e4f565b5b60008083815260200190815260200160002060000160149054906101000a900460ff16600381111561151757611516611e4f565b5b14156115275761152681611b69565b5b5b5b5b50565b6000806000838152602001908152602001600020905061154e816000611bc7565b61157b8160010160009054906101000a900473ffffffffffffffffffffffffffffffffffffffff16610df5565b1561158557600080fd5b60048160010160009054906101000a900473ffffffffffffffffffffffffffffffffffffffff169080600181540180825580915050600190039060005260206000200160009091909190916101000a81548173ffffffffffffffffffffffffffffffffffffffff021916908373ffffffffffffffffffffffffffffffffffffffff1602179055506001600360008360010160009054906101000a900473ffffffffffffffffffffffffffffffffffffffff1673ffffffffffffffffffffffffffffffffffffffff1673ffffffffffffffffffffffffffffffffffffffff16815260200190815260200160002060006101000a81548160ff021916908315150217905550600260009054906101000a900473ffffffffffffffffffffffffffffffffffffffff1673ffffffffffffffffffffffffffffffffffffffff166351efa3f4308360010160009054906101000a900473ffffffffffffffffffffffffffffffffffffffff166040518363ffffffff167c0100000000000000000000000000000000000000000000000000000000028152600401611725929190612498565b600060405180830381600087803b15801561173f57600080fd5b505af1158015611753573d6000803e3d6000fd5b505050505050565b6000806000838152602001908152602001600020905061177c816001611bc7565b6117a98160010160009054906101000a900473ffffffffffffffffffffffffffffffffffffffff16610df5565b6117b257600080fd5b60005b600480549050811015611aa7578160010160009054906101000a900473ffffffffffffffffffffffffffffffffffffffff1673ffffffffffffffffffffffffffffffffffffffff166004828154811061181157611810612406565b5b9060005260206000200160009054906101000a900473ffffffffffffffffffffffffffffffffffffffff1673ffffffffffffffffffffffffffffffffffffffff161415611a94576004600160048054905061186c9190612435565b8154811061187d5761187c612406565b5b9060005260206000200160009054906101000a900473ffffffffffffffffffffffffffffffffffffffff16600482815481106118bc576118bb612406565b5b9060005260206000200160006101000a81548173ffffffffffffffffffffffffffffffffffffffff021916908373ffffffffffffffffffffffffffffffffffffffff160217905550600480548061191657611915612469565b5b6001900381819060005260206000200160006101000a81549073ffffffffffffffffffffffffffffffffffffffff02191690559055600360008360010160009054906101000a900473ffffffffffffffffffffffffffffffffffffffff1673ffffffffffffffffffffffffffffffffffffffff1673ffffffffffffffffffffffffffffffffffffffff16815260200190815260200160002060006101000a81549060ff0219169055600260009054906101000a900473ffffffffffffffffffffffffffffffffffffffff1673ffffffffffffffffffffffffffffffffffffffff1663abfa7969308460010160009054906101000a900473ffffffffffffffffffffffffffffffffffffffff166040518363ffffffff167c0100000000000000000000000000000000000000000000000000000000028152600401611a5b929190612498565b600060405180830381600087803b158015611a7557600080fd5b505af1158015611a89573d6000803e3d6000fd5b505050505050611aaa565b8080611a9f90612351565b9150506117b5565b50505b50565b60008060008381526020019081526020016000209050611ace816002611bc7565b3073ffffffffffffffffffffffffffffffffffffffff163181600201541115611af657600080fd5b8060000160009054906101000a900473ffffffffffffffffffffffffffffffffffffffff1673ffffffffffffffffffffffffffffffffffffffff166108fc82600201549081150290604051600060405180830381858888f19350505050158015611b64573d6000803e3d6000fd5b505050565b60008060008381526020019081526020016000209050611b8a816003611bc7565b8060010160009054906101000a900473ffffffffffffffffffffffffffffffffffffffff1673ffffffffffffffffffffffffffffffffffffffff16ff5b806003811115611bda57611bd9611e4f565b5b8260000160149054906101000a900460ff166003811115611bfe57611bfd611e4f565b5b14611c3e576040517f08c379a0000000000000000000000000000000000000000000000000000000008152600401611c359061222a565b60405180910390fd5b600115158260030160009054906101000a900460ff16151514611c96576040517f08c379a0000000000000000000000000000000000000000000000000000000008152600401611c8d906125c3565b60405180910390fd5b5050565b600081519050919050565b600082825260208201905092915050565b60005b83811015611cd4578082015181840152602081019050611cb9565b83811115611ce3576000848401525b50505050565b6000601f19601f8301169050919050565b6000611d0582611c9a565b611d0f8185611ca5565b9350611d1f818560208601611cb6565b611d2881611ce9565b840191505092915050565b60006020820190508181036000830152611d4d8184611cfa565b905092915050565b600080fd5b6000819050919050565b611d6d81611d5a565b8114611d7857600080fd5b50565b600081359050611d8a81611d64565b92915050565b600060208284031215611da657611da5611d55565b5b6000611db484828501611d7b565b91505092915050565b600073ffffffffffffffffffffffffffffffffffffffff82169050919050565b6000611de882611dbd565b9050919050565b611df881611ddd565b82525050565b6000602082019050611e136000830184611def565b92915050565b60008115159050919050565b611e2e81611e19565b82525050565b6000602082019050611e496000830184611e25565b92915050565b7f4e487b7100000000000000000000000000000000000000000000000000000000600052602160045260246000fd5b60048110611e8f57611e8e611e4f565b5b50565b6000819050611ea082611e7e565b919050565b6000611eb082611e92565b9050919050565b611ec081611ea5565b82525050565b6000602082019050611edb6000830184611eb7565b92915050565b611eea81611ddd565b8114611ef557600080fd5b50565b600081359050611f0781611ee1565b92915050565b600080600060608486031215611f2657611f25611d55565b5b6000611f3486828701611d7b565b9350506020611f4586828701611d7b565b9250506040611f5686828701611ef8565b9150509250925092565b611f6981611d5a565b82525050565b6000602082019050611f846000830184611f60565b92915050565b600060208284031215611fa057611f9f611d55565b5b6000611fae84828501611ef8565b91505092915050565b6000819050919050565b6000611fdc611fd7611fd284611dbd565b611fb7565b611dbd565b9050919050565b6000611fee82611fc1565b9050919050565b600061200082611fe3565b9050919050565b61201081611ff5565b82525050565b600060208201905061202b6000830184612007565b92915050565b600081519050919050565b600082825260208201905092915050565b6000819050602082019050919050565b61206681611ddd565b82525050565b6000612078838361205d565b60208301905092915050565b6000602082019050919050565b600061209c82612031565b6120a6818561203c565b93506120b18361204d565b8060005b838110156120e25781516120c9888261206c565b97506120d483612084565b9250506001810190506120b5565b5085935050505092915050565b600060208201905081810360008301526121098184612091565b905092915050565b7f4e487b7100000000000000000000000000000000000000000000000000000000600052602260045260246000fd5b6000600282049050600182168061215857607f821691505b6020821081141561216c5761216b612111565b5b50919050565b7f496e7669746174696f6e20616c72656164792061636365707465642100000000600082015250565b60006121a8601c83611ca5565b91506121b382612172565b602082019050919050565b600060208201905081810360008301526121d78161219b565b9050919050565b7f57726f6e67207265717565737420696421000000000000000000000000000000600082015250565b6000612214601183611ca5565b915061221f826121de565b602082019050919050565b6000602082019050818103600083015261224381612207565b9050919050565b7f526571756573742068617320616c726561647920706173736564210000000000600082015250565b6000612280601b83611ca5565b915061228b8261224a565b602082019050919050565b600060208201905081810360008301526122af81612273565b9050919050565b7f416c726561647920766f74656420746f20746869732072657175657374210000600082015250565b60006122ec601e83611ca5565b91506122f7826122b6565b602082019050919050565b6000602082019050818103600083015261231b816122df565b9050919050565b7f4e487b7100000000000000000000000000000000000000000000000000000000600052601160045260246000fd5b600061235c82611d5a565b91507fffffffffffffffffffffffffffffffffffffffffffffffffffffffffffffffff82141561238f5761238e612322565b5b600182019050919050565b7f496e76616c696420726571756573742074797065210000000000000000000000600082015250565b60006123d0601583611ca5565b91506123db8261239a565b602082019050919050565b600060208201905081810360008301526123ff816123c3565b9050919050565b7f4e487b7100000000000000000000000000000000000000000000000000000000600052603260045260246000fd5b600061244082611d5a565b915061244b83611d5a565b92508282101561245e5761245d612322565b5b828203905092915050565b7f4e487b7100000000000000000000000000000000000000000000000000000000600052603160045260246000fd5b60006040820190506124ad6000830185611def565b6124ba6020830184611def565b9392505050565b7f4e487b7100000000000000000000000000000000000000000000000000000000600052601260045260246000fd5b60006124fb82611d5a565b915061250683611d5a565b925082612516576125156124c1565b5b828204905092915050565b600061252c82611d5a565b915061253783611d5a565b9250827fffffffffffffffffffffffffffffffffffffffffffffffffffffffffffffffff0382111561256c5761256b612322565b5b828201905092915050565b7f52657175657374206973206e6f7420617070726f766564207965742100000000600082015250565b60006125ad601c83611ca5565b91506125b882612577565b602082019050919050565b600060208201905081810360008301526125dc816125a0565b905091905056fea264697066735822122090b23f8b0d136a7c56f53a819d2d764f822f27b3696e105b59b3f874de4ab34b64736f6c634300080c0033",
  "immutableReferences": {},
  "source": "//SPDX-License-Identifier: MIT\r\npragma solidity ^0.8.0;\r\n\r\nimport \"./Voting.sol\";\r\nimport \"./SharedWalletStorage.sol\";\r\n\r\ncontract SharedWallet is Voting {\r\n    SharedWalletStorage private _walletsStorage;\r\n    mapping(address => bool) private _isMember;\r\n    address[] private _members;\r\n    string private _name;\r\n\r\n    modifier onlyMember() override {\r\n        require(_isMember[msg.sender]);\r\n        _;\r\n    }\r\n\r\n    constructor(\r\n        address _creator,\r\n        address _walletsStorageAddress,\r\n        string memory name_\r\n    ) {\r\n        _walletsStorage = SharedWalletStorage(_walletsStorageAddress);\r\n\r\n        _members.push(_creator);\r\n        _isMember[_creator] = true;\r\n        _name = name_;\r\n    }\r\n\r\n    function members() public view returns (address[] memory) {\r\n        return _members;\r\n    }\r\n\r\n    function name() public view returns (string memory) {\r\n        return _name;\r\n    }\r\n\r\n    function walletsStorage() public view returns (SharedWalletStorage) {\r\n        return _walletsStorage;\r\n    }\r\n\r\n    function isMember(address _user) public view returns (bool) {\r\n        return _isMember[_user];\r\n    }\r\n\r\n    function _addMember(uint256 _requestId) private {\r\n        Request storage request = _requests[_requestId];\r\n        _validateRequest(request, RequestTypes.AddMember);\r\n\r\n        require(!isMember(request.addr));\r\n        _members.push(request.addr);\r\n        _isMember[request.addr] = true;\r\n        _walletsStorage.addWalletToUser(address(this), request.addr);\r\n    }\r\n\r\n    function _removeMember(uint256 _requestId) private {\r\n        Request storage request = _requests[_requestId];\r\n        _validateRequest(request, RequestTypes.RemoveMember);\r\n\r\n        require(isMember(request.addr));\r\n        for (uint256 i = 0; i < _members.length; i++)\r\n            if (_members[i] == request.addr) {\r\n                _members[i] = _members[_members.length - 1];\r\n                _members.pop();\r\n                delete _isMember[request.addr];\r\n                _walletsStorage.removeWalletForUser(\r\n                    address(this),\r\n                    request.addr\r\n                );\r\n                return;\r\n            }\r\n    }\r\n\r\n    function _withdraw(uint256 _requestId) private {\r\n        Request storage request = _requests[_requestId];\r\n        _validateRequest(request, RequestTypes.Withdraw);\r\n\r\n        require(request.value <= address(this).balance);\r\n\r\n        payable(request.author).transfer(request.value);\r\n    }\r\n\r\n    function _destroy(uint256 _requestId) private {\r\n        Request storage request = _requests[_requestId];\r\n        _validateRequest(request, RequestTypes.Destroy);\r\n\r\n        selfdestruct(payable(request.addr));\r\n    }\r\n\r\n    function leave() external {\r\n        require(isMember(msg.sender));\r\n        for (uint256 i = 0; i < _members.length; i++)\r\n            if (_members[i] == msg.sender) {\r\n                _members[i] = _members[_members.length - 1];\r\n                _members.pop();\r\n                delete _isMember[msg.sender];\r\n                _walletsStorage.removeWalletForUser(\r\n                    address(this),\r\n                    msg.sender\r\n                );\r\n                return;\r\n            }\r\n    }\r\n\r\n    function _tryApproveRequest(uint256 _requestId) internal override {\r\n        uint256 goal = _getMajority(_members.length);\r\n        if (\r\n            _requests[_requestId].proVotersCount == goal &&\r\n            _requests[_requestId].requestType != RequestTypes.AddMember\r\n        ) _requests[_requestId].approved = true;\r\n        else if (\r\n            _requests[_requestId].proVotersCount == goal &&\r\n            _requests[_requestId].requestType == RequestTypes.AddMember &&\r\n            _requests[_requestId].accepted\r\n        ) _requests[_requestId].approved = true;\r\n\r\n        if (_requests[_requestId].approved) _executeRequest(_requestId);\r\n    }\r\n\r\n    function _executeRequest(uint256 _requestId) private {\r\n        if (_requests[_requestId].requestType == RequestTypes.AddMember)\r\n            _addMember(_requestId);\r\n        else if (_requests[_requestId].requestType == RequestTypes.RemoveMember)\r\n            _removeMember(_requestId);\r\n        else if (_requests[_requestId].requestType == RequestTypes.Withdraw)\r\n            _withdraw(_requestId);\r\n        else if (_requests[_requestId].requestType == RequestTypes.Destroy)\r\n            _destroy(_requestId);\r\n    }\r\n\r\n    function _validateRequest(\r\n        Request storage _request,\r\n        RequestTypes _requestType\r\n    ) private view {\r\n        require(_request.requestType == _requestType, \"Wrong request id!\");\r\n        require(_request.approved == true, \"Request is not approved yet!\");\r\n    }\r\n\r\n    function deposit() external payable {}\r\n}\r\n",
  "sourcePath": "C:\\Users\\Joro\\Documents\\GitHub\\ShareIt\\contracts\\SharedWallet.sol",
  "compiler": {
    "name": "solc",
    "version": "0.8.12+commit.f00d7308.Emscripten.clang"
  },
  "schemaVersion": "3.4.6",
  "updatedAt": "2022-04-05T11:52:05.277Z",
  "devdoc": {
    "kind": "dev",
    "methods": {},
    "version": 1
  },
  "userdoc": {
    "kind": "user",
    "methods": {},
    "version": 1
  }
}