{
  "contractName": "SharedWalletStorage",
  "abi": [
    {
      "inputs": [],
      "name": "UserIsMember",
      "type": "error"
    },
    {
      "inputs": [],
      "name": "UserIsNotMember",
      "type": "error"
    },
    {
      "inputs": [],
      "name": "userWallets",
      "outputs": [
        {
          "internalType": "address[]",
          "name": "",
          "type": "address[]"
        }
      ],
      "stateMutability": "view",
      "type": "function"
    },
    {
      "inputs": [],
      "name": "getInvitationsWallets",
      "outputs": [
        {
          "internalType": "address[]",
          "name": "",
          "type": "address[]"
        }
      ],
      "stateMutability": "view",
      "type": "function"
    },
    {
      "inputs": [],
      "name": "getInvitationsRequestsIDs",
      "outputs": [
        {
          "internalType": "uint256[]",
          "name": "",
          "type": "uint256[]"
        }
      ],
      "stateMutability": "view",
      "type": "function"
    },
    {
      "inputs": [
        {
          "internalType": "address",
          "name": "_user",
          "type": "address"
        },
        {
          "internalType": "uint256",
          "name": "_requestId",
          "type": "uint256"
        }
      ],
      "name": "sendUserInvitation",
      "outputs": [],
      "stateMutability": "nonpayable",
      "type": "function"
    },
    {
      "inputs": [
        {
          "internalType": "address",
          "name": "_user",
          "type": "address"
        }
      ],
      "name": "removeUserInvitation",
      "outputs": [],
      "stateMutability": "nonpayable",
      "type": "function"
    },
    {
      "inputs": [
        {
          "internalType": "address",
          "name": "_newWallet",
          "type": "address"
        },
        {
          "internalType": "address",
          "name": "_user",
          "type": "address"
        }
      ],
      "name": "addWalletToUser",
      "outputs": [],
      "stateMutability": "nonpayable",
      "type": "function"
    },
    {
      "inputs": [
        {
          "internalType": "address",
          "name": "_oldWallet",
          "type": "address"
        },
        {
          "internalType": "address",
          "name": "_user",
          "type": "address"
        }
      ],
      "name": "removeWalletForUser",
      "outputs": [],
      "stateMutability": "nonpayable",
      "type": "function"
    }
  ],
  "bytecode": "0x608060405234801561001057600080fd5b506113f3806100206000396000f3fe608060405234801561001057600080fd5b506004361061007d5760003560e01c8063a7f40e971161005b578063a7f40e97146100da578063abfa7969146100f8578063ad4600ee14610114578063d8a3bc56146101305761007d565b806351efa3f4146100825780638b1df1601461009e5780639d9820f9146100bc575b600080fd5b61009c60048036038101906100979190610f52565b61014c565b005b6100a661029f565b6040516100b3919061105a565b60405180910390f35b6100c461044e565b6040516100d1919061113a565b60405180910390f35b6100e261062b565b6040516100ef919061113a565b60405180910390f35b610112600480360381019061010d9190610f52565b6106f5565b005b61012e6004803603810190610129919061115c565b610a6b565b005b61014a600480360381019061014591906111b5565b610d54565b005b8173ffffffffffffffffffffffffffffffffffffffff1663a230c524826040518263ffffffff1660e01b81526004016101859190611204565b602060405180830381865afa1580156101a2573d6000803e3d6000fd5b505050506040513d601f19601f820116820180604052508101906101c69190611257565b6101fc576040517f4636950100000000000000000000000000000000000000000000000000000000815260040160405180910390fd5b6000808273ffffffffffffffffffffffffffffffffffffffff1673ffffffffffffffffffffffffffffffffffffffff168152602001908152602001600020829080600181540180825580915050600190039060005260206000200160009091909190916101000a81548173ffffffffffffffffffffffffffffffffffffffff021916908373ffffffffffffffffffffffffffffffffffffffff1602179055505050565b60606000600160003373ffffffffffffffffffffffffffffffffffffffff1673ffffffffffffffffffffffffffffffffffffffff168152602001908152602001600020805480602002602001604051908101604052809291908181526020016000905b8282101561039457838290600052602060002090600202016040518060400160405290816000820160009054906101000a900473ffffffffffffffffffffffffffffffffffffffff1673ffffffffffffffffffffffffffffffffffffffff1673ffffffffffffffffffffffffffffffffffffffff16815260200160018201548152505081526020019060010190610302565b5050505090506000815167ffffffffffffffff8111156103b7576103b6611284565b5b6040519080825280602002602001820160405280156103e55781602001602082028036833780820191505090505b50905060005b825181101561044557828181518110610407576104066112b3565b5b602002602001015160200151828281518110610426576104256112b3565b5b602002602001018181525050808061043d90611311565b9150506103eb565b50809250505090565b60606000600160003373ffffffffffffffffffffffffffffffffffffffff1673ffffffffffffffffffffffffffffffffffffffff168152602001908152602001600020805480602002602001604051908101604052809291908181526020016000905b8282101561054357838290600052602060002090600202016040518060400160405290816000820160009054906101000a900473ffffffffffffffffffffffffffffffffffffffff1673ffffffffffffffffffffffffffffffffffffffff1673ffffffffffffffffffffffffffffffffffffffff168152602001600182015481525050815260200190600101906104b1565b5050505090506000815167ffffffffffffffff81111561056657610565611284565b5b6040519080825280602002602001820160405280156105945781602001602082028036833780820191505090505b50905060005b8251811015610622578281815181106105b6576105b56112b3565b5b6020026020010151600001518282815181106105d5576105d46112b3565b5b602002602001019073ffffffffffffffffffffffffffffffffffffffff16908173ffffffffffffffffffffffffffffffffffffffff1681525050808061061a90611311565b91505061059a565b50809250505090565b60606000803373ffffffffffffffffffffffffffffffffffffffff1673ffffffffffffffffffffffffffffffffffffffff1681526020019081526020016000208054806020026020016040519081016040528092919081815260200182805480156106eb57602002820191906000526020600020905b8160009054906101000a900473ffffffffffffffffffffffffffffffffffffffff1673ffffffffffffffffffffffffffffffffffffffff16815260200190600101908083116106a1575b5050505050905090565b8173ffffffffffffffffffffffffffffffffffffffff1663a230c524826040518263ffffffff1660e01b815260040161072e9190611204565b602060405180830381865afa15801561074b573d6000803e3d6000fd5b505050506040513d601f19601f8201168201806040525081019061076f9190611257565b156107a6576040517fc63ac29a00000000000000000000000000000000000000000000000000000000815260040160405180910390fd5b60008060008373ffffffffffffffffffffffffffffffffffffffff1673ffffffffffffffffffffffffffffffffffffffff16815260200190815260200160002080548060200260200160405190810160405280929190818152602001828054801561086657602002820191906000526020600020905b8160009054906101000a900473ffffffffffffffffffffffffffffffffffffffff1673ffffffffffffffffffffffffffffffffffffffff168152602001906001019080831161081c575b5050505050905060005b8151811015610a64578373ffffffffffffffffffffffffffffffffffffffff168282815181106108a3576108a26112b3565b5b602002602001015173ffffffffffffffffffffffffffffffffffffffff161415610a51578160016000808673ffffffffffffffffffffffffffffffffffffffff1673ffffffffffffffffffffffffffffffffffffffff16815260200190815260200160002080549050610916919061135a565b81518110610927576109266112b3565b5b60200260200101516000808573ffffffffffffffffffffffffffffffffffffffff1673ffffffffffffffffffffffffffffffffffffffff168152602001908152602001600020828154811061097f5761097e6112b3565b5b9060005260206000200160006101000a81548173ffffffffffffffffffffffffffffffffffffffff021916908373ffffffffffffffffffffffffffffffffffffffff1602179055506000808473ffffffffffffffffffffffffffffffffffffffff1673ffffffffffffffffffffffffffffffffffffffff168152602001908152602001600020805480610a1557610a1461138e565b5b6001900381819060005260206000200160006101000a81549073ffffffffffffffffffffffffffffffffffffffff021916905590555050610a67565b8080610a5c90611311565b915050610870565b50505b5050565b6000600160008373ffffffffffffffffffffffffffffffffffffffff1673ffffffffffffffffffffffffffffffffffffffff168152602001908152602001600020805480602002602001604051908101604052809291908181526020016000905b82821015610b5e57838290600052602060002090600202016040518060400160405290816000820160009054906101000a900473ffffffffffffffffffffffffffffffffffffffff1673ffffffffffffffffffffffffffffffffffffffff1673ffffffffffffffffffffffffffffffffffffffff16815260200160018201548152505081526020019060010190610acc565b50505050905060005b8151811015610d4e573373ffffffffffffffffffffffffffffffffffffffff16828281518110610b9a57610b996112b3565b5b60200260200101516000015173ffffffffffffffffffffffffffffffffffffffff161415610d3b578160018351610bd1919061135a565b81518110610be257610be16112b3565b5b6020026020010151600160008573ffffffffffffffffffffffffffffffffffffffff1673ffffffffffffffffffffffffffffffffffffffff1681526020019081526020016000208281548110610c3b57610c3a6112b3565b5b906000526020600020906002020160008201518160000160006101000a81548173ffffffffffffffffffffffffffffffffffffffff021916908373ffffffffffffffffffffffffffffffffffffffff16021790555060208201518160010155905050600160008473ffffffffffffffffffffffffffffffffffffffff1673ffffffffffffffffffffffffffffffffffffffff168152602001908152602001600020805480610cec57610ceb61138e565b5b6001900381819060005260206000209060020201600080820160006101000a81549073ffffffffffffffffffffffffffffffffffffffff02191690556001820160009055505090555050610d51565b8080610d4690611311565b915050610b67565b50505b50565b3373ffffffffffffffffffffffffffffffffffffffff1663a230c524836040518263ffffffff1660e01b8152600401610d8d9190611204565b602060405180830381865afa158015610daa573d6000803e3d6000fd5b505050506040513d601f19601f82011682018060405250810190610dce9190611257565b15610e05576040517fc63ac29a00000000000000000000000000000000000000000000000000000000815260040160405180910390fd5b600160008373ffffffffffffffffffffffffffffffffffffffff1673ffffffffffffffffffffffffffffffffffffffff16815260200190815260200160002060405180604001604052803373ffffffffffffffffffffffffffffffffffffffff16815260200183815250908060018154018082558091505060019003906000526020600020906002020160009091909190915060008201518160000160006101000a81548173ffffffffffffffffffffffffffffffffffffffff021916908373ffffffffffffffffffffffffffffffffffffffff1602179055506020820151816001015550505050565b600080fd5b600073ffffffffffffffffffffffffffffffffffffffff82169050919050565b6000610f1f82610ef4565b9050919050565b610f2f81610f14565b8114610f3a57600080fd5b50565b600081359050610f4c81610f26565b92915050565b60008060408385031215610f6957610f68610eef565b5b6000610f7785828601610f3d565b9250506020610f8885828601610f3d565b9150509250929050565b600081519050919050565b600082825260208201905092915050565b6000819050602082019050919050565b6000819050919050565b610fd181610fbe565b82525050565b6000610fe38383610fc8565b60208301905092915050565b6000602082019050919050565b600061100782610f92565b6110118185610f9d565b935061101c83610fae565b8060005b8381101561104d5781516110348882610fd7565b975061103f83610fef565b925050600181019050611020565b5085935050505092915050565b600060208201905081810360008301526110748184610ffc565b905092915050565b600081519050919050565b600082825260208201905092915050565b6000819050602082019050919050565b6110b181610f14565b82525050565b60006110c383836110a8565b60208301905092915050565b6000602082019050919050565b60006110e78261107c565b6110f18185611087565b93506110fc83611098565b8060005b8381101561112d57815161111488826110b7565b975061111f836110cf565b925050600181019050611100565b5085935050505092915050565b6000602082019050818103600083015261115481846110dc565b905092915050565b60006020828403121561117257611171610eef565b5b600061118084828501610f3d565b91505092915050565b61119281610fbe565b811461119d57600080fd5b50565b6000813590506111af81611189565b92915050565b600080604083850312156111cc576111cb610eef565b5b60006111da85828601610f3d565b92505060206111eb858286016111a0565b9150509250929050565b6111fe81610f14565b82525050565b600060208201905061121960008301846111f5565b92915050565b60008115159050919050565b6112348161121f565b811461123f57600080fd5b50565b6000815190506112518161122b565b92915050565b60006020828403121561126d5761126c610eef565b5b600061127b84828501611242565b91505092915050565b7f4e487b7100000000000000000000000000000000000000000000000000000000600052604160045260246000fd5b7f4e487b7100000000000000000000000000000000000000000000000000000000600052603260045260246000fd5b7f4e487b7100000000000000000000000000000000000000000000000000000000600052601160045260246000fd5b600061131c82610fbe565b91507fffffffffffffffffffffffffffffffffffffffffffffffffffffffffffffffff82141561134f5761134e6112e2565b5b600182019050919050565b600061136582610fbe565b915061137083610fbe565b925082821015611383576113826112e2565b5b828203905092915050565b7f4e487b7100000000000000000000000000000000000000000000000000000000600052603160045260246000fdfea2646970667358221220cae39bf2fbe459ffe747f750975d1c07e03da8c99dd983526b49f8a689b5b32a64736f6c634300080c0033",
  "immutableReferences": {},
  "source": "//SPDX-License-Identifier: MIT\r\npragma solidity ^0.8.0;\r\n\r\nimport \"./SharedWallet.sol\";\r\n\r\nerror UserIsMember();\r\nerror UserIsNotMember();\r\n\r\ncontract SharedWalletStorage {\r\n    struct Invitation {\r\n        address wallet;\r\n        uint256 requestId;\r\n    }\r\n\r\n    mapping(address => address[]) private _usersWallets;\r\n    mapping(address => Invitation[]) private _invitations;\r\n\r\n    function userWallets() public view returns (address[] memory) {\r\n        return _usersWallets[msg.sender];\r\n    }\r\n\r\n    function getInvitationsWallets() public view returns (address[] memory) {\r\n        Invitation[] memory m_msgSenderInvitations = _invitations[msg.sender];\r\n        address[] memory _wallets = new address[](\r\n            m_msgSenderInvitations.length\r\n        );\r\n        for (uint256 i = 0; i < m_msgSenderInvitations.length; i++)\r\n            _wallets[i] = m_msgSenderInvitations[i].wallet;\r\n        return _wallets;\r\n    }\r\n\r\n    function getInvitationsRequestsIDs()\r\n        public\r\n        view\r\n        returns (uint256[] memory)\r\n    {\r\n        Invitation[] memory m_msgSenderInvitations = _invitations[msg.sender];\r\n        uint256[] memory _requestsIDs = new uint256[](\r\n            m_msgSenderInvitations.length\r\n        );\r\n        for (uint256 i = 0; i < m_msgSenderInvitations.length; i++)\r\n            _requestsIDs[i] = m_msgSenderInvitations[i].requestId;\r\n        return _requestsIDs;\r\n    }\r\n\r\n    function sendUserInvitation(address _user, uint256 _requestId) external {\r\n        if (SharedWallet(msg.sender).isMember(_user)) revert UserIsMember();\r\n\r\n        _invitations[_user].push(\r\n            Invitation({wallet: msg.sender, requestId: _requestId})\r\n        );\r\n    }\r\n\r\n    function removeUserInvitation(address _user) external {\r\n        Invitation[] memory m_userInvitations = _invitations[_user];\r\n        for (uint256 i = 0; i < m_userInvitations.length; i++)\r\n            if (m_userInvitations[i].wallet == msg.sender) {\r\n                _invitations[_user][i] = m_userInvitations[\r\n                    m_userInvitations.length - 1\r\n                ];\r\n                _invitations[_user].pop();\r\n                return;\r\n            }\r\n    }\r\n\r\n    function addWalletToUser(address _newWallet, address _user) external {\r\n        if (!SharedWallet(_newWallet).isMember(_user)) revert UserIsNotMember();\r\n        _usersWallets[_user].push(_newWallet);\r\n    }\r\n\r\n    function removeWalletForUser(address _oldWallet, address _user) external {\r\n        if (SharedWallet(_oldWallet).isMember(_user)) revert UserIsMember();\r\n        address[] memory m_userWallets = _usersWallets[_user];\r\n        for (uint256 i = 0; i < m_userWallets.length; i++)\r\n            if (m_userWallets[i] == _oldWallet) {\r\n                _usersWallets[_user][i] = m_userWallets[\r\n                    _usersWallets[_user].length - 1\r\n                ];\r\n                _usersWallets[_user].pop();\r\n                return;\r\n            }\r\n    }\r\n}\r\n",
  "sourcePath": "C:\\Users\\home\\Documents\\GitHub\\ShareIt\\contracts\\SharedWalletStorage.sol",
  "compiler": {
    "name": "solc",
    "version": "0.8.12+commit.f00d7308.Emscripten.clang"
  },
  "schemaVersion": "3.4.7",
  "updatedAt": "2022-05-22T22:01:21.785Z",
  "devdoc": {
    "kind": "dev",
    "methods": {},
    "version": 1
  },
  "userdoc": {
    "kind": "user",
    "methods": {},
    "version": 1
  }
}