{
  "contractName": "SharedWalletsStorage",
  "abi": [
    {
      "inputs": [],
      "name": "maxWalletsPerUser",
      "outputs": [
        {
          "internalType": "uint8",
          "name": "",
          "type": "uint8"
        }
      ],
      "stateMutability": "view",
      "type": "function"
    },
    {
      "inputs": [
        {
          "internalType": "address",
          "name": "",
          "type": "address"
        },
        {
          "internalType": "uint256",
          "name": "",
          "type": "uint256"
        }
      ],
      "name": "usersWallets",
      "outputs": [
        {
          "internalType": "address",
          "name": "",
          "type": "address"
        }
      ],
      "stateMutability": "view",
      "type": "function"
    },
    {
      "inputs": [
        {
          "internalType": "address",
          "name": "_walletAddress",
          "type": "address"
        },
        {
          "internalType": "address",
          "name": "_user",
          "type": "address"
        }
      ],
      "name": "addWalletToUser",
      "outputs": [],
      "stateMutability": "nonpayable",
      "type": "function"
    },
    {
      "inputs": [
        {
          "internalType": "address",
          "name": "_walletAddress",
          "type": "address"
        },
        {
          "internalType": "address",
          "name": "_user",
          "type": "address"
        }
      ],
      "name": "removeWalletForUser",
      "outputs": [],
      "stateMutability": "nonpayable",
      "type": "function"
    }
  ],
  "bytecode": "0x608060405260086000806101000a81548160ff021916908360ff16021790555034801561002b57600080fd5b5061078d8061003b6000396000f3fe608060405234801561001057600080fd5b5060043610610069576000357c0100000000000000000000000000000000000000000000000000000000900480632bf727671461006e57806351efa3f41461008c5780635c2d4450146100a8578063abfa7969146100d8575b600080fd5b6100766100f4565b60405161008391906104af565b60405180910390f35b6100a660048036038101906100a1919061052d565b610105565b005b6100c260048036038101906100bd91906105a3565b610276565b6040516100cf91906105f2565b60405180910390f35b6100f260048036038101906100ed919061052d565b6102c4565b005b60008054906101000a900460ff1681565b8173ffffffffffffffffffffffffffffffffffffffff163373ffffffffffffffffffffffffffffffffffffffff161461013d57600080fd5b60008054906101000a900460ff1660ff16600160008373ffffffffffffffffffffffffffffffffffffffff1673ffffffffffffffffffffffffffffffffffffffff1681526020019081526020016000208054905011156101d2576040517f08c379a00000000000000000000000000000000000000000000000000000000081526004016101c990610690565b60405180910390fd5b600160008273ffffffffffffffffffffffffffffffffffffffff1673ffffffffffffffffffffffffffffffffffffffff168152602001908152602001600020829080600181540180825580915050600190039060005260206000200160009091909190916101000a81548173ffffffffffffffffffffffffffffffffffffffff021916908373ffffffffffffffffffffffffffffffffffffffff1602179055505050565b6001602052816000526040600020818154811061029257600080fd5b906000526020600020016000915091509054906101000a900473ffffffffffffffffffffffffffffffffffffffff1681565b8173ffffffffffffffffffffffffffffffffffffffff163373ffffffffffffffffffffffffffffffffffffffff16146102fc57600080fd5b60005b600160008373ffffffffffffffffffffffffffffffffffffffff1673ffffffffffffffffffffffffffffffffffffffff1681526020019081526020016000208054905081101561048e578273ffffffffffffffffffffffffffffffffffffffff16600160008473ffffffffffffffffffffffffffffffffffffffff1673ffffffffffffffffffffffffffffffffffffffff16815260200190815260200160002082815481106103b1576103b06106b0565b5b9060005260206000200160009054906101000a900473ffffffffffffffffffffffffffffffffffffffff1673ffffffffffffffffffffffffffffffffffffffff16141561047b57600160008373ffffffffffffffffffffffffffffffffffffffff1673ffffffffffffffffffffffffffffffffffffffff1681526020019081526020016000208181548110610449576104486106b0565b5b9060005260206000200160006101000a81549073ffffffffffffffffffffffffffffffffffffffff021916905561048e565b80806104869061070e565b9150506102ff565b505050565b600060ff82169050919050565b6104a981610493565b82525050565b60006020820190506104c460008301846104a0565b92915050565b600080fd5b600073ffffffffffffffffffffffffffffffffffffffff82169050919050565b60006104fa826104cf565b9050919050565b61050a816104ef565b811461051557600080fd5b50565b60008135905061052781610501565b92915050565b60008060408385031215610544576105436104ca565b5b600061055285828601610518565b925050602061056385828601610518565b9150509250929050565b6000819050919050565b6105808161056d565b811461058b57600080fd5b50565b60008135905061059d81610577565b92915050565b600080604083850312156105ba576105b96104ca565b5b60006105c885828601610518565b92505060206105d98582860161058e565b9150509250929050565b6105ec816104ef565b82525050565b600060208201905061060760008301846105e3565b92915050565b600082825260208201905092915050565b7f412073696e676c6520757365722063616e6e6f7420706172746963697061746560008201527f20696e206d6f7265207468616e20382077616c6c657473210000000000000000602082015250565b600061067a60388361060d565b91506106858261061e565b604082019050919050565b600060208201905081810360008301526106a98161066d565b9050919050565b7f4e487b7100000000000000000000000000000000000000000000000000000000600052603260045260246000fd5b7f4e487b7100000000000000000000000000000000000000000000000000000000600052601160045260246000fd5b60006107198261056d565b91507fffffffffffffffffffffffffffffffffffffffffffffffffffffffffffffffff82141561074c5761074b6106df565b5b60018201905091905056fea2646970667358221220b8386bbe8f0347aa5dd4684d59b88650e87c6e30e7c4fe51909419a0f742a30a64736f6c634300080c0033",
  "immutableReferences": {},
  "source": "//SPDX-License-Identifier: UNLICENSED\r\npragma solidity ^0.8.0;\r\n\r\ncontract SharedWalletsStorage {\r\n    uint8 public maxWalletsPerUser = 8;\r\n    mapping(address => address[]) public usersWallets;\r\n\r\n    function addWalletToUser(address _walletAddress, address _user) external {\r\n        require(msg.sender == _walletAddress);\r\n        require(\r\n            usersWallets[_user].length <= maxWalletsPerUser,\r\n            \"A single user cannot participate in more than 8 wallets!\"\r\n        );\r\n        usersWallets[_user].push(_walletAddress);\r\n    }\r\n\r\n    function removeWalletForUser(address _walletAddress, address _user)\r\n        external\r\n    {\r\n        require(msg.sender == _walletAddress);\r\n        for (uint256 i = 0; i < usersWallets[_user].length; i++)\r\n            if (usersWallets[_user][i] == _walletAddress) {\r\n                delete usersWallets[_user][i];\r\n                break;\r\n            }\r\n    }\r\n}\r\n",
  "sourcePath": "C:\\Users\\Joro\\Documents\\GitHub\\ShareIt\\contracts\\SharedWalletsStorage.sol",
  "compiler": {
    "name": "solc",
    "version": "0.8.12+commit.f00d7308.Emscripten.clang"
  },
  "schemaVersion": "3.4.6",
  "updatedAt": "2022-03-24T11:23:07.504Z",
  "devdoc": {
    "kind": "dev",
    "methods": {},
    "version": 1
  },
  "userdoc": {
    "kind": "user",
    "methods": {},
    "version": 1
  }
}