{
  "contractName": "SharedWalletsStorage",
  "abi": [
    {
      "inputs": [],
      "name": "getUserWallets",
      "outputs": [
        {
          "internalType": "address[]",
          "name": "",
          "type": "address[]"
        }
      ],
      "stateMutability": "view",
      "type": "function"
    },
    {
      "inputs": [
        {
          "internalType": "address",
          "name": "_newWallet",
          "type": "address"
        },
        {
          "internalType": "address",
          "name": "_user",
          "type": "address"
        }
      ],
      "name": "addWalletToUser",
      "outputs": [],
      "stateMutability": "nonpayable",
      "type": "function"
    },
    {
      "inputs": [
        {
          "internalType": "address",
          "name": "_newWallet",
          "type": "address"
        },
        {
          "internalType": "address",
          "name": "_user",
          "type": "address"
        }
      ],
      "name": "removeWalletForUser",
      "outputs": [],
      "stateMutability": "nonpayable",
      "type": "function"
    }
  ],
  "bytecode": "0x608060405260086000806101000a81548160ff021916908360ff16021790555034801561002b57600080fd5b506109368061003b6000396000f3fe608060405234801561001057600080fd5b506004361061005e576000357c01000000000000000000000000000000000000000000000000000000009004806351efa3f41461006357806368e170a81461007f578063abfa79691461009d575b600080fd5b61007d600480360381019061007891906105fd565b6100b9565b005b610087610295565b60405161009491906106fb565b60405180910390f35b6100b760048036038101906100b291906105fd565b610360565b005b81818173ffffffffffffffffffffffffffffffffffffffff1663a230c524826040518263ffffffff167c0100000000000000000000000000000000000000000000000000000000028152600401610110919061072c565b602060405180830381865afa15801561012d573d6000803e3d6000fd5b505050506040513d601f19601f82011682018060405250810190610151919061077f565b61015a57600080fd5b60008054906101000a900460ff1660ff16600160008573ffffffffffffffffffffffffffffffffffffffff1673ffffffffffffffffffffffffffffffffffffffff1681526020019081526020016000208054905011156101ef576040517f08c379a00000000000000000000000000000000000000000000000000000000081526004016101e69061082f565b60405180910390fd5b600160008473ffffffffffffffffffffffffffffffffffffffff1673ffffffffffffffffffffffffffffffffffffffff168152602001908152602001600020849080600181540180825580915050600190039060005260206000200160009091909190916101000a81548173ffffffffffffffffffffffffffffffffffffffff021916908373ffffffffffffffffffffffffffffffffffffffff16021790555050505050565b6060600160003373ffffffffffffffffffffffffffffffffffffffff1673ffffffffffffffffffffffffffffffffffffffff16815260200190815260200160002080548060200260200160405190810160405280929190818152602001828054801561035657602002820191906000526020600020905b8160009054906101000a900473ffffffffffffffffffffffffffffffffffffffff1673ffffffffffffffffffffffffffffffffffffffff168152602001906001019080831161030c575b5050505050905090565b81818173ffffffffffffffffffffffffffffffffffffffff1663a230c524826040518263ffffffff167c01000000000000000000000000000000000000000000000000000000000281526004016103b7919061072c565b602060405180830381865afa1580156103d4573d6000803e3d6000fd5b505050506040513d601f19601f820116820180604052508101906103f8919061077f565b61040157600080fd5b60005b600160008573ffffffffffffffffffffffffffffffffffffffff1673ffffffffffffffffffffffffffffffffffffffff16815260200190815260200160002080549050811015610593578473ffffffffffffffffffffffffffffffffffffffff16600160008673ffffffffffffffffffffffffffffffffffffffff1673ffffffffffffffffffffffffffffffffffffffff16815260200190815260200160002082815481106104b6576104b561084f565b5b9060005260206000200160009054906101000a900473ffffffffffffffffffffffffffffffffffffffff1673ffffffffffffffffffffffffffffffffffffffff16141561058057600160008573ffffffffffffffffffffffffffffffffffffffff1673ffffffffffffffffffffffffffffffffffffffff168152602001908152602001600020818154811061054e5761054d61084f565b5b9060005260206000200160006101000a81549073ffffffffffffffffffffffffffffffffffffffff0219169055610593565b808061058b906108b7565b915050610404565b5050505050565b600080fd5b600073ffffffffffffffffffffffffffffffffffffffff82169050919050565b60006105ca8261059f565b9050919050565b6105da816105bf565b81146105e557600080fd5b50565b6000813590506105f7816105d1565b92915050565b600080604083850312156106145761061361059a565b5b6000610622858286016105e8565b9250506020610633858286016105e8565b9150509250929050565b600081519050919050565b600082825260208201905092915050565b6000819050602082019050919050565b610672816105bf565b82525050565b60006106848383610669565b60208301905092915050565b6000602082019050919050565b60006106a88261063d565b6106b28185610648565b93506106bd83610659565b8060005b838110156106ee5781516106d58882610678565b97506106e083610690565b9250506001810190506106c1565b5085935050505092915050565b60006020820190508181036000830152610715818461069d565b905092915050565b610726816105bf565b82525050565b6000602082019050610741600083018461071d565b92915050565b60008115159050919050565b61075c81610747565b811461076757600080fd5b50565b60008151905061077981610753565b92915050565b6000602082840312156107955761079461059a565b5b60006107a38482850161076a565b91505092915050565b600082825260208201905092915050565b7f412073696e676c6520757365722063616e6e6f7420706172746963697061746560008201527f20696e206d6f7265207468616e20382077616c6c657473210000000000000000602082015250565b60006108196038836107ac565b9150610824826107bd565b604082019050919050565b600060208201905081810360008301526108488161080c565b9050919050565b7f4e487b7100000000000000000000000000000000000000000000000000000000600052603260045260246000fd5b7f4e487b7100000000000000000000000000000000000000000000000000000000600052601160045260246000fd5b6000819050919050565b60006108c2826108ad565b91507fffffffffffffffffffffffffffffffffffffffffffffffffffffffffffffffff8214156108f5576108f461087e565b5b60018201905091905056fea2646970667358221220c391475eb1f3a43cca15a02faab8da36701bbc0a3169e6e1b2b95771f2b2f60e64736f6c634300080c0033",
  "immutableReferences": {},
  "source": "//SPDX-License-Identifier: MIT\r\npragma solidity ^0.8.0;\r\n\r\nimport \"./SharedWallet.sol\";\r\n\r\ncontract SharedWalletsStorage {\r\n    uint8 private maxWalletsPerUser = 8;\r\n    mapping(address => address[]) private usersWallets;\r\n\r\n    modifier onlyWalletMember(address _newWallet, address _user) {\r\n        require(SharedWallet(_newWallet).isMember(_user));\r\n        _;\r\n    }\r\n\r\n    function getUserWallets() public view returns (address[] memory) {\r\n        return usersWallets[msg.sender];\r\n    }\r\n\r\n    function addWalletToUser(address _newWallet, address _user)\r\n        external\r\n        onlyWalletMember(_newWallet, _user)\r\n    {\r\n        require(\r\n            usersWallets[_user].length <= maxWalletsPerUser,\r\n            \"A single user cannot participate in more than 8 wallets!\"\r\n        );\r\n        usersWallets[_user].push(_newWallet);\r\n    }\r\n\r\n    function removeWalletForUser(address _newWallet, address _user)\r\n        external\r\n        onlyWalletMember(_newWallet, _user)\r\n    {\r\n        for (uint256 i = 0; i < usersWallets[_user].length; i++)\r\n            if (usersWallets[_user][i] == _newWallet) {\r\n                delete usersWallets[_user][i];\r\n                break;\r\n            }\r\n    }\r\n}\r\n",
  "sourcePath": "C:\\Users\\Joro\\Documents\\GitHub\\ShareIt\\contracts\\SharedWalletsStorage.sol",
  "compiler": {
    "name": "solc",
    "version": "0.8.12+commit.f00d7308.Emscripten.clang"
  },
  "schemaVersion": "3.4.6",
  "updatedAt": "2022-03-24T23:41:17.273Z",
  "devdoc": {
    "kind": "dev",
    "methods": {},
    "version": 1
  },
  "userdoc": {
    "kind": "user",
    "methods": {},
    "version": 1
  }
}