{
  "contractName": "Voting",
  "abi": [
    {
      "inputs": [
        {
          "internalType": "uint256",
          "name": "",
          "type": "uint256"
        }
      ],
      "name": "requests",
      "outputs": [
        {
          "internalType": "address",
          "name": "proposer",
          "type": "address"
        },
        {
          "internalType": "enum Voting.RequestTypes",
          "name": "requestType",
          "type": "uint8"
        },
        {
          "internalType": "bytes20",
          "name": "data",
          "type": "bytes20"
        },
        {
          "internalType": "uint256",
          "name": "proVotersCount",
          "type": "uint256"
        },
        {
          "internalType": "bool",
          "name": "approved",
          "type": "bool"
        }
      ],
      "stateMutability": "view",
      "type": "function"
    },
    {
      "inputs": [],
      "name": "requestsCounter",
      "outputs": [
        {
          "internalType": "uint256",
          "name": "",
          "type": "uint256"
        }
      ],
      "stateMutability": "view",
      "type": "function"
    },
    {
      "inputs": [
        {
          "internalType": "enum Voting.RequestTypes",
          "name": "_requestType",
          "type": "uint8"
        },
        {
          "internalType": "bytes20",
          "name": "_data",
          "type": "bytes20"
        }
      ],
      "name": "createRequest",
      "outputs": [
        {
          "internalType": "uint256",
          "name": "",
          "type": "uint256"
        }
      ],
      "stateMutability": "nonpayable",
      "type": "function"
    },
    {
      "inputs": [
        {
          "internalType": "uint256",
          "name": "_requestID",
          "type": "uint256"
        }
      ],
      "name": "acceptRequest",
      "outputs": [],
      "stateMutability": "nonpayable",
      "type": "function"
    },
    {
      "inputs": [
        {
          "internalType": "uint256",
          "name": "_requestID",
          "type": "uint256"
        }
      ],
      "name": "tryApproveRequest",
      "outputs": [],
      "stateMutability": "nonpayable",
      "type": "function"
    }
  ],
  "bytecode": "0x608060405234801561001057600080fd5b5061088d806100206000396000f3fe608060405234801561001057600080fd5b5060043610610074576000357c0100000000000000000000000000000000000000000000000000000000900480634ba1f09814610079578063663c226914610095578063754bea3b146100b357806381d12c58146100e3578063bbe37f1e14610117575b600080fd5b610093600480360381019061008e91906104ad565b610133565b005b61009d610273565b6040516100aa91906104e9565b60405180910390f35b6100cd60048036038101906100c89190610581565b610279565b6040516100da91906104e9565b60405180910390f35b6100fd60048036038101906100f891906104ad565b6103e6565b60405161010e9594939291906106a3565b60405180910390f35b610131600480360381019061012c91906104ad565b61046f565b005b6000151560008083815260200190815260200160002060030160003373ffffffffffffffffffffffffffffffffffffffff1673ffffffffffffffffffffffffffffffffffffffff16815260200190815260200160002060009054906101000a900460ff161515146101d9576040517f08c379a00000000000000000000000000000000000000000000000000000000081526004016101d090610753565b60405180910390fd5b6001151560008083815260200190815260200160002060030160003373ffffffffffffffffffffffffffffffffffffffff1673ffffffffffffffffffffffffffffffffffffffff16815260200190815260200160002060009054906101000a905050506000808281526020019081526020016000206002016000815480929190610262906107a2565b91905055506102708161046f565b50565b60015481565b600060028360028111156102905761028f610602565b5b11156102d1576040517f08c379a00000000000000000000000000000000000000000000000000000000081526004016102c890610837565b60405180910390fd5b600080600060015481526020019081526020016000209050338160000160006101000a81548173ffffffffffffffffffffffffffffffffffffffff021916908373ffffffffffffffffffffffffffffffffffffffff160217905550838160000160146101000a81548160ff0219169083600281111561035357610352610602565b5b0217905550828160010160006101000a81548173ffffffffffffffffffffffffffffffffffffffff02191690836c01000000000000000000000000900402179055506000816002018190555060008160040160006101000a81548160ff02191690831515021790555060006001549050600160008154809291906103d6906107a2565b9190505550809250505092915050565b60006020528060005260406000206000915090508060000160009054906101000a900473ffffffffffffffffffffffffffffffffffffffff16908060000160149054906101000a900460ff16908060010160009054906101000a90046c0100000000000000000000000002908060020154908060040160009054906101000a900460ff16905085565b50565b600080fd5b6000819050919050565b61048a81610477565b811461049557600080fd5b50565b6000813590506104a781610481565b92915050565b6000602082840312156104c3576104c2610472565b5b60006104d184828501610498565b91505092915050565b6104e381610477565b82525050565b60006020820190506104fe60008301846104da565b92915050565b6003811061051157600080fd5b50565b60008135905061052381610504565b92915050565b60007fffffffffffffffffffffffffffffffffffffffff00000000000000000000000082169050919050565b61055e81610529565b811461056957600080fd5b50565b60008135905061057b81610555565b92915050565b6000806040838503121561059857610597610472565b5b60006105a685828601610514565b92505060206105b78582860161056c565b9150509250929050565b600073ffffffffffffffffffffffffffffffffffffffff82169050919050565b60006105ec826105c1565b9050919050565b6105fc816105e1565b82525050565b7f4e487b7100000000000000000000000000000000000000000000000000000000600052602160045260246000fd5b6003811061064257610641610602565b5b50565b600081905061065382610631565b919050565b600061066382610645565b9050919050565b61067381610658565b82525050565b61068281610529565b82525050565b60008115159050919050565b61069d81610688565b82525050565b600060a0820190506106b860008301886105f3565b6106c5602083018761066a565b6106d26040830186610679565b6106df60608301856104da565b6106ec6080830184610694565b9695505050505050565b600082825260208201905092915050565b7f416c726561647920766f74656420746f20746869732072657175657374210000600082015250565b600061073d601e836106f6565b915061074882610707565b602082019050919050565b6000602082019050818103600083015261076c81610730565b9050919050565b7f4e487b7100000000000000000000000000000000000000000000000000000000600052601160045260246000fd5b60006107ad82610477565b91507fffffffffffffffffffffffffffffffffffffffffffffffffffffffffffffffff8214156107e0576107df610773565b5b600182019050919050565b7f496e76616c696420726571756573742074797065210000000000000000000000600082015250565b60006108216015836106f6565b915061082c826107eb565b602082019050919050565b6000602082019050818103600083015261085081610814565b905091905056fea264697066735822122070e5d8d1890b758cdf3a66f4489171241a3ec2b14036ca5aaa7073dd0ed44ec364736f6c634300080c0033",
  "immutableReferences": {},
  "source": "//SPDX-License-Identifier: UNLICENSED\r\npragma solidity ^0.8.0;\r\n\r\nimport \"./SharedWallet.sol\";\r\n\r\ncontract Voting {\r\n    enum RequestTypes {\r\n        AddMember,\r\n        RemoveMember,\r\n        Withdraw\r\n    }\r\n\r\n    struct Request {\r\n        address proposer;\r\n        RequestTypes requestType;\r\n        bytes20 data; // either a member address or an amount of wei to withdraw (bytes20 can be casted to both uint256 and address types)\r\n        uint256 proVotersCount;\r\n        mapping(address => bool) voters;\r\n        bool approved;\r\n    }\r\n\r\n    mapping(uint256 => Request) public requests;\r\n\r\n    uint256 public requestsCounter;\r\n\r\n    function createRequest(RequestTypes _requestType, bytes20 _data)\r\n        external\r\n        returns (uint256)\r\n    {\r\n        require(uint256(_requestType) <= 2, \"Invalid request type!\");\r\n\r\n        Request storage request = requests[requestsCounter];\r\n\r\n        request.proposer = msg.sender;\r\n        request.requestType = _requestType;\r\n        request.data = _data;\r\n        request.proVotersCount = 0;\r\n        request.approved = false;\r\n\r\n        uint256 requestID = requestsCounter;\r\n        requestsCounter++;\r\n\r\n        return requestID;\r\n    }\r\n\r\n    function acceptRequest(uint256 _requestID) external {\r\n        require(\r\n            requests[_requestID].voters[msg.sender] == false,\r\n            \"Already voted to this request!\"\r\n        );\r\n        requests[_requestID].voters[msg.sender] == true;\r\n        requests[_requestID].proVotersCount++;\r\n        tryApproveRequest(_requestID);\r\n    }\r\n\r\n    function tryApproveRequest(uint256 _requestID) public virtual {\r\n        // uint256 goal = 1;  // <- change\r\n        // if (requests[_requestID].votersCount == goal)\r\n        //     requests[_requestID].approved = true;\r\n    }\r\n}\r\n",
  "sourcePath": "C:\\Users\\Joro\\Documents\\GitHub\\ShareIt\\contracts\\Voting.sol",
  "compiler": {
    "name": "solc",
    "version": "0.8.12+commit.f00d7308.Emscripten.clang"
  },
  "schemaVersion": "3.4.6",
  "updatedAt": "2022-03-23T18:10:35.990Z",
  "devdoc": {
    "kind": "dev",
    "methods": {},
    "version": 1
  },
  "userdoc": {
    "kind": "user",
    "methods": {},
    "version": 1
  }
}